:020000040800F2
:10000000402800209D010008C72C0008072A00088E
:10001000C52C0008BD100008853B0008000000004A
:1000200000000000000000000000000005010008C2
:10003000F7100008000000004901000861360008C0
:10004000B7010008B7010008B7010008B7010008B0
:10005000B7010008B7010008B7010008B7010008A0
:10006000B7010008B7010008B7010008B701000890
:10007000B7010008B7010008B7010008B701000880
:10008000C1100008B7010008B7010008B701000857
:10009000B7010008B7010008B7010008B701000860
:1000A000B7010008D1360008B7010008B701000801
:1000B000B7010008B7010008B7010008B701000840
:1000C000B7010008B7010008B7010008B701000830
:1000D000B7010008B70100083D3B0008B701000860
:1000E000B7010008B7010008B7010008DFF810D019
:1000F00000F092FD004800474D4D0008AFF300802E
:1001000040280020224B19680868B0E8F00F80F3FF
:100110000988BFF36F8F4FF0000080F311884EF015
:100120000D0E70470000000006480068006880F36C
:10013000088862B661B6BFF34F8FBFF36F8F00DFE1
:1001400000BF00BF08ED00E0EFF30980BFF36F8F41
:100150000F4B1A6820E9F00F106008B54FF05000FF
:1001600080F31188BFF34F8FBFF36F8F06F0CCF889
:100170004FF0000080F31188BDE808401968086856
:10018000B0E8F00F80F30988BFF36F8F704700BFAE
:1001900020000020EFF305807047000006488047EC
:1001A00006480047FEE7FEE7FEE7FEE7FEE7FEE75C
:1001B000FEE7FEE7FEE7FEE7CF360008ED000008A9
:1001C000202A04DB203A21FA02F00021704721FAAC
:1001D00002F3D040C2F12002914008431946704713
:1001E00040EA01039B0703D009E008C9121F08C0B9
:1001F000042AFAD203E011F8013B00F8013B521E39
:10020000F9D27047D2B201E000F8012B491EFBD2AF
:1002100070470022F6E710B513460A460446194611
:10022000FFF7F0FF204610BD10B5044604E00B7840
:1002300000F8013B03B1491C521EF8D2204610BD04
:10024000421C10F8011B0029FBD1801A704730B501
:1002500005460020034600E05B1C934205D2EC5C9F
:10026000C85C201A01D1002CF6D130BD70B50F4DFD
:1002700000B92868002412E00A4602E09E4203D03A
:10028000521C1378002BF9D1DAB2224305D02BB1DE
:1002900024B1002100F8011B04E00446401C06784C
:1002A000002EE9D12860204670BD0000AC0000207F
:1002B000F0B480EA0102D40F4200B2EB410F02D247
:1002C0000246084611464A0042D0C30DDDB2C1F3D2
:1002D000C752AD1A202D35DAC1F3160141F40002E0
:1002E00004B15242C5F1200602FA06F12A41104437
:1002F000B3EBD05F23D0C4B1012DA0EBC35009DC18
:10030000F0BC4FF0004202EAC352DBB200F500003D
:1003100000F06FBB400000F1807000EBC350A0F113
:10032000807040EAD170490009E0490841EAC07193
:10033000A0EBC35000F50000400800EBC350F0BC38
:1003400000F04EBB6142012202EB4101001BF6E7C7
:10035000F0BC704781F00041AAE780F00040A7E7B9
:1003600080EA010210B502F00043400022D04A00AA
:100370001FD0010E01EB1261C0F35600C2F356020A
:1003800040F4000042F40002A0FB022000047F3988
:10039000140400D0401C50EA124001D44000491E11
:1003A000C2B20C0604EBD010401C4008802A02D0D8
:1003B00003E0002010BD20F00100002900DA002039
:1003C000184310BD30B480EA010202F0004530F05D
:1003D000004221F0004013D090B1C30DD40DC2F300
:1003E0001601C0F31600E41A41F4000140F40002C3
:1003F0007D34914201D3641C00E04900002C02DAF4
:1004000030BC002070474FF400000023914201D31C
:10041000891A034340084FEA4101F7D151B1914293
:1004200002D14FF0004105E002D24FF0010101E09E
:100430006FF0010103EBC450284430BC00F0D0BA87
:100440002DE9FE4F804681EA0300C00F0C46009064
:1004500021F0004123F00045B8EB0200A94105D28C
:100460004046214690461C460B46024623F000407B
:10047000104347D0270DC7F30A00C3F30A51029077
:10048000401A019040286BDAC3F3130040F4801B3C
:100490000098924620B10023D2EB030A63EB0B0BCA
:1004A00001985946C0F14002504600F02AFA06462B
:1004B0000D4650465946019A00F032FA10EB0800FA
:1004C0006141002487EA115284EAE7731A4340D05D
:1004D000009A62B3019A012A4FEA075215DC001B09
:1004E00061EB02014FF0004202EA0752CDE90042FF
:1004F000001C41F5801132462B4600F0D5FA03B0BE
:10050000BDE8F08F40462146F9E7001B61EB020190
:10051000001C41F5801300185B412018A2F500175C
:1005200047EB030140EAD570B6196D4111E06D0843
:100530004FEA360645EAC0754FEA0752001B61EBE9
:100540000201001C41F5801149084FEA30000019F2
:10055000514132462B4603B0BDE8F04F00F095BA4A
:100560000098012240000023D0EB020263EBE0730D
:10057000009821464FEAE074B8EB000061EB0401FB
:10058000E9E783F000435BE781F0004158E72DE99C
:10059000FE4F81EA030404F0004421F0004100947E
:1005A0004FF0000B23F0004350EA01045ED052EA02
:1005B00003045BD0C3F30A54C1F30A552C44A4F2DC
:1005C000F3340194A0FB0254C1F3130141F48011F0
:1005D000C3F3130343F4801301FB024400FB034EF7
:1005E000840A970A44EA815447EA8357A4FB0768C0
:1005F00002958D0A05FB07854FEA932C04FB0C54EA
:100600002705029D4FEA065847EA1637B5EB08055D
:100610006EEB070C870E920E47EA811742EA8312AF
:10062000A7FB0201B6EB0B0164EB00042B0D43EAC0
:100630000C335E1844EB1C50DA465146E7FB0201CE
:10064000C5F313044FEA0B3343EA14534FEA043261
:10065000019C43EA0603A4F10C040294009CCDE93A
:1006600000B400F021FA03B0BDE8F08F002001468D
:10067000F9E72DE9F04D81EA030404F0004B21F085
:10068000004514464FF0000A23F0004150EA0502ED
:1006900020D054EA01021DD0C5F30A570246C5F323
:1006A0001303C1F31300C1F30A5640F4801543F459
:1006B0008013A7EB0608101BD64608F2FD3873EB33
:1006C000050002D308F1010801E092185B41B8F17E
:1006D000000F03DA00200146BDE8F08D00204FF442
:1006E0008011064684460EE0171B73EB050705D301
:1006F000121B63EB050306434CEA010C49084FEA61
:10070000300092185B4150EA0107EDD152EA030034
:1007100012D082EA040083EA0501084305D0101BC9
:10072000AB4106D20122002306E000224FF0004335
:1007300002E06FF0010253101AEB06004CEB085177
:1007400010EB0A0041EB0B01BDE8F04D00F09DB944
:10075000C10F80EAE0700844CA079623002100F028
:1007600048B90EB5C10F80EAE0700844CA070021FD
:1007700040F233438DE80E000A460B4600F094F930
:1007800003B000BD00F0004220F00040C10DC0F3F6
:10079000160040F400007F2901DA002070479629F6
:1007A00003DCC1F19601C84001E096398840002A77
:1007B000F4D04042704700F0004230F000400AD0D0
:1007C000C10D01F56071C0F3160042EA0151C20883
:1007D00040071143704700200146704730B5041EA2
:1007E00071F1000404DB4FF00044404264EB01016E
:1007F000141E73F1000405DB1C464FF00043524207
:1008000063EB04038B4208BF824230BD30B5041E47
:1008100071F1000404DB4FF00044404264EB01013D
:10082000141E73F1000405DB1C464FF000435242D6
:1008300063EB0403994208BF904230BD01F00043CE
:1008400030B421F0004150EA010206D00A0DA2F5B1
:100850006072C1F31301002A02DC30BC0020704733
:10086000440F44EAC104C100E01830BC00EBC250A0
:1008700000F0B6B830B50B46014600202022012416
:1008800009E021FA02F59D4205D303FA02F5491B5E
:1008900004FA02F52844151EA2F10102F1DC30BD74
:1008A0002DE9F05F0546002092469B4688460646A5
:1008B000814640241BE02846414647462246FFF732
:1008C0007FFC53465A46C01A914110D31146184630
:1008D000224600F016F82D1A67EB01084F46224613
:1008E0000120002100F00DF817EB00094E41201EF9
:1008F000A4F10104DFDC484631462A464346BDE800
:10090000F09F202A04DB203A00FA02F10020704711
:100910009140C2F1200320FA03F31943904070473D
:10092000202A06DBCB17203A41FA02F043EAE073B3
:1009300006E041FA02F3D040C2F1200291400843A0
:10094000194670470FB4002300B589B00CA9009177
:100950000B996FF00042CB601E4B06931E4B079322
:100960000423CDE901321D4A089202466B4600205D
:1009700000F0FEF909B05DF814FB70B586B00646CC
:100980004FF0FF300091CDE90101002015460C46E3
:1009900004903246694604A8FFF7D4FF0246049843
:1009A000211825B108B1084600E0204628600498C7
:1009B00000280DD0002A02DD0098884208D0081BCC
:1009C0000094CDE901043246694604A8FFF7BAFF56
:1009D00006B070BDA90F0008C70F00083D0C000845
:1009E0000029A8BF7047401C490008BF20F0010043
:1009F000704710B4B0FA80FC00FA0CF050EA010421
:100A000004BF10BC704749B1CCF1200421FA04F4B2
:100A100011FA0CF118BF012121430843A3EB0C018B
:100A2000CB1D4FEA00614FEA102042BF002010BCEE
:100A3000704700EBC35010440029A4BF10BC70479E
:100A4000401C490008BF20F0010010BC704710B5E1
:100A500041000CD0C0F3C751962908DC7E2909DC7F
:100A600006DB410204D000F0004040F07E5010BD93
:100A7000002010BDC1F19604C4F1200100FA01F17B
:100A8000E040FFF7ADFFA04010BD10B5141E73F19C
:100A9000000408DA401C41F1000192185B411A433E
:100AA00001D120F0010010BD2DE9F04D92469B468A
:100AB00011B1B1FA81F202E0B0FA80F22032904630
:100AC000FFF71FFF04460F4640EA0A0041EA0B0108
:100AD00053465A46084313D0114653EA010019D031
:100AE000C8F140025046FFF76BFB05460E465046E4
:100AF00059464246FFF705FF084305D0012004E0B0
:100B000020463946BDE8F08D0020054346EAE076F0
:100B10002C4337430A986305E40AA0EB080000223F
:100B2000FD0A44EA47540A3002D500200146E9E7AD
:100B3000010510196941DDE9084500196941BDE861
:100B4000F04DA2E72DE9F04D00231A461B1A8A4109
:100B500003DB00200146BDE8F08DC1F30A52C1F36A
:100B6000130141F480154FF0000BD10702D100189A
:100B70006D41521E0027044640F2FF11384601EB3A
:100B8000620A3E468046024600204FF48011FFF77D
:100B900017FBC2197141BB1846EB0100B4EB030C03
:100BA00075EB000C04D3E41A65EB000517460E46FE
:100BB000241908F101006D4180463428E3DDF9195C
:100BC00046EB0600091BA84103D24FF0FF32134643
:100BD00001E0002213461BEB070046EB0A51BDE87B
:100BE000F04DFFF752BFC1F30A52C1F3130140F2B7
:100BF000FF3341F480119A4202DA00200146704727
:100C000040F233439A42A2F2334202DC5242FFF7EF
:100C1000D7BAFFF776BE0000064C074D06E0E06845
:100C200040F0010394E8070098471034AC42F6D333
:100C3000FFF760FA347A0008547A0008C0B24FF423
:100C4000F05100F0F9B900002DE9FF4F087883B0AA
:100C50009946FF2805D0491C2D2804D000240020E7
:100C600008E000200BE00124F9E700EB800003EB33
:100C70004000491C0B78FF2BF7D104B14042002300
:100C80000293147819461D462D2C01D02B2C04D12B
:100C9000521C2D2C13D000240294AA461478FF2C49
:100CA0000FD00A25A3FB057801FB05814FF0000C4E
:100CB00003FB0C11521CE3194AEB0101EEE701247E
:100CC000EAE7814453EA010002D019F5C87F06DA49
:100CD00003980021C0E9001107B0BDE8F08F00259E
:100CE000AE4E2F46DFF8B882184600F0B9F9CDE9CC
:100CF0000001B9F1000002DAC9F1000400E0044685
:100D00000023A74A1AEB030B42EB045A12E0E00758
:100D100007D02A46334638464146FFF738FC074697
:100D200088462A46334610461946FFF730FC0546EA
:100D30000E466410002CEAD1DDE90001B9F1000F84
:100D40005A46534606DAFFF794FC3A464346FFF705
:100D500090FC05E0FFF71BFC3A464346FFF717FC03
:100D6000029A0AB181F00041039AC2E90001B3E797
:100D70002DE9FF4F1F468DB0D7E901464FF0FF38F0
:100D80002E2045464FF000090B90B9696D1C0E9856
:100D90008847396A824688470028F6D1BAF1FF3F72
:100DA0000AD024F4D064002E11DDBAF12B0F08D044
:100DB000BAF12D0F0BD102E0404611B08DE744F49B
:100DC0008064B9696D1C0E9888478246761E694614
:100DD000600501D52D2000E02B208DF8000001F1E9
:100DE000010B0DF1200809E0B9696D1C0E988847C8
:100DF00082460F9844F40074761E0560002E02DDD2
:100E0000BAF1300FF0D00B998A453ED144F08004FE
:100E100006E00F99681CA9F1010944F40074086008
:100E2000B9696D1C761E0E98884782463028F0D02E
:100E30002BE00B998A4505D1200603D444F08004A9
:100E4000761E18E0504603F003F908B30DF11301C4
:100E5000761E44F400748B4508D2AAF130000BF8DA
:100E6000010B200607D5A9F1010003E0200602D4FA
:100E700009F101008146A00502D50F99681C0860A0
:100E8000B9696D1C0E9888478246002ED1DC53E06C
:100E9000002E51DDBAF1650F02D0BAF1450F4BD1EA
:100EA000A00549D5B9696D1C24F44074761E0E98CE
:100EB00088478246002E0CDD2B2804D0BAF12D0F76
:100EC00007D144F48074B9696D1C0E988847824636
:100ED000761EE00501D52D2100E02B2108F8011B2D
:100EE000CDF82C8021E00DF12901761E44F4007428
:100EF00088450CD2AAF1300010F0FF0088F80000FD
:100F000002D10B99884509D908F1010806E0E005EE
:100F100001D5244801E042F20F708146B9696D1C89
:100F20000E98884782460F980560002E04DD5046D3
:100F300003F08EF80028D6D1F9690E988847FF2073
:100F40008BF8000088F800000020069007904B46C0
:100F50006A4608A906A8FFF777FEA00502D46FF03D
:100F600001002AE714F0240F0AD0E00714D1DDE9CC
:100F700006123868031D3B600068C0E900120BE0F0
:100F8000DDE90601FFF75AFC0146E00704D13868A5
:100F9000021D3A600068016028460EE70000144018
:100FA0000000F03FF1D8FFFF426842B1016811F83C
:100FB000013B23B1521EC0E90012184670470121BF
:100FC000C160881E704742685AB1C368016843B95E
:100FD00083688B4205D0491E521CC0E900120020D4
:100FE00070474FF0FF307047420005D0C0F3C75242
:100FF0005242914201DC0020704700EBC150704723
:1010000070B521F0004303430CD0C1F30A5500240E
:10101000D5EB040564EB0403D617AD1AB34102DB2C
:101020000020014670BD201841EB025170BD96238F
:1010300000221146FFF7DDBC7F2801D9002208E01D
:10104000064A02EB5002C007127800D1120902F0E2
:101050000F0201209040084070470000C879000846
:101060000EB540F2334202920022CDE9002213462F
:10107000FFF71AFD03B000BD70B50E4C05462068A1
:1010800020B9012005F0DCF9206048B16560002D31
:101090000ED02846BDE87040D8220749FFF7A0B817
:1010A000502080F31188BFF34F8FBFF36F8FFEE79F
:1010B00070BD0000A400002030780008FEE70000AA
:1010C000014800F0B5B80000BC02002030B590F82F
:1010D00040500124AC40C56B6C6004686360436899
:1010E000102B036803D099600068C26030BD9A601D
:1010F0000068C16030BD704772B6FEE770B50C463F
:1011000005460F210AA001F07FFC2146284601F088
:101110007BFC0F210AA001F077FC611EB1F5806F06
:1011200005D221462846BDE8704003F0DFBD70BD02
:101130000D0A2D2D2D53544152542D2D2D0D0A00E5
:101140000D0A2D2D2D454E442D2D2D0D0A0000008C
:1011500010B590F821100022022905D004218163E6
:1011600080F82020012010BD01680B6823F00E03D9
:101170000B6001680B6823F001030B6090F84030AE
:10118000C46B012101FA03F3636080F8211080F839
:101190002020104610BD000010B590F8211000244A
:1011A000022903D00421816301243DE001680A681B
:1011B00022F00E020A6001680A6822F001020A6049
:1011C0001A4A0168914201D1012121E0174A1432E3
:1011D000914201D110211BE0144A2832914201D1E1
:1011E000891515E0114A3C32914201D189140FE072
:1011F0000E4A5032914202D14FF4803108E00B4A3E
:101200006432914202D14FF4801101E04FF08071BD
:10121000064A083A5160012180F82110002180F827
:101220002010416B01B18847204610BD08000240E4
:101230002DE9F05FC16B0C6801680B68D0F840C005
:10124000042202FA0CF2494DDFF824A1494E4A4F1C
:10125000DFF828B1DFF828E122422CD05A072AD53E
:101260000A68920603D40A6822F004020A60016840
:10127000A94201D1042219E0514501D1402215E0D3
:10128000B14202D14FF4806210E0B94202D14FF472
:1012900080420BE0594502D14FF4802206E07145AF
:1012A00002D14FF4800201E04FF080622F490839EB
:1012B0004A60C16A3BE04FF0020808FA0CF818EAED
:1012C000040F4FF000094FF0010235D05FEA837838
:1012D00032D50B689B0605D40B6823F00A030B601C
:1012E00080F821200168A94201D1022219E051456C
:1012F00001D1202215E0B14202D14FF4007210E07A
:10130000B94202D14FF400520BE0594502D14FF4DB
:10131000003206E0714502D14FF4001201E04FF0B7
:101320000072124908394A6080F82090816A0029C9
:101330001AD0BDE8F05F0847082505FA0CF52542EC
:1013400012D01B0710D50B6823F00E030B6090F82A
:101350004010C36B02FA01F15960826380F82120CA
:1013600080F82090016BE2E7BDE8F09F08000240A2
:101370001C0002403000024044000240580002407D
:101380006C00024030B528B308C813491422194430
:10139000B1FBF2F18900C1631049816302214177F9
:1013A0001A6843F6F0718A43D0E900142143D0E96A
:1013B00002452C4321430469214344692143846944
:1013C00021431143196000214163012242770177D3
:1013D000084630BD012030BDF8FFFDBF00000240CF
:1013E00070B5044690F82000002501280CD001209B
:1013F00084F8200094F821600020012E06D084F8A3
:1014000020000225284670BD022070BD022684F807
:101410002160A0632068066826F001060660204669
:10142000FFF754FEE06A00282068016802D041F00E
:101430000E0106E021F0040101602068016841F01E
:101440000A0101602068016841F001010160D9E7EB
:1014500070B5044600F00CF90546601C02D0044843
:101460000078044400F004F9401BA042FAD370BD98
:10147000100000202DE9F84FDFF8B8910024A9F101
:10148000040B23460F2709F1040AABF1040EC9E04F
:101490000125A5402A40AA427DD1674ED1F804C05B
:1014A000ACEB0608B44532D014DCBCF1030F3AD0E3
:1014B00009DCBCF1000F2AD0BCF1010F1CD0BCF13B
:1014C000020F31D11DE0BCF1110F17D0BCF1120F8A
:1014D0002AD119E0B8F5881F19D006DCB8F5803F8D
:1014E00015D0B8F5801F1FD111E0B8F5001F0ED040
:1014F000B8F5041F18D10AE0CB6815E0CB681B1DB6
:1015000012E0CB6808330FE0CB680C330CE08B683B
:101510002BB1012B4FF0080303D0456104E00423F5
:1015200002E0056100E00023FF2A01D8064601E041
:1015300000F104064FEA840501D9A5F12005D6F88B
:10154000008007FA05FC28EA0C0803FA05F548EACA
:101550000508C6F800804D68ED0062D5374DAE69CC
:1015600046F00106AE61AD6924F0030605F0010501
:101570000095334D06EB050CDCF80850A607360F36
:1015800007FA06F825EA0805DFF8B880404503D1D8
:101590004FF0000817E044E0DFF8AC80404502D18E
:1015A0004FF001080FE0DFF8A480404502D14FF072
:1015B000020808E0DFF89880404502D14FF00308A8
:1015C00001E04FF0040808FA06F848EA0508CCF8EC
:1015D00008804D68D9F80060ED024D4601D51643EC
:1015E00000E096432E604D68DAF80060AD02554683
:1015F00001D5164300E096432E604D68DBF800608D
:10160000AD035D4601D5164300E096432E604D685C
:10161000DEF80060ED03754601D5164300E0964301
:101620002E60641C0D682A46E5407FF431AFBDE8AA
:10163000F88F000008040140000011100010024063
:101640000000014000080140000C01400010014072
:1016500000140140C26821EA02030A4043EA024141
:10166000016170470AB1016170470904FBE700009E
:10167000014880687047000010000020024881681F
:10168000027811448160704710000020074810B5AF
:10169000016841F010010160032000F0A1F80F2063
:1016A00000F006F800F04AF8002010BD00200240CB
:1016B00030B505461C4887B0816941F400618161FD
:1016C000806906A900F40060009001A800F030F9DC
:1016D00000F05EF91549164AB0FBF1F11548491EB4
:1016E0000260416040F2E7320021C0E903218160DD
:1016F000816100F002FE040012D10E4800F02CFEC1
:1017000004000DD1192000F03DF8102D07D2002261
:101710002946192000F044F80748056000E001243C
:1017200007B0204630BD00000010024040420F00CC
:10173000002C014000070020140000200F4808B5CD
:10174000816941F001018161816901F0010100912C
:10175000C16941F08051C161C069002200F0805030
:1017600000900F21901E00F01BF80548416821F001
:10177000E06141F00071416008BD000000100240CE
:1017800000000140002809DB00F01F020121914008
:101790004009800000F1E020C0F80011704700000F
:1017A000F0B40E4B1B680C46C3F30223C3F10705CC
:1017B000042D00D90425191D072901D2002300E0BA
:1017C000DB1E012606FA05F1491E214099409E4084
:1017D000761E16403143F0BC02F029BA0CED00E051
:1017E000064900F0070208684FF6FF03184040EA78
:1017F0000220034A10430860704700000CED00E02F
:101800000000FA052DE9F0470F46050061D0434E70
:10181000306800F00700B84209D2306820F00700B5
:1018200038433060306800F00700B84251D1286872
:101830003B4C810712D5400703D5606840F4E06057
:1018400060602878000703D5606840F460506060ED
:101850006068A96820F0F000084360602878C0073D
:1018600028D06868012810D02168022810D0890784
:1018700000292EDA616821F0030101436160FFF75E
:10188000F7FE804641F288390DE021688903EFE7D1
:101890008901EDE7FFF7ECFEA0EB0801494502D90D
:1018A0000320BDE8F0876068696800F00C00B0EBC9
:1018B000810FEFD1306800F00700B8420BD93068D3
:1018C00020F0070038433060306800F00700B8426D
:1018D00001D00120E5E72878400705D56068E96870
:1018E00020F4E060084360602878000706D560684F
:1018F000296920F4605040EAC100606000F058F8A7
:101900006168084AC1F30311515CC8400649086088
:1019100006480068FFF7CCFE0020C2E70020024026
:1019200000100240EE6F00081C0000201400002090
:101930000F2202600C4A536803F0030343605368AC
:1019400003F0F0038360536803F4E063C3605268FC
:101950004FF4E06303EAD20202610448006800F039
:10196000070008607047000000100240002002409D
:101970000448054900684968044AC1F30221515CE2
:10198000C84070471C00002000100240FE6F000895
:101990000448054900684968044AC1F3C221515C02
:1019A000C84070471C00002000100240FE6F000875
:1019B0000F4A516801F00C00042803D0082803D016
:1019C0000C4870470C4870470C48C1F38343C90367
:1019D000C05C0AD55168094AC1F34041921E515C6E
:1019E000054A5043B0FBF1F0704705494843704742
:1019F0000010024000127A000024F400DE6F00089C
:101A000000093D002DE9F84F040070D02078C04D4A
:101A1000C00749D06868C0F38100012807D0686812
:101A2000C0F38100022809D16868C00306D5286880
:101A3000800339D560680028E7D035E06068B0F5EC
:101A4000803F0BD010B1B0F5A02F11D0286820F442
:101A500080302860286820F4802002E0286840F464
:101A600080302860606890B1FFF702FE06460AE009
:101A7000286840F480202860F0E700BFFFF7F8FDF9
:101A8000801B642873D828688003F7D50CE0FFF723
:101A9000EFFD064605E000BFFFF7EAFD801B642866
:101AA000F0D828688003F7D420789A4E80074FF04A
:101AB00001094FF0000839D5686810F00C0F07D005
:101AC0006868C0F38100022809D16868C00306D4A1
:101AD0002868800714D52069012808D110E0206902
:101AE000B0B1C6F80090FFF7C3FD074605E00AE174
:101AF000FFF7BEFDC01B0228C4D828688007F7D5B1
:101B00002868616920F0F80040EAC10028600DE013
:101B1000C6F80080FFF7ACFD074604E0FFF7A8FD1C
:101B2000C01B022823D828688007F7D42078000734
:101B30002CD57948A169D9B1C0F80090FFF798FD7C
:101B4000074604E0FFF794FDC01B02280FD8686A1F
:101B50008007F7D571484FF4FA510068B0FBF1F0F7
:101B6000009000BF0098411E0091FAD20EE080E084
:101B7000C0F80080FFF77CFD074604E0FFF778FD22
:101B8000C01B022875D8686A8007F7D42078400700
:101B900060D5E8690027C00008D4E86940F08050AB
:101BA000E861E869012700F0805000905C48016816
:101BB000C90513D40168834641F480710160FFF7C1
:101BC00057FD824606E000BFFFF752FDA0EB0A007A
:101BD00064284ED8DBF80000C005F5D5E068012880
:101BE0000AD008B1052813D0286A20F00100286225
:101BF000286A20F0040002E0286A40F00100286210
:101C0000E06841F2883B98B1FFF732FD82460BE075
:101C1000286A40F004002862EEE700BFFFF728FDC5
:101C2000A0EB0A0159455AD8286A8007F6D50CE07E
:101C3000FFF71EFD824605E0FFF71AFDA0EB0A0143
:101C400059454CD8286A8007F6D41FB1E86920F0BE
:101C50008050E861E06988B36968C1F381010229B5
:101C600044D00228C6F8608004D0FFF701FD044686
:101C700038E034E0FFF7FCFC074604E0FFF7F8FC2F
:101C8000C01B02282BD828688001F7D4206AB0F541
:101C9000803F05D16868A16820F40030084368607F
:101CA000D4E908010843696821F4741108436860A5
:101CB000C6F86090FFF7DCFC044606E025E000BFB4
:101CC000FFF7D6FC001B022809D828688001F7D549
:101CD0001BE000BFFFF7CCFC001B022802D9032049
:101CE000BDE8F88F28688001F4D40EE00128F7D011
:101CF0006868226A00F48031914204D1616A00F47C
:101D00007010884201D00120EAE70020E8E70000D7
:101D10000010024000004242800442421C000020A9
:101D20000070004090F85100704770B5040009D071
:101D3000606A002540B125616561A56294F8510093
:101D400040B10CE0012070BD6068B0F5827FF4D036
:101D5000E561F2E784F85050204600F03FF8022099
:101D600084F851002068016821F040010160A088DA
:101D7000218900F4827001F404410843A18901F42F
:101D800000610843217C01F002010843217D01F03C
:101D900001010843218B01F400710843217F01F008
:101DA0003801084394F8201001F080010843218D88
:101DB00001F40051084321680860A069042101EA88
:101DC0001040216848602068C16921F40061C16148
:101DD0006565012084F85100002070BD30B585B0E4
:101DE00000240094019402940394006814498842EA
:101DF00023D11448816941F480518161816901F4E2
:101E000080510491816941F00401816180690E4D26
:101E100000F004000490A020009002200190032014
:101E2000039069462846FFF725FB4020CDE90004D2
:101E3000694628460294FFF71DFB05B030BD00003F
:101E40000030014000100240000801402DE9F84F29
:101E5000044690F851001D4616460F46012838D119
:101E600060684FF00408B0F5827F01D1A06830B3FC
:101E7000FFF7FEFB8246002F75D0002E73D094F83A
:101E80005000012825D04FF0010984F8509084F8C3
:101E900051804FF00008C4F85480A763A687E687F6
:101EA000C4F83080A4F83480A4F83680C4F84080A8
:101EB000C4F84480A068B0F5004F0CD015E084F859
:101EC0005180009313460A46204600F01CF9BDE8F5
:101ED000F88F0220FBE72068016821F040010160D3
:101EE0002068016821F4804101602068016849068A
:101EF00003D4016841F040010160E068C0B134E002
:101F000020688168C90709D0007BA16B0870A06BAD
:101F1000401CA063E08F401EE08709E0FFF7A8FBAC
:101F2000A0EB0A00A84202D3681C01D032E085B3BE
:101F3000E08F0028E4D11BE020688168C90709D040
:101F4000C068A16B0880A06B801CA063E08F401E5E
:101F5000E0870AE0FFF78CFBA0EB0A00A84203D35E
:101F6000681C02D016E012E09DB1E08F0028E3D19A
:101F700052462946204601F063F908B120206065E9
:101F800084F8519084F85080606D00289FD0012023
:101F90009DE7FFE784F8519084F85080032096E78E
:101FA0002DE9F84F984616468A460446FFF760FB2F
:101FB000814694F8510001281ED1BAF1000F73D068
:101FC000002E71D094F85000012815D0012784F814
:101FD0005070032084F8510000256565C4F830A0D6
:101FE000A686E686A563A587E58765642564A0685F
:101FF000B0F5004F03D00CE00220BDE8F88F206858
:10200000016821F0400101602068016841F48041CD
:10201000016020680168490603D4016841F040016D
:102020000160E068B0F5006F606803D048B3012E2E
:1020300027D047E008B1012E1FD1206B216800880E
:10204000C86006E020688168890709D5216B098886
:10205000C160206B801C2063E08E401EE0860CE097
:10206000FFF706FBA0EB0901414503D3B8F1FF3FA1
:1020700003D035E0B8F1000F32D0E08E0028E1D176
:1020800023E0206B21680078087306E020688168EF
:1020900089070AD5216B09780173206B401C2063E6
:1020A000E08E401EE0860DE02BE0FFF7E1FAA0EBAA
:1020B0000901414503D3B8F1FF3F03D010E0B8F167
:1020C000000F0DD0E08E0028E0D14A464146204660
:1020D00001F0E4F808B120206065A06830B109E0A3
:1020E00084F8517084F85050032086E72068C16856
:1020F0008068009084F8517004F8505F6068002890
:10210000F3D0012079E72DE9FF4F81B01D469346BA
:1021100004464FF001090E9EFFF7AAFA074694F80D
:1021200051006168012806D0B1F5827F3CD1A168D9
:10213000C9BB042838D10298002871D0BBF1000F28
:10214000FBD0002DF9D094F8500001282CD04FF08E
:10215000010A84F850A094F85100042802D0052008
:1021600084F851004FF00008C4F85480C4F838B027
:10217000E587A58702992163E586A586C4F8408096
:10218000C4F8448020680168490603D4016841F01E
:1021900040010160E068B0F5006F606808D0F0B3FE
:1021A000012D49D081E0FFE7022005B0BDE8F08FA6
:1021B00008B1012D39D1206B21680088C860206BDF
:1021C000801C2063E08E401EE0862EE0206881683F
:1021D00089070FD5E18E69B1B9F1010F0AD1216BE1
:1021E0000988C160206B801C2063E08E401EE08661
:1021F0004FF0000920688168C9070CD0E18F51B108
:10220000C068A16B0880A06B801CA063E08F401E9B
:10221000E0874FF00109FFF72BFAC01B01E00BE04C
:1022200067E0B04201D3701C50D1E08E0028CDD1C0
:10223000E08F0028CAD13EE0206B21680078087347
:10224000206B401C2063E08E401EE0862DE020685D
:10225000816889070FD5E18E69B1B9F1010F0AD103
:10226000216B09780173206B401C2063E08E401EB7
:10227000E0864FF0000920688168C9070CD0E18F23
:1022800051B1C068A16B0870A06B401CA063E08FC7
:10229000401EE0874FF00109FFF7EAF9C01BB0428A
:1022A00002D3701C01D011E086B1E08E0028CED19F
:1022B000E08F0028CBD13A463146204600F0EEFFB1
:1022C00050B12020606584F8508012E084F851A05D
:1022D00084F85080032068E7A06818B92068C168B6
:1022E0008068009084F851A084F85080606D0028C8
:1022F000F1D0012059E77047704710B5040003D0B2
:1023000094F83D0010B107E0012010BD002084F8D2
:102310003C00204600F01EF8022084F83D00211DFC
:10232000206801F0DBF9012084F8460084F83E00C3
:1023300084F83F0084F8400084F8410084F84200AB
:1023400084F8430084F8440084F8450084F83D0094
:10235000002010BD7047000090F83D10012901D009
:1023600001207047022180F83D100168CA6842F0E0
:102370000102CA6000680B49884208D0B0F1804F62
:1023800005D00949884202D00849884204D18168B1
:1023900001F00701062903D0016841F00101016045
:1023A00000207047002C014000040040000800405D
:1023B00070472DE9F04104460068C66805694FF092
:1023C0000007A90713D5B10711D5F91E0161012036
:1023D0002077206880698007204602D0FFF7E8FF59
:1023E00004E000F07EF8204600F07CF827776807CC
:1023F00016D5700714D521686FF00400086102201B
:1024000020772068806910F4407F204602D0FFF7D3
:10241000CFFF04E000F065F8204600F063F827776E
:10242000280715D5300713D521686FF0080008611B
:10243000042020772068C0698007204602D0FFF77B
:10244000B7FF04E000F04DF8204600F04BF8277786
:10245000E80616D5F00614D521686FF01000086163
:10246000082020772068C06910F4407F204602D001
:10247000FFF79EFF04E000F034F8204600F032F849
:102480002777E80708D0F00706D021686FF0010031
:102490000861204600F028F8280608D5300606D541
:1024A00021686FF0800008612046FFF724FF68066E
:1024B00008D5700606D521686FF0400008612046F7
:1024C00000F01CF8A8060AD5B00608D521686FF000
:1024D000200008612046BDE8F041FFF70DBFBDE8D0
:1024E000F08170477047000000680349884201D1BD
:1024F000FFF7C4B870470000002C014070477047D8
:1025000010B504460068406994F84110C0F3C0104B
:10251000212911D180B12068143050E8001F21F02A
:10252000800140E80012002AF5D1A06B08B1FEF747
:102530000FFE204601F0B4F92068406994F842107B
:10254000C0F38010222911D180B12068143050E8E6
:10255000001F21F0400140E80012002AF5D1E06B95
:1025600008B1FEF7F5FD204601F073F9002010BD1B
:1025700070470000F8B5016804460868CA684B69EE
:1025800010F00F0F4FF0000559D003F0010602F4D0
:102590009077374365D0C10705D0D10503D5616C6D
:1025A00041F001016164410705D5D90703D0616C91
:1025B00041F002016164810705D5D90703D0616C40
:1025C00041F004016164010707D502F020013143A5
:1025D00003D0616C41F008016164616C00293AD05C
:1025E000800604D5900602D5204601F067F92068E0
:1025F0004069616CC0F38010090700D460B32046C5
:1026000001F027F920684069400621D52068143080
:1026100050E8001F21F0400140E80012002AF5D1E7
:10262000E06BA8B16D494163E06BFEF7B5FD002892
:1026300011D0E06B416B01B0BDE8F0400847830664
:102640000FD593060DD52046BDE8F84001F036B908
:102650002046FFF78DFFF8BD2046FFF789FF656430
:10266000F8BD266B2023012E7CD1C6067AD5D6066E
:1026700078D508684868009048694FF0020640061F
:1026800040D5E16B086840680004000CE8D0A28DDA
:102690008242E5D9E085886920282DD020680C3059
:1026A00050E8001F21F4807140E80012002AF5D1A3
:1026B0002068143050E8001F21F0010140E80012AA
:1026C000002AF5D12068143050E8001F21F04001A5
:1026D00040E80012002AF5D184F8423025632068D2
:1026E0000C3050E8001F21F0100140E80012002AD1
:1026F000F5D1E06BFEF72CFD6663A08DE18D401AED
:1027000081B22AE0A08DE18D401A81B2E08D0028CF
:10271000A6D00029A4D022680C3252E8000F20F481
:10272000907042E80007002FF5D12068143050E87F
:10273000002F22F0010240E80027002FF5D184F895
:102740004230256320680C3050E8002F22F0100240
:1027500040E80023002BF5D166632046FFF7CFFE4B
:10276000F8BDFFE705062BD5150629D594F84100DD
:102770002128F5D1A068B0F5805F01D12069B0B102
:10278000206A411C2162216800784860E08C401E6C
:102790000004000CE084E3D12068C16821F08001CE
:1027A000C1602068C16841F04001C160D8E7206A7B
:1027B0000088C0F308004860206A801C2062E5E7BA
:1027C0004006CDD55006CBD5CA68204622F040023F
:1027D000CA6084F8413000F015F9C1E755370008A8
:1027E00070B5040004D094F84100002510B106E053
:1027F000012070BD84F84050204600F023F82420CA
:1028000084F841002068C16821F40051C16020466D
:1028100001F0B6F82068016921F490410161206857
:10282000416921F02A0141612068C16841F40051E9
:10283000C1606564202084F8410084F8420065632B
:10284000002070BDF0B585B000250095019502957A
:1028500003950646354F0368354902200322354C5F
:10286000BB4221D18B6943F480438B618B6903F4B4
:10287000804304938B6943F004038B61896903925D
:1028800001F0040104910102CDE9001069462046DF
:10289000FEF7F0FD2015CDE90005694620460295BA
:1028A000FEF7E8FD05B0F0BD234FBB42FAD1CB697E
:1028B00043F40033CB61CB6903F4003304938B6999
:1028C00043F004038B618969039201F004010491D0
:1028D0000421CDE9001069462046FEF7CBFD082013
:1028E000CDE90005694620460295FEF7C3FD144C6C
:1028F0001248C4E900058020C4E902502020256167
:10290000C4E90550C001E0612046FEF73BFD08B177
:10291000FEF7F2FBF4630022052126206662FEF733
:102920003FFF2620FEF72EFFBCE7000000380140E5
:102930000010024000080140004400406C000240CA
:10294000BC02002090F84230202B01D002207047BA
:1029500021B11AB10023036301F06EB80120704762
:10296000704770472DE9F843044690F841009846B7
:1029700016460D46202802D00220BDE8F88385B116
:102980007EB100206064212084F84100FEF770FED3
:10299000A6848146E684A0682027B0F5805F02D037
:1029A00003E00120E9E7206910B12E4600250EE082
:1029B00000260CE08021204601F086F8A8B9C6B1B7
:1029C00016F8010B21684860E08C401EE084E08C22
:1029D0004B464FF00002CDF800800028EAD14FF0BE
:1029E0004001204601F070F840B184F841700320A6
:1029F000C3E735F8020BC0F30800E3E784F8417041
:102A00000020BAE77047FEE7002906D00A460146D3
:102A10004FF0FF330148FFF7A5BF7047E4010020E6
:102A200070B500244FEA040500EB84063562F562B8
:102A3000B56300EB4406B58175823583641CE4B24E
:102A4000032CF1D301600381426017A003F018FA50
:102A500080216B2002F084FA0A20FEF7F9FC802125
:102A60006B2002F07DFA0A20FEF7F2FC01216B20B8
:102A700002F076FA00216C2002F072FA002119208F
:102A800002F06EFA18211B2002F06AFA18211C20AD
:102A900002F066FA00211D2002F062FA00211A20DD
:102AA00002F05EFA012070BD4E6F7720496E6974A6
:102AB00069616C697A696E67204D505539323530DD
:102AC000000000002DE9F041044606213B2002F001
:102AD0001BFA174D288840BAA081B4F90C00FDF705
:102AE00040FE144E144F32463B46FDF7C2FDFDF743
:102AF000A5FE2062688840BAE081B4F90E00FDF7B7
:102B000030FE32463B46FDF7B4FDFDF797FE6062AE
:102B1000A88840BA2082B4F91000FDF722FE3246A0
:102B20003B46FDF7A6FDFDF789FEA062BDE8F081FA
:102B30002C2400208FC2F5285C1F6A402DE9F0414B
:102B400004460621432002F0DFF9174D288840BAD9
:102B50006082B4F91200FDF704FE144E144F3246A1
:102B60003B46FDF786FDFDF769FEE062688840BAE6
:102B7000A082B4F91400FDF7F4FD32463B46FDF7A0
:102B800078FDFDF75BFE2063A88840BAE082B4F9C7
:102B90001600FDF7E6FD32463B46FDF76AFDFDF700
:102BA0004DFE6063BDE8F0812C240020FCA9F1D229
:102BB0004D6230402DE9F04786B000242D48009446
:102BC000019402940394816941F01001816181694B
:102BD00001F010010491816941F020018161816956
:102BE00001F020010491816941F004018161816952
:102BF00001F004010491816941F00801816180695B
:102C0000DFF8749000F008004FF4005504900022A3
:102C100029464846FEF726FDDFF860A0AF000022F7
:102C200039465046FEF71EFD4FF4407801224146DA
:102C30005046FEF717FD0095022601250396CDE9C3
:102C4000015469464846FEF715FC00970396CDE906
:102C5000015469465046FEF70DFC0320CDE90240C1
:102C6000CDE9008569465046FEF704FC06B0BDE894
:102C7000F08700000010024000100140000C0140ED
:102C80000F4810B50D4901604FF482714160002179
:102C90008160C1604FF400720161C0E90512382201
:102CA000C0E90721416281620A21C162FFF73DF854
:102CB000002801D072B6FEE710BD000000300140D0
:102CC0008C010020FEE7FEE710B50021074C0A4604
:102CD000002004EBC1131A54401CC0B28028FAD360
:102CE000491CC9B20829F3D310BD00002C200020D4
:102CF000F0B57F282AD83F2928D88418802C02D9FB
:102D0000C0F18002D2B2CC18402C02D9C1F14003EC
:102D1000DBB20126DFF838E087180B4414E001F03D
:102D2000070206FA02F5CA0804460EEBC21207E0D3
:102D300012F804C02CEA050C02F804C0641CE4B2CA
:102D4000A742F5D8491CC9B28B42E8D8F0BD0000B3
:102D50002C20002010B500204FF47A720021491C6D
:102D60009142FCD3401C9042F8D3012000F06EF950
:102D7000BDE81040012000F075B970B5002406468A
:102D8000802525FA04F0304000D0012000F06AF9D7
:102D9000012000F05BF9002000F058F9641CE4B257
:102DA000082CEED3012000F051F9BDE8704000205E
:102DB00000F04CB910B5012000F054F9012000F0EA
:102DC00045F9002000F04EF9BDE81040002000F069
:102DD0003DB910B5002000F045F9012000F036F9AA
:102DE000BDE81040012000F03DB910B5FFF7B2FF7B
:102DF000AE2000F043F9D52000F040F9802000F02B
:102E00003DF9A82000F03AF93F2000F037F9D3202F
:102E100000F034F9002000F031F9402000F02EF9E4
:102E2000A12000F02BF9C82000F028F9DA2000F0EA
:102E300025F9122000F022F9812000F01FF9CF209F
:102E400000F01CF9D92000F019F9F12000F016F972
:102E5000DB2000F013F9302000F010F9A42000F07E
:102E60000DF9A62000F00AF98D2000F007F91420D2
:102E700000F004F9BDE81040AF2000F0FFB80000FA
:102E800010B50FC80D4C84E80F00FFF763FF002159
:102E90004FF47A720020401C9042FCD3491C9142AE
:102EA000F8D3A1890122A068FEF7DCFBA188206885
:102EB000BDE810400122FEF7D5BB00001C20002019
:102EC0000FB470B588B014460D46064610AA684681
:102ED0000F9900F073FE23466A462946304600F0FB
:102EE0008BF808B070BC5DF814FB10B50C4640F0D0
:102EF000B00000F0C3F8102040EA141000F0BEF853
:102F000004F00F00BDE8104000F0B8B808B5082B79
:102F10000DD0062B0AD10A4B02EB420203EB420210
:102F2000C03A00920823062200F00EF808BD054BB7
:102F300003EB0212A2F50072102300920822F3E7BD
:102F4000F6750008067000082DE9FC4F1F4615466F
:102F50000C4606467F284AD83F2C48D8FFF7C8FEC3
:102F6000781EC117002300EB51700121DFF884B0F7
:102F700004F0070901EBE00737E0002031E03118E9
:102F80007F2930D803EBD40ABAF1070F2FD80BEB07
:102F9000CA1E03FB05F21EF801C00192DDF82C8069
:102FA0008044CDF8008012F8082002FA09F24CEAB9
:102FB000020C0AF101020EF801C0072A0FD80EEB2D
:102FC0000108DDE900C198F8802011F80CC0C9F1B2
:102FD00008012CFA01FC42EA0C0288F88020401C0F
:102FE000C0B2A842CBD35B1CDBB29F42C5DCBDE8BC
:102FF000FC8F00002C2000202DE9F0411E461546D4
:1030000088460746002408E004FB0670C0B2334639
:103010004146FFF77BFF641CE4B22A5D002AF3D12E
:10302000BDE8F08170B5084D002400212046FFF76F
:103030005CFF05EBC410802100F031F8641CE4B2A1
:10304000082CF2D370BD00002C2000200449024659
:103050008868002802D08989FEF704BB7047000009
:103060001C200020044902460868002802D08988F4
:10307000FEF7F8BA704700001C20002010B5044687
:10308000FFF798FE7820FFF778FE0020FFF775FE27
:103090002046FFF772FEBDE81040FFF79ABE70B5FC
:1030A0000D460646FFF786FE7820FFF766FE4020B5
:1030B000FFF763FE002404E0305DFFF75EFE641C52
:1030C000E4B2AC42F8D3BDE87040FFF782BE000026
:1030D0003E48BCB00DF1E00C0FC88CE80F003C4C32
:1030E000607880B938A8FFF7CBFEFFF77EFEFFF7C8
:1030F000EBFD0021062337A20846FFF77DFFFFF70F
:1031000091FF01206070364C4FF4FA75284602F0AA
:10311000FFFF0A21206803F0E3FB0128F6D1D82243
:10312000304902A8FDF75CF800231A4619462068CA
:1031300003F02AFA9DF8DF0000283ED0FFF7C4FD17
:103140000298FDF738FBCDE90001002126A30622F5
:103150000846FFF7B5FE0398FDF72DFBCDE900010A
:1031600024A3062209210020FFF7AAFE09A8009047
:1031700023A3062213210020FFF7A2FE0598FDF7E6
:103180001AFBCDE9000120A306221D210020FFF734
:1031900097FE0698FDF70FFBCDE900011EA306225E
:1031A00027210020FFF78CFE089800901DA306221F
:1031B00031210020FFF784FE05E006231BA2092130
:1031C0000020FFF719FFFFF72DFF9FE7CC6F0008E6
:1031D0000000002053797374656D204F4B00000090
:1031E000A4000020B40000204C61743A20252E3544
:1031F000660000004C6F6E3A20252E3566000000F8
:103200005554433A202573005370643A20252E31DB
:1032100066206B74000000004864673A20252E3158
:10322000660000005361743A202564004E4D45410C
:10323000204E6F7420617661696C61626C652E004E
:10324000F8B5044640684FF48273984217D1A068DD
:103250004FF48065B0F5004F01D0A8420FD120682F
:10326000066826F0400606606068984207D1A068AC
:10327000A84204D100920B460022012103E00092F3
:103280000B4600228021204600F022F8002804D0BE
:10329000606D40F0200060650320F8BDF8B515466C
:1032A0000E460B46009204460122022100F010F85F
:1032B00040B93346002280212046009500F008F8EE
:1032C000002804D0606D40F0200060650320F8BD48
:1032D0002DE9F8431E46914688460446089DFEF7B0
:1032E000C7F9401B351AFEF7C3F9074625480068A1
:1032F000C0F3CB30684338E0701C37D0FEF7B8F924
:10330000C01BA84203D215B1009860B32CE020681E
:10331000416821F0E00141606068B0F5827F0BD127
:10332000A068B0F5004F02D0B0F5806F04D12068DE
:10333000016821F040010160A06AB0F5005F09D189
:103340002068016821F4005101602068016841F49F
:1033500000510160012084F85100002084F85000E1
:103360000320BDE8F8830025401E00902068816896
:1033700038EA010004D000214945BDD10020F0E722
:103380000121F9E71C000020012001F017FEFBE7F6
:1033900086B000257A4801F0ADFD7A49087078487A
:1033A000FFF790FB7648FFF7C9FB754CA06A014612
:1033B000FCF7D6FF0646606A0146FCF7D1FF3146AE
:1033C000FCF776FFFDF7F7F902F079FC0646206A74
:1033D0000F4680F00040FDF7EEF932463B4601F023
:1033E000E3FADFF8A4A100225346FDF7D0F8DFF896
:1033F0009C914FF0C04842464B46FDF73AF9FDF725
:103400001DFA0590A06AFDF7D6F906460F46606AD8
:10341000FDF7D1F932463B4601F0C6FA0022534689
:10342000FDF7B5F842464B46FDF723F9FDF706FADE
:10343000584E0490DFF8589131460598FCF790FFFC
:10344000554F3946FCF7BEFF824602F05FFC8046CE
:1034500031460498FCF784FF3946FCF7B3FF8346F6
:1034600001F086FB0646504601F082FB616BFCF7DB
:1034700077FF3146FCF774FF0746584601F078FBAA
:103480000646504602F03CFB216BFCF769FF3146D3
:10349000FCF766FF0646584602F032FBE16AFCF78D
:1034A0005FFF3146FCF704FF3946FCF701FF414658
:1034B000FCF756FF616BFCF750FF4946FCF750FFE5
:1034C0002946FCF7F5FE354E0546B04203DB314692
:1034D000FCF740FF054615F1FF4F03D33146FCF7DB
:1034E000E7FE0546FEF7C4F801462DA002F0C8FC31
:1034F000A06AFDF760F980468946606AFDF75BF9CE
:1035000006460F46206AFDF756F98DE8C0030246CD
:103510000B462FA002F0B4FC606BFDF74CF980461F
:103520008946206BFDF747F906460F46E06AFDF72E
:1035300042F98DE8C00302460B462FA002F0A0FC22
:103540002846FDF738F9074688460498FDF733F911
:1035500004460E460598FDF72EF98DE8D001024687
:103560000B462FA002F08CFC3AA002F089FC4FF42D
:1035700000513A48FEF76EF8642001F01FFD09E79C
:10358000740200200000002000806640FB210940FA
:10359000CDCC4C3DDB0F4940000034430000B44328
:1035A0007B2273656E736F72223A226D70753932A9
:1035B0003530222C2274696D657374616D70223A06
:1035C000256C752C2264617461223A7B0000000036
:1035D00022616363656C223A7B2278223A252E337E
:1035E000662C2279223A252E33662C227A223A251D
:1035F0002E33667D2C000000226779726F223A7BA1
:103600002278223A252E33662C2279223A252E332F
:10361000662C227A223A252E33667D2C000000008B
:10362000226174746974756465223A7B22706974CE
:103630006368223A252E32662C22726F6C6C223A15
:10364000252E32662C22796177223A252E32667D2C
:10365000000000007D7D0D0A000000000010014008
:1036600010B54FF0E020006903F088FA012803D07C
:10367000BDE8104002F0CEBE10BD10B590B02821BC
:103680006846FCF7C6FD14210AA8FCF7C2FD02201B
:1036900000900120049010200024059007946846B3
:1036A000FEF7B0F908B172B6FEE70F20CDE90A04C3
:1036B0004FF48060CDE90C4000210AA80E94FEF77B
:1036C000A1F8002801D072B6FEE710B010BD704717
:1036D0000148FEF76EBE000000070020F0B502684A
:1036E000194B1A4C1A4D4FF08047984205D0B842FA
:1036F00003D0A04201D0A84203D122F070064A684C
:103700003243984205D0B84203D0A04201D0A8422B
:1037100003D122F44074CA6822434C6922F080022B
:10372000224302608A68C2620A688262984201D1BA
:1037300009690163012141610169C90703D0016978
:1037400021F001010161F0BD002C014000040040A6
:103750000008004010B5406A0021C185C184FEF711
:1037600007FF10BD70B5446A2068406994F84110A5
:10377000C0F3C0100025212904D118B1E5842046EA
:1037800000F08EF82068406994F84210C0F3801071
:10379000222904D118B1E585204600F05AF8606C62
:1037A00040F0100060642046FEF7E2FE70BD10B5E8
:1037B0000146406A096809684FF0000289062ED464
:1037C000C28501680C3151E8003F23F4807341E861
:1037D0000034002CF5D10168143151E8003F23F08A
:1037E000010341E80034002CF5D10168143151E89F
:1037F000003F23F0400341E80034002CF5D12021A4
:1038000080F84210016B012909D101680C3151E89F
:10381000003F23F0100341E80034002CF5D142634F
:10382000016B012902D0FFF79BF810BD818DFEF7D7
:1038300066FE10BD10B5406A01214163016B01298C
:1038400002D0FFF78EF810BD818D4908FEF757FEB4
:1038500010BD01680C3151E8002F22F4907241E84C
:103860000023002BF5D10168143151E8002F22F01C
:10387000010241E80023002BF5D1016B012909D198
:1038800001680C3151E8002F22F0100241E80023BA
:10389000002BF5D1202180F84210002101637047F0
:1038A00001680C3151E8002F22F0C00241E80023EA
:1038B000002BF5D1202180F84110704708B590F811
:1038C0004210222901D0022008BD82684FF48053A3
:1038D0009A4201D1016921B1816A9A421BD04AB151
:1038E0000AE00268816A5268C2F308020A80816AAB
:1038F000891C08E0026972B10268526802F07F0216
:103900000A70816A491C8162C18D491E0904090C33
:10391000C18503D01BE002685268F1E70168CA68FC
:1039200022F02002CA600168CA6822F48072CA606C
:1039300001684A6922F001024A61202180F84210A0
:1039400000214163026B012A03D0FFF709F8002030
:1039500008BD016301680C3151E8002F22F010020C
:1039600041E80023002BF5D101680A68D20602D590
:103970000A6849680091818DFEF7C1FDE7E7000004
:1039800070B5044600680169E26821F440511143B2
:1039900001612169A0680843616908432168CA6818
:1039A00041F20C639A430243CA6020684169A269EC
:1039B00021F44071114341611E492068884202D1BF
:1039C000FDF7E6FF01E0FDF7D3FF00EBC00101EBDF
:1039D0000012606864218000B2FBF0F3B3FBF1F3E6
:1039E0006FF018067343B2FBF0F5B2FBF0F605EB8F
:1039F0008305322303EB0515B5FBF1F5B6FBF1F6B4
:103A000005F0F00505EB0615B2FBF0F6B2FBF0F0A1
:103A1000B0FBF1F06FF01802504306EB800003EBAF
:103A20000010B0FBF1F0216800F00F00284488601E
:103A300070BD00000038014038B5816204468285BF
:103A4000002013466064222284F84220E56B1B4A62
:103A5000AA62E56B1A4AEA62E56B1A4A2A63E26BCC
:103A600050630A462168E06B091DFDF7B9FC206828
:103A7000016840680090206948B120680C3050E827
:103A8000001F41F4807140E80012002AF5D120683F
:103A9000143050E8001F41F0010140E80012002AF4
:103AA000F5D12068143050E8001F41F0400140E893
:103AB0000012002AF5D1002038BD0000AF37000801
:103AC00035380008653700082DE9F8439846174651
:103AD0000D460446089E24E0701C22D0FDF7C8FD68
:103AE000A0EB0800B0421AD8CEB12068C1684907DF
:103AF00017D5802D15D0402D13D00168C943090773
:103B00000FD401680025406800902046FFF7A1FE11
:103B10000820606484F840500120BDE8F883032049
:103B2000FBE72068006835EA000004D00020B842B6
:103B3000D2D00020F1E70120F9E7000038B50F4CA2
:103B400020680168C90614D50168406800902046C5
:103B5000FEF7D6FCE06B00684068C0F5806081B27B
:103B60000748FDF7CBFA4FF4806205492046FEF77F
:103B7000E9FEBDE838400148FEF7FCBC2C020020FD
:103B800000030020FEE700007CB50C001D46164631
:103B9000014601D0601E00E00020CDE90010064B78
:103BA0006A462946304600F05BFA002C02D0009AA3
:103BB000002111707CBD00006747000837B514462E
:103BC0000846064B6A46214600F04AFA0446694612
:103BD000002000F0D3FD20463EBD00007D470008D8
:103BE000490050EAC12018BF04204A0D18BF40F018
:103BF000010040F2FF72B2EB515F08BF40F00200DB
:103C0000012808BF052070474100080218BF0420A2
:103C10000A0E18BF40F001004FF07F4232EA010166
:103C200008BF40F00200012808BF052070470907BF
:103C3000090E002804DB00F1E02080F80014704732
:103C400000F00F0000F1E02080F8141D70472DE90E
:103C5000F0414F1E00EBC7010446D1E900011546B3
:103C60001E4637F006020DD02A463346FCF78FFC7D
:103C70007F1E04EBC703D3E90023FCF7E1FB37F019
:103C80000602F1D1022F25D0042F13D0062F18BF22
:103C9000BDE8F0812A463346FCF779FCD4E90A23D3
:103CA000FCF7CEFB2A463346FCF771FCD4E9082327
:103CB000FCF7C6FB2A463346FCF769FCD4E9062329
:103CC000FCF7BEFB2A463346FCF761FCD4E904232B
:103CD000FCF7B6FB2A463346FCF759FCD4E902232D
:103CE000FCF7AEFB2A463346FCF751FCD4E900232F
:103CF000BDE8F041FCF7A4BB0122FDF781B9FCF758
:103D00009FBB0000024A00201107FDF779B90000AF
:103D100001FDFFFF0121FDF767B900210846FCF70F
:103D200051BB6FF05E010807FDF75EB92DE9F04D5C
:103D30000D4614464FF07F41B1EB440F9EBF4FF04C
:103D4000FF312960BDE8F08D4FF0004040EA0421CA
:103D5000C4F3C750783810F01F024A4B4FEA601C7A
:103D6000C2F120067B44C4F3C750A0F178004FEAAB
:103D7000601003EB800053F82C3008BFD0E901C677
:103D800012D0D0F804C093402CFA06F73B43876862
:103D90000CFA02FC27FA06F8C06807FA02F2F040B3
:103DA0004CEA080C42EA0006A3FB0132ACFB01C05E
:103DB000A6FB016101EB0C068E4234BF4FF0010CF3
:103DC0004FF0000CC1186144BCF1000F02D08142D9
:103DD00002D903E0814201D2012000E0002010441A
:103DE00000F120024FEA92188006CA0C40EA4230E5
:103DF0004F03C5F80080FCF7ABFC82463846FDF760
:103E000016F96FF01201FDF7EFF807463046FDF79F
:103E10000EF96FF02501FDF7E7F883463946504665
:103E2000FCF746FA5946FCF743FA00F500666FF3D3
:103E30000B0651463046FCF78DFA3946FCF78AFAF4
:103E40005946FCF78AFA1049FCF78AFA07460F49E7
:103E50003046FCF785FA3946FCF72AFA07460C4942
:103E60003046FCF77DFA3946FCF722FA14F0004F91
:103E700008BFBDE8F08DC8F1805180F00040296096
:103E8000BDE8F08D403C0000DB0FC92F22AAFD29C0
:103E90000000C92F0148006870470000B0000020F2
:103EA00002E008C8121F08C1002AFAD17047704703
:103EB000002001E001C1121F002AFBD17047000061
:103EC0000149086070470000B00000202DE9FF5F45
:103ED00082B00021DDE90430020DDDF840B003437B
:103EE00018D044F61050A2F2FF3242431514119834
:103EF00001281FD0A5EB0B00401C5FEA000A4FF021
:103F000000064E4FDFF83891B046504615D5CAF13D
:103F1000000413E0119801244AA3012801D16FEA9B
:103F20000B010298119AC0E90031C0E9024206B0C3
:103F3000BDE8F09FCBF10000DFE704460021404AD6
:103F4000491842EB0450CDE9001012E0E00707D019
:103F500032463B4640464946FCF719FB80468946B7
:103F600032463B4610461946FCF711FB06460F4603
:103F70006410002CEAD1DDE90401DDE90023BAF187
:103F8000000F06DAFCF703FB42464B46FCF7FFFA4C
:103F900005E0FCF76EFB42464B46FCF76AFB044625
:103FA0000E460022284BFCF731FC03D84FF0FF30BF
:103FB000014607E00022254B20463146FCF740FA37
:103FC000FCF711FE102409E0002C0ADB0A22002372
:103FD000FCF766FC039B30321A55641E50EA01025E
:103FE000F2D1641C039AC4F111031444119A012AFA
:103FF00003D0012208430DD10AE0084304D0002079
:104000004FF0110B119072E7A3EB0B056D1E0DE045
:104010005B4504DD4FF0000205F1010504E003DA21
:104020004FF00002A5F10105002AECD00298119989
:10403000C0E90231C0E9004579E700000000144002
:104040000000F03F300000000000F0430000E03FBF
:1040500030380A2801D20120704700207047000044
:104060002DE9FF4F95B09A46884606460025EEE1B9
:10407000252877D100242746F94A0121039400E03E
:10408000044316F8013F203B01FA03F01042F7D138
:1040900030782A2811D06FF02F033078A0F1300249
:1040A000092A16D8039A44F0020402EB820203EBB9
:1040B00042021044761C0390EFE758F8042B039259
:1040C000002A03DA504244F40054039044F00204FE
:1040D000761C30782E2816D116F8010F44F004040F
:1040E0002A280DD06FF02F023078A0F13003092B71
:1040F00009D807EB870302EB4303C718761CF3E7E5
:1041000058F8047B761C30786C280FD006DC4C28DD
:1041100017D068280DD06A2814D104E0742810D074
:104120007A280FD10DE044F400140AE044F480141E
:1041300001E044F440147278824202D104F5801404
:10414000761C761C307866280BD013DC582877D084
:1041500009DC002875D04528F6D04628F4D0472839
:104160001AD193E118E0632835D0642879D0652806
:1041700012D18BE1702873D008DC6728F1D0692850
:104180006FD06E280DD06F2806D1ACE073282CD0EC
:10419000752874D0782853D05246179990476D1CD3
:1041A00054E1C4F30250022809D003280DD0D8F8F6
:1041B000001004280DD00D6008F1040846E1D8F87D
:1041C0000010EA17C1E90052F6E7D8F800100D8098
:1041D000F2E70D70F0E718F8041B8DF800100020CE
:1041E0008DF80100EB46012003E058F804BB4FF0C6
:1041F000FF3061074FF0000102D40DE009F1010129
:104200008946B9420FDA8145F8DB1BF8091000290D
:10421000F4D108E009F1010189468142FADB1BF87B
:1042200009100029F6D103985346A0EB090721464F
:104230003846179A00F080FA284400EB090507E099
:1042400044E008E10DE01BF8010B52461799904736
:10425000B9F10109F7D2534621463846179AF2E0E0
:1042600039E00A21C4F302524FF0000B0091022AF8
:1042700006D058F8040BC117032A09D00AE023E03E
:1042800008F1070020F00702F2E80201904605E07D
:1042900000B2C117042A01D140B2C117002906DAC1
:1042A0000A460021404261EB02012D2202E0220574
:1042B00004D52B228DF80420012203E0E20701D06F
:1042C0002022F7E7914657E00A2100E010214FF045
:1042D000000B00910BE010214FF0000B44F00404A0
:1042E0000827009103E008204FF0000B0090C4F372
:1042F0000252022A05D058F8040B0021032A08D0E4
:1043000008E008F1070020F00702F2E802019046F9
:1043100003E080B2042A00D1C0B24FF000092207A6
:104320002AD53278702A07D0DDF800C08CF0100C46
:104330005CEA0B0C05D00EE040228DF8042001222F
:1043400008E050EA010306D030238DF804308DF8E0
:10435000052002229146009B83F0080353EA0B03D9
:104360000AD150EA010201D1620705D530228DF849
:1043700004204FF001097F1E3278582A04D039A258
:104380000C920CAA02920BE03BA2F9E75B46009A62
:10439000FCF786FA0C9B9B5C029A521E02921370E9
:1043A00050EA0102F2D1029804A9081A00F1200B88
:1043B000600702D524F4803400E001275F4502DD68
:1043C000A7EB0B0000E0002000EB0B01009003982E
:1043D0004944401A0390E00306D453462146179AF5
:1043E000039800F0A9F90544002706E001A8524609
:1043F000C05D179990476D1C7F1C4F45F6DBE003AD
:104400000CD553462146179A039800F095F90544B8
:1044100004E030205246179990476D1C0099481EC1
:1044200000900029F5DC08E00298029952460078D5
:10443000491C0291179990476D1CBBF10001ABF12B
:10444000010BF1DC5BE100F065F90544761C307886
:1044500000287FF40DAE19B02846BDE8F08F0000AB
:10446000092801003031323334353637383961624A
:10447000636465660000000030313233343536370E
:10448000383941424344454600000000600700D4EB
:10449000062708F1070020F00700F0E80223804615
:1044A00003F0004C5FEA0C0001D097A009E0200562
:1044B00001D596A005E0E00701D095A001E0AFF29C
:1044C0004C001390307823F0004365280CD006DCB4
:1044D000452809D046281DD047287FD13BE06628D3
:1044E00018D067287AD136E00021112F01DB112086
:1044F00000E0781CCDE9000104A90CA8FFF7E6FC58
:10450000DDE90D010C9A4FF0000B07F10109109243
:1045100000914EE04FF000400097CDE9011004A952
:104520000CA8FFF7D3FCDDE90D020C9B0F994FF0AF
:10453000000B91461093009211B9791C00EB010910
:10454000B7EB090003D4C0F1FF3B07F10109A9EB68
:104550000700019042E0012F00DA01270021112F0E
:1045600001DD112000E03846CDE9000104A90CA8C6
:10457000FFF7ACFCDDE90D010C9A00914FF0000B48
:10458000B946109221070FD4009A4A4503DA9146A2
:1045900001E0A9F10109B9F1010F05DD109AA9F1B6
:1045A0000101515C3029F4D0B84202DA10F1040F55
:1045B00003DA0121CDE9011010E0002803DC834477
:1045C000A9EB000102E0411C494500DD8946A0EB52
:1045D0000B00401C01904FF000400290200705D4D2
:1045E0000198484502DB4FF0FF30019000208DF824
:1045F0004B0002980DF14B07B0F1004F25D002207F
:104600000C902B200D90029800280CDA404202906A
:104610002D200D9007E00A210298FCF72BF930318C
:10462000029007F8011D0C99481E0C900029F2DC3D
:1046300002980028EFD1791E0D980870307800F0AC
:10464000200040F0450007F8020D11A8C01BC01D56
:1046500002901398007800B1012000EB0901019845
:1046600001EBE071029801440398401A401E039048
:10467000E00306D453462146179A039800F05CF8ED
:1046800005441398007818B15246179990476D1C4D
:10469000E00323D553462146179A039800F04CF8BF
:1046A00005441BE0BBF1000F07DB0098584504DD13
:1046B0001098179910F80B0001E017993020524616
:1046C000904701980BF1010B401E05F10105019087
:1046D00004D12E205246179990476D1CB9F1000164
:1046E000A9F10109DEDC05E017F8010B5246179924
:1046F00090476D1C0299481E02900029F4DC534635
:104700002146179A03989EE62D0000002B0000001A
:10471000200000002DE9F041044600251E46174602
:10472000880404D405E039462020B0476D1C641E7F
:10473000F9D52846BDE8F0812DE9F0410446002571
:104740001E469046C80301D5302700E02027880484
:1047500004D505E041463846B0476D1C641EF9D5C6
:104760002846BDE8F0814A68002A06D00A68531C32
:104770000B6010704868401E486070470A68531C00
:104780000B601070704700002DE9F84F04460D468D
:1047900021F0004000917349814211DC7249884246
:1047A00001DC06D12CB120462946BDE8F84FFFF7C1
:1047B000A3BA6E48002DCCBF6D496E49BDE8F88F95
:1047C0006D49814211DD6D498142D8BF4FF0FF36FE
:1047D0006DDD20462946FFF703FA042808BFFFF7DE
:1047E00091FA20462946BDE8F88F6549654F25F0C6
:1047F0000045814233DD6449814219DD002632469D
:104800004FF0804320462946FBF71AFE80468A4631
:10481000012220462946FCF7F3FB00223B46FBF72A
:10482000B0FE42465346FBF724FF04460D463EE0E9
:1048300001260022BA463B4620462946FBF700FEE9
:1048400080460F460022534620462946FBF799FE34
:1048500042463B46FBF70DFF04460D4627E04B4919
:1048600081421BDDDFF828A10226002253462046A4
:104870002946FBF78CFE00223B46FBF7E1FD804614
:104880000F460022534620462946FBF77AFE424651
:104890003B46FBF7EEFE04460D4608E003262246A3
:1048A0002B4600203B49FBF7E4FE04460D4622461A
:1048B0002B4610461946FBF76AFE8B468246024697
:1048C0000B46FBF764FE07460246334888460B4614
:1048D00006217844FFF7BBF952465B46FBF757FECB
:1048E00082462E488B463A46434605217844FFF7D8
:1048F000AEF93A464346FBF74AFE02460B46002E07
:10490000504659460CDAFBF79BFD22462B46FBF737
:104910003EFE01B022462B46BDE8F04FFBF734BE09
:10492000FBF78EFD22462B46FBF731FE1C4A7A44EC
:1049300002EBC603D3E90023FBF723FE22462B46F6
:10494000FBF71FFE174A7A4402EBC603D3E90023A4
:10495000FBF71AFE009A002AB8BF81F00041BDE8BB
:10496000F88F0000000010440000F07F182D445420
:10497000FB21F93FFB21F9BF0000DC3F0000203E96
:104980000000F33F0000F03F0000E63F00800340DE
:104990000000F83F0000F0BF9A30000058300000DF
:1049A000F62F0000BE2F00002DE9F04D9446CCF10B
:1049B000000423F000464CEA0404594F46EAD4743C
:1049C0009A46884621F00042BC4206D8454240EA59
:1049D000050442EAD474BC4204D9BDE8F04D6246F5
:1049E000FFF78DB9AAF14055A5F17F6555EA0C0492
:1049F0000BD0022404EAAA744A4DDFF82CE144EA01
:104A0000D87452EA000B04D00CE0BDE8F04DFFF77B
:104A1000BBBE002C14BF012CBDE8F08D022C30D0A1
:104A2000032C32D056EA0C0B0AD0BE4220D1BA4237
:104A300009D126F0804622F080423346114617E025
:104A400000291ADB25E0DFF8E4B0FB44002C04BFAA
:104A5000DBE90001BDE8F08D012C02BFDBE90001BC
:104A600081F00041BDE8F08D022C0AD0032C0CD05F
:104A7000BA4212D1B8F1000F0BDA2A482C49BDE82E
:104A8000F08D28462B49BDE8F08D28467146BDE8DB
:104A9000F08D24482849BDE8F08D921B12153C2A60
:104AA000C4BF204F244E10DCBAF1000FBEBF12F17C
:104AB0003C0F00273E4608DB6246FBF7DAFD21F09B
:104AC0000041FFF761FE07460E4694B1012C08BF76
:104AD00086F000460DD0194A194B022C3846314653
:104AE00015D0FBF74EFD2A46BDE8F04D114BFBF704
:104AF00048BD0022134638463146FBF76FFE04BF1F
:104B00000220FFF7DDF938463146BDE8F08DFBF7AE
:104B100038FD2A46BDE8F04D064BFBF735BD0000D9
:104B20000000F07F182D4454FB2109C0522F0000D3
:104B3000FB21F9BFFB210940FB21F93F075C14333E
:104B400026A6A13C30B583B00446FFF7A3F905467D
:104B50000020CDE90000024621466846FBF70DFF24
:104B60002846FFF7ADF9DDE9000103B030BD0000D4
:104B70002DE9F843044602464F486946B0EB420F20
:104B800009D94FF0E640B0EB420F94BF00204FF040
:104B9000FF30009030E0494B22F00040834271D951
:104BA00047492046FBF7DCFBFBF751FF8046FBF74C
:104BB000E9FD00F00300009042494046FBF7D0FBBE
:104BC000054641494046FBF7CBFB06463F49404678
:104BD000FBF7C6FB07463E494046FBF7C1FB2146B3
:104BE000FBF7BBFB3946FBF7B5FB3146FBF7B2FBE6
:104BF0002946FBF7AFFB04462546009C002C45DB0D
:104C0000294614F0010F08461CD0FBF7A9FB064605
:104C10003049FBF7A5FB3049FBF79FFB3146FBF71B
:104C20009FFB2E49FBF744FB3146FBF799FB2946D6
:104C3000FBF796FB2946FBF73BFB14F0020F1CD059
:104C4000BDE8F883FBF78CFB05462549FBF788FB9D
:104C50002449FBF72DFB2946FBF782FB2249FBF792
:104C600027FB2946FBF77CFB4FF07E51FBF720FB2F
:104C700014F0020F08BFBDE8F88380F00040BDE8E3
:104C8000F883FFE71046FFF751F8B4E76800B0F18A
:104C90007F4F3CBF4FF07E50BDE8F88307D14FF007
:104CA0000100FFF70DF9BDE8F843FFF736B82846D5
:104CB000BDE8F843FFF72EB8B61F927E490E49466D
:104CC00083F9223F1A61342C0020A23300A0FD3961
:104CD0000000C93F336D4C39DA82083CA0AA2ABED5
:104CE000B93AB2BACA9F2A3DDDFFFFBE2DE9F041B5
:104CF000A0B00E46804680216846FBF78AFA002461
:104D000020466D4627460CE018F804100A290DD0FD
:104D10000D2904D07F2802D22954401C80B2641C83
:104D2000A4B2B442F0D320B0BDE8F0812F540622E3
:104D300004A16846FBF78BFA10B9684600F0C0F989
:104D40000020ECE724474E524D430000F8B5FCF735
:104D50009DFCFEF792FCFDF72DFF3F48416941F0B5
:104D6000010141614069002200F00100009005212D
:104D70001020FCF715FD1020FCF704FD38483749DA
:104D80004FF4E13500240160C0E901540C26C460F1
:104D9000C0E904468461C461FDF722FD08B172B622
:104DA000FEE7FDF76DFF2E482E4948300160C0E94F
:104DB0000154C460C0E904468461C461FDF710FD7C
:104DC00008B172B6FEE728A001F05AF801222B4D77
:104DD000D40321462846FCF745FC29A001F050F8F1
:104DE000002221462846FCF73DFC28A001F048F8A7
:104DF000012221462846FCF735FC27A001F040F8A7
:104E00001749234658392A4601F1E800FDF708FE04
:104E100008B125A000E02BA001F032F82F48FCF7E4
:104E20002BF900F0D9F82E4A00212E4800F002F9A3
:104E30002D4C2B4A0021606024322C4800F0FAF8F7
:104E4000274AA06048320021294800F0F3F8E060CA
:104E500000F0D4F80020F8BD0010024000380140F6
:104E6000E40100200044004054657374696E6720BB
:104E70005350492E2E2E0D0A00000000000C014058
:104E8000435320484947480D0A0000004353204C33
:104E90004F570D0A0000000043532054455354203F
:104EA000444F4E450D0A00004D50553932353020E3
:104EB000696E6974205355434345535346554C0D11
:104EC0000A0000004D50553932353020696E697442
:104ED000204641494C45440D0A000000B400002022
:104EE000606F00089133000800000020D1300008F6
:104EF0008933000810B50121752000F005F801483C
:104F0000007810BD2C2400202DE9F84340F08000EB
:104F1000114F0C468DF800004FF400460D4D002255
:104F200031463846FCF79EFB4FF4FA78434601229F
:104F300069462846FDF734F8434622460749284685
:104F4000FCF784FF012231463846FCF78BFBBDE8B5
:104F5000F88300008C010020000C01402C2400206C
:104F60002DE9F347DFF84C9004464FF40048104F0A
:104F700001AE0125002241464846FCF773FB21465D
:104F8000384600F081FE0C4C0020208080B2315C5D
:104F9000384600F079FE2088401C80B22080A8426C
:104FA000F4D3012241464846FCF75CFBBDE8FC8790
:104FB0008C010020000C0140A000002010B5EFF390
:104FC000058111B16FF0050403E0002408B101F080
:104FD0009FF8204610BD0000EFF3058010B16FF080
:104FE000050070470448016811B14FF0FF30704769
:104FF00001210160002070477000002010B5EFF320
:10500000058010B16FF0050010BD08480168012946
:1050100002D04FF0FF3010BD054A002182F8141D68
:105020000221016001F024F9002010BD7000002071
:105030000BE000E02DE9FF414FEA01034FF00005CE
:10504000EFF30581039549BB40B380271821002465
:105050004AB3166806B1344696691EB13146761ECB
:10506000382E02D21679F60703D0002004B0BDE82E
:10507000F081566906B1B708D2F808C0BCF1000F3C
:105080000DD0D5685C2D18D312693AB136B18DE8D0
:1050900006103A46214601F046FD03900DE0D66821
:1050A0005EB912694AB903AACDE90012BAB2214623
:1050B00001F00CFD012800D003950398D6E700000D
:1050C0002DE9F041E6B001467F2244A8FBF7ACF899
:1050D00000258DF88F512C4654A144A8FBF7C6F843
:1050E0006E4606E046F8240050A10020641CFBF741
:1050F000BDF808B10E2CF5DB0C2C7DDB02984C4C76
:105100000078412808D04FF0FF31206801F0E8FB1B
:10511000606880F8D75073E0D8210EA8FBF779F8C3
:105120000A2215A80199FBF77FF80298414EDFF893
:10513000088100788DF88E00039838B3FBF780F86B
:1051400020B30398FFF7FEFCFBF778FB05463146DA
:10515000FBF738F9FBF716FB074664214843FBF7DA
:10516000F7FA2946FBF7F9F84146FBF72BF9054614
:105170003846FBF7EDFA2946FBF79AF80E900498AB
:105180000078532845D04E208DF88D00059838B30F
:10519000FBF756F820B30598FFF7D4FCFBF74EFB5E
:1051A00005463146FBF70EF9FBF7ECFA064664219B
:1051B0004843FBF7CDFA2946FBF7CFF84146FBF70A
:1051C00001F905463046FBF7C3FA2946FBF770F8AC
:1051D0000F9006980078572821D045208DF88C0034
:1051E00001208DF80F010A21206801F079FB0128C8
:1051F0000CD1D8220EA900E008E06068FAF7F0FFB1
:1052000000231A461946206801F0BEF966B0BDE8D1
:10521000F0810E9880F000400E905320B4E70F9874
:1052200080F000400F905720D8E700002C000000CD
:10523000A40000200000C842000070422DE9F041A7
:10524000134C0F460546E6682068001D00F02CFE52
:10525000681C07D137B12168BDE8F0410D48091D30
:1052600000F072BE20683544B5424560216805D221
:10527000A06BBDE8F041091D00F04EBE606B091D3A
:1052800000F04AFEA06A854200D2A562BDE8F08126
:1052900020000020380C00202DE9F041054600F0E8
:1052A0005FFE2D4CA068401CA06020682B4F10B101
:1052B000606930B32BE02560A068012827D1002663
:1052C00006EB860007EB800000F018FE761C382EF7
:1052D000F6D3234800F012FE2148143000F00EFEF1
:1052E0001F48283000F00AFE1D483C3000F006FE42
:1052F0001B48503000F002FE194860631430A06370
:1053000005E02068E96AC06A884200D82560606AC2
:10531000401C60626864E86A2169884200D92061A3
:1053200000EB800007EB8000291D00F00DFE00F06F
:1053300037FE606900280CD02068E96AC06A88429C
:1053400007D208494FF080500860BFF34F8FBFF37A
:105350006F8FBDE8F081000020000020880700204A
:10536000E80B002004ED00E038B500F0F9FD104C2A
:105370002068C8B90F4800F0C1FD0E48143000F095
:10538000BDFD0C48E060143020610A4B0020F03B6A
:10539000009003F1500210210A2001F07DF82060F6
:1053A00010B105A100F07EFEBDE8384000F0F8BD68
:1053B0005C0000203C0D0020546D72510000000084
:1053C00030B4026C0B46002A0BD0C1681144C16096
:1053D0008468A14201D30168C16030BC1846FAF765
:1053E000FFBE30BC70472DE9F041856B174604467F
:1053F0000026026C82B1C7B1E068FAF7F1FEE168FD
:10540000206C091AE1602268914202D2A168081A50
:10541000E060022F16D017E02068A8B9A06801F05C
:1054200025FC06460020A0600EE06068FAF7D8FE72
:10543000216C606808446060A168884204D32068D9
:10544000606001E005B16D1E6D1CA5633046BDE8CE
:10545000F08110B5044690F8590058B101280CD0DD
:1054600002280FD0502080F31188BFF34F8FBFF375
:105470006F8FFEE7206B00F0A7FD2046BDE81040CF
:1054800000F0A2BD10BD000010484FF4406142077B
:1054900006D0C01D0D4920F00700411AC1F540613A
:1054A0000B4A00230144C2E900030839183A21F0ED
:1054B000070111604B600B600B1AC0E90013936089
:1054C0004FF0004053605061704700001C140020F2
:1054D0008C000020144E154CA6F29C474FF08058CB
:1054E000DFF84C9012E000BF00F03AFDF068C568AC
:1054F000281D00F0D9FCA068401EA0606068401E16
:10550000606000F04DFD2846FFF7A3FF60680028AB
:10551000EAD138680128F9D9C9F80080BFF34F8F64
:10552000BFF36F8FF2E70000240C00202000002062
:1055300004ED00E0002807D00021816001600B46E7
:105540000A46C16001F020B87047000070B51D46E2
:10555000049C51B1C4F80020C4E90F010121204688
:1055600000F0CEFF84F84C5070BD2460F4E70000DA
:105570002DE9F05F8846DDE90B94154683469100DE
:105580009A460A9EA522206BFAF73CFE6FF00301B3
:10559000206B01EB8501084420F00707780707D04E
:1055A000502080F31188BFF34F8FBFF36F8FFEE75A
:1055B0000025B8F1000F0FD05FF00000221818F896
:1055C000001082F8341018F8001011B1401C102897
:1055D000F4D384F8435001E084F83450382E00D3DB
:1055E0003726E662C4E91365201D00F092FC04F141
:1055F000180000F08EFC2461C6F138006462A061DE
:10560000656584F8585052465946384600F066FAA7
:105610002060B9F1000F01D0C9F80040BDE8F09F4B
:1056200030B5114900E011460A688242FBD34B684D
:105630005C18844203D140681844486008464368B7
:105640001C18944209D1084C183C2468A24209D085
:1056500052681A4442600A6812680260814200D0AF
:10566000086030BD0460F9E78C00002070B50024AC
:1056700041600B4D0061914206D8D11A8269914276
:1056800006D2011D286907E09A4203D2994201D34C
:10569000012403E0011DE86800F03EFC204670BDD7
:1056A0005C00002010B5044600F05AFCA06B28B145
:1056B0005FF0000400F074FC204610BD0124F9E7FF
:1056C00030B589B03C4D6EE00498002806DADDE97B
:1056D0000601059A90470498002864DB069C6069DF
:1056E00010B1201D00F0E0FB03A800F0D7F802463F
:1056F00004980A2857D2DFE800F00505052D334A43
:1057000005052D3394F8280040F0010084F82800A6
:105710000599A069059B01442046FFF7A7FF68B3E0
:10572000216A2046884794F8280040073BD500208E
:1057300000900598A169002342181946204601F0FF
:10574000DBFBD8B9502080F31188BFF34F8FBFF334
:105750006F8FFEE714F8280F20F00100207022E080
:1057600094F8280040F0010084F828000598A06112
:1057700028B1811813462046FFF778FF13E0502028
:1057800080F31188BFF34F8FBFF36F8FFEE794F85C
:105790002800810703D4204600F016FC03E020F027
:1057A000010084F82800002204A9286800F0FCFF0A
:1057B000002889D109B030BD5C0000202DE9FC41F2
:1057C0000F46054600F098FD01A800F067F8044672
:1057D000019818B101F0FEFABDE8FC81254EAFB189
:1057E00030690068D0B30027291B3A46306800F0C2
:1057F0006DFC01F0EFFA0028EED11F494FF0805008
:105800000860BFF34F8FBFF36F8FE5E7A542EBD87A
:1058100001F0E0FAF0682746C068C468201D00F077
:1058200043FB94F82800410719D5A0692B4641197C
:105830003A462046FFF71AFFA8B10020034601466A
:1058400000902A46204601F057FB60B9502080F3B3
:105850001188BFF34F8FBFF36F8FFEE707E020F093
:10586000010084F82800216A20468847B4E7012710
:10587000BAE700005C00002004ED00E00648416B40
:10588000096829B1416BC968C96849688162704774
:105890004FF0FF31FAE700002000002070B5054608
:1058A00001F07AF9064E0446B068844203D200F053
:1058B00009F8012000E0002028602046B46070BD97
:1058C0005C000020F8B5194D20E0C068C468066887
:1058D000201D00F0E9FA216A2046884794F8280044
:1058E000400713D5A0693044B04206D924616060F6
:1058F000211DE86800F010FB08E000200346014687
:1059000000903246204601F0F7FA38B1E8680168A5
:105910000029DAD12969C5E90310F8BD502080F3C8
:105920001188BFF34F8FBFF36F8FFEE75C0000203D
:1059300008484068401C4FF0500080F3118804D0A4
:10594000BFF34F8FBFF36F8FFEE7BFF34F8FBFF3F0
:105950006F8FFEE794000020074CE068016841B1BA
:10596000C0680021D0F80000FFF728FFFFF7A8FE6D
:10597000F3E701210020F7E75C0000202DE9F0416A
:10598000044600F0EDFA94F9455004F1240609E0CC
:10599000606A48B1304601F0E5F908B100F0E6FB75
:1059A0006D1E6DB2002DF3DC4FF0FF3684F84560BC
:1059B00000F0F6FA00F0D4FA94F9445004F110071C
:1059C00009E0206948B1384601F0CCF908B100F08F
:1059D000CDFB6D1E6DB2002DF3DC84F84460BDE894
:1059E000F04100F0DDBA00002DE9F0410546002746
:1059F00000F082FC324E306808B9FFF745FD70694F
:105A000005424ED1C5B3083568070ED005F0070032
:105A1000C0F108000544680707D0502080F31188C2
:105A2000BFF34F8FBFF36F8FFEE72DB370688542D2
:105A300037D82348183001460C6801E020460C4650
:105A40006168A94202D221680029F7D131688C42ED
:105A500027D007682168016060680837411B10295A
:105A60000FD96019420708D0502080F31188BFF386
:105A70004F8FBFF36F8FFEE713E041606560FFF764
:105A8000CFFD61687068401A7060B268904200D2C1
:105A9000B060706901430020C4E90001F068401C57
:105AA000F06001F097F9780707D0502080F3118853
:105AB000BFF34F8FBFF36F8FFEE73846BDE8F0812D
:105AC000740000200449086818B10868026D521C6F
:105AD00002650868704700002000002010B5031F11
