:020000040800F2
:10000000800A0020050100085B2F00087B290008FA
:10001000592F0008DD0A00084538000800000000DC
:10002000000000000000000000000000893000080F
:100030004D10000800000000992F000885310008CD
:100040001F0100081F0100081F0100081F01000810
:100050001F0100081F0100081F0100081F01000800
:100060001F0100081F0100081F0100081F010008F0
:100070001F0100081F0100081F010008BD0F000834
:100080001F0100081F0100081F0100081F010008D0
:100090001F0100081F0100081F0100081F010008C0
:1000A0001F0100081F0100081F0100081F010008B0
:1000B0001F0100081F0100081F0100081F010008A0
:1000C0001F0100081F0100081F0100081F01000890
:1000D0001F010008113800081F0100081F01000857
:1000E0001F0100081F0100081F010008DFF810D0E1
:1000F00000F05EFC0048004741440008AFF3008078
:10010000800A00200648804706480047FEE7FEE7D1
:10011000FEE7FEE7FEE7FEE7FEE7FEE7FEE7FEE7B7
:10012000E7310008ED000008202A04DB203A21FA1C
:1001300002F00021704721FA02F3D040C2F1200200
:10014000914008431946704740EA01039B0703D0DA
:1001500009E008C9121F08C0042AFAD203E011F806
:10016000013B00F8013B521EF9D27047D2B201E0C8
:1001700000F8012B491EFBD270470022F6E710B5AC
:1001800013460A4604461946FFF7F0FF204610BD05
:10019000421C10F8011B0029FBD1801A7047F0B4F3
:1001A00080EA0102D40F4200B2EB410F02D20246B4
:1001B000084611464A0042D0C30DDDB2C1F3C75212
:1001C000AD1A202D35DAC1F3160141F4000204B155
:1001D0005242C5F1200602FA06F12A411044B3EB5F
:1001E000D05F23D0C4B1012DA0EBC35009DCF0BC1B
:1001F0004FF0004202EAC352DBB200F5000000F00B
:1002000045BA400000F1807000EBC350A0F180704F
:1002100040EAD170490009E0490841EAC071A0EB09
:10022000C35000F50000400800EBC350F0BC00F0E4
:1002300024BA6142012202EB4101001BF6E7F0BC47
:10024000704781F00041AAE780F00040A7E780EA0C
:10025000010210B502F00043400022D04A001FD036
:10026000010E01EB1261C0F35600C2F3560240F4D6
:10027000000042F40002A0FB022000047F391404B5
:1002800000D0401C50EA124001D44000491EC2B2C6
:100290000C0604EBD010401C4008802A02D003E07A
:1002A000002010BD20F00100002900DA00201843D2
:1002B00010BD30B480EA010202F0004530F0004287
:1002C00021F0004013D090B1C30DD40DC2F316013C
:1002D000C0F31600E41A41F4000140F400027D343A
:1002E000914201D3641C00E04900002C02DA30BCCA
:1002F000002070474FF400000023914201D3891A77
:10030000034340084FEA4101F7D151B1914202D174
:100310004FF0004105E002D24FF0010101E06FF023
:10032000010103EBC450284430BC00F0A6B94200E0
:1003300005D0C0F3C7525242914201DC0020704701
:1003400000EBC15070472DE9FE4F81EA030404F031
:10035000004421F0004100944FF0000B23F00043D3
:1003600050EA01045ED052EA03045BD0C3F30A549E
:10037000C1F30A552C44A4F2F3340194A0FB0254B7
:10038000C1F3130141F48011C3F3130343F4801349
:1003900001FB024400FB034E840A970A44EA81549D
:1003A00047EA8357A4FB076802958D0A05FB07857A
:1003B0004FEA932C04FB0C542705029D4FEA065884
:1003C00047EA1637B5EB08056EEB070C870E920E61
:1003D00047EA811742EA8312A7FB0201B6EB0B0141
:1003E00064EB00042B0D43EA0C335E1844EB1C5005
:1003F000DA465146E7FB0201C5F313044FEA0B331B
:1004000043EA14534FEA0432019C43EA0603A4F181
:100410000C040294009CCDE900B400F0A3F903B0F1
:10042000BDE8F08F00200146F9E72DE9F04D81EAA3
:10043000030404F0004B21F0004514464FF0000A7D
:1004400023F0004150EA050220D054EA01021DD0F9
:10045000C5F30A570246C5F31303C1F31300C1F3F2
:100460000A5640F4801543F48013A7EB0608101BCE
:10047000D64608F2FD3873EB050002D308F10108F7
:1004800001E092185B41B8F1000F03DA0020014649
:10049000BDE8F08D00204FF48011064684460EE042
:1004A000171B73EB050705D3121B63EB050306430C
:1004B0004CEA010C49084FEA300092185B4150EABF
:1004C0000107EDD152EA030012D082EA040083EA68
:1004D0000501084305D0101BAB4106D201220023C1
:1004E00006E000224FF0004302E06FF001025310DB
:1004F0001AEB06004CEB085110EB0A0041EB0B0124
:10050000BDE8F04D00F01FB9C10F80EAE07008446B
:10051000CA079623002100F0B9B89623002211469D
:1005200000F0B4B80EB5C10F80EAE0700844CA0705
:10053000002140F233438DE80E000A460B4600F0DE
:1005400011F903B000BD00F0004220F00040C10DE1
:10055000C0F3160040F400007F2901DA0020704744
:10056000962903DCC1F19601C84001E09639884024
:10057000002AF4D04042704700F0004230F00040C2
:100580000AD0C10D01F56071C0F3160042EA0151B5
:10059000C20840071143704700200146704701F030
:1005A000004330B421F0004150EA010206D00A0DA8
:1005B000A2F56072C1F31301002A02DC30BC0020F6
:1005C0007047440F44EAC104C100E01830BC00EB9E
:1005D000C25000F052B80000002801DBC0F100401A
:1005E000002901DBC1F100418842704730B50B465C
:1005F000014600202022012409E021FA02F59D4253
:1006000005D303FA02F5491B04FA02F52844151E26
:10061000A2F10102F1DC30BD2DE9F05F05460020BA
:1006200092469B4688460646814640241BE0284663
:10063000414647462246FFF777FD53465A46C01AC1
:10064000914110D311461846224600F0C3F92D1AE5
:1006500067EB01084F4622460120002100F0BAF95D
:1006600017EB00094E41201EA4F10104DFDC4846CF
:1006700031462A464346BDE8F09F0029A8BF70478F
:10068000401C490008BF20F00100704710B4B0FAC8
:1006900080FC00FA0CF050EA010404BF10BC704763
:1006A00049B1CCF1200421FA04F411FA0CF118BF7D
:1006B000012121430843A3EB0C01CB1D4FEA00614C
:1006C0004FEA102042BF002010BC704700EBC3501F
:1006D00010440029A4BF10BC7047401C490008BF4B
:1006E00020F0010010BC7047F0B4002802DCF0BC20
:1006F00000207047C0F3C751C0F3160040F400005B
:10070000CA0701D14000491E3F2202EB61050022C9
:1007100011464FF4000626FA01F31344D41884421C
:1007200001D8001B1A464000491C1729F3DD51006F
:10073000814202D24FF0FF3100E0002102EBC550B0
:10074000F0BCFFF79ABF10B5141E73F1000408DA6D
:10075000401C41F1000192185B411A4301D120F085
:10076000010010BD2DE9F04D92469B4611B1B1FA42
:1007700081F202E0B0FA80F22032904600F02AF9CD
:1007800004460F4640EA0A0041EA0B0153465A4626
:10079000084313D0114653EA010019D0C8F14002B2
:1007A0005046FFF7C1FC05460E46504659464246A4
:1007B00000F010F9084305D0012004E02046394636
:1007C000BDE8F08D0020054346EAE0762C43374330
:1007D0000A986305E40AA0EB08000022FD0A44EA37
:1007E00047540A3002D500200146E9E701051019F7
:1007F0006941DDE9084500196941BDE8F04DA2E70E
:100800002DE9FE4F804681EA0300C00F0C460090A0
:1008100021F0004123F00045B8EB0200A94105D2C8
:100820004046214690461C460B46024623F00040B7
:10083000104347D0270DC7F30A00C3F30A510290B3
:10084000401A019040286BDAC3F3130040F4801B78
:100850000098924620B10023D2EB030A63EB0B0B06
:1008600001985946C0F14002504600F0B3F80646E0
:100870000D4650465946019A00F0BBF810EB0800AF
:100880006141002487EA115284EAE7731A4340D099
:10089000009A62B3019A012A4FEA075215DC001B45
:1008A00061EB02014FF0004202EA0752CDE900423B
:1008B000001C41F5801132462B46FFF753FF03B071
:1008C000BDE8F08F40462146F9E7001B61EB0201CD
:1008D000001C41F5801300185B412018A2F5001799
:1008E00047EB030140EAD570B6196D4111E06D0880
:1008F0004FEA360645EAC0754FEA0752001B61EB26
:100900000201001C41F5801149084FEA300000192E
:10091000514132462B4603B0BDE8F04FFFF713BFFD
:100920000098012240000023D0EB020263EBE07349
:10093000009821464FEAE074B8EB000061EB040137
:10094000E9E783F000435BE781F0004158E7C1F33A
:100950000A52C1F3130140F2FF3341F480119A426D
:1009600002DA00200146704740F233439A42A2F275
:10097000334202DC5242FFF7D7BB00F02BB8000035
:1009800030B5041E71F1000404DB4FF00044404216
:1009900064EB0101141E73F1000405DB1C464FF0EB
:1009A0000043524263EB0403994208BF904230BDBA
:1009B000064C074D06E0E06840F0010394E80700AC
:1009C00098471034AC42F6D3FFF794FB98480008E0
:1009D000B8480008202A04DB203A00FA02F100207F
:1009E00070479140C2F1200320FA03F3194390406D
:1009F0007047202A06DBCB17203A41FA02F043EA7F
:100A0000E07306E041FA02F3D040C2F120029140C7
:100A100008431946704730B58C1810F8012B12F0B6
:100A20000F0301D110F8013B120906D110F8012B78
:100A300003E010F8015B01F8015B5B1EF9D101E0F6
:100A400001F8013B521EFBD1A142E6D3002030BD8C
:100A500070B51546C1600446826A08461146FFF724
:100A6000F0FB01466061E069FFF799FBE061A16975
:100A7000FFF7B2FDA06908D380F00040E169FFF7FD
:100A8000ABFD03D2A06980F00040E0612946A06878
:100A9000FFF7DDFB0646E1696068FFF7D8FB054616
:100AA00061692068FFF7D3FB2946FFF778FB3146E1
:100AB000FFF7C7FB2062616AFFF78EFD606A08D30B
:100AC00080F00040216AFFF787FD03D2606A80F062
:100AD0000040206260692061206A70BDFEE700006E
:100AE0002DE9FF5F0024064625468946A84625A035
:100AF00003F05DFE002717E0304601F0FDFF2046C1
:100B0000316DFFF74CFB04462846716DFFF747FB3C
:100B100005464046B16DFFF742FB804646F2A810FD
:100B200000F07EFA7F1CBFB248464F45E4D3FFF782
:100B3000F4FC074639462046FFF7BBFB044639461E
:100B40002846FFF7B6FB054639464046FFF7B1FB9E
:100B50000746FFF711FD82468B462846FFF70CFD3E
:100B6000804689462046FFF707FD8DE8000F0246C4
:100B70000B4611A003F01BFE203686E8B000BDE84E
:100B8000FF9F000043616C6962726174696E672047
:100B90004779726F202825642073616D706C6573CE
:100BA0002C2035306D7320696E74657276616C2906
:100BB0002E2E2E0D0A0000004779726F2043616CC3
:100BC0006962726174696F6E20436F6D706C6574D9
:100BD000652E204269617365733A20583D252E3297
:100BE000662C20593D252E32662C205A3D252E326A
:100BF000660D0A0000487047A80300202DE9F14F58
:100C000000F0D2FC6C4E0446F068201AFFF785FC19
:100C10006A49FFF74EFB0546F46000F019FA684C8C
:100C2000C4F8CC00803400F01DFA06462065A06AA6
:100C30002063E06A6063E06BA063E06CFFF76DFC2B
:100C4000DFF880814146FFF702FBDFF87CB15946AF
:100C5000FFF7FDFADFF874914946FFF72AFB009988
:100C6000FFF727FBDFF868A15146FFF722FB074695
:100C7000A0623046FFF751FC4146FFF7E8FA5946BB
:100C8000FFF7E5FA4946FFF714FB0099FFF711FB60
:100C90005146FFF70EFB0646E06239460098FFF723
:100CA000D6FA216CFFF77BFA206431460098FFF7F3
:100CB000CEFA616CFFF773FAC4F884506064A4F153
:100CC0004800064601F0EAFE304601F015FF3046C6
:100CD00001F04AFFA068A066E068E066206920672E
:100CE00054F8040C60672668A6676068E0670146F0
:100CF000FFF7ADFA074631460846FFF7A8FA39462E
:100D0000FFF74DFA03F03DFD0146606F80F00040B3
:100D100003F044FA2F4E3146FFF799FA2E4F394629
:100D2000FFF7C7FADFF8B4802D49FFF790FA814644
:100D30002946A06EFFF78BFAE16DFFF730FA4146C6
:100D4000FFF785FA4946FFF72AFAE065D4E91E0164
:100D500003F024FA3146FFF77AFA3946FFF7A9FA89
:100D6000064620662946206FFFF771FAA16DFFF74E
:100D700016FAA06554F8540C314602F00BF954F8F9
:100D8000580CE16D02F006F9D4E90A01FFF707FA01
:100D90004FF0FF31FFF7CBFA014654F8640C02F034
:100DA000F9F8A06D01F0EAFD014654F8500CBDE8D9
:100DB000F84F02F0EFB800001801002000007A445C
:100DC000A80300206F12033DDB0FC9400000FA4466
:100DD0000000F04100003443DB0F49406666663F87
:100DE000D0CCCC3D70B505466B486C49A0F58674F7
:100DF00060632830A0623030E061303020633030F2
:100E00002062303060623030E062A0F59270B1F85C
:100E10000110018195E80700A063E1632264A889BD
:100E2000A4F84400E889A4F84600288AA4F84800F9
:100E3000688AA4F84A00A88AA4F84C00E88AA4F8B2
:100E40004E00288BA4F85000688BA4F85200A88BA1
:100E5000A4F8540004F15800482205F1200114348C
:100E6000FFF772F904F16C00A96E0162002044F8EA
:100E7000140C44F8100C44F80C0C44F8080C44F81A
:100E8000040C4749C4F8D010206084F8F40084F8BA
:100E9000F500C4F89400C4F89800C4F8A800C4F899
:100EA0009C00C4F8A000C4F8A400C4F8AC00C4F8C6
:100EB000B000C4F8B400C4F8B800C4F8BC00C4F86A
:100EC000C000C4F8C400C4F8C800C4F8CC00C4F81A
:100ED000D400C4F8D800C4F8DC00C4F8E000C4F8BA
:100EE000E4003049C4F8E800C4E93B012E496369D5
:100EF0000A681A6063694A685A6063698A689A6016
:100F0000626910626269506162691061626990622F
:100F10006269D060626990616369244A5A62626959
:100F200082F82D00A3680A6E1A60A3684A6E5A60A0
:100F3000A3688A6E9A601E4AA3689A61A3681D4AD4
:100F40005A62A3681C4A1A62A2685061A2681061C2
:100F5000A2689062A268D060A368022283F82D2064
:100F6000E3690A6B1A60E3694A6B5A60E269896B4C
:100F70009160E1698861E1694862E1690862E1695B
:100F80004861E1690861E1698862E169C860E16915
:100F9000012081F82D0070BDB4040020180100204C
:100FA0003333F33F0AD7A33C5800002000E0E0446D
:100FB00000803B450000F04100A00C46014800F0D5
:100FC000D3B800005403002030B590F840500124FD
:100FD000AC40C56B6C60046863604368102B0368A9
:100FE00003D099600068C26030BD9A600068C1603B
:100FF00030BD000010B500F02BFC06490860064823
:10100000016841F0807101600448016841F001010C
:10101000016010BD00000020FCED00E0001000E0C9
:1010200010B500280BD006494A68064B064C1B68D1
:10103000B3FBF4F343434868801A9842FBD310BDD6
:10104000001000E00000002040420F007047000048
:1010500003480068416A0022426208B270470000FB
:10106000F001002003480068416A0022426208B291
:10107000704700008002002072B6FEE70148FFF7CB
:10108000BDBD00000AD7A33B10B590F82110002287
:10109000022905D00421816380F82020012010BDA1
:1010A00001680B6823F00E030B6001680B6823F0E6
:1010B00001030B6090F84030C46B012101FA03F387
:1010C000636080F8211080F82020104610BD0000D9
:1010D00010B590F821100024022903D00421816367
:1010E00001243DE001680A6822F00E020A600168EE
:1010F0000A6822F001020A601A4A0168914201D18D
:10110000012121E0174A1432914201D110211BE044
:10111000144A2832914201D1891515E0114A3C3216
:10112000914201D189140FE00E4A5032914202D10E
:101130004FF4803108E00B4A6432914202D14FF4FF
:10114000801101E04FF08071064A083A5160012198
:1011500080F82110002180F82010416B01B18847F0
:10116000204610BD080002402DE9F05FC16B0C68FD
:1011700001680B68D0F840C0042202FA0CF2494D15
:10118000DFF824A1494E4A4FDFF828B1DFF828E103
:1011900022422CD05A072AD50A68920603D40A683C
:1011A00022F004020A600168A94201D1042219E078
:1011B000514501D1402215E0B14202D14FF4806285
:1011C00010E0B94202D14FF480420BE0594502D100
:1011D0004FF4802206E0714502D14FF4800201E015
:1011E0004FF080622F4908394A60C16A3BE04FF0F6
:1011F000020808FA0CF818EA040F4FF000094FF043
:10120000010235D05FEA837832D50B689B0605D49E
:101210000B6823F00A030B6080F821200168A942C3
:1012200001D1022219E0514501D1202215E0B1423D
:1012300002D14FF4007210E0B94202D14FF40052D3
:101240000BE0594502D14FF4003206E0714502D15E
:101250004FF4001201E04FF00072124908394A6061
:1012600080F82090816A00291AD0BDE8F05F084715
:10127000082505FA0CF5254212D01B0710D50B687E
:1012800023F00E030B6090F84010C36B02FA01F1DB
:101290005960826380F8212080F82090016BE2E79A
:1012A000BDE8F09F080002401C00024030000240F0
:1012B00044000240580002406C00024030B528B3A0
:1012C00008C8134914221944B1FBF2F18900C16323
:1012D00010498163022141771A6843F6F0718A430D
:1012E000D0E900142143D0E902452C43214304698D
:1012F000214344692143846921431143196000213A
:101300004163012242770177084630BD012030BD9C
:10131000F8FFFDBF0000024070B5044690F82000C1
:10132000002501280CD0012084F8200094F82160C9
:101330000020012E06D084F820000225284670BD2A
:10134000022070BD022684F82160A0632068066830
:1013500026F0010606602046FFF736FEE06A002808
:101360002068016802D041F00E0106E021F004017E
:1013700001602068016841F00A010160206801688D
:1013800041F001010160D9E770B5044600F00CF9A5
:101390000546601C02D004480078044400F004F9BB
:1013A000401BA042FAD370BD440000202DE9F84F45
:1013B000DFF8B8910024A9F1040B23460F2709F1A7
:1013C000040AABF1040EC9E00125A5402A40AA4257
:1013D0007DD1674ED1F804C0ACEB0608B44532D0DD
:1013E00014DCBCF1030F3AD009DCBCF1000F2AD0A9
:1013F000BCF1010F1CD0BCF1020F31D11DE0BCF1DA
:10140000110F17D0BCF1120F2AD119E0B8F5881FBF
:1014100019D006DCB8F5803F15D0B8F5801F1FD174
:1014200011E0B8F5001F0ED0B8F5041F18D10AE07E
:10143000CB6815E0CB681B1D12E0CB6808330FE0CA
:10144000CB680C330CE08B682BB1012B4FF00803F9
:1014500003D0456104E0042302E0056100E00023BD
:10146000FF2A01D8064601E000F104064FEA840590
:1014700001D9A5F12005D6F8008007FA05FC28EA75
:101480000C0803FA05F548EA0508C6F800804D681F
:10149000ED0062D5374DAE6946F00106AE61AD692B
:1014A00024F0030605F001050095334D06EB050C0D
:1014B000DCF80850A607360F07FA06F825EA0805F3
:1014C000DFF8B880404503D14FF0000817E044E052
:1014D000DFF8AC80404502D14FF001080FE0DFF8A3
:1014E000A480404502D14FF0020808E0DFF8988060
:1014F000404502D14FF0030801E04FF0040808FA1C
:1015000006F848EA0508CCF808804D68D9F800606C
:10151000ED024D4601D5164300E096432E604D681E
:10152000DAF80060AD02554601D5164300E0964357
:101530002E604D68DBF80060AD035D4601D51643B3
:1015400000E096432E604D68DEF80060ED037546BE
:1015500001D5164300E096432E60641C0D682A46B0
:10156000E5407FF431AFBDE8F88F0000080401408A
:10157000000011100010024000000140000801406E
:10158000000C01400010014000140140C26821EA33
:1015900002030A4043EA0241016170470AB1016156
:1015A00070470904FBE700000148806870470000AD
:1015B000440000200248816802781144816070472D
:1015C00044000020074810B5016841F01001016097
:1015D000032000F075F80F2000F006F800F024F862
:1015E000002010BD0020024070B50D4D04464FF4A0
:1015F0007A712878B1FBF0F00A490968B1FBF0F084
:1016000000F080FC48B9102C07D200222146501E61
:1016100000F036F800206C6070BD012070BD000045
:1016200044000020500000200C4808B5816941F0BA
:1016300001018161816901F001010091C16941F0FD
:101640008051C161C06900F0805000900448416839
:1016500021F0E06141F00071416008BD00100240DE
:1016600000000140002809DB00F01F020121914029
:101670004009800000F1E020C0F800117047000030
:10168000F0B40E4B1B680C46C3F30223C3F10705ED
:10169000042D00D90425191D072901D2002300E0DB
:1016A000DB1E012606FA05F1491E214099409E40A5
:1016B000761E16403143F0BC02F0F3B80CED00E0AA
:1016C000064900F0070208684FF6FF03184040EA99
:1016D0000220034A10430860704700000CED00E050
:1016E0000000FA052DE9F0470F46050061D0434E92
:1016F000306800F00700B84209D2306820F00700D7
:1017000038433060306800F00700B84251D1286893
:101710003B4C810712D5400703D5606840F4E06078
:1017200060602878000703D5606840F4605060600E
:101730006068A96820F0F000084360602878C0075E
:1017400028D06868012810D02168022810D08907A5
:1017500000292EDA616821F0030101436160FFF77F
:1017600023FF804641F288390DE021688903EFE7C5
:101770008901EDE7FFF718FFA0EB0801494502D901
:101780000320BDE8F0876068696800F00C00B0EBEA
:10179000810FEFD1306800F00700B8420BD93068F4
:1017A00020F0070038433060306800F00700B8428E
:1017B00001D00120E5E72878400705D56068E96891
:1017C00020F4E060084360602878000706D5606870
:1017D000296920F4605040EAC100606000F038F8E8
:1017E0006168084AC1F30311515CC84006490860AA
:1017F00006480068FFF7F8FE0020C2E7002002401C
:1018000000100240E8470008500000204800002077
:101810000448054900684968044AC1F30221515C43
:10182000C84070475000002000100240F8470008F0
:101830000448054900684968044AC1F3C221515C63
:10184000C84070475000002000100240F8470008D0
:101850000E4A51680E4801F00C03042B11D0082BDE
:101860000FD10C48C1F38343C903C05C0AD551684A
:10187000084AC1F34041921E515C054A5043B0FBF7
:10188000F1F07047044948437047000000100240DF
:1018900000127A00D847000800093D002DE9F84FF2
:1018A000040070D02078C04DC00749D06868C0F3EC
:1018B0008100012807D06868C0F38100022809D19F
:1018C0006868C00306D52868800339D56068002899
:1018D000E7D035E06068B0F5803F0BD010B1B0F5CF
:1018E000A02F11D0286820F480302860286820F4C8
:1018F000802002E0286840F480302860606890B161
:10190000FFF752FE06460AE0286840F4802028606F
:10191000F0E700BFFFF748FE801B642873D82868F3
:101920008003F7D50CE0FFF73FFE064605E000BF59
:10193000FFF73AFE801B6428F0D828688003F7D4AC
:1019400020789A4E80074FF001094FF0000839D5F2
:10195000686810F00C0F07D06868C0F38100022897
:1019600009D16868C00306D42868800714D52069A7
:10197000012808D110E02069B0B1C6F80090FFF747
:1019800013FE074605E00AE1FFF70EFEC01B022822
:10199000C4D828688007F7D52868616920F0F80066
:1019A00040EAC10028600DE0C6F80080FFF7FCFDAA
:1019B000074604E0FFF7F8FDC01B022823D828687B
:1019C0008007F7D4207800072CD57948A169D9B1D0
:1019D000C0F80090FFF7E8FD074604E0FFF7E4FDDC
:1019E000C01B02280FD8686A8007F7D571484FF4EA
:1019F000FA510068B0FBF1F0009000BF0098411E62
:101A00000091FAD20EE080E0C0F80080FFF7CCFD34
:101A1000074604E0FFF7C8FDC01B022875D8686AB6
:101A20008007F7D42078400760D5E8690027C00018
:101A300008D4E86940F08050E861E869012700F0C7
:101A4000805000905C480168C90513D40168834642
:101A500041F480710160FFF7A7FD824606E000BFF8
:101A6000FFF7A2FDA0EB0A0064284ED8DBF80000C7
:101A7000C005F5D5E06801280AD008B1052813D0C3
:101A8000286A20F001002862286A20F0040002E0A1
:101A9000286A40F001002862E06841F2883B98B172
:101AA000FFF782FD82460BE0286A40F004002862BE
:101AB000EEE700BFFFF778FDA0EB0A0159455AD8C1
:101AC000286A8007F6D50CE0FFF76EFD824605E038
:101AD000FFF76AFDA0EB0A0159454CD8286A800738
:101AE000F6D41FB1E86920F08050E861E06988B35E
:101AF0006968C1F38101022944D00228C6F86080D8
:101B000004D0FFF751FD044638E034E0FFF74CFD08
:101B1000074604E0FFF748FDC01B02282BD82868C1
:101B20008001F7D4206AB0F5803F05D16868A168CC
:101B300020F4003008436860D4E90801084369686C
:101B400021F4741108436860C6F86090FFF72CFD1B
:101B5000044606E025E000BFFFF726FD001B022833
:101B600009D828688001F7D51BE000BFFFF71CFDEE
:101B7000001B022802D90320BDE8F88F28688001E5
:101B8000F4D40EE00128F7D06868226A00F48031AE
:101B9000914204D1616A00F47010884201D00120A2
:101BA000EAE70020E8E7000000100240000042429F
:101BB00080044242500000200070004090F8510024
:101BC000704770B5040009D0606A002540B12561F6
:101BD0006561A56294F8510040B10CE0012070BD30
:101BE0006068B0F5827FF4D0E561F2E784F8505088
:101BF000204600F03FF8022084F851002068016878
:101C000021F040010160A088218900F4827001F474
:101C100004410843A18901F400610843217C01F0DB
:101C200002010843217D01F001010843218B01F4E9
:101C300000710843217F01F03801084394F8201017
:101C400001F080010843218D01F40051084321680F
:101C50000860A069042101EA1040216848602068FA
:101C6000C16921F40061C1616565012084F85100FA
:101C7000002070BD70B586B0002506460095019520
:101C80000295039500681E49884237D11D4988692D
:101C900040F480508861886900F48050049088691D
:101CA00040F0040088618869174C00F0040004903B
:101CB000A020009002200190032003906946204656
:101CC000FFF774FB4020CDE90005694620460295E8
:101CD000FFF76CFB0E4C0D48C4E900058020C4E9F9
:101CE0000250256180016561C4E906502046FFF776
:101CF000E5FA08B1FFF7C0F9F464666206B070BD9A
:101D00000030014000100240000801401C00024069
:101D1000100300202DE9FF4F81B01D469346044675
:101D20004FF001090E9EFFF73FFC074694F8510063
:101D30006168012806D0B1F5827F3CD1A168C9BB9A
:101D4000042838D10298002871D0BBF1000FFBD0D5
:101D5000002DF9D094F8500001282CD04FF0010A42
:101D600084F850A094F85100042802D0052084F88B
:101D700051004FF00008C4F85480C4F838B0E5872B
:101D8000A58702992163E586A586C4F84080C4F83A
:101D9000448020680168490603D4016841F040018D
:101DA0000160E068B0F5006F606808D0F0B3012D05
:101DB00049D081E0FFE7022005B0BDE8F08F08B10F
:101DC000012D39D1206B21680088C860206B801CF0
:101DD0002063E08E401EE0862EE02068816889073F
:101DE0000FD5E18E69B1B9F1010F0AD1216B0988D4
:101DF000C160206B801C2063E08E401EE0864FF0A7
:101E0000000920688168C9070CD0E18F51B1C06812
:101E1000A16B0880A06B801CA063E08F401EE08750
:101E20004FF00109FFF7C0FBC01B01E00BE067E0CA
:101E3000B04201D3701C50D1E08E0028CDD1E08F8C
:101E40000028CAD13EE0206B216800780873206B1F
:101E5000401C2063E08E401EE0862DE020688168F3
:101E600089070FD5E18E69B1B9F1010F0AD1216B54
:101E700009780173206B401C2063E08E401EE086D1
:101E80004FF0000920688168C9070CD0E18F51B17B
:101E9000C068A16B0870A06B401CA063E08F401E5F
:101EA000E0874FF00109FFF77FFBC01BB04202D370
:101EB000701C01D011E086B1E08E0028CED1E08FF9
:101EC0000028CBD13A463146204601F066F850B1A1
:101ED0002020606584F8508012E084F851A084F8D6
:101EE0005080032068E7A06818B92068C16880683E
:101EF000009084F851A084F85080606D0028F1D0E3
:101F0000012059E710B5401EB0F1807F01D30120B8
:101F100010BD4FF0E02460610F21601701F0C1FC9B
:101F20000020A06107202061002010BD70B590F84E
:101F30003C20012A26D0012480F83C40022280F86F
:101F40003D2003685A689D6822F070060A68324393
:101F50005A600D4B02689A4208D0B2F1804F05D00A
:101F60000A4B9A4202D00A4B9A4204D1496825F0A2
:101F700080031943916080F83D40002180F83C10B7
:101F8000084670BD022070BD002C014000040040D6
:101F90000008004010B5040003D094F83D0010B1D3
:101FA00007E0012010BD002084F83C00204600F02E
:101FB0001FF8022084F83D00211D206801F014F96B
:101FC000012084F8460084F83E0084F83F0084F83D
:101FD000400084F8410084F8420084F8430084F80B
:101FE000440084F8450084F83D00002010BD000046
:101FF00008B500680649884208D10648C16941F021
:102000000201C161C06900F00200009008BD00003B
:10201000000400400010024070B5044690F83C00F7
:102020000025012817D0012684F83C60022084F89E
:102030003D002068826822F0770222F47F428260AD
:102040000868502838D00DDC20284FD005DC90B32C
:10205000102811D14AE0022070BD302846D0402817
:102060000AD13BE060282FD070280DD0B0F5805FFA
:1020700003D0B0F5005F12D0012584F83D60002048
:1020800084F83C00284670BDCB68D1E90121206866
:1020900001F0F3F82068816841F0770109E0CB682E
:1020A000D1E90121206801F0E8F82068816841F455
:1020B00080418160E1E719E0CA684968206801F061
:1020C00091F95021206806E0CA684968206801F04B
:1020D0009AF96021206801F0DAF8CEE7CA68496809
:1020E000206801F07FF940212068F4E7226801466A
:1020F0001046F0E72DE9F0410D46040003D094F8B6
:102100003D0018B108E00120BDE8F081002084F80E
:102110003C00204600F040F8022084F83D00206892
:10212000816844F2070291438160211D206801F01B
:102130005BF8226890689169166A2B68AF6903435F
:1021400040F20330814341EA0721A868EF69084360
:102150004FF6FC418843E96840EA072001432869BB
:102160002F6A000140EA0730084369686D6926F06C
:10217000220646EA0515294393602268906154F8C7
:10218000460B0162012004F81F09E0752076E07615
:102190002077A0750020B7E700B585B00021009139
:1021A00001910291039101681A48B1F1804F1BD04F
:1021B000194A914216D1C16941F00401C161C16956
:1021C00001F004010491816941F008018161806995
:1021D000694600F008000490C02000900F4800BF3E
:1021E000FFF7E4F805B000BDC16941F00101C1612C
:1021F000C16901F001010491816941F0040181612B
:102200008069694600F004000490032000900448AF
:10221000E6E700000010024000080040000C01400A
:102220000008014070B590F83E60044690F83F50B9
:1022300090F8423090F84320022021B104290ED0BA
:10224000012E1BD114E0012E18D1012B16D184F8D8
:102250003E0084F8420001220021206820E0012D88
:102260000CD1012A0AD184F83F0084F8430014E01D
:10227000012D03D1012B01D1012A01D0012070BD14
:1022800084F83E0084F83F0084F8420084F843005C
:1022900001220021206800F0E3FF012204212068D0
:1022A00000F0DEFF2068016841F0010101600020BC
:1022B00070BD000000B585B0002100910191029130
:1022C000039100680B49884211D10B48816941F0A4
:1022D000080181618069694600F0080004900320CC
:1022E00000900220019003900448FFF75FF805B0CA
:1022F00000BD00000004004000100240000C01403E
:1023000070B5044690F83C0000260D4601280FD019
:10231000012084F83C006AB1042A1DD0082A2FD07D
:102320000C2A3FD00126002084F83C00304670BDC6
:10233000022070BD206800F0B3FF2068816941F081
:10234000080181612068816921F0040181612068B0
:1023500081692A69114311E0206800F0C9FF2068F3
:10236000816941F4006181612068816921F48061A3
:102370008161206881692A6941EA02218161D2E78D
:10238000206800F0E1FF2068C16941F00801C161E7
:102390002068C16921F00401C1612068C1692A690E
:1023A000114311E0206800F0FBFF2068C16941F48F
:1023B0000061C1612068C16921F48061C161206848
:1023C000C1692A6941EA0221C161ACE710B5040084
:1023D00003D094F83D0010B107E0012010BD0020AB
:1023E00084F83C00204600F01EF8022084F83D00EE
:1023F000211D206800F0F8FE012084F8460084F8D2
:102400003E0084F83F0084F8400084F8410084F8DE
:10241000420084F8430084F8440084F8450084F8BE
:102420003D00002010BD704710B50446022249B19E
:1024300004290ED0082913D094F84100012816D0A1
:10244000012010BD94F83E000128F9D184F83E2007
:102450000FE094F83F000128F2D184F83F2008E013
:1024600094F840000128EBD184F8402001E084F882
:1024700041200122206800F0F3FE0F4920688842C5
:1024800003D1426C42F4004242642068884208D082
:10249000B0F1804F05D00949884202D008498842EE
:1024A00004D1816801F00701062903D0016841F0D9
:1024B00001010160002010BD002C0140000400401B
:1024C00000080040704710B504460068406994F861
:1024D0004110C0F3C010212911D180B120681430FF
:1024E00050E8001F21F0800140E80012002AF5D1D9
:1024F000A06B08B1FEF7C8FD204601F03CF820684B
:10250000406994F84210C0F38010222911D180B1A3
:102510002068143050E8001F21F0400140E800120C
:10252000002AF5D1E06B08B1FEF7AEFD204600F0C1
:10253000FBFF002010BD7047F8B50168044608682D
:10254000CA684B6910F00F0F4FF0000559D003F027
:10255000010602F49077374365D0C10705D0D10555
:1025600003D5616C41F001016164410705D5D907CC
:1025700003D0616C41F002016164810705D5D90780
:1025800003D0616C41F004016164010707D502F0DA
:102590002001314303D0616C41F008016164616C3A
:1025A00000293AD0800604D5900602D5204600F0D6
:1025B000F0FF20684069616CC0F38010090700D407
:1025C00060B3204600F0B0FF20684069400621D586
:1025D0002068143050E8001F21F0400140E800124C
:1025E000002AF5D1E06BA8B16D494163E06BFEF7BD
:1025F0006FFD002811D0E06B416B01B0BDE8F040E9
:10260000084783060FD593060DD52046BDE8F84050
:1026100000F0BFBF2046FFF78EFFF8BD2046FFF752
:102620008AFF6564F8BD266B2023012E7CD1C60687
:102630007AD5D60678D508684868009048694FF082
:102640000206400640D5E16B086840680004000CB3
:10265000E8D0A28D8242E5D9E085886920282DD076
:1026600020680C3050E8001F21F4807140E800120F
:10267000002AF5D12068143050E8001F21F0010134
:1026800040E80012002AF5D12068143050E8001FFD
:1026900021F0400140E80012002AF5D184F84230D0
:1026A000256320680C3050E8001F21F0100140E83D
:1026B0000012002AF5D1E06BFEF7E6FC6663A08D00
:1026C000E18D401A81B22AE0A08DE18D401A81B2DD
:1026D000E08D0028A6D00029A4D022680C3252E850
:1026E000000F20F4907042E80007002FF5D1206819
:1026F000143050E8002F22F0010240E80027002F9C
:10270000F5D184F84230256320680C3050E8002F62
:1027100022F0100240E80023002BF5D1666320462A
:10272000FFF7D0FEF8BDFFE705062BD5150629D526
:1027300094F841002128F5D1A068B0F5805F01D15F
:102740002069B0B1206A411C21622168007848608C
:10275000E08C401E0004000CE084E3D12068C168D6
:1027600021F08001C1602068C16841F04001C16072
:10277000D8E7206A0088C0F308004860206A801CFF
:102780002062E5E74006CDD55006CBD5CA68204685
:1027900022F04002CA6084F8413000F0EDF8C1E751
:1027A0002B34000870B5040004D094F841000025D3
:1027B00010B106E0012070BD84F84050204600F0C2
:1027C00023F8242084F841002068C16821F40051D6
:1027D000C160204600F03EFF2068016921F490416D
:1027E00001612068416921F02A0141612068C168C6
:1027F00041F40051C1606564202084F8410084F8F0
:1028000042006563002070BD70B586B000250646A5
:1028100000950195029503950068224988423FD1B1
:102820002149886940F480408861886900F48040CB
:102830000490886940F00400886188691B4C00F0AE
:10284000040004904815009002200190032003909A
:1028500069462046FEF7AAFD2015CDE90005694628
:1028600020460295FEF7A2FD124C1148C4E900056E
:102870008020C4E90250256140016561C4E9065029
:102880002046FEF71BFD08B1FEF7F6FBF4630022BD
:102890000E2125206662FEF7F3FE2520FEF7E2FEFC
:1028A00006B070BD00380140001002400008014031
:1028B000580002405403002090F84230202B01D0F1
:1028C0000220704721B11AB10023036300F01EBF3C
:1028D00001207047704770472DE9F843044690F88F
:1028E0004100984616460D46202802D00220BDE839
:1028F000F88385B17EB100206064212084F8410016
:10290000FEF752FEA6848146E684A0682027B0F533
:10291000805F02D003E00120E9E7206910B12E4674
:1029200000250EE000260CE08021204600F036FF56
:10293000A8B9C6B116F8010B21684860E08C401EAA
:10294000E084E08C4B464FF00002CDF80080002878
:10295000EAD14FF04001204600F020FF40B184F85A
:1029600041700320C3E735F8020BC0F30800E3E72A
:1029700084F841700020BAE77047FEE770B5124C4A
:102980000546207820B10020A5602070284670BD43
:102990002846A168FDF755FC0B4A0C49526888424D
:1029A00001DD521E03E00A49884201D9521C6260CF
:1029B000A56060684FF4B4714843FDF7A5FD294652
:1029C000BDE87040FDF7EBBB180100200000344368
:1029D000000034C3002906D00A4601464FF0FF33F9
:1029E0000148FFF779BF7047C802002070B5002486
:1029F0000646254606EB840045640565C56506EB7D
:102A00004400858145820583641CE4B2032CF1D324
:102A1000316033811AA0726001F0C9FE80216B2001
:102A200001F066FE4FF4FA642046FEF7F9FA8021C1
:102A30006B2001F05DFE2046FEF7F2FA01216B20CB
:102A400001F056FE00216C2001F052FE00211920F9
:102A500001F04EFE08211B2001F04AFE08211C2037
:102A600001F046FE03211D2001F042FE01211A2043
:102A700001F03EFEC8213046FEF732F8012070BD5D
:102A80004E6F7720496E697469616C697A696E6707
:102A9000204D5055393235300D0A000070B50446CE
:102AA000134E06213B2001F0FDFD124D288840BA4F
:102AB000A081B4F90C00FDF727FD3146FDF7C7FBF7
:102AC0006064688840BAE081B4F90E00FDF71CFD2F
:102AD0003146FDF7BCFBA064A88840BA2082B4F957
:102AE0001000FDF711FD3146FDF7B1FBE06470BD4C
:102AF000CDCC9C3A9803002070B5044606214320B3
:102B000001F0D0FD174D164E288840BA6082B4F906
:102B10001200FDF7F9FC216AFDF793FB3146FDF742
:102B200096FB2065688840BAA082B4F91400FDF7CE
:102B3000EBFC616AFDF785FB3146FDF788FB6065BC
:102B4000A88840BAE082B4F91600FDF7DDFCA16A5E
:102B5000FDF777FB3146FDF77AFBA06570BD0000FD
:102B600000007A3C980300202DE9F041044600263D
:102B70000321102001F07CFD394F0121032001F0D9
:102B800077FD3878354660F307050121092001F00B
:102B90006FFD0121042001F06BFD3878012160F305
:102BA0000F25092001F064FD0121052001F060FDE1
:102BB0003878012160F31745092001F059FD012102
:102BC000062001F055FD3878012160F31F650920CA
:102BD00001F04EFD0121072001F04AFD3878012166
:102BE00060F30706092001F043FD0121082001F0F0
:102BF0003FFD3878012160F30F26092001F038FDF0
:102C0000258328146083A683B4F91800B4F918004A
:102C1000FDF788FC134E4FF033352A463346FDF757
:102C200092FBFDF7BCFCE065B4F91A00B4F91A0098
:102C3000FDF778FC2A463346FDF785FBFDF7AFFC30
:102C40002066B4F91C00B4F91C00FDF76BFC2A46A1
:102C50003346FDF778FBFDF7A2FC6066BDE8F08126
:102C6000980300203333C33F2DE9F04786B000249A
:102C700037480094019402940394816941F0100153
:102C80008161816901F010010491816941F02001A5
:102C90008161816901F020010491816941F00401A1
:102CA0008161816901F004010491816941F00801A9
:102CB00081618069DFF89C8000F008004FF40055C6
:102CC0000490002229464046FEF768FCDFF888A001
:102CD00000224FF430415046FEF760FCDFF87C9054
:102CE0004FF41067002239464846FEF757FC012290
:102CF0004FF448715046FEF751FC0095022601251D
:102D00000396CDE9015469464046FEF74FFB4BF26E
:102D10002000CDE90005CDE9024669465046FEF7A0
:102D200045FB00970396CDE9015469464846FEF7F6
:102D30003DFB4FF44070CDE900050320CDE9024092
:102D400069465046FEF732FB06B0BDE8F08700004A
:102D50000010024000100140000C0140000801403A
:102D60000F4810B50D4901604FF482714160002198
:102D70008160C1604FF400720161C0E90512082250
:102D8000C0E90721416281620A21C162FEF719FF91
:102D9000002801D072B6FEE710BD000000300140EF
:102DA0009801002010B58CB024216846FDF7E5F9A4
:102DB0000024154809944FF080410A94C0E900149A
:102DC0004FF6FF71C0E90241046184610320CDE93F
:102DD00000040120CDE902040494CDE905400794E4
:102DE000694609480894FFF785F908B172B6FEE70D
:102DF000099409A904480A94FFF798F8002801D01B
:102E000072B6FEE70CB010BDF001002010B58EB018
:102E100000240794089409940A940B941C21684692
:102E20000C94FDF7AAF92648244901600121C0E964
:102E3000011440F25721C0E903148461FFF7AAF896
:102E400008B172B6FEE74FF48050079007A91C48FE
:102E5000FFF7E2F808B172B6FEE71948FFF7B6FAD5
:102E600008B172B6FEE70B940BA915480C94FFF756
:102E70005DF808B172B6FEE76020CDE90004029467
:102E8000082269460E480494FFF73AFA08B172B670
:102E9000FEE70C2269460A48FFF732FA08B172B61B
:102EA000FEE708210648FFF7BFFA0C210448FFF7A8
:102EB000BBFA0348FFF7FEF90EB010BD0004004056
:102EC0003802002010B58CB024216846FDF755F972
:102ED00000241548099413490A94C0E900144FF6D8
:102EE000FF71C0E90241046184610120CDE9000461
:102EF000CDE902040494CDE90540079469460A48E7
:102F00000894FFF7F7F808B172B6FEE7099409A92B
:102F100005480A94FFF70AF8002801D072B6FEE7C8
:102F20000CB010BD000800408002002010B5094C14
:102F300001464FF07E520020C4E90220206160610A
:102F4000A061E061206220701046FDF7B2F9606276
:102F500010BD00000C000020FEE7FEE710B504469F
:102F6000D0F8EC20D0F8E410806AFDF771FDA06A7B
:102F7000006AFDF7E8FA064C2060606000B200F0DD
:102F800085F8A088BDE8104000B200F0A7B80000A6
:102F900004000020816270477047F8B515460E4660
:102FA0000B46009204460122022100F011F840B9BC
:102FB0003346002280212046009500F009F80028C1
:102FC00004D0606D40F0200060650320F8BD000073
:102FD0002DE9F8431E46914688460446089DFEF7B3
:102FE000E3FA401B351AFEF7DFFA0746254800686A
:102FF000C0F3CB30684338E0701C37D0FEF7D4FA0A
:10300000C01BA84203D215B1009860B32CE0206821
:10301000416821F0E00141606068B0F5827F0BD12A
:10302000A068B0F5004F02D0B0F5806F04D12068E1
:10303000016821F040010160A06AB0F5005F09D18C
:103040002068016821F4005101602068016841F4A2
:1030500000510160012084F85100002084F85000E4
:103060000320BDE8F8830025401E00902068816899
:1030700038EA010004D000214945BDD10020F0E725
:103080000121F9E750000020704700002DE9F041D0
:10309000104D114E04004FF480714FF400670CD4B2
:1030A00000222846FEF77AFA012239462846FEF722
:1030B00075FA3068C463BDE8F08101222846FEF746
:1030C0006DFA002239462846FEF768FA31686042F8
:1030D000C863F0E700080140380200202DE9F04104
:1030E000104D114E04004FF480514FF400570CD492
:1030F00000222846FEF752FA012239462846FEF7FA
:103100004DFA30680464BDE8F08101222846FEF7DC
:1031100045FA002239462846FEF740FA31686042F7
:103120000864F0E7000C01403802002080E80E003F
:103130007047000038B50C48FFF7C5F90A4C206805
:10314000016840680090802208492046FFF7B4FBE0
:1031500020B107A001F02BFB72B6FEE72068C16822
:1031600041F01001C16038BDC8020020FC050020FC
:10317000444D41205374617274204661696C6564EA
:10318000210D0A00FEF716BA30B58FB02821684627
:10319000FCF7F3FF14210AA8FCF7EFFF0121080454
:1031A000CDE900100024029402250491CDE90750D6
:1031B0004FF4E01009906846FEF770FB08B172B654
:1031C000FEE70F20CDE90A054FF48060CDE90C4001
:1031D00002210AA80E94FEF785FA002801D072B6E3
:1031E000FEE70FB030BD7047F0B50268194B1A4CBE
:1031F0001A4D4FF08047984205D0B84203D0A04204
:1032000001D0A84203D122F070064A6832439842A6
:1032100005D0B84203D0A04201D0A84203D122F485
:103220004074CA6822434C6922F080022243026043
:103230008A68C2620A688262984201D109690163A0
:10324000012141610169C90703D0016921F0010130
:103250000161F0BD002C0140000400400008004066
:1032600010B501F01F030121046A99408C430462E8
:10327000016A9A401143016210BD10B5846842EAA8
:10328000032224F47F440A432243826010BD8268F3
:1032900022F070020A4342F007018160704700008B
:1032A00030B5036A026A22F0010202624268846950
:1032B00024F073050C682C4323F002058B682B4324
:1032C0000A4DA8420BD123F00805CB6822F44072C6
:1032D0002B434D6923F0040315438A692A43426056
:1032E000846149684163036230BD0000002C0140E5
:1032F00030B5026A036A23F01003036243688469ED
:103300000D6824F4E64444EA05248D6822F0200286
:1033100042EA05120B4DA8420ED1CD6822F0800280
:1033200042EA05124D6923F4406343EA85038D693F
:1033300022F0400243EA8503436084614968816367
:10334000026230BD002C014030B5036A026A22F4EB
:10335000807202624268C46923F4007324F073052A
:103360000C682C438D6843EA05230C4DA8420ED10E
:10337000CD6823F4006343EA05234D6922F44052EB
:1033800042EA05128D6923F4806342EA0512426025
:10339000C4614968C163036230BD0000002C014074
:1033A00030B5046A026A22F4805202624268C3693C
:1033B0000D6823F4E64343EA05238D6824F40054A2
:1033C00044EA0534064DA84204D14D6922F48042F6
:1033D00042EA85124260C36149680164046230BDFB
:1033E000002C014010B5036A046A24F00104046251
:1033F000846924F0F00444EA021423F00A020A4328
:103400008461026210BD10B5036A046A24F01004DE
:103410000462846923F0A00324F4704444EA023275
:1034200043EA01118261016210BD10B5406A0021BA
:10343000C185C184FFF77FF810BD70B5446A20686C
:10344000406994F84110C0F3C0100025212904D12F
:1034500018B1E584204600F08EF82068406994F8A1
:103460004210C0F38010222904D118B1E58520460E
:1034700000F05AF8606C40F0100060642046FFF7DE
:103480005AF870BD10B50146406A096809684FF0E6
:10349000000289062ED4C28501680C3151E8003F34
:1034A00023F4807341E80034002CF5D10168143115
:1034B00051E8003F23F0010341E80034002CF5D12E
:1034C0000168143151E8003F23F0400341E8003423
:1034D000002CF5D1202180F84210016B012909D17F
:1034E00001680C3151E8003F23F0100341E800343B
:1034F000002CF5D14263016B012902D0FFF7EAF9F4
:1035000010BD818DFEF7DEFF10BD10B5406A0121B0
:103510004163016B012902D0FFF7DDF910BD818DF8
:103520004908FEF7CFFF10BD01680C3151E8002FAC
:1035300022F4907241E80023002BF5D10168143188
:1035400051E8002F22F0010241E80023002BF5D1C1
:10355000016B012909D101680C3151E8002F22F0DB
:10356000100241E80023002BF5D1202180F8421001
:1035700000210163704701680C3151E8002F22F0EF
:10358000C00241E80023002BF5D1202180F8411032
:10359000704708B590F84210222901D0022008BDDA
:1035A00082684FF480539A4201D1016921B1816A46
:1035B0009A421BD04AB10AE00268816A5268C2F39B
:1035C00008020A80816A891C08E0026972B10268F7
:1035D000526802F07F020A70816A491C8162C18DC3
:1035E000491E0904090CC18503D01BE0026852681A
:1035F000F1E70168CA6822F02002CA600168CA685F
:1036000022F48072CA6001684A6922F001024A61AC
:10361000202180F8421000214163026B012A03D06F
:10362000FFF758F9002008BD016301680C3151E82B
:10363000002F22F0100241E80023002BF5D1016891
:103640000A68D20602D50A6849680091818DFEF7A2
:1036500039FFE7E770B5044600680169E26821F4C4
:103660004051114301612169A06808436169084321
:103670002168CA6841F20C639A430243CA60206819
:103680004169A26921F44071114341611E492068DA
:10369000884202D1FEF7CCF801E0FEF7B9F800EB62
:1036A000C00101EB0012606864218000B2FBF0F3FE
:1036B000B3FBF1F36FF018067343B2FBF0F5B2FB06
:1036C000F0F605EB8305322303EB0515B5FBF1F5A9
:1036D000B6FBF1F605F0F00505EB0615B2FBF0F6CA
:1036E000B2FBF0F0B0FBF1F06FF01802504306EBC4
:1036F000800003EB0010B0FBF1F0216800F00F0038
:103700002844886070BD00000038014038B58162EF
:1037100004468285002013466064222284F84220F9
:10372000E56B1B4AAA62E56B1A4AEA62E56B1A4A24
:103730002A63E26B50630A462168E06B091DFDF7BE
:10374000EBFD2068016840680090206948B120685E
:103750000C3050E8001F41F4807140E80012002A4C
:10376000F5D12068143050E8001F41F0010140E815
:103770000012002AF5D12068143050E8001F41F0F3
:10378000400140E80012002AF5D1002038BD0000B9
:10379000853400080B3500083B3400082DE9F84358
:1037A000984617460D460446089E24E0701C22D019
:1037B000FDF7FAFEA0EB0800B0421AD8CEB120689F
:1037C000C168490717D5802D15D0402D13D0016849
:1037D000C94309070FD401680025406800902046BE
:1037E000FFF7A2FE0820606484F840500120BDE885
:1037F000F8830320FBE72068006835EA000004D066
:103800000020B842D2D00020F1E70120F9E7000003
:103810000A4808B500680168C943C90609D40168A7
:10382000406800900548FEF74EFE05480068406875
:1038300008BDBDE808400148FEF77EBEC802002072
:1038400054030020FEE700007CB50C001D46164620
:10385000014601D0601E00E00020CDE90010064BBB
:103860006A462946304600F00BF9002C02D0009A37
:10387000002111707CBD0000874100084100080252
:1038800018BF04200A0E18BF40F001004FF07F421D
:1038900032EA010108BF40F00200012808BF0520FC
:1038A00070470907090E002804DB00F1E02080F8CA
:1038B0000014704700F00F0000F1E02080F8141DA4
:1038C0007047FCF76CBC6FF05E010807FCF72FBD7A
:1038D00002E008C8121F08C1002AFAD170477047D9
:1038E000002001E001C1121F002AFBD17047000037
:1038F0000149086070470000280100202DE9FF5FA2
:1039000082B00021DDE90430020DDDF840B0034350
:1039100018D044F61050A2F2FF3242431514119809
:1039200001281FD0A5EB0B00401C5FEA000A4FF0F6
:1039300000064E4FDFF83891B046504615D5CAF113
:10394000000413E0119801244AA3012801D16FEA71
:103950000B010298119AC0E90031C0E9024206B099
:10396000BDE8F09FCBF10000DFE704460021404AAC
:10397000491842EB0450CDE9001012E0E00707D0EF
:1039800032463B4640464946FCF7DDFC80468946C8
:1039900032463B4610461946FCF7D5FC06460F4614
:1039A0006410002CEAD1DDE90401DDE90023BAF15D
:1039B000000F06DAFCF7C7FC42464B46FCF7C3FC97
:1039C00005E0FCF732FD42464B46FCF72EFD04466F
:1039D0000E460022284BFCF7D3FF03D84FF0FF30F0
:1039E000014607E00022254B20463146FCF708FF40
:1039F000FCF7ADFF102409E0002C0ADB0A220023AB
:103A0000FCF70AFE039B30321A55641E50EA01028D
:103A1000F2D1641C039AC4F111031444119A012ACF
:103A200003D0012208430DD10AE0084304D000204E
:103A30004FF0110B119072E7A3EB0B056D1E0DE01B
:103A40005B4504DD4FF0000205F1010504E003DAF7
:103A50004FF00002A5F10105002AECD0029811995F
:103A6000C0E90231C0E9004579E7000000001440D8
:103A70000000F03F300000000000F0430000E03F95
:103A80002DE9FF4F95B09A46884606460025EEE19F
:103A9000252877D100242746F94A0121039400E024
:103AA000044316F8013F203B01FA03F01042F7D11E
:103AB00030782A2811D06FF02F033078A0F130022F
:103AC000092A16D8039A44F0020402EB820203EB9F
:103AD00042021044761C0390EFE758F8042B03923F
:103AE000002A03DA504244F40054039044F00204E4
:103AF000761C30782E2816D116F8010F44F00404F5
:103B00002A280DD06FF02F023078A0F13003092B56
:103B100009D807EB870302EB4303C718761CF3E7CA
:103B200058F8047B761C30786C280FD006DC4C28C3
:103B300017D068280DD06A2814D104E0742810D05A
:103B40007A280FD10DE044F400140AE044F4801404
:103B500001E044F440147278824202D104F58014EA
:103B6000761C761C307866280BD013DC582877D06A
:103B700009DC002875D04528F6D04628F4D047281F
:103B80001AD193E118E0632835D0642879D06528EC
:103B900012D18BE1702873D008DC6728F1D0692836
:103BA0006FD06E280DD06F2806D1ACE073282CD0D2
:103BB000752874D0782853D05246179990476D1CB9
:103BC00054E1C4F30250022809D003280DD0D8F8DC
:103BD000001004280DD00D6008F1040846E1D8F863
:103BE0000010EA17C1E90052F6E7D8F800100D807E
:103BF000F2E70D70F0E718F8041B8DF800100020B4
:103C00008DF80100EB46012003E058F804BB4FF0AB
:103C1000FF3061074FF0000102D40DE009F101010E
:103C20008946B9420FDA8145F8DB1BF809100029F3
:103C3000F4D108E009F1010189468142FADB1BF861
:103C400009100029F6D103985346A0EB0907214635
:103C50003846179A00F080FA284400EB090507E07F
:103C600044E008E10DE01BF8010B5246179990471C
:103C7000B9F10109F7D2534621463846179AF2E0C6
:103C800039E00A21C4F302524FF0000B0091022ADE
:103C900006D058F8040BC117032A09D00AE023E024
:103CA00008F1070020F00702F2E80201904605E063
:103CB00000B2C117042A01D140B2C117002906DAA7
:103CC0000A460021404261EB02012D2202E022055A
:103CD00004D52B228DF80420012203E0E20701D055
:103CE0002022F7E7914657E00A2100E010214FF02B
:103CF000000B00910BE010214FF0000B44F0040486
:103D00000827009103E008204FF0000B0090C4F357
:103D10000252022A05D058F8040B0021032A08D0C9
:103D200008E008F1070020F00702F2E802019046DF
:103D300003E080B2042A00D1C0B24FF0000922078C
:103D40002AD53278702A07D0DDF800C08CF0100C2C
:103D50005CEA0B0C05D00EE040228DF80420012215
:103D600008E050EA010306D030238DF804308DF8C6
:103D7000052002229146009B83F0080353EA0B03BF
:103D80000AD150EA010201D1620705D530228DF82F
:103D900004204FF001097F1E3278582A04D039A23E
:103DA0000C920CAA02920BE03BA2F9E75B46009A48
:103DB000FCF732FC0C9B9B5C029A521E0292137021
:103DC00050EA0102F2D1029804A9081A00F1200B6E
:103DD000600702D524F4803400E001275F4502DD4E
:103DE000A7EB0B0000E0002000EB0B010090039814
:103DF0004944401A0390E00306D453462146179ADB
:103E0000039800F0A9F90544002706E001A85246EE
:103E1000C05D179990476D1C7F1C4F45F6DBE00392
:103E20000CD553462146179A039800F095F905449E
:103E300004E030205246179990476D1C0099481EA7
:103E400000900029F5DC08E00298029952460078BB
:103E5000491C0291179990476D1CBBF10001ABF111
:103E6000010BF1DC5BE100F065F90544761C30786C
:103E700000287FF40DAE19B02846BDE8F08F000091
:103E80000928010030313233343536373839616230
:103E900063646566000000003031323334353637F4
:103EA000383941424344454600000000600700D4D1
:103EB000062708F1070020F00700F0E802238046FB
:103EC00003F0004C5FEA0C0001D097A009E0200548
:103ED00001D596A005E0E00701D095A001E0AFF282
:103EE0004C001390307823F0004365280CD006DC9A
:103EF000452809D046281DD047287FD13BE06628B9
:103F000018D067287AD136E00021112F01DB11206B
:103F100000E0781CCDE9000104A90CA8FFF7EEFC35
:103F2000DDE90D010C9A4FF0000B07F10109109229
:103F300000914EE04FF000400097CDE9011004A938
:103F40000CA8FFF7DBFCDDE90D020C9B0F994FF08D
:103F5000000B91461093009211B9791C00EB0109F6
:103F6000B7EB090003D4C0F1FF3B07F10109A9EB4E
:103F70000700019042E0012F00DA01270021112FF4
:103F800001DD112000E03846CDE9000104A90CA8AC
:103F9000FFF7B4FCDDE90D010C9A00914FF0000B26
:103FA000B946109221070FD4009A4A4503DA914688
:103FB00001E0A9F10109B9F1010F05DD109AA9F19C
:103FC0000101515C3029F4D0B84202DA10F1040F3B
:103FD00003DA0121CDE9011010E0002803DC83445D
:103FE000A9EB000102E0411C494500DD8946A0EB38
:103FF0000B00401C01904FF000400290200705D4B8
:104000000198484502DB4FF0FF30019000208DF809
:104010004B0002980DF14B07B0F1004F25D0022064
:104020000C902B200D90029800280CDA4042029050
:104030002D200D9007E00A210298FCF7D7FA3031C5
:10404000029007F8011D0C99481E0C900029F2DC23
:1040500002980028EFD1791E0D980870307800F092
:10406000200040F0450007F8020D11A8C01BC01D3C
:1040700002901398007800B1012000EB090101982B
:1040800001EBE071029801440398401A401E03902E
:10409000E00306D453462146179A039800F05CF8D3
:1040A00005441398007818B15246179990476D1C33
:1040B000E00323D553462146179A039800F04CF8A5
:1040C00005441BE0BBF1000F07DB0098584504DDF9
:1040D0001098179910F80B0001E0179930205246FC
:1040E000904701980BF1010B401E05F1010501906D
:1040F00004D12E205246179990476D1CB9F100014A
:10410000A9F10109DEDC05E017F8010B5246179909
:1041100090476D1C0299481E02900029F4DC53461A
:104120002146179A03989EE62D0000002B00000000
:10413000200000002DE9F041044600251E461746E8
:10414000880404D405E039462020B0476D1C641E65
:10415000F9D52846BDE8F0812DE9F0410446002557
:104160001E469046C80301D5302700E0202788046A
:1041700004D505E041463846B0476D1C641EF9D5AC
:104180002846BDE8F0814A68002A06D00A68531C18
:104190000B6010704868401E486070472DE9F0477A
:1041A0004FF0684202EB40030C460546B3F1654F01
:1041B0003CBF02EB4102B2F1654F80F0CD8000BF01
:1041C000C0F3C752C1F3C753D21A1B2A06DD10F041
:1041D000004F14BF87488848BDE8F08712F11A0FD6
:1041E0002FDA11F0004F06D010F0004F0CBF8348BB
:1041F0008348BDE8F08721462846FCF75AF8064672
:10420000FFF73CFB042808BFFFF75DFB2846FFF7DC
:1042100035FB05462046FFF731FB04463046FFF7E5
:104220002DFB042D18BF052D08D1042C18BF052C1B
:1042300004D1002804BF0220FFF75AFB3046BDE836
:10424000F0874200B2EB410F25D910F0004F19BFA3
:104250006C4F6D4E6D4F6E4E224685F000441546F4
:104260000A4680F0004110460A1A5200B2F1807FDF
:104270003ED248406749DFF8A0A110F0004F18D0A7
:104280004FF03F483846FBF7DCFF074651463046C3
:10429000FBF7D7FF17E011F0004F04BF00263746A9
:1042A000E2D010F0004F19BF5C4F5D4E5D4F5E4E87
:1042B000DAE74FF07C583846FBF771FF0746514666
:1042C0003046FBF76CFF064641462846FBF7BFFF2A
:1042D0002146FBF764FF824621464046FBF7B7FFC5
:1042E0002946FBF7B1FF5146FBF7E3FF044604E024
:1042F00021462846FBF7DDFF04460146FBF7A7FFF2
:1043000080464A49FBF7A3FF4949FBF748FF41466E
:10431000FBF79DFF4749FBF742FF4146FBF797FF3D
:104320004549FBF73CFF4146FBF791FF4349FBF74B
:1043300036FF054641462046FBF789FF2946FBF735
:1043400086FF3146FBF72BFF2146FBF728FF394656
:10435000BDE8F047FBF723BF4FF07F42B2EB400FC1
:1043600028BFB2EB410F03D2BDE8F047FFF7A9BA6F
:1043700040EA01035B0008BF44F0FF410AD0B2EB02
:10438000400F08BFB2EB410F06D125F0804024F06A
:10439000804105460C4613E7B2EB400F12BF5FEABF
:1043A000410345F0FF4004F000413FF409AFB2EB98
:1043B000410F12BF5FEA400205F0004044F0FF41A8
:1043C0003FF4FEAE4A0092EA40033FF5F9AE002A00
:1043D000ACBF4FF09F464FF03E563146FBF737FFDC
:1043E000054631462046FBF732FF04462846214663
:1043F000E6E60000DB0FC9BFDB0FC93FDB0F49401A
:10440000DB0F49C00000C9BF22AAFDB90000C93FA7
:1044100022AAFD390060ED3EC30ACE37000049C034
:1044200022AA7DBA0000494022AA7D3A2DAD65BD81
:104430008FB8D53D0FB511BE61C84C3EA8AAAABE23
:1044400090B0FDF7BFF8FEF79FFEFEF70DFC674842
:10445000416941F0010141614069002200F0010021
:1044600000900E210F20FDF70BF90F20FDF7FAF851
:1044700060485F490C2201604FF4E1314160002146
:104480008160C160C0E904128161C161FEF78AF9EF
:1044900008B172B6FEE7FEF763FCFEF783FCFEF799
:1044A000B5FCFEF70FFDFCF7A5FD534C01222021C2
:1044B0002046FDF773F80122D50329462046FDF773
:1044C0006DF84EA000F073F9002229462046FDF752
:1044D00065F84DA000F06BF9012229462046FDF752
:1044E0005DF84CA000F063F944F62060FCF798FDFD
:1044F0004C492B462246A1F16C00FEF777FA08B131
:1045000049A000E04FA000F052F93A483C21483859
:10451000FDF788FE43483C215830FDF783FE4148B3
:104520006C38FCF75FFCFCF765FB4C494C4C0860B1
:1045300094E80E002046FEF7F9FD04F1300104F185
:1045400030000EC9FEF7F2FD04F1600104F16000D5
:104550000EC9FEF7EBFDA06EFCF70EF8089088463A
:10456000606EFCF709F882468B46206EFCF704F873
:1045700007468946A06BFBF7FFFF05460E46606BBA
:10458000FBF7FAFFCDE90601206BFBF7F5FFCDE95C
:104590000401A068FBF7F0FFCDE902016068FBF7BA
:1045A000EBFFCDE900012068FBF7E6FF089ACDE9B3
:1045B0000E280B4608A9024681E8E00E294800F0C3
:1045C000F6F8FEF7B7FD2848FEF7B0FCFCF7ECFF65
:1045D000224C264E4FF4005529463046FCF7D6FFB4
:1045E000FCF74CFD2068FEF7B9FCF5E7001002402F
:1045F00000380140C8020020000C0140435320480D
:104600004947480D0A0000004353204C4F570D0AFC
:10461000000000004353205445535420444F4E455E
:104620000D0A0000980100204D50553932353020D8
:10463000696E6974205355434345535346554C0D99
:104640000A0000004D50553932353020696E6974CA
:10465000204641494C45440D0A000000400000201E
:1046600058000020004800080000484200100140A7
:1046700070B50C4605468C21252000F039F82946F6
:10468000262000F035F844F08001272000F030F8B3
:104690000120FCF779FE2146BDE87040492000F07A
:1046A00001B800002DE9FC4140F080000E4F0C469F
:1046B0008DF804004FF400460A4D0022314638467A
:1046C000FCF76CFF4FF4FA7000902346074A01A9EB
:1046D0002846FDF71FFB012231463846FCF75EFFF6
:1046E000BDE8FC8198010020000C014098030020E7
:1046F0002DE9F347DFF84C9004464FF40048104F83
:1047000001AE0125002241464846FCF747FF2146FD
:10471000384600F01BF80C4C0020208080B2315C41
:10472000384600F013F82088401C80B22080A84250
:10473000F4D3012241464846FCF730FFBDE8FC8730
:1047400098010020000C01405400002013B582B0F5
:10475000044600208DF804002046FDF72FFA0528B6
:10476000FAD04FF4FA700090012301AA03A9204661
:10477000FDF7D0FA10B1FF2004B010BD9DF8040081
:10478000FAE770B50546FBF7AFFF044620F000409E
:10479000C0F1FF40C00F08D025F00040C0F1FF403D
:1047A000C00F04BF0120FFF7A3F8204670BD0FB46F
:1047B0004FF4807100B5C1B043AB6846429AFFF731
:1047C00043F86846FBF7E4FC81B26846FEF702F95D
:1047D00041B05DF814FB0102020304050607080955
:1047E0000A0B0C0D0E0F101000000000000000005E
:1047F0000102030406070809000000000102030487
:104800007B2264617461223A7B2270697463685F01
:104810006B70223A252E33662C2270697463685FB0
:104820006B69223A252E33662C2270697463685FA7
:104830006B64223A252E33662C227961775F6B7088
:10484000223A252E33662C227961775F6B69223AF2
:10485000252E33662C227961775F6B64223A252EF0
:1048600033662C2273706565645F6B70223A252E67
:1048700033662C2273706565645F6B69223A252E5E
:1048800033662C2273706565645F6B64223A252E53
:1048900033667D7D0A000000B84800080000002053
:1048A0002C010000160A0008E04800082C01002036
:1048B00054090000E03800080145420192108312BB
:1048C0007A032FC8417396C3032280BF32010926A1
:1048D00050DD01BC003A26B8023302021401000088
:04000005080000ED02
:00000001FF
