:020000040800F2
:10000000D809002001010008C53F0008613D000833
:10001000C13F00087D0A0008E94300080000000015
:10002000000000000000000000000000D5410008B2
:1000300029100008000000000D4000087D42000863
:100040001B0100081B0100081B0100081B01000820
:100050001B0100081B0100081B0100081B01000810
:100060001B0100081B0100081B0100081B01000800
:100070001B0100081B0100081B010008890F000874
:100080001B0100081B0100081B0100081B010008E0
:100090001B0100081B0100081B0100081B010008D0
:1000A0001B010008854200081B0100081B01000815
:1000B0001B0100081B0100081B0100081B010008B0
:1000C0001B0100081B0100081B0100081B010008A0
:1000D0001B0100089D4300081B0100081B010008CC
:1000E0001B0100081B0100081B010008DFF80CD0F1
:1000F00000F02CFC00480047ED430008D809002020
:100100000648804706480047FEE7FEE7FEE7FEE7B1
:10011000FEE7FEE7FEE7FEE7FEE7FEE781420008B6
:10012000ED000008D2B201E000F8012B491EFBD21D
:1001300070470022F6E710B513460A4604461946F2
:10014000FFF7F0FF204610BD421C10F8011B0029EC
:10015000FBD1801A7047F0B480EA0102D40F42004C
:10016000B2EB410F02D20246084611464A0042D085
:10017000C30DDDB2C1F3C752AD1A202D35DAC1F37C
:10018000160141F4000204B15242C5F1200602FA00
:1001900006F12A411044B3EBD05F23D0C4B1012D46
:1001A000A0EBC35009DCF0BC4FF0004202EAC3529E
:1001B000DBB200F5000000F02BBA400000F18070C7
:1001C00000EBC350A0F1807040EAD170490009E013
:1001D000490841EAC071A0EBC35000F50000400897
:1001E00000EBC350F0BC00F00ABA6142012202EBFE
:1001F0004101001BF6E7F0BC704781F00041AAE71F
:1002000080F00040A7E780EA010210B502F0004349
:10021000400022D04A001FD0010E01EB1261C0F352
:100220005600C2F3560240F4000042F40002A0FB64
:10023000022000047F39140400D0401C50EA124010
:1002400001D44000491EC2B20C0604EBD010401C81
:100250004008802A02D003E0002010BD20F00100F9
:10026000002900DA0020184310BD30B480EA0102F2
:1002700002F0004530F0004221F0004013D090B170
:10028000C30DD40DC2F31601C0F31600E41A41F4F5
:10029000000140F400027D34914201D3641C00E06F
:1002A0004900002C02DA30BC002070474FF40000F7
:1002B0000023914201D3891A034340084FEA4101C8
:1002C000F7D151B1914202D14FF0004105E002D285
:1002D0004FF0010101E06FF0010103EBC45028442D
:1002E00030BC00F08CB92DE9FE4F81EA030404F024
:1002F000004421F0004100944FF0000B23F0004334
:1003000050EA01045ED052EA03045BD0C3F30A54FE
:10031000C1F30A552C44A4F2F3340194A0FB025417
:10032000C1F3130141F48011C3F3130343F48013A9
:1003300001FB024400FB034E840A970A44EA8154FD
:1003400047EA8357A4FB076802958D0A05FB0785DA
:100350004FEA932C04FB0C542705029D4FEA0658E4
:1003600047EA1637B5EB08056EEB070C870E920EC1
:1003700047EA811742EA8312A7FB0201B6EB0B01A1
:1003800064EB00042B0D43EA0C335E1844EB1C5065
:10039000DA465146E7FB0201C5F313044FEA0B337B
:1003A00043EA14534FEA0432019C43EA0603A4F1E2
:1003B0000C040294009CCDE900B400F0A1F903B054
:1003C000BDE8F08F00200146F9E72DE9F04D81EA04
:1003D000030404F0004B21F0004514464FF0000ADE
:1003E00023F0004150EA050220D054EA01021DD05A
:1003F000C5F30A570246C5F31303C1F31300C1F353
:100400000A5640F4801543F48013A7EB0608101B2E
:10041000D64608F2FD3873EB050002D308F1010857
:1004200001E092185B41B8F1000F03DA00200146A9
:10043000BDE8F08D00204FF48011064684460EE0A2
:10044000171B73EB050705D3121B63EB050306436C
:100450004CEA010C49084FEA300092185B4150EA1F
:100460000107EDD152EA030012D082EA040083EAC8
:100470000501084305D0101BAB4106D20122002321
:1004800006E000224FF0004302E06FF0010253103B
:100490001AEB06004CEB085110EB0A0041EB0B0184
:1004A000BDE8F04D00F01DB9002801DBC0F10040AF
:1004B000002901DBC1F10041814201D801207047D0
:1004C00000207047002801DBC0F10040002901DB5B
:1004D000C1F10041814201D30120704700207047E3
:1004E000002801DBC0F10040002901DBC1F100411F
:1004F000814201D90120704700207047C10F80EA76
:10050000E0700844CA079623002100F081B89623C2
:100510000022114600F07CB800F0004220F00040BC
:10052000C10DC0F3160040F400007F2901DA00205D
:100530007047962903DCC1F19601C84001E0963965
:100540008840002AF4D04042704700F0004230F06A
:1005500000400AD0C10D01F56071C0F3160042EAF7
:100560000151C208400711437047002001467047FF
:1005700030B50B46014600202022012409E021FA73
:1005800002F59D4205D303FA02F5491B04FA02F570
:100590002844151EA2F10102F1DC30BD2DE9F05F07
:1005A0000546002092469B468846064681464024E2
:1005B0001BE0284641464746224600F0EEF95346E6
:1005C0005A46C01A914110D311461846224600F0EF
:1005D000D5F92D1A67EB01084F462246012000216C
:1005E00000F0CCF917EB00094E41201EA4F10104E4
:1005F000DFDC484631462A464346BDE8F09F0029E5
:10060000A8BF7047401C490008BF20F00100704798
:1006100010B4B0FA80FC00FA0CF050EA010404BFF8
:1006200010BC704749B1CCF1200421FA04F411FA4E
:100630000CF118BF012121430843A3EB0C01CB1D92
:100640004FEA00614FEA102042BF002010BC704703
:1006500000EBC35010440029A4BF10BC7047401CDD
:10066000490008BF20F0010010BC7047420005D0CF
:10067000C0F3C7525242914201DC0020704700EBA8
:10068000C1507047F0B4002802DCF0BC0020704775
:10069000C0F3C751C0F3160040F40000CA0701D1EF
:1006A0004000491E3F2202EB6105002211464FF433
:1006B000000626FA01F31344D418844201D8001B23
:1006C0001A464000491C1729F3DD5100814202D22D
:1006D0004FF0FF3100E0002102EBC550F0BCFFF706
:1006E0008EBF10B5141E73F1000408DA401C41F1EE
:1006F000000192185B411A4301D120F0010010BDA6
:100700002DE9F04D92469B4611B1B1FA81F202E01B
:10071000B0FA80F22032904600F030F904460F46DD
:1007200040EA0A0041EA0B0153465A46084313D0F7
:10073000114653EA010019D0C8F14002504600F0BA
:100740002CF905460E4650465946424600F016F929
:10075000084305D0012004E020463946BDE8F08D6D
:100760000020054346EAE0762C4337430A986305A8
:10077000E40AA0EB08000022FD0A44EA47540A30CC
:1007800002D500200146E9E7010510196941DDE9BC
:10079000084500196941BDE8F04DA2E72DE9FE4F7B
:1007A000804681EA0300C00F0C46009021F0004112
:1007B00023F00045B8EB0200A94105D2404621468E
:1007C00090461C460B46024623F00040104347D09B
:1007D000270DC7F30A00C3F30A510290401A019093
:1007E00040286BDAC3F3130040F4801B0098924654
:1007F00020B10023D2EB030A63EB0B0B019859469F
:10080000C0F14002504600F0B9F806460D46504689
:100810005946019A00F0D1F810EB0800614100241C
:1008200087EA115284EAE7731A4340D0009A62B310
:10083000019A012A4FEA075215DC001B61EB020105
:100840004FF0004202EA0752CDE90042001C41F598
:10085000801132462B46FFF753FF03B0BDE8F08FFF
:1008600040462146F9E7001B61EB0201001C41F5FF
:10087000801300185B412018A2F5001747EB030115
:1008800040EAD570B6196D4111E06D084FEA3606A1
:1008900045EAC0754FEA0752001B61EB0201001CDC
:1008A00041F5801149084FEA3000001951413246A4
:1008B0002B4603B0BDE8F04FFFF713BF00980122AD
:1008C00040000023D0EB020263EBE0730098214666
:1008D0004FEAE074B8EB000061EB0401E9E783F054
:1008E00000435BE781F0004158E7C1F30A52C1F3CE
:1008F000130140F2FF3341F480119A4202DA0020E2
:100900000146704740F233439A42A2F2334202DC7E
:10091000524200F042B800F031B8000030B5041E79
:1009200071F1000404DB4FF00044404264EB01012C
:10093000141E73F1000405DB1C464FF000435242C5
:1009400063EB0403994208BF904230BD1CB50948CF
:100950000090094801900546009C06E0E06840F0E0
:10096000010394E8070098471034AC42F6D3FFF730
:10097000C1FB00009C580008BC580008202A04DB7A
:10098000203A00FA02F1002070479140C2F12003A2
:1009900020FA03F3194390407047202A04DB203AE1
:1009A00021FA02F00021704721FA02F3D040C2F18F
:1009B00020029140084319467047202A06DBCB17D6
:1009C000203A41FA02F043EAE07306E041FA02F30A
:1009D000D040C2F120029140084319467047000000
:1009E0002DE9F04790460A46816A0446D0E9066739
:1009F000C2601046FFF701FC394681466061FFF78F
:100A0000AAFB31460746E061FFF76AFD30B986F080
:100A1000004638463146FFF755FD08B93746E661CE
:100A2000D4E90050D4F808A0666A3946FFF7EBFB1A
:100A3000074628464946FFF7E6FB3946FFF78BFB9A
:100A4000054650464146FFF7DEFB01462846FFF7C4
:100A5000D4FB314607462062FFF742FD30B986F0ED
:100A6000004638463146FFF72DFD08B93746266265
:100A70003846C4F81090BDE8F0870000FEE700009B
:100A80002DE9F04F85B0814630A0884604F042F849
:100A9000B8F1000F24D000274FF0000A4FF0000BF0
:100AA000002500BF484603F011FA09F1500652CE66
:100AB0002846FFF750FB054658462146FFF74BFBFB
:100AC000834650463146FFF746FB824646F2A81061
:100AD00000F07AFA0137B8B24045E3D305E000BF31
:100AE00000254FF0000B4FF0000A4046FFF70FFDC6
:100AF000804628464146FFF7B8FB04465846414623
:100B0000FFF7B3FB834650464146FFF7AEFB064670
:100B10002046FFF71AFD804658468A46FFF715FD26
:100B2000054630460F46FFF710FD029014A04246DE
:100B30005346CDE90057039103F0ECFFC9E9084B98
:100B4000C9F8286005B0BDE8F08F00BF43616C694B
:100B500062726174696E67204779726F202825641C
:100B60002073616D706C65732C2035306D73206956
:100B70006E74657276616C292E2E2E0D0A000000AF
:100B80004779726F2043616C6962726174696F6E3C
:100B900020436F6D706C6574652E204269617365CA
:100BA000733A20583D252E32662C20593D252E3291
:100BB000662C205A3D252E32660D0A0040F2902008
:100BC000C2F20000704700002DE9F04F85B000F040
:100BD000F1FC00F02BFA40F29029C2F20009C9F8AA
:100BE000640000F02DFA4442D9F83800D9F85420B6
:100BF0000490D9E91001C9F86840C9E91201D9F88F
:100C00006400C9F85020FFF779FC41F26F2AC3F65F
:100C1000035A5146FFF7F7FA40F6DB7BC4F2C90BE3
:100C20005946FFF7F0FA0026C4F250163146FFF796
:100C30001CFB47F20E48C3F65A384146FFF715FB36
:100C40000027C4F2F0173946FFF70FFB0546C9F835
:100C500040002046FFF752FC5146FFF7D4FA5946B0
:100C6000FFF7D1FA3146FFF700FB4146FFF7FDFAE7
:100C70003946FFF7FAFA0446D9F85860C9F8440033
:100C800028464146FFF7BFFA3146FFF764FAD9F824
:100C90005C50C9F8580020464146FFF7B4FA29468F
:100CA000FFF759FAC9F85C000498C9F89C8003F072
:100CB000B5F8D9F8380003F009F9D9F83800D0F8B8
:100CC00050A0C9F880A0416DC9F88410D0F858B080
:100CD000C9F888B0446CC9F88C40866CC9F890603B
:100CE000C76C38463946C9F89470FFF78CFA054648
:100CF00030463146FFF787FA2946FFF72CFA04F011
:100D00002DFD014684F0004004F0D6FB0021C4F222
:100D10003431FFF778FA40F6DB71C4F24901FFF78E
:100D2000A4FA8046504647F20E4AC3F65A3AD9F81A
:100D300074505146FFF767FA2946FFF70CFA4CF654
:100D4000CC410446C3F64C614046FFF75CFA4CF6D2
:100D5000CD410546C3F64C712046FFF754FA2946AB
:100D6000FFF7F9F9C9F874003046394604F0A4FBDE
:100D70000021C4F23431FFF746FA40F6DB71C4F2C9
:100D80004901FFF772FA0446D9F82C50D9F870607F
:100D9000C9F8780058465146FFF735FA3146FFF753
:100DA000DAF9C9F870002846214603F02DF9D9F880
:100DB0002800D9F8741003F027F9D9E91001D9F8FF
:100DC0001C40FFF7C8F94FF07C51FFF71CFA0146B1
:100DD000204603F019F940F25817C2F2000738789C
:100DE000D9F83040D9F8705070B1B9682846FFF78B
:100DF00004FA0021C4F234310646FFF755FB38B936
:100E00007868411E0DE000BF0120BD60387014E01D
:100E10000021CCF234313046FFF754FB796808B931
:100E2000013179604FF4B4704843BD60FFF766FB51
:100E300001462846FFF78FF905462046294603F06C
:100E4000E3F8D9E91D04D9F86C50FFF77EFB804622
:100E500020460F46FFF779FB044628460E46FFF76B
:100E600074FB029045F64800C0F6000042463B463F
:100E7000CDE90046039103F04DFE05B0BDE8F08FCB
:100E80002DE9F04140F29027C2F2000740F2BC1475
:100E900040F21C2C40F25816C2F20004C2F2000CC0
:100EA000B8634CF6CD40C2F200060CF1300140F2BE
:100EB0003438C7E9074C07F1240CCCF2840006F162
:100EC0000C0E06F1340204F13003C2F200080025D2
:100ED0008CE80601F86707F140003C21A7F8A05014
:100EE000C7E90C3EC7E90055C7E90255C7E90455F3
:100EF000FFF71FF94DF20A70C3F6A340C7E9265069
:100F000040F21000C2F2000090E80E00C7E9205540
:100F1000C7E92255C7E9245506F1340C00F16007F2
:100F20008CE82E008CCF4FF20001C4F2605184E8AF
:100F30008C000222C6E91551016B84F82D20D0E9FE
:100F40000D20C6E91155F564F56586F8615048F243
:100F5000000C0026C4F23B5CC4F2F016C4E90E0596
:100F60000120C4E90856A562C4E90355C4E9055C3B
:100F7000C4E91455A565C4E90C12C4E91055A5646B
:100F800084F85D00BDE8F08140F2A830C2F20000B4
:100F900000F0E8B880B500F0CFFC40F27C21C2F24E
:100FA000000108604EF6FC50CEF20000016841F0EE
:100FB0008071016041F20000CEF20000016841F052
:100FC0000101016080BD0000002808BF704780B5A6
:100FD00041F2040E40F27C23CEF2000EC2F2000376
:100FE000DEF80020D3F800C04DF68363C4F21B3353
:100FF000ACFB0331890C4843DEF80010891A8142AA
:101000000ED2DEF80010891A814209D2DEF80010F3
:10101000891A814204D2DEF80010891A8142EBD38A
:10102000BDE88040704700007047000040F28C40EF
:10103000C2F2000001680022486A4A6200B27047AA
:1010400040F21C50C2F2000001680022486A4A6265
:1010500000B27047EFF3108072B600BFFEE70000E9
:10106000FFF7B2BD014690F82100022816D10868AA
:10107000D1E90FC3026822F00E020260026822F07A
:1010800001020260012000FA03F2CCF8042081F88A
:1010900021000020002281F820207047042088636E
:1010A0000120002281F820207047000090F82110D4
:1010B000022923D1026840F2040C1168C4F2020C28
:1010C00021F00E01116013682F21C4F202018A423F
:1010D00023F00103136015DD3023C4F202039A42AA
:1010E0001CD04423C4F202039A421BD05823C4F2FA
:1010F00002039A421CD14FF4803321E00421816322
:10110000012070470823C4F202039A420ED01C2328
:10111000C4F202039A420BD1102311E04FF4807302
:101120000EE000BF4FF480530AE000BF012307E048
:101130000CF168014FF080738A4208BF4FF48013AE
:101140000121CCF8003080F82110416B00220029E9
:1011500080F8202004BF0020704780B58847002019
:1011600080BD000010B5D0E90FCE0168DCF800307A
:101170000A6823FA0EF35C072AD512F0040427D07C
:101180000A68920603D40A6822F004020A602F2239
:10119000C4F20202914240F20402C4F202025BDD98
:1011A0003023C4F20203994272D04423C4F20203F2
:1011B000994273D05823C4F20203994240F07A80D6
:1011C0004FF480231360C16A002940F098806FE0DB
:1011D0009C0727D512F0020424D00A68920606D490
:1011E0000A6822F00A020A60012280F821202F22D8
:1011F000C4F20202914240F20402C4F202023BDD58
:101200003023C4F20203994260D04423C4F20203A3
:1012100099425FD05823C4F20203994260D14FF43F
:10122000003365E01B0743D512F0080208BF10BD6C
:101230000A6822F00E020A60012101FA0EF2CCF8CF
:101240000420816380F82110016B0022002980F8BE
:10125000202054D12CE000BF0823C4F2020399429D
:1012600022D01C23C4F20203994223D140231360ED
:10127000C16A002943D11BE00823C4F2020399424A
:101280002CD01C23C4F20203994229D120232FE041
:101290004FF480631360C16A89BB09E04FF4804357
:1012A0001360C16A59BB03E004231360C16A31BBF8
:1012B00010BD00BF02F168044FF08063A14208BF77
:1012C0004FF480031360C16AC9B9F1E74FF40073AA
:1012D0000EE000BF4FF400530AE000BF022307E016
:1012E00002F168044FF00073A14208BF4FF40013ED
:1012F0001360816A0022002980F82020D8D0BDE840
:1013000010400847014600284FF0010008BF704711
:101310002DE9F043D1F800C04FF6F873CBF6FD731A
:101320004CF6CD426344CCF6CC42A3FB02236FF0D3
:10133000030202EA93020023C4F2020301F10C0843
:10134000C1E90F320222D1E9019E98E8F00181F84B
:101350002120DCF8002043F6F0739A4342EA0902A8
:1013600042EA0E0222432A4332433A4342EA080247
:10137000CCF8002000228A6381F8210081F8202027
:101380000020BDE8F04370472DE9F04F82B00E68B1
:10139000002E00F0FD8041F20042C4F2010204235D
:1013A00040F2004E904208BF03234FF6FF7CC4F288
:1013B000010E009300240123C1F2100C4FF0000A2B
:1013C0004FF000094BE000BF41F20002C4F20102FD
:1013D000009F904208BF022704F00C030F229A409E
:1013E0002BEA020207FA03F34FEA9A051A4346F87A
:1013F00025204E6840F20C45F202DEF8082054BF6A
:1014000022EA080242EA0802C4F20105CEF80820E6
:101410002A68B30254BF22EA080242EA08022A609C
:10142000B303DEF8042054BF22EA080242EA0802AD
:10143000F303CEF80420DEF800204FF0010354BF80
:1014400022EA080242EA0802CEF800200E680AF1F9
:10145000010A36FA0AF204F1040400F0998003FA52
:101460000AFB16EA0B08F1D04E68664512DC122E14
:1014700056D8DFE806F0350B4D49555555555555AD
:101480005555555555555545510000BFD1F80C904F
:1014900046E000BF4FF6FF72C1F2210296420FDC18
:1014A0000022C1F2110296421AD00022C1F21202A9
:1014B000964215D00022C1F22102964210D02FE0B0
:1014C0000022C1F2220296420AD00022C1F2310269
:1014D000964205D00022C1F23202964220D100BFCE
:1014E0008A684AB1012A14BFC0F814B0C0F810B01D
:1014F0004FF0080914E000BF4FF0040910E000BFEE
:10150000CA6802F104090BE04FF0000908E000BFCF
:10151000CA6802F1080903E0CA6802F10C0900BFB9
:1015200002462646B8F5807F24BF0432203E176865
:101530000F25B54027EA050509FA06F6354315607B
:10154000CA79D2067FF582AF41F21803C4F20203D2
:101550001A68AEF57E7642F001021A601A6802F04F
:1015600001020192019A2AF0030256F802B040F6F5
:101570000002C4F20102904208D040F60042C4F2D8
:10158000010290427FF420AF012725E7002723E7DF
:1015900002B0BDE8F08F0000C26802EA0103914387
:1015A00041EA034101617047002A08BF0904016153
:1015B0007047000040F2D450C2F20000006870474B
:1015C00040F2040040F2D451C2F20000C2F2000125
:1015D00000780A68104408607047000080B542F245
:1015E0000000C4F20200016841F010010160032014
:1015F00000F08CF80F2000F005F800F027F800202C
:1016000080BD000070B540F20406C2F2000640F250
:101610000C013278C2F200014FF47A730968B3FB0F
:10162000F2F20446B1FBF2F1084600F0CBFF0F2CBA
:101630004FF0010508D838B94FF0FF30214600229D
:10164000002500F037F87460284670BD82B041F282
:101650001800C4F202000168022241F00101016099
:10166000016801F0010101910199416841F0805147
:101670004160406800F08050009000980420C4F25F
:101680000100016862F31A61016002B07047000056
:10169000002848BF704700F01F01012202FA01F143
:1016A0001C2202EAD0004EF20012CEF2000281505B
:1016B0007047000010B54EF60C5CCEF2000CDCF862
:1016C0000030C3F3022E8EF00704042C28BF04243C
:1016D000BEF103034FF0FF3E0EFA04F438BF0023BF
:1016E000A14399400EFA03F39A43114300F00F020D
:1016F00000F160430901043A03F5644362440028A1
:1017000048BF02F10C03197010BD00004EF60C51D9
:10171000CEF200010A684FF6FF031A4060F30A2276
:1017200042F0806040F0FD7008607047002804BF00
:10173000012070472DE9F04381B042F20008C4F265
:1017400002080446D8F800000D4600F00700814268
:101750000CD9D8F8000020F007002843C8F8000092
:10176000D8F8000000F00700A8426CD1206841F2D0
:1017700004098107C4F2020917D5410705D5D9F834
:10178000001041F4E061C9F80010010705D5D9F84F
:10179000001041F46051C9F80010D9F80010A26897
:1017A00021F0F0011143C9F80010C00742D1D8F868
:1017B000000000F0070085420CD2D8F8000020F0AD
:1017C00007002843C8F80000D8F8000000F0070020
:1017D000A84238D12068410707D5D9F80010E2683F
:1017E00021F4E0611143C9F80010000708D5D9F8C9
:1017F0000000216920F4605040EAC100C9F80000EF
:10180000D9F8002002F00C00082841F20020C0F2B4
:101810007A004DD145F2A273C2F38341C0F60003B2
:10182000595CD20338D440F60010C0F23D00484362
:101830003EE000BF606859F8041C022808D0012867
:1018400026D1890306D4012001B0BDE8F08300BF92
:101850008901F8D5D9F8001021F003010843C9F82F
:101860000000FFF7A7FE064641F28837D9F80000CE
:10187000616800F00C00B0EB810F98D0FFF79AFE82
:10188000801BB842F2D9032001B0BDE8F08300BF4D
:101890008907D8D5DEE700BFD9F8002045F2A0734C
:1018A000C2F34042C0F600039A5C4843B0FBF2F03A
:1018B000D9F8001045F28872C1F30311C0F6000296
:1018C000515C40F20C0220FA01F140F20800C2F231
:1018D00000000068C2F200021160FFF793FE0020D2
:1018E00001B0BDE8F083000040F20C0041F20401B9
:1018F000C2F20000C4F202010068096845F2987261
:10190000C1F30221C0F60002515CC84070470000DC
:1019100040F20C0041F20401C2F20000C4F20201E4
:101920000068096845F29872C1F3C221C0F600024E
:10193000515CC8407047000041F2040CC4F2020C34
:10194000DCF8003003F00C00082841F20020C0F25F
:101950007A0018BF704745F2A271C3F38342C0F604
:1019600000018A5CD90305D440F60010C0F23D00A6
:1019700050437047DCF8001045F2A073C1F34041BA
:10198000C0F60003595C5043B0FBF1F07047000013
:10199000002804BF012070472DE9F04182B00446C1
:1019A000007841F20006C007C4F202060CD070684D
:1019B00000F00C00042840F081803068800303D5DB
:1019C0006068002800F04681207880071BD5706889
:1019D00010F00C0F09D0706800F00C00082840F0DF
:1019E00087807068C00300F183803068800703D56A
:1019F0002069012840F02E813068616920F0F800EC
:101A000040EAC10030602078000713D420784007F6
:101A10002CD4E569002D00F01881706800F00C00EE
:101A2000082840F0A780012D40F00481012002B079
:101A3000BDE8F081A069002800F084800020C4F295
:101A400042200121C0F88014FFF7B4FD054600BF15
:101A5000706A800700F1B280FFF7ACFD401B0228DE
:101A6000F6D9032002B0BDE8F08100BFF0695FEA5B
:101A7000C00808D4F06940F08050F061F06900F0CF
:101A800080500090009847F20007C4F200073868C1
:101A9000C00549D4386840F480703860FFF78AFD8B
:101AA000054600BF3868C0053ED4FFF783FD401BE4
:101AB0006428F7D9032002B0BDE8F081706800F017
:101AC0000C00082803D17068C0033FF576AF616849
:101AD0003068002900F00C81B1F5A02F00F00081E2
:101AE000B1F5803F40F01A8140F480301CE100BF26
:101AF0002069002840F20000C4F2422000F08880F3
:101B000001210160FFF756FD054600BF30688007E0
:101B10003FF572AFFFF74EFD401B0228F6D90320B8
:101B200002B0BDE8F08100BFE168306A002900F032
:101B30009D80052900F09280012940F0AF8040F09F
:101B40000100B1E00020C4F242200021C0F880145E
:101B5000FFF730FD054600BF706A80077FF556AF7E
:101B6000FFF728FD401B0228F6D9032002B0BDE88C
:101B7000F08100BF0027C4F2422700203866FFF73B
:101B800019FD022D05460DD13068800140F1DE803F
:101B9000FFF710FD401B02284FF00300F4D902B0FC
:101BA000BDE8F081306880014FD5FFF703FD401B91
:101BB00002284FF00300F5D9F1E700BF40F20C0016
:101BC000C2F20000006844F6D351C1F26201A0FBEA
:101BD0000101480A019000BF00BF0198411E002882
:101BE00001913FF413AF00BF0198411E00280191FD
:101BF0003FF40CAF00BF0198411E002801913FF453
:101C000005AF00BF0198411E00280191E4D1FDE617
:101C100000210160FFF7CEFC054600BF3068800759
:101C20007FF5F1AEFFF7C6FC401B02284FF0030022
:101C3000F4D9B4E77068216A00F480328A4209D18D
:101C4000616A00F47010884204D1002002B0BDE83F
:101C5000F08100BF012002B0BDE8F08140F0040037
:101C60003062306A40F001001EE000BF20F0010049
:101C70003062306A20F004003062FFF79BFC0546BA
:101C800041F28837306A800720D5FFF793FC401B6C
:101C9000B8424FF00300F5D981E700BF20F0010002
:101CA0003062306A20F004003062FFF783FC0546A2
:101CB00041F28837306A800708D4FFF77BFC401B6D
:101CC000B842F7D9032002B0BDE8F081B8F1000FA7
:101CD0003FF59FAEF06920F08050F06199E600BFBB
:101CE00040F480203060306840F480301CE000BF59
:101CF00020F480303060306820F480203060FFF7BE
:101D000059FC0546306880037FF55EAEFFF752FC54
:101D1000401B64284FF00300F4D940E720F48030E2
:101D20003060306820F480203060FFF743FC0546C7
:101D3000306880033FF548AEFFF73CFC401B642849
:101D4000F6D9032002B0BDE8F08100BF206AB0F5EB
:101D5000803F05D17168A26821F4003111437160A0
:101D60007168626A21F474111143084370600120A4
:101D70003866FFF71FFC0446306880013FF565AF09
:101D8000FFF718FC001B02284FF00300F4D906E708
:101D900090F851007047000070B528B1416A29B130
:101DA00000210161142106E0012070BD4168B1F5F8
:101DB000827F02D01C21002242500026866290F8C9
:101DC000511029B980F85060054600F039F82846CE
:101DD000022180F8511090E82E0002F482720C6803
:101DE00003F4044324F040040C601A4405F4006337
:101DF00005691A4405F0020345691A4405F0010318
:101E00008569C4691A4405F400731A4404F0380360
:101E1000046A1A4404F08003846A1A4304F40053E9
:101E20001A430A60042202EA15424A60CA6922F48F
:101E30000062CA610121466580F85110304670BDCC
:101E4000F0B585B040F600050446C4F2010500680F
:101E500005F52051002788420497CDE902770197C4
:101E600002D005B0F0BD00BF41F21800C4F202007C
:101E7000016801AE41F480510160016801F48051B4
:101E800000910099016841F0040101600068314649
:101E900000F0040000900098A02001900220029021
:101EA000032004902846FFF76FFA4020CDE9010790
:101EB000284631460397FFF767FA40F264351C2045
:101EC000C2F20005C4F2020080214FF40052C5E9BD
:101ED00000072846C5E90271C5E90477C5E906721D
:101EE000FFF710FA002818BFFFF7B4F8E5646C623A
:101EF00005B0F0BD2DE9F04182B0044690F85100E4
:101F0000012819D160681D4617460E46B0F5827F3C
:101F100001D1A068A0B1FFF74DFB8046002E4FF025
:101F2000010018BF002F03D102B0BDE8F08100BF4F
:101F300094F85000012811D1022002B0BDE8F081D0
:101F4000042084F851002046314632463B46009535
:101F500000F0CEF902B0BDE8F08100BF012084F8A6
:101F600050000420002184F851006165A663A78712
:101F7000E7872163A186E186A2682068B2F5004F59
:101F80002164616438D00168490640D5E168E08F7A
:101F9000002944D000287BD0681C0CD11BE000BF76
:101FA000C068A16B21F8020BA163E08F0138E087C4
:101FB000E08F00286CD020688168C907F0D1FFF756
:101FC000F9FAA0EB0800A842F2D342E0FFF7F2FAD8
:101FD000E08F00285CD020688168C907F6D0C0680F
:101FE000A16B21F8020BA163E08F0138E087E08F3D
:101FF0000028F0D14CE000BF016821F040010160F1
:10200000016821F48041016001684906BED401687D
:1020100041F040010160E168E08F0029BAD1B8B316
:10202000681C0CD124E000BF007BA16B0870A06B82
:102030000130A063E08F0138E087E08F40B3206873
:102040008168C907F0D1FFF7B5FAA0EB0800A842F4
:10205000F3D3012084F85100002084F850000320BD
:1020600002B0BDE8F08100BFFFF7A4FAE08F78B1BD
:1020700020688168C907F7D0007BA16B0870A06B4E
:102080000130A063E08F0138E087E08F0028EFD1B6
:102090006068B0F5827F11D1A068B0F5004F02D022
:1020A000B0F5806F0AD12168B0F5806F0A6822F020
:1020B00040020A6002D12046012101E02046802131
:1020C00000222B46CDF8008001F0F4FF28B1606DAE
:1020D00040F02000606520206065012084F85100F8
:1020E000002084F85000606D002818BF012002B065
:1020F000BDE8F0812DE9F04182B01D4616460F463D
:102100000446FFF757FA94F8511001290ED1804682
:10211000002F4FF0010018BF002E03D102B0BDE820
:10212000F08100BF94F85000012803D1022002B0D2
:10213000BDE8F081012084F850000320002184F8DC
:10214000510061652763A686E686A163A187E187C2
:10215000A0682164B0F5004F2068616407D1016870
:1021600021F040010160016841F480410160016893
:10217000490603D4016841F0400101606168731EA3
:10218000E268B1FA81F1B3FA83F349095B09B2F568
:10219000006F41EA030139D131B137F8021BC16048
:1021A0002763E08E0138E086E08E002870D0681C3E
:1021B0000BD11AE0216B31F8022BC2602163E08E53
:1021C0000138E086E08E002862D0206881688907A7
:1021D000F0D4FFF7EFF9A0EB0800A842F2D338E003
:1021E000FFF7E8F9E08E002852D02068816889075F
:1021F000F6D5216B31F8022BC2602163E08E0138E5
:10220000E086E08E0028F0D142E000BF39B1397895
:102210000173206B01302063E08E0138E086E08E90
:10222000B0B3681C0BD123E0216B09780173206BDC
:1022300001302063E08E0138E086E08E40B32068F4
:1022400081688907F0D4FFF7B5F9A0EB0800A84230
:10225000F3D3012084F85100002084F850000320BB
:1022600002B0BDE8F08100BFFFF7A4F9E08E78B1BD
:10227000206881688907F7D5216B09780173206B85
:1022800001302063E08E0138E086E08E0028EFD137
:102290002046022101222B46CDF8008001F00AFFE2
:1022A00040B92046802100222B46CDF8008001F065
:1022B00001FF28B1606D40F020006065202060655E
:1022C000A06838B9002001902068C1680191806839
:1022D00001900198012084F85100002084F85000FA
:1022E000606D002818BF012002B0BDE8F081000039
:1022F0002DE9F04383B01E4615460F460446FFF70E
:1023000059F994F851108146012909D1002F4FF055
:10231000010018BF002D0FD103B0BDE8F08300BF4E
:102320006068B0F5827F0DD104294FF00200F3D12F
:10233000A1680029EAD0EFE7002EEDD094F8500014
:10234000012803D1022003B0BDE8F083012084F806
:10235000500094F85100002104281CBF052084F887
:1023600051006165A563E687A6872763E686206836
:10237000A686216461640168490603D4016841F0BE
:10238000400101606168731EE268B1FA81F1B3FA3D
:1023900083F3DDF8288049095B09B2F5006F41EA53
:1023A000030165D131B137F8021BC1602763E08EAC
:1023B0000138E086012518F1010032D102E000BFAA
:1023C000FFF7F8F8E08E18B9E08F002800F0B88029
:1023D0002068816889070CD5E18E51B1012D08D1A3
:1023E000216B002531F8022BC2602163E18E013997
:1023F000E1868168C907E3D0E18F0029E0D0C06899
:10240000A16B012521F8020BA163E08F0138E08761
:10241000D6E700BFFFF7CEF8A0EB0900404580F0FB
:10242000AF80E08E18B9E08F002800F08980206826
:10243000816889070CD5E18E51B1012D08D1216B3E
:10244000002531F8022BC2602163E18E0139E1865B
:102450008168C907DED0E18F0029DBD0C068A16B9D
:10246000012521F8020BA163E08F0138E087D1E755
:1024700039B139780173206B01302063E08E013867
:10248000E086012518F1010032D101E0FFF792F852
:10249000E08E10B9E08F002852D02068816889074B
:1024A0000ED5E18E61B1012D0AD1216B002509788D
:1024B0000173216B206801312163E18E0139E186CE
:1024C0008168C907E2D0E18F0029DFD0C068A16B25
:1024D00001250870A06B0130A063E08F0138E08710
:1024E000D4E700BFFFF766F8A0EB0900404547D2EC
:1024F000E08E08B9E08F18B32068816889070ED58F
:10250000E18E61B1012D0AD1216B0025097801739B
:10251000216B206801312163E18E0139E1868168F8
:10252000C907DFD0E18F0029DCD0C068A16B01258D
:102530000870A06B0130A063E08F0138E087D1E71D
:102540002046022101224346CDF8009001F0B2FD61
:1025500040B92046802100224346CDF8009001F08A
:10256000A9FDB8B1606D40F0200060652020606575
:10257000002084F85000012003B0BDE8F08300BFC4
:10258000012084F85100002084F85000032003B09B
:10259000BDE8F083A06838B9002002902068C168C7
:1025A0000291806802900298012084F85100002076
:1025B00084F85000606D002818BF012003B0BDE80A
:1025C000F0830000411E0020B0EB116F1CBF012002
:1025D00070474EF21002CEF2000251604EF62351C7
:1025E000CEF20001F0230B7007219060116070475C
:1025F000704700007047000090F83C20012A4FF01F
:10260000020236D010B580F83D200268D2F804E00E
:10261000D2F808C00C682EF07003234340F2FF7418
:10262000C4F20004A24253600ADCB2F1804F13D01E
:1026300040F20043C4F200039A420DD011E000BF03
:1026400042F60043C4F201039A4205D040F600036B
:10265000C4F200039A4204D149682CF08003194364
:1026600091600121002280F83D1080F83C20BDE8F7
:102670001040104670470000002804BF012070473A
:1026800010B590F83D1031B9002180F83C10044697
:1026900000F070F82046022180F83D10016840F2F9
:1026A000FF740B68C4F2000442F6004CA142C4F26D
:1026B000010C15DCB1F1804F1AD040F20042C4F297
:1026C0000002914214D0A14218DCB1F1804F1DD01C
:1026D00040F20042C4F20002914217D01AE000BF5B
:1026E000614505D040F60002C4F200029142EAD1F1
:1026F000826823F070031343A142E6DD614505D0F3
:1027000040F60002C4F20002914203D1026923F4B0
:1027100040731343846923F08002D0F804E0C36857
:10272000224361450A60CB62C1F828E002D14269C8
:10273000CCF8302001224A610B69DB0703D00B691A
:1027400023F001030B6180F8462080F83E2080F8DA
:102750003F2080F8402080F8412080F8422080F817
:10276000432080F8442080F8452080F83D20002058
:1027700010BD000080B582B0006840F20041C4F294
:10278000000188421ED042F60041C4F20101884295
:1027900025D141F21800C4F202000168002241F480
:1027A000006101600068002100F400600190019860
:1027B0001920FEF77FFF192002B0BDE88040FEF728
:1027C00067BF00BF41F21800C4F20200416841F047
:1027D00002014160406800F002000090009802B0E1
:1027E00080BD000090F83D1001291CBF01207047FA
:1027F000022180F83D10006840F2FF72C168C4F207
:102800000002904241F00101C16009DCB0F1804F4B
:1028100012D040F20041C4F2000188420CD012E014
:1028200042F60041C4F20101884205D040F60001A1
:10283000C4F20001884206D1816801F0070106292F
:1028400004BF00207047016841F0010101600020D1
:102850007047000090F83C20012A4FF002026CD033
:1028600080B580F83D20D0F800C04FF67772DCF8D4
:10287000083023EA0202CCF808200B684F2B29DC31
:102880001F2B45DD202B46D0302B44D0402B40F071
:10289000AF80D1F804E0C968DCF82030DCF82020F3
:1028A00022F00102CCF82020DCF8182022F0F002FF
:1028B00042EA011123F00A0242EA0E02CCF8181093
:1028C000CCF82020DCF8081041F0470121F030015D
:1028D00028E000BF6F2B33DDB3F5005F74D0B3F594
:1028E000805F21D0702B40F08380D1E901E3C9687B
:1028F000DCF8082043EA0E0322F47F4243EA012178
:102900001143CCF80810DCF8081041F0770109E019
:102910000BB1102B6CD1DCF8081021F070011943B9
:1029200041F00701CCF808100022012180F83D1089
:10293000002180F83C10BDE880401046704700BF81
:10294000502B21D0602B53D1D1F804E0C968DCF8BA
:102950002030DCF8202022F01002CCF82020DCF817
:10296000182022F4704242EA013123F0A00242EA28
:102970000E12CCF81810CCF82020DCF8081041F02A
:10298000670121F01001CDE7D1F804E0C968DCF857
:102990002030DCF8202022F00102CCF82020DCF8E6
:1029A000182022F0F00242EA011123F00A0242EA62
:1029B0000E02CCF81810CCF82020DCF8081041F0FA
:1029C000570121F02001ADE7D1E901E3C968DCF846
:1029D000082043EA0E0322F47F4243EA0121114317
:1029E000CCF80810DCF8081041F480419AE700BFE9
:1029F00001229AE7002804BF012070472DE9F04F1B
:102A000081B090F83D2042B9002280F83C20044675
:102A10000D4600F09DF829462046022280F83D2010
:102A2000026844F20705936842F6004CAB4393609A
:102A300040F2FF731468C4F200039A42C4F2010C1E
:102A400014DCB2F1804F19D040F20045C4F2000509
:102A5000AA4213D09A4217DCB2F1804F1CD040F248
:102A60000043C4F200039A4216D01AE0624505D032
:102A700040F60005C4F20005AA42EBD1856824F0B7
:102A800070042C439A42E7DD624505D040F600030E
:102A9000C4F200039A4204D1036924F4407543EA66
:102AA000050424F080038469D0F804E0C56823435A
:102AB00062451360D562C2F828E002D14369CCF8C0
:102AC00030304FF0010EC2F814E01569ED0703D065
:102AD000156925F00105156195689469D2F820C043
:102AE000D1E90038D1E9027B43EA050A8D694FF646
:102AF000FF7924EA090447EA05254FF6FC47BD4360
:102B0000D1E9077644EA0B040B692C4344EA072415
:102B10002CF02207496944EA031347EA080743EA0D
:102B2000063347EA0111C2F808A09361116280F8E8
:102B300046E080F83EE080F83FE080F842E080F830
:102B400043E080F83DE0002001B0BDE8F08F0000D8
:102B500080B586B0006840F60001C4F200018842EA
:102B60004FF00001CDE90411CDE902111ED0B0F102
:102B7000804F3FD141F21800C4F20200416841F099
:102B800001014160416801F0010101910199016871
:102B900041F0040101600068032100F0040001908D
:102BA000019840F60000C4F201001CE041F2180058
:102BB000C4F20200416841F004014160416801F043
:102BC000040101910199016841F008010160006868
:102BD000C02100F008000190019840F60000C4F206
:102BE000010000F5806002910021CDE9031102A9E6
:102BF000FEF7CAFB06B080BD80B590F83E2090F885
:102C00003F3090F842E090F843C004290AD0B9B9A7
:102C1000012A4FF0010208BFBEF1010F34D0104667
:102C200080BD00BF012B4FF0010208BFBCF1010FB6
:102C3000F5D1022180F83F1080F8431000681EE0B3
:102C4000012A4FF0010208BF012BE8D1BEF1010FAC
:102C5000E5D1BCF1010FE2D1022280F83E2080F8DC
:102C60003F2080F8422080F8432091B10068016A3B
:102C700021F001010162016A41F0010101621021AC
:102C80006FF0100209E000BF022180F83E1080F8CA
:102C90004210006801216FF00102036A1A400262CB
:102CA000026A114301620168002241F001010160E2
:102CB000104680BD7047000070B504460068C568C6
:102CC0000669B10716D515F0020113D06FF00201A5
:102CD0000161012121778069800703D02046FFF739
:102CE000E9FF05E0204600F0BBF8204600F03CFA82
:102CF00000202077700719D515F0040016D0206841
:102D00006FF00401016102212177806910F4407F96
:102D100004D02046FFF7CEFF06E000BF204600F0BB
:102D20009FF8204600F020FA00202077300717D5C2
:102D300015F0080014D020686FF00801016104212B
:102D40002177C069800703D02046FFF7B3FF05E075
:102D5000204600F085F8204600F006FA0020207793
:102D6000F00619D515F0100016D020686FF010018C
:102D7000016108212177C06910F4407F04D020460A
:102D8000FFF798FF06E000BF204600F069F82046F4
:102D900000F0EAF900202077F00718BF15F00100D5
:102DA00002D1300609D412E020686FF00101016100
:102DB000204600F049FA300609D515F0800006D00B
:102DC00020686FF0800101612046FFF711FC70065A
:102DD00009D515F0400006D020686FF04001016170
:102DE000204600F049FAB00658BF70BD15F020002B
:102DF00008D021686FF0200220460A61BDE87040CB
:102E0000FFF7F8BB70BD000080B586B0016840F2E6
:102E10000040C4F2000081424FF00001CDE90411EE
:102E2000CDE9021102D006B080BD00BF41F2180109
:102E3000C4F202010A6800F5843042F008020A6018
:102E4000096801F008010191019903210291022111
:102E50000391059102A9FEF797FA06B080BD000024
:102E60007047000090F83C30012B04BF02207047EF
:102E70004FEAB202032A00F2F1802DE9F043DFE8C5
:102E800002F003A53B7500BF036842F600461D6AC9
:102E90001A6AC4F2010622F001021A621A465C683C
:102EA00052F818CFB3428E68D1F800E025F0020541
:102EB00045EA06050CD1CE68D1E9057824F44074C2
:102EC00025F00C0526F004063C43354344EA08048B
:102ED0002CF0730747EA0E075C609F614F68096931
:102EE0005F631D629F6947F008079F619F6927F034
:102EF00004079F61A6E000BF036842F600461D6A12
:102F00001A6AC4F2010622F480721A621A46D3F8D1
:102F100004C052F81CEFB3428E680C6825F40075AB
:102F200045EA06250FD1CE68D1E90598360240F270
:102F3000FF4725F44065BE4335432CF4405748EA2B
:102F4000090647EA061C2EF073072743C3F804C09E
:102F5000DF614F680969DF631D62DF6947F00807B9
:102F6000DF61DF6927F00407DF616BE0036842F689
:102F70000047D3F820C01A6AC4F2010722F4805235
:102F80001A621A465C6852F81C5FD1F800E08E683D
:102F9000BB4204D14F6924F4804444EA87142CF4E2
:102FA000005747EA063725F4E64646EA0E265C60F7
:102FB000DE614E6809691E641F62DF6947F40067BD
:102FC000DF61DF6927F48067DF613AE0036842F67A
:102FD00000461D6A1A6AC4F2010622F010021A6243
:102FE0001A46D3F804C052F8184FB3428E68D1F88D
:102FF00000E025F0200545EA06150FD1CE68D1E99D
:1030000005986FF0400725F0C00507EA061635431E
:103010002CF4406748EA090647EA860C24F4E644A3
:1030200044EA0E27C3F804C09F614F6809699F6393
:103030001D629F6947F400679F619F6927F480675D
:103040009F6109021368194311600021BDE8F04334
:10305000002280F83C200846704700BF0121002272
:1030600080F83C2008467047002804BF01207047C4
:1030700010B590F83D1031B9002180F83C1004469D
:1030800000F070F82046022180F83D10016840F2FF
:10309000FF740B68C4F2000442F6004CA142C4F273
:1030A000010C15DCB1F1804F1AD040F20042C4F29D
:1030B0000002914214D0A14218DCB1F1804F1DD022
:1030C00040F20042C4F20002914217D01AE000BF61
:1030D000614505D040F60002C4F200029142EAD1F7
:1030E000826823F070031343A142E6DD614505D0F9
:1030F00040F60002C4F20002914203D1026923F4B7
:1031000040731343846923F08002D0F804E0C3685D
:10311000224361450A60CB62C1F828E002D14269CE
:10312000CCF8302001224A610B69DB0703D00B6920
:1031300023F001030B6180F8462080F83E2080F8E0
:103140003F2080F8402080F8412080F8422080F81D
:10315000432080F8442080F8452080F83D2000205E
:1031600010BD00007047000070470000C1B1042985
:1031700008D0082914BF41224022825C012A05D0D0
:1031800016E000BF3F22825C012A11D102220829E9
:1031900010D0042914BF80F8412080F83F200BE0B4
:1031A00090F83E20012A03D1022280F83E2003E05D
:1031B0000120704780F84020006801F01F010122C3
:1031C000036A8A4023EA02010162036A42F644412B
:1031D000C4F201011A43A1F14403984202620FD0E4
:1031E00040F2FF71C4F20001884213DCB0F1804F5D
:1031F0001CD040F20041C4F20001884216D01CE00D
:103200000A6842F400420A6040F2FF71C4F2000111
:103210008842EBDD42F60041C4F20101884205D04C
:1032200040F60001C4F20001884206D1816801F035
:103230000701062904BF00207047016841F0010121
:10324000016000207047000010B5006842F60041A0
:10325000C4F20101884218BF10BD40F20C14C2F242
:103260000004206830B1FDF7FBFE2068BDE8104087
:1032700000F0AABE10BD00007047000070470000BB
:1032800010B504460068416994F84120212A56D1BE
:1032900011F0800153D000BF206850E8050F21686D
:1032A00020F0800041E80502DAB1206850E8050FFF
:1032B000216820F0800041E8050292B1206850E8C2
:1032C000050F216820F0800041E805024AB120681E
:1032D00050E8050F216820F0800041E80502002A2F
:1032E000DAD1A06B002818BFFDF7BCFE206850E8BB
:1032F000030F216820F0C00041E80302DAB1206822
:1033000050E8030F216820F0C00041E8030292B1A9
:10331000206850E8030F216820F0C00041E8030254
:103320004AB1206850E8030F216820F0C00041E84E
:103330000302002ADAD1202084F841002068406985
:1033400094F84210222940F0A78010F0400000F0CD
:10335000A38000BF206850E8050F216820F04000DE
:1033600041E80502DAB1206850E8050F216820F035
:10337000400041E8050292B1206850E8050F21683D
:1033800020F0400041E805024AB1206850E8050FEE
:10339000216820F0400041E80502002ADAD1E06B04
:1033A000002818BFFDF75EFE206850E8030F216873
:1033B00020F4907041E80302BAB3206850E8030F8C
:1033C000216820F4907041E8030272B3206850E84D
:1033D000030F216820F4907041E803022AB32068AB
:1033E00050E8030F216820F4907041E80302002A9E
:1033F000DAD11AE0206850E8050F216820F00100BA
:1034000041E80502DAB1206850E8050F216820F094
:10341000010041E8050292B1206850E8050F2168DB
:1034200020F0010041E805024AB1206850E8050F8C
:10343000216820F0010041E80502002ADAD1206B62
:10344000012824D1206850E8030F216820F01000E3
:1034500041E80302DAB1206850E8030F216820F048
:10346000100041E8030292B1206850E8030F216880
:1034700020F0100041E803024AB1206850E8030F31
:10348000216820F0100041E80302002ADAD1202050
:1034900084F8420000202063002010BD7047000027
:1034A000B0B582B001680A68CC684B6902F02F059C
:1034B000202D04F0200505D125B102B0BDE8B040B3
:1034C00000F0ECBE5FEA027C1EBF03F0010E04F4C4
:1034D000907313EB0E0341D1036BD50618D5012B66
:1034E00016D114F0100313D0002201920A68019241
:1034F0004A680192019A496949064BD4818DC28D6F
:10350000C38D002B18BF914240F0F48102B0B0BDD2
:1035100013062DD514F080032AD090F84120212ADB
:10352000F4D18268B2F5805F03D10269002A00F00D
:103530006782026A531C036212784A60C28C013AA5
:103540001304C284E2D1C86820F08000C860C86853
:1035500040F04000C86002B0B0BD00BFD30718BF44
:1035600014F4807340F0D080530700F1D380D8E08A
:103570005206CBD514F04002C8D0CA6822F04002EF
:10358000CA60202180F8411002B0BDE8B04000F0D0
:10359000E5BB00BFC16B0A68526893B2002BB5D07F
:1035A000858DAB42B2D2C2858969202900F0A18005
:1035B000016851E8031F026821F4807142E8031397
:1035C000DBB1016851E8031F026821F4807142E811
:1035D000031393B1016851E8031F026821F480715D
:1035E00042E803134BB1016851E8031F026821F45C
:1035F000807142E80313002BDAD1016851E8051FFE
:10360000026821F0010142E80513C3B3016851E8E3
:10361000051F026821F0010142E805137BB3016830
:1036200051E8051F026821F0010142E8051333B398
:10363000016851E8051F026821F0010142E8051305
:10364000002BDAD11BE000BF016851E8051F0268BA
:1036500021F0400142E80513DBB1016851E8051F84
:10366000026821F0400142E8051393B1016851E876
:10367000051F026821F0400142E805134BB10168C3
:1036800051E8051F026821F0400142E80513002BB4
:10369000DAD1202180F8421000210163016851E84D
:1036A000031F026821F0100142E80313DBB1016837
:1036B00051E8031F026821F0100142E8031393B19F
:1036C000016851E8031F026821F0100142E803136A
:1036D0004BB1016851E8031F026821F0100142E874
:1036E0000313002BDAD1C16B04460846FDF7BAFC80
:1036F000204602214163818DC28D891A89B202B0B0
:10370000BDE8B040FFF7BABD436C43F0010343642A
:10371000530706D5BEF1000F03D0436C43F00203FC
:103720004364930706D5BEF1000F03D0436C43F00A
:1037300004034364BCF1000F06D55EEA050303D021
:10374000436C43F008034364436C002B3FF4DEAE4C
:10375000920605D525B1044600F0A0FD216820465B
:103760004969426C01F0400102F00802891800F03A
:10377000B98000BF016851E8031F026821F490710D
:1037800042E80313BBB3016851E8031F026821F448
:10379000907142E8031373B3016851E8031F026894
:1037A00021F4907142E803132BB3016851E8031F21
:1037B000026821F4907142E80313002BDAD11AE079
:1037C000016851E8051F026821F0010142E8051374
:1037D000DBB1016851E8051F026821F0010142E8F0
:1037E000051393B1016851E8051F026821F001013A
:1037F00042E805134BB1016851E8051F026821F04A
:10380000010142E80513002BDAD1016B012924D113
:10381000016851E8031F026821F0100142E8031318
:10382000DBB1016851E8031F026821F0100142E892
:10383000031393B1016851E8031F026821F01001DE
:1038400042E803134BB1016851E8031F026821F0FD
:10385000100142E80313002BDAD1202180F8421036
:103860000021016301684969490640F1C38001688C
:1038700051E8051F026821F0400142E80513DBB161
:10388000016851E8051F026821F0400142E8051374
:1038900093B1016851E8051F026821F0400142E838
:1038A00005134BB1016851E8051F026821F0400182
:1038B00042E80513002BDAD1C16B002900F09A8091
:1038C00044F29122C0F60002044608464A63FDF71E
:1038D000EDFB00283FF41AAEE06B416B02B0BDE88F
:1038E000B04008470446FFF7D9FD0020606402B0ED
:1038F000B0BD00BF891A00BF026852E8032F0368F9
:1039000022F4907243E80325BDB3026852E8032F06
:10391000036822F4907243E8032575B3026852E805
:10392000032F036822F4907243E803252DB3026845
:1039300052E8032F036822F4907243E80325002D18
:10394000DAD11AE0026852E8052F036822F001027A
:1039500043E80525DDB1026852E8052F036822F02F
:10396000010243E8052595B1026852E8052F036876
:1039700022F0010243E805254DB1026852E8052F07
:10398000036822F0010243E80525002DDAD1202248
:1039900080F8422000220263026852E8032F036885
:1039A00022F0100243E80325DDB1026852E8032F3C
:1039B000036822F0100243E8032595B1026852E83B
:1039C000032F036822F0100243E803254DB102687B
:1039D00052E8032F036822F0100243E80325002D6C
:1039E000DAD1022289B2426302B0BDE8B040FFF7EB
:1039F00045BC00BF02B0BDE8B040FFF74FBD00BFFF
:103A0000026A32F8023B6FF35F234B60026295E576
:103A1000002804BF0120704710B5044690F841000B
:103A200028B9002084F84000204600F063F82420E4
:103A300084F841002068D4E90212C36823F40053DB
:103A4000C360036923F440531A430261D4E9042399
:103A50001143C268194341F20C639A431143C16098
:103A60004169A26921F44071114343F60002C4F296
:103A700001029042416103D0FDF736FF02E000BF32
:103A8000FDF746FFD4E90023192148439900B0FB14
:103A9000F1F048F21F5CC5F2EB1CA0FB0C314FF6B5
:103AA0009C734909C0F6FF7301FB0300322303EB4B
:103AB0000010A0FB0C03F02000EA531000EB0110F3
:103AC000C3F34311084490601069202120F4904012
:103AD0001061506920F02A005061D06840F4005015
:103AE000D0600020606484F8411084F84210606364
:103AF00010BD00002DE9F04186B040F600050446F7
:103B0000C4F20105006805F5405100278842059779
:103B1000CDE90377029703D006B0BDE8F08100BF7E
:103B200041F21806C4F2020630680DF1080840F4AC
:103B3000804030603068414600F480400190019838
:103B4000306840F004003060306800F004000190FC
:103B500001984FF40070029002200390032005901A
:103B60002846FDF711FC4FF48060CDE90207284696
:103B700041460497FDF708FC40F2A835A6F57C60A5
:103B8000C2F2000580214FF48052C5E900072846A3
:103B9000C5E90271C5E90477C5E90672FDF7B2FB14
:103BA000002818BFFDF756FA25200E210022E563F4
:103BB0006C62FDF77FFD2520FDF76AFD06B0BDE8CC
:103BC000F0810000704700002DE9F04381B0044609
:103BD00090F84100202809D100294FF0010018BFBA
:103BE000002A07D101B0BDE8F08300BF022001B078
:103BF000BDE8F0830020606421201D460E4684F855
:103C000041001746FDF7D6FCA784E784A1688146EA
:103C1000B1F5805F02D1206900285DD037460020D1
:103C2000E28C2168002A5DD06A1C24D0002D4AD085
:103C3000804600BF0868000608D4FDF7BBFCA0EB77
:103C40000900A8427AD82168C868F3E717B117F8C5
:103C5000010B04E038F8020B00276FF35F20486087
:103C6000E08C0138E084E08C0028E3D13AE000BF2A
:103C70000A68120609D40A68120606D40A681206EF
:103C80005CBF0A685FEA0262F2D51FB117F8012B28
:103C900005E000BF30F8022B00276FF35F224A6077
:103CA000E28C013AE284E28C002AE4D11AE000BFFF
:103CB00030F8022B00276FF35F224A60E28C013A52
:103CC000E284E28C72B10A68120635D5002FEFD07B
:103CD00017F8012BF1E700BF00273046E28C21687E
:103CE000002AA1D1086840061ED42DB3681C14D147
:103CF000086840062AD40868400627D408684006A9
:103D000024D4086840064FF00000F1D50DE000BF54
:103D10002068C1680068400618D4FDF74BFCA0EB92
:103D20000900A842F4D909E00020202184F84110BC
:103D300001B0BDE8F08300BFFDF73CFC032020216B
:103D400084F8411001B0BDE8F08300BF00202021BD
:103D500084F8411001B0BDE8F08300007047000016
:103D6000FEE7000010B504460020A0816082208399
:103D7000E081A0826083C4E91100C4E91300C4E9B2
:103D80001500C4E9170060662082E082A0831CA0B1
:103D90002381C4E9001200F0BDFE6B20802100F0F9
:103DA00061FE4FF4FA60FDF70FF96B20802100F0FF
:103DB00059FE4FF4FA60FDF707F96B20012100F07E
:103DC00051FE6C20002100F04DFE1920002100F072
:103DD00049FE1B20082100F045FE1C20082100F0B0
:103DE00041FE1A20012100F03DFE1D20032100F0BC
:103DF00039FE2046C821FCF743FE012010BD00BF5C
:103E00004E6F7720496E697469616C697A696E6773
:103E1000204D5055393235300D0A0000F0B581B0D3
:103E200040F600460446BB20C4F201068DF80300AC
:103E300030464FF400410022FDF7B6FB40F2EC376C
:103E4000C2F200070DF10301384601224FF4FA7364
:103E5000FEF750F940F28025C2F2000538462946A7
:103E600006224FF4FA73FEF745F830464FF400414E
:103E70000122FDF799FB288800BA000CA081B4F953
:103E80000C00FCF73BFB4CF6CD46C3F69C263146B6
:103E9000FCF7B9F96988606408BA000CE081B4F9EC
:103EA0000E00FCF72BFB3146FCF7ADF9A988A064A6
:103EB00008BA000C2082B4F91000FCF71FFB314651
:103EC000FCF7A1F9E06401B0F0BD00002DE9F0417C
:103ED00082B040F600460446C320C4F201068DF8C5
:103EE000070030464FF400410022FDF75DFB40F231
:103EF000EC37C2F200070DF10701384601224FF4FA
:103F0000FA73FEF7F7F840F28025C2F20005384652
:103F1000294606224FF4FA73FDF7ECFF30464FF4C2
:103F200000410122FDF740FB288800BA000C6082A6
:103F3000B4F91200FCF7E2FA40F20008C3F67A483E
:103F40004146FCF760F904F12007C2CFFCF755F9B0
:103F50006988206508BA000CA082B4F91400FCF747
:103F6000CDFA4146FCF74FF93146FCF746F9A988EE
:103F7000606508BA000CE082B4F91600FCF7BEFADE
:103F80004146FCF740F93946FCF737F9A06502B025
:103F9000BDE8F08110B540F2D8040146C2F2000439
:103FA0004FF07E500022C4E90102C4E90322C4E9B3
:103FB0000522E2612270FCF758F9206210BD000072
:103FC000FEE70000FEE7000010B504460168C06986
:103FD00000F01EF8E169A06AD4F88420096AFCF7B1
:103FE000FFFCA06A006AFCF797FA40F2D004C2F224
:103FF0000004C4E9000000B200F0EEF8B4F90400D7
:10400000BDE8104000F010B98162704770470000B1
:104010002DE9F04381B00A46816A0446D0E906677B
:10402000C2601046FCF7E9F8394681466061FCF74A
:1040300092F831460746E061FCF752FA30B986F053
:10404000004638463146FCF73DFA08B93746E66186
:10405000D4E90060D4F8088025693946FCF7D3F824
:10406000074630464946FCF7CEF83946FCF773F868
:10407000064648462946FCF7C0F801464046FCF78C
:10408000C2F83146FCF767F8666A07463146206297
:10409000FCF726FA30B986F0004638463146FCF780
:1040A00011FA08B9374626623846C4F8109001B0B4
:1040B000BDE8F0832DE9F04381B0089C9846154691
:1040C0000E468146FDF776FA201A00EB0804FDF74C
:1040D00071FA40F20C01C2F200010968C1F3CB3160
:1040E00061430091D9F800108A683240921BB2FAFD
:1040F00082F2520995423DD0074618F1010031D0B5
:10410000FDF758FAC01BA04238D200980099002849
:10411000A1F101010091D9F80010896808BF044697
:1041200001EA0600801BB0FA80F040098542E7D121
:1041300020E000BF88683040801BB0FA80F0400962
:10414000854217D088683040801BB0FA80F0400963
:1041500085420FD088683040801BB0FA80F040095B
:10416000854207D088683040801BB0FA80F0400953
:104170008542DFD1002001B0BDE8F083D9E900011C
:104180004268B1F5827F22F0E00242600BD1D9F89B
:104190000810B1F5004F02D0B1F5806F03D101686E
:1041A00021F040010160D9F82810B1F5005F07D176
:1041B000016821F400510160016841F4005101607F
:1041C000012089F85100002089F85000032001B037
:1041D000BDE8F08370470000B0B540F60005C4F2BA
:1041E00001050446002828464FF480710AD40022B5
:1041F000FDF7DAF928464FF400610122FDF7D4F902
:104200000AE000BF0122FDF7CFF928464FF4006114
:104210000022FDF7C9F9644240F2D440C2F2000026
:104220000068C463B0BD0000B0B540F60045C4F2FC
:1042300001050446002828464FF480510AD4002284
:10424000FDF7B2F928464FF400510122FDF7ACF911
:104250000AE000BF0122FDF7A7F928464FF40051FC
:104260000022FDF7A1F9644240F2D440C2F20000FE
:1042700000680464B0BD00000EC07047FDF7A0B92F
:104280007047000040F24440C2F20000FEF714BD47
:10429000406A0021C185C184FFF700B981B090F860
:1042A0004210222921D183680246B3F5805F09D1EB
:1042B00052F8281F52F8183C002B63D003685B6843
:1042C0000AE000BF52F8281F13B90369002BF5D08C
:1042D00003685B6803F07F030B70116801311160A4
:1042E000C18D01390A04C18502D001B0704700BFF9
:1042F0000168CA6822F02002CA60CA6822F480728B
:10430000CA604A6922F001024A61202180F8421005
:1043100000214163026B012A3CD10163016851E82D
:10432000031F026821F0100142E80313DBB10168AA
:1043300051E8031F026821F0100142E8031393B112
:10434000016851E8031F026821F0100142E80313DD
:104350004BB1016851E8031F026821F0100142E8E7
:104360000313002BDAD101680A68D20606D50022B1
:1043700000920A680092496800910099818D01B00D
:10438000FEF77CBF026852686FF35F2221F8022BB0
:104390008162A5E701B0FFF715BC000040F21010E4
:1043A000C2F2000000680168C90605D440F210108E
:1043B000C2F20000FFF774B880B582B0002101910D
:1043C0000168019140680190019840F21010C2F21A
:1043D0000000FEF755FF40F2A830C2F2000000686E
:1043E000406802B080BD0000FEE70000ACB0FDF701
:1043F000F5F800240120CDE92544CDE9234420909F
:1044000024904FF4E0104FF480310225299020A829
:10441000CDE92114CDE92751FDF7BAFA20B1EFF328
:10442000108072B6FEE700BF0F20CDE91A054FF4E9
:104430008060CDE91D041AA802211C94FDF776F9CD
:1044400020B1EFF3108072B6FEE700BF002441F206
:104450001805CDE92244CDE92044C4F202052868BC
:1044600040F6004B40F0100028602868C4F2010BB1
:1044700000F010001A901A9828680BF5806A40F036
:104480002000286028684FF4005100F020001A90A6
:104490001A982868002240F00400286028684FF429
:1044A000005700F004001A901A98286840F008009D
:1044B0002860286800F008001A901A985046FDF706
:1044C00073F858464FF430410022FDF76DF8ABF514
:1044D000806630464FF410610022FDF765F85846BB
:1044E0004FF4487101224FF00108FDF75DF8CDE966
:1044F000207820AF4FF00209504639462294CDF87B
:104500008C90FCF741FF4BF22000CDE92008584683
:104510003946CDE92249FCF737FF4FF41060CDE969
:10452000200830463946CDE92249FCF72DFF4FF4EB
:104530004070CDE920080320239058463946229444
:10454000FCF722FF55F8040C0E2140F0010045F85D
:10455000040C55F8040C002200F001002090209873
:104560000F20FDF7A7F80F20FDF792F840F20C1787
:10457000C2F200070BF53051384640F8041F4FF4E3
:10458000E1310C22C0E90114C0E90344C0E905246B
:10459000C461FFF73DFA28B1EFF3108072B600BF97
:1045A000FEE700BF40F2EC300BF51051C2F2000004
:1045B0004FF482724FF40073082680E816000A2137
:1045C000C0E90344C0E90543C661C0E90844C0E945
:1045D0000A41FDF7E1FB28B1EFF3108072B600BF8E
:1045E000FEE700BF40F28C400021C2F200004FF015
:1045F00080424FF6FF73C0E900210122CDE91A1174
:10460000C0E9021301618161CDE92021CDE92221B8
:10461000CDE92411CDE92621289120A9FEF7EAF958
:1046200020B1EFF3108072B6FEE700BF40F28C407D
:10463000C2F200001AA9FDF7DFFF28B1EFF31080E6
:1046400072B600BFFEE700BF40F2D4400021ABF5D8
:104650008432C2F20000012340F60F661D91CDE9BD
:104660001B11CDE92A11CDE92511CDE92311C0E9AE
:104670000023C0E9021601618161FDF7FDFF28B149
:10468000EFF3108072B600BFFEE700BF4FF480501A
:104690001A9040F2D440C2F200001AA9FEF7DAF8EC
:1046A00020B1EFF3108072B6FEE700BF40F2D440B5
:1046B000C2F20000FEF7D8FC20B1EFF3108072B612
:1046C000FEE700BF40F2D440C2F200002AA9FDF785
:1046D00093FF28B1EFF3108072B600BFFEE700BF72
:1046E000602020900020CDE92100249040F2D440A9
:1046F000C2F2000020A90822FEF7B4FB20B1EFF3BC
:10470000108072B6FEE700BF40F2D440C2F2000053
:1047100020A90C22FEF7A6FB20B1EFF3108072B6A1
:10472000FEE700BF40F2D446C2F200063046082140
:10473000FEF71CFD30460C21FEF718FD3046FEF753
:1047400063FB40F21C500021ABF58232C2F2000044
:104750004FF6FF73C0E900210122CDE91A11C0E92B
:10476000021301618161CDE92021CDE92221CDE94A
:104770002411CDE92621289120A9FEF73BF918B193
:10478000EFF3108072B6FEE740F21C50C2F2000058
:104790001AA9FDF731FF18B1EFF3108072B6FEE7EA
:1047A000FCF7F8FB584620210122D946FCF7FCFE15
:1047B00058464FF400410122FCF7F6FE8BA000F0B2
:1047C000A9F958464FF400410022FCF7EDFE8AA0FB
:1047D00000F0A0F958464FF400410122FCF7E4FE36
:1047E00088A000F097F944F62060FCF7EDFB40F25A
:1047F0006856C2F200063046FCF742FBFCF7DEF9D1
:1048000040F2EC313860C2F2000130465A464FF4B3
:104810000043FFF7A7FA85A17EA2002808BF114632
:10482000084600F077F940F21C50C2F200003C212B
:10483000FEF7E2F940F28C40C2F200003C21FEF7A4
:10484000DBF9D6E90807B56AFBF77FFE80463846F4
:104850000C46FBF77AFE074628460E46FBF775FE28
:10486000029079A042462346CDE90076039100F0FC
:1048700051F940F21006C2F2000696E80E003046EA
:10488000FFF7FAFC374657F8301FD6E90D233846B4
:10489000FFF7F2FCB3465BF8601FD6E919235846D0
:1048A000FFF7EAFCD6E90008B468756BFBF74DFE2C
:1048B000CDE918104046FBF748FECDE9161020461A
:1048C000FBF743FE159038681491FBF73EFECDE9E7
:1048D00012102846FBF739FE1090B06B1191FBF7D0
:1048E00034FE0446DBF800008B46FBF72EFE07463D
:1048F000706E0D46FBF729FE8046B06E0E46FBF744
:1049000024FECDE90E011798DDE9183200901698C3
:10491000119901901598CDE9084B02901498CDE9B2
:104920000A7503901398CDE90C86049012980791AC
:1049300005901098069045F2B270C0F6000000F0A5
:10494000E9F80020C4F24820FFF724FB0020239060
:10495000CDE92100CDE91A0040F24440002609F5D6
:104960000051C2F2000031238027EF2280E8460088
:10497000C0E90336C0E90567FDF77EFE20B1EFF31D
:10498000108072B6FEE700BF4FF48050209040F2D6
:104990004440C2F2000020A9FDF75CFF20B1EFF314
:1049A000108072B6FEE700BF40F24445C2F2000537
:1049B0001AA92846FDF720FE20B1EFF3108072B649
:1049C000FEE700BF28686FF0010101612846FDF78E
:1049D00009FF18B1EFF3108072B6FEE7FCF7EAFDAD
:1049E00050464FF40051FCF7D7FDF9E743532048F8
:1049F0004947480D0A0000004353204C4F570D0A09
:104A0000000000004353205445535420444F4E456A
:104A10000D0A00004D50553932353020696E6974E9
:104A2000204641494C45440D0A0000004D5055397F
:104A300032353020696E69742053554343455353D2
:104A400046554C0D0A0000004269617320583D250F
:104A50002E326620593D252E3266205A3D252E32B3
:104A6000660A00002DE9F04F83B040F60048C4F21A
:104A700001080D46044640464FF40041002200263E
:104A8000FCF792FD8DF8094040F2EC34C2F20004CC
:104A90008DF808602046FDF77BF90528FAD040F232
:104AA000EC36C2F200064FF4FA790DF1090102AAC0
:104AB00030460123CDF80090FDF71AFC40F2645710
:104AC000C2F200074FF0000B0DF10B0A0DF10A04C2
:104AD000A7F800B08DF80B508DF80AB03046FDF7FE
:104AE00057F90528FAD03046514622460123CDF821
:104AF0000090FDF7FDFB3888013081B2814238809B
:104B0000E8D140464FF400410122FCF74DFD03B0CF
:104B1000BDE8F08F83B010B5C1B0844643A801ACA6
:104B20000EC043AB20464FF480716246009300F004
:104B300015F82046FBF708FB010409D082B240F2C9
:104B40001010C2F2000001A94FF0FF33FFF73CF84C
:104B500041B0BDE8104003B0704700007CB50C00C8
:104B60001D461646014601D0601E00E00020CDE93A
:104B70000010064B6A462946304600F0FBF8002C30
:104B800002D0009A002111707CBD0000A3540008DF
:104B90004100080218BF04200A0E18BF40F00100AF
:104BA0004FF07F4232EA010108BF40F002000128C5
:104BB00008BF05207047FBF7CEBA6FF05E0108070B
:104BC000FBF754BD02E008C8121F08C1002AFAD141
:104BD00070477047002001E001C1121F002AFBD17D
:104BE0007047000001490860704700000000002085
:104BF0002DE9FF5F82B00021DDE90430020DDDF810
:104C000040B0034318D044F61050A2F2FF324243A2
:104C10001514119801281FD0A5EB0B00401C5FEA6A
:104C2000000A4FF000064E4FDFF83891B04650466C
:104C300015D5CAF1000413E0119801244AA30128F4
:104C400001D16FEA0B010298119AC0E90031C0E965
:104C5000024206B0BDE8F09FCBF10000DFE704465A
:104C60000021404A491842EB0450CDE9001012E0FF
:104C7000E00707D032463B4640464946FBF733FB48
:104C80008046894632463B4610461946FBF72BFBC9
:104C900006460F466410002CEAD1DDE90401DDE987
:104CA0000023BAF1000F06DAFBF71DFB42464B4624
:104CB000FBF719FB05E0FBF788FB42464B46FBF789
:104CC00084FB04460E460022284BFBF727FE03D840
:104CD0004FF0FF30014607E00022254B20463146C9
:104CE000FBF75CFDFBF701FE102409E0002C0ADB5A
:104CF0000A220023FBF752FC039B30321A55641E34
:104D000050EA0102F2D1641C039AC4F11103144465
:104D1000119A012A03D0012208430DD10AE0084369
:104D200004D000204FF0110B119072E7A3EB0B059C
:104D30006D1E0DE05B4504DD4FF0000205F101053D
:104D400004E003DA4FF00002A5F10105002AECD0DF
:104D500002981199C0E90231C0E9004579E70000E5
:104D6000000014400000F03F300000000000F0435D
:104D70000000E03F2DE9FF4F95B09B46894606466F
:104D800000250FE2252877D100242746F84A012183
:104D9000059400E0044316F8013F203B01FA03F0BC
:104DA0001042F7D130782A2811D06FF02F033078D5
:104DB000A0F13002092A16D8059A44F0020402EB49
:104DC000820203EB42021044761C0590EFE759F88B
:104DD000042B0592002A03DA504244F40054059053
:104DE00044F00204761C30782E2816D116F8010FF4
:104DF00044F004042A280DD06FF02F023078A0F17F
:104E00003003092B09D807EB870302EB4303C718CC
:104E1000761CF3E759F8047B761C30786C280FD0A9
:104E200006DC4C2817D068280DD06A2814D104E07D
:104E3000742810D07A280FD10DE044F400140AE051
:104E400044F4801401E044F440147278824202D1A8
:104E500004F58014761C761C307866280BD013DCA1
:104E6000582877D009DC002875D04528F6D0462888
:104E7000F4D047281AD19DE118E0632835D0642882
:104E800079D0652812D195E1702873D008DC6728A5
:104E9000F1D069286FD06E280DD06F2806D1B5E00B
:104EA00073282CD0752875D0782874D05A46179955
:104EB00090476D1C75E1C4F30250022809D0032805
:104EC0000DD0D9F8001004280DD00D6009F10409A7
:104ED00067E1D9F80010EA17C1E90052F6E7D9F8FE
:104EE00000100D80F2E70D70F0E719F8041B8DF843
:104EF000001000208DF80100EA46012003E059F877
:104F000004AB4FF0FF3061074FF0000102D40DE019
:104F100008F101018846B9420FDA8045F8DB1AF83A
:104F200008100029F4D108E008F101018846814207
:104F3000FADB1AF808100029F6D105985B46A0EBB9
:104F4000080721463846179A00F094FA284400EBE7
:104F5000080507E04DE029E10DE01AF8010B5A467B
:104F600017999047B8F10108F7D25B4621463846B9
:104F7000179A13E142E00A220092C4F302524FF062
:104F8000000A022A08D059F804CB032A4FEAEC7130
:104F90000AD00DE029E02AE009F1070121F007021B
:104FA000F2E802C1914609E00FFA8CFC4FEAEC717D
:104FB000042A03D14FFA8CFC4FEAEC71002907DA7E
:104FC0000A460021DCF1000C61EB02012D2202E017
:104FD000220504D52B228DF80420012203E0E207EC
:104FE00001D02022F7E7904659E00A2102E0102282
:104FF0000DE010214FF0000A00910BE010224FF05D
:10500000000A44F004040827009203E008224FF04D
:10501000000A0092C4F30252022A05D059F804CBC8
:105020000021032A08D009E009F1070121F0070255
:10503000F2E802C1914605E01FFA8CFC042A01D176
:105040000CF0FF0C4FF00008220728D5702806D07E
:10505000009B83F0100353EA0A0305D00EE04022C0
:105060008DF80420012208E05CEA010206D030221B
:105070008DF804208DF8050002229046009B83F0F5
:10508000080353EA0A030AD15CEA010201D162076C
:1050900005D530228DF804204FF001087F1E5828D6
:1050A00004D034A003900EA802900DE036A0F9E7DA
:1050B00053466046009AFBF771FA84460398825C77
:1050C0000298401E029002705CEA0100F0D1029842
:1050D00006A9081A00F1200A600702D524F48034DA
:1050E00000E00127574502DDA7EB0A0000E00020A1
:1050F00000EB0A01009005984144401A0590E00336
:1051000006D45B462146179A059800F0B3F905448A
:10511000002706E001A85A46C05D179990476D1C0C
:105120007F1C4745F6DBE0030CD55B462146179A0A
:10513000059800F09FF9054404E030205A4617997D
:1051400090476D1C0099481E00900029F5DC08E08E
:10515000029802995A460078491C02911799904783
:105160006D1CBAF10001AAF1010AF1DC65E1000051
:10517000092801003031323334353637383961622D
:1051800063646566000000003031323334353637F1
:1051900038394142434445460000000000F058F9C8
:1051A0000544761C307800287FF4ECAD19B0284611
:1051B000BDE8F08F620700D4062709F1070222F04C
:1051C000070CFCE80223E14603F000485FEA080C04
:1051D00002D00FF2702C0DE05FEA045C02D50FF2F2
:1051E000682C07E05FEAC47C02D00FF2602C01E07B
:1051F000AFF2700C4FF0FF3823F00043CDF850C0F1
:1052000065280CD006DC452809D046281DD0472843
:105210003DD13DE0662818D067287ED138E00021D6
:10522000112F01DB112000E0781CCDE9000106A957
:105230000EA8FFF7DDFCDDE90F010E9A03910021B6
:10524000009207F1010A04914DE04FF000400097F1
:10525000CDE9011006A90EA8FFF7CAFCDDE90F028F
:1052600003920E9B11990022DDF80CA0009304928A
:1052700011B9791C00EB010AB7EB0A0004D4C0F1A4
:10528000FF3007F1010A0490AAEB0700019044E007
:10529000012F00DA01270021112F01DD112000E08C
:1052A0003846CDE9000106A90EA8FFF7A1FCDDE90B
:1052B0000F010E9A0391002104910092BA46210732
:1052C0000CD40399514500DA8A46BAF1010F05DD85
:1052D000009AAAF10101515C302908D0B84202DAE3
:1052E00010F1040F06DA0121CDE9011015E0AAF151
:1052F0000101E9E7002805DC049901440491AAEBC7
:10530000000102E0411C514500DD8A460499401A23
:10531000401C01904FF000400290200704D40198F7
:10532000504501DBCDF8048000208DF84F00029835
:105330000DF14F07B0F1004F25D02B200E900298B1
:105340004FF0020800280CDA404202902D200E9007
:1053500007E00A210298FBF70BF93031029007F8B9
:10536000011DB8F10001A8F10108F2DC0298002843
:10537000EFD1791E0E980870307800F0200040F0D0
:10538000450007F8020D12A8C01B00F10708149889
:10539000007800B1012000EB0A01019801EBE071F7
:1053A00005984144401A401E0590E00306D45B4630
:1053B0002146179A059800F05DF805441498007886
:1053C00018B15A46179990476D1CE00324D55B46E7
:1053D0002146179A059800F04DF805441CE0049802
:1053E000002807DBDDE90301884203DD0098405C0B
:1053F000179901E0179930205A469047049805F113
:105400000105401C04900198401E019004D12E20FB
:105410005A46179990476D1CBAF10001AAF1010A8A
:10542000DDDC05E017F8010B5A46179990476D1C13
:10543000B8F10001A8F10108F4DC5B462146179A97
:105440000598ABE62D0000002B00000020000000B6
:105450002DE9F041044600251E461746880404D471
:1054600005E039462020B0476D1C641EF9D528465A
:10547000BDE8F0812DE9F041044600251E46904626
:10548000C80301D5302700E02027880404D505E0B3
:1054900041463846B0476D1C641EF9D52846BDE824
:1054A000F0814A68002A06D00A68531C0B6010700D
:1054B0004868401E486070472DE9F0474FF0684249
:1054C00002EB40030C460546B3F1654F3CBF02EBCF
:1054D0004102B2F1654F80F0CD8000BFC0F3C752EA
:1054E000C1F3C753D21A1B2A06DD10F0004F14BFB8
:1054F00087488848BDE8F08712F11A0F2FDA11F0BB
:10550000004F06D010F0004F0CBF83488348BDE821
:10551000F08721462846FAF7A8FE0646FFF738FB33
:10552000042808BFFFF749FB2846FFF731FB054673
:105530002046FFF72DFB04463046FFF729FB042DDC
:1055400018BF052D08D1042C18BF052C04D1002844
:1055500004BF0220FFF746FB3046BDE8F08742005B
:10556000B2EB410F25D910F0004F19BF6C4F6D4EB3
:105570006D4F6E4E224685F0004415460A4680F077
:10558000004110460A1A5200B2F1807F3ED24840D4
:105590006749DFF8A0A110F0004F18D04FF03F4846
:1055A0003846FAF72AFE074651463046FAF725FEF6
:1055B00017E011F0004F04BF00263746E2D010F08C
:1055C000004F19BF5C4F5D4E5D4F5E4EDAE74FF006
:1055D0007C583846FAF7BFFD074651463046FAF781
:1055E000BAFD064641462846FAF70DFE2146FAF76F
:1055F000B2FD824621464046FAF705FE2946FAF7F3
:10560000FFFD5146FAF731FE044604E021462846E4
:10561000FAF72BFE04460146FAF7F5FD80464A49A3
:10562000FAF7F1FD4949FAF796FD4146FAF7EBFD25
:105630004749FAF790FD4146FAF7E5FD4549FAF783
:105640008AFD4146FAF7DFFD4349FAF784FD054636
:1056500041462046FAF7D7FD2946FAF7D4FD3146F0
:10566000FAF779FD2146FAF776FD3946BDE8F047AD
:10567000FAF771BD4FF07F42B2EB400F28BFB2EB9B
:10568000410F03D2BDE8F047FFF795BA40EA0103A6
:105690005B0008BF44F0FF410AD0B2EB400F08BFE7
:1056A000B2EB410F06D125F0804024F08041054641
:1056B0000C4613E7B2EB400F12BF5FEA410345F01F
:1056C000FF4004F000413FF409AFB2EB410F12BFBD
:1056D0005FEA400205F0004044F0FF413FF4FEAEB7
:1056E0004A0092EA40033FF5F9AE002AACBF4FF002
:1056F0009F464FF03E563146FAF785FD0546314646
:105700002046FAF780FD044628462146E6E60000DA
:10571000DB0FC9BFDB0FC93FDB0F4940DB0F49C0BF
:105720000000C9BF22AAFDB90000C93F22AAFD3965
:105730000060ED3EC30ACE37000049C022AA7DBA00
:105740000000494022AA7D3A2DAD65BD8FB8D53DF8
:105750000FB511BE61C84C3EA8AAAABE70B50546D9
:10576000FAF790FF044620F00040C0F1FF40C00F60
:1057700008D025F00040C0F1FF40C00F04BF012059
:10578000FFF730FA204670BD000000000000000066
:1057900001020304060708090000000001020304D7
:1057A000010202030405060708090A0B0C0D0E0F7F
:1057B00010107B2264617461223A7B2270697463E9
:1057C000685F6B70223A252E33662C2270697463F1
:1057D000685F6B69223A252E33662C2270697463E8
:1057E000685F6B64223A252E33662C227961775FDD
:1057F0006B70223A252E33662C227961775F6B69B4
:10580000223A252E33662C227961775F6B64223A27
:10581000252E33662C2273706565645F6B70223AA7
:10582000252E33662C2273706565645F6B69223A9E
:10583000252E33662C2273706565645F6B64223A93
:10584000252E33667D7D0A007B2273656E736F7231
:10585000223A226D707539323530222C22646174FF
:1058600061223A7B226174746974756465223A7BA3
:10587000227069746368223A252E32662C22726F78
:105880006C6C223A252E32662C22796177223A25D9
:105890002E32667D7D7D0D0A00000000C058000894
:1058A00000000020D0000000C44B00089059000800
:1058B000D000002008090000D44B000800000000C0
:1058C00000000000010000001000000000127A003B
:1058D0000000C4C200000000000070C10000000011
:1058E00000000000000000000000000000000000B8
:1058F00000000000000000000000000000000000A8
:10590000000096C300000000000080BF00000000FF
:105910000000000000000000000000000000000087
:105920000000000000000000000000000001000076
:105930000000803F0AD7A33B0000000000000000E9
:105940000000000000000000000000000000000057
:105950000000000000000000000000000002000045
:105960000000000000000000000000000000000037
:105970000000000000000000000000000000000027
:105980000000000000000000000000000000000017
:04000005080000ED02
:00000001FF
