:020000040800F2
:10000000501F00209D010008DF300008692400080F
:10001000DD300008750B00081B39000800000000E7
:1000200000000000000000000000000005010008C2
:10003000850B00080000000049010008F5340008A5
:10004000B7010008B7010008B7010008B7010008B0
:10005000B7010008B7010008B7010008B7010008A0
:10006000B7010008B7010008B7010008B701000890
:10007000B7010008B7010008B7010008B701000880
:10008000790B0008B7010008B7010008B7010008A4
:10009000B7010008B7010008B7010008B701000860
:1000A000B701000871350008B7010008B701000862
:1000B000B7010008B7010008B70100086D24000867
:1000C000B7010008B7010008B7010008B701000830
:1000D000B7010008B7010008B7010008B701000820
:1000E000B7010008B7010008B7010008DFF810D019
:1000F00000F0DCFC00480047094A0008AFF300802C
:10010000501F0020224B19680868B0E8F00F80F3F8
:100110000988BFF36F8F4FF0000080F311884EF015
:100120000D0E70470000000006480068006880F36C
:10013000088862B661B6BFF34F8FBFF36F8F00DFE1
:1001400000BF00BF08ED00E0EFF30980BFF36F8F41
:100150000F4B1A6820E9F00F106008B54FF05000FF
:1001600080F31188BFF34F8FBFF36F8F05F0B0FDA1
:100170004FF0000080F31188BDE808401968086856
:10018000B0E8F00F80F30988BFF36F8F704700BFAE
:1001900018000020EFF305807047000006488047F4
:1001A00006480047FEE7FEE7FEE7FEE7FEE7FEE75C
:1001B000FEE7FEE7FEE7FEE76D350008ED0000080C
:1001C000202A04DB203A21FA02F00021704721FAAC
:1001D00002F3D040C2F12002914008431946704713
:1001E00040EA01039B0703D009E008C9121F08C0B9
:1001F000042AFAD203E011F8013B00F8013B521E39
:10020000F9D27047D2B201E000F8012B491EFBD2AF
:1002100070470022F6E710B513460A460446194611
:10022000FFF7F0FF204610BD421C10F8011B00290B
:10023000FBD1801A7047F0B480EA0102D40F42006B
:10024000B2EB410F02D20246084611464A0042D0A4
:10025000C30DDDB2C1F3C752AD1A202D35DAC1F39B
:10026000160141F4000204B15242C5F1200602FA1F
:1002700006F12A411044B3EBD05F23D0C4B1012D65
:10028000A0EBC35009DCF0BC4FF0004202EAC352BD
:10029000DBB200F5000000F007BA400000F180700A
:1002A00000EBC350A0F1807040EAD170490009E032
:1002B000490841EAC071A0EBC35000F500004008B6
:1002C00000EBC350F0BC00F0E6B96142012202EB42
:1002D0004101001BF6E7F0BC704781F00041AAE73E
:1002E00080F00040A7E780EA010210B502F0004369
:1002F000400022D04A001FD0010E01EB1261C0F372
:100300005600C2F3560240F4000042F40002A0FB83
:10031000022000047F39140400D0401C50EA12402F
:1003200001D44000491EC2B20C0604EBD010401CA0
:100330004008802A02D003E0002010BD20F0010018
:10034000002900DA0020184310BD30B480EA010211
:1003500002F0004530F0004221F0004013D090B18F
:10036000C30DD40DC2F31601C0F31600E41A41F414
:10037000000140F400027D34914201D3641C00E08E
:100380004900002C02DA30BC002070474FF4000016
:100390000023914201D3891A034340084FEA4101E7
:1003A000F7D151B1914202D14FF0004105E002D2A4
:1003B0004FF0010101E06FF0010103EBC45028444C
:1003C00030BC00F068B92DE9FE4F81EA030404F067
:1003D000004421F0004100944FF0000B23F0004353
:1003E00050EA01045ED052EA03045BD0C3F30A541E
:1003F000C1F30A552C44A4F2F3340194A0FB025437
:10040000C1F3130141F48011C3F3130343F48013C8
:1004100001FB024400FB034E840A970A44EA81541C
:1004200047EA8357A4FB076802958D0A05FB0785F9
:100430004FEA932C04FB0C542705029D4FEA065803
:1004400047EA1637B5EB08056EEB070C870E920EE0
:1004500047EA811742EA8312A7FB0201B6EB0B01C0
:1004600064EB00042B0D43EA0C335E1844EB1C5084
:10047000DA465146E7FB0201C5F313044FEA0B339A
:1004800043EA14534FEA0432019C43EA0603A4F101
:100490000C040294009CCDE900B400F060F903B0B4
:1004A000BDE8F08F00200146F9E72DE9F04D81EA23
:1004B000030404F0004B21F0004514464FF0000AFD
:1004C00023F0004150EA050220D054EA01021DD079
:1004D000C5F30A570246C5F31303C1F31300C1F372
:1004E0000A5640F4801543F48013A7EB0608101B4E
:1004F000D64608F2FD3873EB050002D308F1010877
:1005000001E092185B41B8F1000F03DA00200146C8
:10051000BDE8F08D00204FF48011064684460EE0C1
:10052000171B73EB050705D3121B63EB050306438B
:100530004CEA010C49084FEA300092185B4150EA3E
:100540000107EDD152EA030012D082EA040083EAE7
:100550000501084305D0101BAB4106D20122002340
:1005600006E000224FF0004302E06FF0010253105A
:100570001AEB06004CEB085110EB0A0041EB0B01A3
:10058000BDE8F04D00F0DCB80EB5C10F80EAE070B8
:100590000844CA07002140F233438DE80E000A46A2
:1005A0000B4600F0DCF803B000BD00F0004230F074
:1005B00000400AD0C10D01F56071C0F3160042EA97
:1005C0000151C2084007114370470020014670479F
:1005D00001F0004330B421F0004150EA010206D09E
:1005E0000A0DA2F56072C1F31301002A02DC30BCCF
:1005F00000207047440F44EAC104C100E01830BC39
:1006000000EBC25000F047B830B50B460146002061
:100610002022012409E021FA02F59D4205D303FAC4
:1006200002F5491B04FA02F52844151EA2F1010245
:10063000F1DC30BD2DE9F05F0546002092469B4677
:1006400088460646814640241BE0284641464746E8
:100650002246FFF7B5FD53465A46C01A914110D3C2
:1006600011461846224600F033FA2D1A67EB0108AE
:100670004F4622460120002100F02AFA17EB00091C
:100680004E41201EA4F10104DFDC484631462A46D3
:100690004346BDE8F09F0029A8BF7047401C4900B1
:1006A00008BF20F00100704710B4B0FA80FC00FAD7
:1006B0000CF050EA010404BF10BC704749B1CCF102
:1006C000200421FA04F411FA0CF118BF012121438E
:1006D0000843A3EB0C01CB1D4FEA00614FEA102049
:1006E00042BF002010BC704700EBC35010440029EB
:1006F000A4BF10BC7047401C490008BF20F0010097
:1007000010BC704710B541000CD0C0F3C7519629FA
:1007100008DC7E2909DC06DB410204D000F0004041
:1007200040F07E5010BD002010BDC1F19604C4F110
:10073000200100FA01F1E040FFF7ADFFA04010BD3D
:1007400010B5141E73F1000408DA401C41F10001D9
:1007500092185B411A4301D120F0010010BD2DE930
:10076000F04D92469B4611B1B1FA81F202E0B0FA27
:1007700080F22032904600F0ABF904460F4640EA82
:100780000A0041EA0B0153465A46084313D011466A
:1007900053EA010019D0C8F140025046FFF710FD9E
:1007A00005460E4650465946424600F091F9084328
:1007B00005D0012004E020463946BDE8F08D002038
:1007C000054346EAE0762C4337430A986305E40A7A
:1007D000A0EB08000022FD0A44EA47540A3002D583
:1007E00000200146E9E7010510196941DDE90845E6
:1007F00000196941BDE8F04DA2E72DE9FE4F8046A2
:1008000081EA0300C00F0C46009021F0004123F064
:100810000045B8EB0200A94105D24046214690466A
:100820001C460B46024623F00040104347D0270DDC
:10083000C7F30A00C3F30A510290401A01904028FE
:100840006BDAC3F3130040F4801B0098924620B18A
:100850000023D2EB030A63EB0B0B01985946C0F15E
:100860004002504600F034F906460D4650465946BF
:10087000019A00F03CF910EB08006141002487EA7E
:10088000115284EAE7731A4340D0009A62B3019A86
:10089000012A4FEA075215DC001B61EB02014FF001
:1008A000004202EA0752CDE90042001C41F58011E6
:1008B00032462B46FFF753FF03B0BDE8F08F4046AA
:1008C0002146F9E7001B61EB0201001C41F5801392
:1008D00000185B412018A2F5001747EB030140EA1E
:1008E000D570B6196D4111E06D084FEA360645EA3C
:1008F000C0754FEA0752001B61EB0201001C41F575
:10090000801149084FEA30000019514132462B4608
:1009100003B0BDE8F04FFFF713BF0098012240007D
:100920000023D0EB020263EBE073009821464FEA0C
:10093000E074B8EB000061EB0401E9E783F00043E9
:100940005BE781F0004158E72DE9F04D00231A469E
:100950001B1A8A4103DB00200146BDE8F08DC1F37C
:100960000A52C1F3130141F480154FF0000BD10777
:1009700002D100186D41521E0027044640F2FF11BB
:10098000384601EB620A3E468046024600204FF49C
:100990008011FFF715FCC2197141BB1846EB01002D
:1009A000B4EB030C75EB000C04D3E41A65EB000503
:1009B00017460E46241908F101006D41804634287F
:1009C000E3DDF91946EB0600091BA84103D24FF0FD
:1009D000FF32134601E0002213461BEB070046EBF3
:1009E0000A51BDE8F04DFFF7ABBE00F0004220F029
:1009F0000040C10DC0F3160040F400007F2901DA69
:100A000000207047962903DCC1F19601C84001E03F
:100A100096398840002AF4D040427047C1F30A5208
:100A2000C1F3130140F2FF3341F480119A4202DA1C
:100A300000200146704740F233439A42A2F233420B
:100A400002DC5242FFF7BCBB00F042B830B5041ED6
:100A500071F1000404DB4FF00044404264EB0101FB
:100A6000141E73F1000405DB1C464FF00043524294
:100A700063EB04038B4208BF824230BD30B5041ED5
:100A800071F1000404DB4FF00044404264EB0101CB
:100A9000141E73F1000405DB1C464FF00043524264
:100AA00063EB0403994208BF904230BD064C074DEA
:100AB00006E0E06840F0010394E80700984710342E
:100AC000AC42F6D3FFF716FBFC6700081C68000871
:100AD000202A04DB203A00FA02F1002070479140FE
:100AE000C2F1200320FA03F3194390407047202AF3
:100AF00006DBCB17203A41FA02F043EAE07306E046
:100B000041FA02F3D040C2F1200291400843194655
:100B10007047420005D0C0F3C7525242914201DCF7
:100B20000020704700EBC150704770B521F00043C2
:100B300003430CD0C1F30A550024D5EB040564EB44
:100B40000403D617AD1AB34102DB0020014670BD85
:100B5000201841EB025170BDC10F80EAE0700844DB
:100B6000CA0796230021FFF79FBD96230022114656
:100B7000FFF79ABDFEE70000014800F057B80000FB
:100B8000DC010020704772B6FEE7000010B590F857
:100B900021100024022903D00421816301243DE0B7
:100BA00001680A6822F00E020A6001680A6822F0F1
:100BB00001020A601A4A0168914201D1012121E033
:100BC000174A1432914201D110211BE0144A2832F5
:100BD000914201D1891515E0114A3C32914201D16F
:100BE00089140FE00E4A5032914202D14FF4803105
:100BF00008E00B4A6432914202D14FF4801101E0C7
:100C00004FF08071064A083A5160012180F82110A6
:100C1000002180F82010416B01B18847204610BDAB
:100C20000800024090F82100704700002DE9F05FB5
:100C3000C16B0C6801680B68D0F840C0042202FA4E
:100C40000CF2494DDFF824A1494E4A4FDFF828B194
:100C5000DFF828E122422CD05A072AD50A689206EA
:100C600003D40A6822F004020A600168A94201D193
:100C7000042219E0514501D1402215E0B14202D1D0
:100C80004FF4806210E0B94202D14FF480420BE091
:100C9000594502D14FF4802206E0714502D14FF44C
:100CA000800201E04FF080622F4908394A60C16A32
:100CB0003BE04FF0020808FA0CF818EA040F4FF076
:100CC00000094FF0010235D05FEA837832D50B6816
:100CD0009B0605D40B6823F00A030B6080F82120E3
:100CE0000168A94201D1022219E0514501D1202217
:100CF00015E0B14202D14FF4007210E0B94202D1C6
:100D00004FF400520BE0594502D14FF4003206E097
:100D1000714502D14FF4001201E04FF00072124908
:100D200008394A6080F82090816A00291AD0BDE80D
:100D3000F05F0847082505FA0CF5254212D01B077D
:100D400010D50B6823F00E030B6090F84010C36BB6
:100D500002FA01F15960826380F8212080F8209026
:100D6000016BE2E7BDE8F09F080002401C00024072
:100D70003000024044000240580002406C00024033
:100D800030B528B308C8134914221944B1FBF2F155
:100D90008900C16310498163022141771A6843F6D3
:100DA000F0718A43D0E900142143D0E902452C4375
:100DB0002143046921434469214384692143114348
:100DC000196000214163012242770177084630BD56
:100DD000012030BDF8FFFDBF0000024070B50446A1
:100DE00000F00CF90546601C02D004480078044469
:100DF00000F004F9401BA042FAD370BD08000020A7
:100E00002DE9F84FDFF8B8910024A9F1040B23462F
:100E10000F2709F1040AABF1040EC9E00125A54032
:100E20002A40AA427DD1674ED1F804C0ACEB060837
:100E3000B44532D014DCBCF1030F3AD009DCBCF16C
:100E4000000F2AD0BCF1010F1CD0BCF1020F31D130
:100E50001DE0BCF1110F17D0BCF1120F2AD119E01F
:100E6000B8F5881F19D006DCB8F5803F15D0B8F565
:100E7000801F1FD111E0B8F5001F0ED0B8F5041F78
:100E800018D10AE0CB6815E0CB681B1D12E0CB68D7
:100E900008330FE0CB680C330CE08B682BB1012BCF
:100EA0004FF0080303D0456104E0042302E005612C
:100EB00000E00023FF2A01D8064601E000F1040605
:100EC0004FEA840501D9A5F12005D6F8008007FA7C
:100ED00005FC28EA0C0803FA05F548EA0508C6F8F7
:100EE00000804D68ED0062D5374DAE6946F00106D1
:100EF000AE61AD6924F0030605F001050095334DA0
:100F000006EB050CDCF80850A607360F07FA06F8C2
:100F100025EA0805DFF8B880404503D14FF0000806
:100F200017E044E0DFF8AC80404502D14FF0010803
:100F30000FE0DFF8A480404502D14FF0020808E03E
:100F4000DFF89880404502D14FF0030801E04FF0F0
:100F5000040808FA06F848EA0508CCF808804D6845
:100F6000D9F80060ED024D4601D5164300E09643E6
:100F70002E604D68DAF80060AD02554601D5164383
:100F800000E096432E604D68DBF80060AD035D46DF
:100F900001D5164300E096432E604D68DEF80060F0
:100FA000ED03754601D5164300E096432E60641CA0
:100FB0000D682A46E5407FF431AFBDE8F88F0000A8
:100FC0000804014000001110001002400000014020
:100FD00000080140000C01400010014000140140D5
:100FE000C26821EA02030A4043EA024101617047F4
:100FF0000AB1016170470904FBE7000001488068FD
:101000007047000008000020704770472DE9F04746
:10101000026800215368C66A90F83E4090F83D503F
:10102000102C12D0402C10D0046C002C7DD05469B0
:10103000E443A6077AD4DE43B60577D4036C03B144
:101040009169BDE8F04701F0F5BD976951694FF42A
:101050002A0CC9435FEAC1784FF02A4904D066459B
:101060002AD04E4528D010E0DE43B6050DD4C16A23
:10107000614501D1012103E0C16A494501D108213F
:10108000C162BDE8F04701F03BBD0E0716D4DE4358
:10109000B60513D4416CC9B21161416B09B1896ABB
:1010A00029B9816B002907D0896A002904D000681A
:1010B000416841F400614160BDE8F0878E0706D4C5
:1010C000DE43B60503D4BDE8F04701F06DBCFE4336
:1010D000526876074FEA02521DD4002AECDB0A065A
:1010E00008D4DA43520505D4490705D5BDE8F047D1
:1010F00001F0FEBB4907DFD4D9438905DCD4212D9B
:1011000005D0402CD8D1BDE8F04701F03FBDBDE887
:10111000F04701F0ABBB002ACEDB4A060BD4DA4322
:10112000520508D4490708D501E00DE00EE0BDE8FE
:10113000F04701F021BB4907BED4D9438905BBD490
:10114000BDE8F04701F0AABA916970E7E10606D45C
:10115000D943890503D4BDE8F04701F08FBD2821AC
:10116000212D27D0292D25D0650655D4DD436D05C9
:1011700052D4640752D590F83D30448D002C9BD05A
:101180001269446A2270426A521C4262428D521EA7
:101190004285428D002A8FD12A2B8DD10268536857
:1011A00023F4806353602222026380F83D1000F034
:1011B00061F981E7250623D4DD436D0520D464075A
:1011C00020D590F83D30448D002CF2D0446A24782C
:1011D0001461426A521C4262428D521E4285428D07
:1011E000002AE6D1292BE4D10268536823F48063F6
:1011F00053602122026380F83D1000F03CF95BE768
:101200006107D6D4D9438905D3D4418D0029D0D0E4
:10121000416A097811610AE06107CAD4D943890596
:10122000C7D4418D0029C4D01169426A1170416A46
:10123000491C4162418D491E41853DE770470000D0
:1012400070B5040025D094F83D00002520B984F83D
:101250003C50204600F0BEF8242084F83D00206871
:10126000016821F0010101602068016841F400413A
:1012700001602068016821F40041016000F076FA05
:101280004D4A6168914201D84C4900E04C4988427E
:1012900001D2012070BD4B492368B0FBF1F15E68BB
:1012A00026F03F060E435E606368934206D94FF412
:1012B000967359434FF47A73B1FBF3F12368491CD9
:1012C0001E6A26F03F06314319626168914210D8C8
:1012D0004900401EB0FBF1F2521CC2F30B02042A7B
:1012E00001D2042022E0B0FBF1F0401CC0F30B005F
:1012F0001CE0A268F2B301EBC10303EB0116431E2D
:10130000B3FBF6F35B1C43F480431B0549D092B357
:1013100001EBC10202EB0111401EB0FBF1F0401CD9
:10132000C0F30B0040F4804040F400402168CA69DB
:101330004CF6FF739A431043C861D4E90710014388
:101340002068026822F0C00211430160D4E9030161
:1013500001432068826848F2FF339A431143816059
:10136000D4E9050108432168CA6822F0FF0210434E
:10137000C86001E00EE016E02068016841F001015C
:1013800001602564202084F83D00256384F83E50E8
:10139000002070BD01EB4106431EB3FBF6F35B1C5E
:1013A000B3E70120C2E701EB4101401EB0FBF1F0C1
:1013B000401CC0F30B00B7E7A086010080841E002C
:1013C00000093D0040420F0070477047704770476A
:1013D0007047000070B586B000250646009501955F
:1013E0000295039500681E49884236D11D4CA069BC
:1013F00040F00800A061A069694600F00800049070
:10140000C020009012200190032003901648FFF79F
:10141000F7FCE06940F40010E061E069144C00F46E
:1014200000100490114820601020C4E901058020BC
:10143000C4E903056561A5612046E561FFF7A0FCED
:1014400008B1FFF7A0FB7463002205211F2066622C
:1014500000F0A4F81F2000F093F806B070BD000063
:101460000054004000100240000C01406C0002409B
:10147000DC010020704770470248816802781144FF
:101480008160704708000020074810B5016841F0EE
:1014900010010160032000F0A1F80F2000F006F811
:1014A00000F04AF8002010BD0020024030B505468B
:1014B0001C4887B0816941F400618161806906A997
:1014C00000F40060009001A800F030F900F05EF92F
:1014D0001549164AB0FBF1F11548491E02604160FA
:1014E00040F2E7320021C0E903218160816100F010
:1014F000FEFD040012D10E4800F028FE04000DD1BC
:10150000192000F03DF8102D07D20022294619209D
:1015100000F044F80748056000E0012407B02046C9
:1015200030BD00000010024040420F00002C01407E
:10153000200200200C0000200F4808B5816941F00E
:1015400001018161816901F001010091C16941F0EE
:101550008051C161C069002200F0805000900F21CD
:10156000901E00F01BF80548416821F0E06141F051
:101570000071416008BD0000001002400000014001
:10158000002809DB00F01F02012191404009800082
:1015900000F1E020C0F8001170470000F0B40E4BDD
:1015A0001B680C46C3F30223C3F10705042D00D9C1
:1015B0000425191D072901D2002300E0DB1E0126A6
:1015C00006FA05F1491E214099409E40761E1640BC
:1015D0003143F0BC02F0E3B90CED00E0064900F045
:1015E000070208684FF6FF03184040EA0220034A4A
:1015F00010430860704700000CED00E00000FA05A1
:101600002DE9F0470F46050061D0434E306800F0E9
:101610000700B84209D2306820F007003843306034
:10162000306800F00700B84251D128683B4C810770
:1016300012D5400703D5606840F4E0606060287808
:10164000000703D5606840F4605060606068A96876
:1016500020F0F000084360602878C00728D0686850
:10166000012810D02168022810D0890700292EDA1D
:10167000616821F0030101436160FFF7BFFC804610
:1016800041F288390DE021688903EFE78901EDE730
:10169000FFF7B4FCA0EB0801494502D90320BDE8DF
:1016A000F0876068696800F00C00B0EB810FEFD143
:1016B000306800F00700B8420BD9306820F007000E
:1016C00038433060306800F00700B84201D0012094
:1016D000E5E72878400705D56068E96820F4E06010
:1016E000084360602878000706D56068296920F4FF
:1016F000605040EAC100606000F058F86168084A34
:10170000C1F30311515CC8400649086006480068EF
:10171000FFF7CCFE0020C2E700200240001002408C
:1017200016670008140000200C0000200F22026041
:101730000C4A536803F003034360536803F0F0035B
:101740008360536803F4E063C36052684FF4E0635E
:1017500003EAD20202610448006800F00700086052
:101760007047000000100240002002400448054974
:1017700000684968044AC1F30221515CC8407047BF
:1017800014000020001002402667000804480549A4
:1017900000684968044AC1F3C221515CC8407047DF
:1017A0001400002000100240266700080E4A51680D
:1017B0000E4801F00C03042B11D0082B0FD10C485C
:1017C000C1F38343C903C05C0AD55168084AC1F319
:1017D0004041921E515C054A5043B0FBF1F0704706
:1017E00004494843704700000010024000127A008C
:1017F0000667000800093D002DE9F84F040070D08D
:101800002078C04DC00749D06868C0F38100012826
:1018100007D06868C0F38100022809D16868C00356
:1018200006D52868800339D560680028E7D035E000
:101830006068B0F5803F0BD010B1B0F5A02F11D08B
:10184000286820F480302860286820F4802002E096
:10185000286840F480302860606890B1FFF7CEFBC4
:1018600006460AE0286840F480202860F0E700BFC0
:10187000FFF7C4FB801B642873D828688003F7D562
:101880000CE0FFF7BBFB064605E000BFFFF7B6FB29
:10189000801B6428F0D828688003F7D420789A4EFB
:1018A00080074FF001094FF0000839D5686810F043
:1018B0000C0F07D06868C0F38100022809D168685E
:1018C000C00306D42868800714D52069012808D1F0
:1018D00010E02069B0B1C6F80090FFF78FFB074613
:1018E00005E00AE1FFF78AFBC01B0228C4D828687C
:1018F0008007F7D52868616920F0F80040EAC10048
:1019000028600DE0C6F80080FFF778FB074604E08A
:10191000FFF774FBC01B022823D828688007F7D480
:10192000207800072CD57948A169D9B1C0F800907A
:10193000FFF764FB074604E0FFF760FBC01B0228CB
:101940000FD8686A8007F7D571484FF4FA510068DC
:10195000B0FBF1F0009000BF0098411E0091FAD258
:101960000EE080E0C0F80080FFF748FB074604E087
:10197000FFF744FBC01B022875D8686A8007F7D4BC
:101980002078400760D5E8690027C00008D4E869DE
:1019900040F08050E861E869012700F08050009035
:1019A0005C480168C90513D40168834641F480711D
:1019B0000160FFF723FB824606E000BFFFF71EFB36
:1019C000A0EB0A0064284ED8DBF80000C005F5D56E
:1019D000E06801280AD008B1052813D0286A20F051
:1019E00001002862286A20F0040002E0286A40F022
:1019F00001002862E06841F2883B98B1FFF7FEFAE7
:101A000082460BE0286A40F004002862EEE700BF3F
:101A1000FFF7F4FAA0EB0A0159455AD8286A800763
:101A2000F6D50CE0FFF7EAFA824605E0FFF7E6FAA2
:101A3000A0EB0A0159454CD8286A8007F6D41FB19B
:101A4000E86920F08050E861E06988B36968C1F313
:101A50008101022944D00228C6F8608004D0FFF733
:101A6000CDFA044638E034E0FFF7C8FA074604E050
:101A7000FFF7C4FAC01B02282BD828688001F7D4CE
:101A8000206AB0F5803F05D16868A16820F4003075
:101A900008436860D4E908010843696821F47411B7
:101AA00008436860C6F86090FFF7A8FA044606E0AD
:101AB00025E000BFFFF7A2FA001B022809D828681A
:101AC0008001F7D51BE000BFFFF798FA001B022842
:101AD00002D90320BDE8F88F28688001F4D40EE015
:101AE0000128F7D06868226A00F48031914204D15D
:101AF000616A00F47010884201D00120EAE70020FA
:101B0000E8E7000000100240000042428004424228
:101B1000140000200070004090F85100704770B52C
:101B2000040009D0606A002540B125616561A562A5
:101B300094F8510040B10CE0012070BD6068B0F530
:101B4000827FF4D0E561F2E784F85050204600F03F
:101B50003FF8022084F851002068016821F040011C
:101B60000160A088218900F4827001F404410843D7
:101B7000A18901F400610843217C01F002010843BE
:101B8000217D01F001010843218B01F4007108431C
:101B9000217F01F03801084394F8201001F0800102
:101BA0000843218D01F40051084321680860A069B1
:101BB000042101EA1040216848602068C16921F4CD
:101BC0000061C1616565012084F85100002070BD8D
:101BD00030B585B000240094019402940394006809
:101BE0001449884223D11448816941F480518161AC
:101BF000816901F480510491816941F0040181619E
:101C000080690E4D00F004000490A0200090022096
:101C100001900320039069462846FFF7F1F8402021
:101C2000CDE90004694628460294FFF7E9F805B0BB
:101C300030BD0000003001400010024000080140AB
:101C40002DE9F84F044690F851001D4616460F4600
:101C5000012838D160684FF00408B0F5827F01D1C7
:101C6000A06830B3FFF7CAF98246002F75D0002E66
:101C700073D094F85000012825D04FF0010984F862
:101C8000509084F851804FF00008C4F85480A76346
:101C9000A687E687C4F83080A4F83480A4F836809C
:101CA000C4F84080C4F84480A068B0F5004F0CD060
:101CB00015E084F85180009313460A46204600F050
:101CC0001CF9BDE8F88F0220FBE72068016821F0CD
:101CD000400101602068016821F4804101602068B2
:101CE0000168490603D4016841F040010160E068E1
:101CF000C0B134E020688168C90709D0007BA16BBE
:101D00000870A06B401CA063E08F401EE08709E0D4
:101D1000FFF774F9A0EB0A00A84202D3681C01D0B7
:101D200032E085B3E08F0028E4D11BE020688168B1
:101D3000C90709D0C068A16B0880A06B801CA06394
:101D4000E08F401EE0870AE0FFF758F9A0EB0A0099
:101D5000A84203D3681C02D016E012E09DB1E08FC8
:101D60000028E3D152462946204601F0B9F908B1CE
:101D70002020606584F8519084F85080606D0028C0
:101D80009FD001209DE7FFE784F8519084F85080B0
:101D9000032096E72DE9F84F984616468A460446F2
:101DA000FFF72CF9814694F8510001281ED1BAF1B1
:101DB000000F73D0002E71D094F85000012815D078
:101DC000012784F85070032084F8510000256565D0
:101DD000C4F830A0A686E686A563A587E587656476
:101DE0002564A068B0F5004F03D00CE00220BDE8E8
:101DF000F88F2068016821F04001016020680168C7
:101E000041F48041016020680168490603D40168FB
:101E100041F040010160E068B0F5006F606803D0F8
:101E200048B3012E27D047E008B1012E1FD1206B07
:101E300021680088C86006E020688168890709D5A4
:101E4000216B0988C160206B801C2063E08E401EDE
:101E5000E0860CE0FFF7D2F8A0EB0901414503D37F
:101E6000B8F1FF3F03D035E0B8F1000F32D0E08E7B
:101E70000028E1D123E0206B21680078087306E098
:101E80002068816889070AD5216B09780173206B66
:101E9000401C2063E08E401EE0860DE02BE0FFF743
:101EA000ADF8A0EB0901414503D3B8F1FF3F03D0E2
:101EB00010E0B8F1000F0DD0E08E0028E0D14A46C6
:101EC0004146204601F03AF908B120206065A0683B
:101ED00030B109E084F8517084F85050032086E74F
:101EE0002068C1688068009084F8517004F8505FE1
:101EF00060680028F3D0012079E72DE9FF4F81B019
:101F00001D46934604464FF001090E9EFFF776F8F2
:101F1000074694F851006168012806D0B1F5827F28
:101F20003CD1A168C9BB042838D10298002871D0DF
:101F3000BBF1000FFBD0002DF9D094F85000012820
:101F40002CD04FF0010A84F850A094F851000428D6
:101F500002D0052084F851004FF00008C4F85480E6
:101F6000C4F838B0E587A58702992163E586A58680
:101F7000C4F84080C4F8448020680168490603D44E
:101F8000016841F040010160E068B0F5006F6068F1
:101F900008D0F0B3012D49D081E0FFE7022005B061
:101FA000BDE8F08F08B1012D39D1206B2168008880
:101FB000C860206B801C2063E08E401EE0862EE00F
:101FC0002068816889070FD5E18E69B1B9F1010FE9
:101FD0000AD1216B0988C160206B801C2063E08ED0
:101FE000401EE0864FF0000920688168C9070CD0C8
:101FF000E18F51B1C068A16B0880A06B801CA06309
:10200000E08F401EE0874FF00109FEF7F7FFC01B8D
:1020100001E00BE067E0B04201D3701C50D1E08ECC
:102020000028CDD1E08F0028CAD13EE0206B216886
:1020300000780873206B401C2063E08E401EE08611
:102040002DE02068816889070FD5E18E69B1B9F16B
:10205000010F0AD1216B09780173206B401C2063AA
:10206000E08E401EE0864FF0000920688168C907B5
:102070000CD0E18F51B1C068A16B0870A06B401CFF
:10208000A063E08F401EE0874FF00109FEF7B6FF26
:10209000C01BB04202D3701C01D011E086B1E08EAB
:1020A0000028CED1E08F0028CBD13A4631462046D9
:1020B00001F044F850B12020606584F8508012E0AF
:1020C00084F851A084F85080032068E7A06818B90C
:1020D0002068C1688068009084F851A084F850801E
:1020E000606D0028F1D0012059E77047704710B5A6
:1020F000040003D094F83D0010B107E0012010BDAA
:10210000002084F83C00204600F01EF8022084F8ED
:102110003D00211D206801F031FA012084F84600BD
:1021200084F83E0084F83F0084F8400084F84100C1
:1021300084F8420084F8430084F8440084F84500A1
:1021400084F83D00002010BD7047000090F83D105D
:10215000012901D001207047022180F83D1001685B
:10216000CA6842F00102CA6000680B49884208D080
:10217000B0F1804F05D00949884202D00849884211
:1021800004D1816801F00701062903D0016841F0FC
:102190000101016000207047002C01400004004054
:1021A0000008004070472DE9F04104460068C66809
:1021B00005694FF00007A90713D5B10711D5F91E1E
:1021C000016101202077206880698007204602D0C5
:1021D000FFF7E8FF04E000F07EF8204600F07CF80E
:1021E0002777680716D5700714D521686FF00400AB
:1021F0000861022020772068806910F4407F204623
:1022000002D0FFF7CFFF04E000F065F8204600F0B1
:1022100063F82777280715D5300713D521686FF0A5
:1022200008000861042020772068C06980072046E4
:1022300002D0FFF7B7FF04E000F04DF8204600F0B1
:102240004BF82777E80616D5F00614D521686FF00D
:1022500010000861082020772068C06910F4407FD2
:10226000204602D0FFF79EFF04E000F034F820463D
:1022700000F032F82777E80708D0F00706D0216889
:102280006FF001000861204600F028F8280608D504
:10229000300606D521686FF0800008612046FFF700
:1022A00024FF680608D5700606D521686FF0400047
:1022B0000861204600F01CF8A8060AD5B00608D52B
:1022C00021686FF0200008612046BDE8F041FFF76B
:1022D0000DBFBDE8F08170477047000000680349FA
:1022E000884201D1FFF7C8B870470000002C0140B8
:1022F000704770B5040004D094F84100002510B177
:1023000006E0012070BD84F84050204600F024F81B
:10231000242084F841002068C16821F40051C16084
:10232000204601F065FA2068016921F490410161BD
:102330002068416921F02A0141612068C16841F4A7
:102340000051C1606564202084F8410084F8420097
:102350006563002070BD000030B585B00024009496
:1023600001940294039400681449884224D11448CB
:10237000816941F480418161816901F48041049166
:10238000816941F00401816180690E4D00F0040013
:1023900004904FF4007000900220019003200390FD
:1023A00069462846FEF72CFD2815CDE9000469464C
:1023B00028460294FEF724FD05B030BD00380140E8
:1023C00000100240000801402DE9F843044690F84F
:1023D0004100984616460D46202802D00220BDE84E
:1023E000F88385B17EB100206064212084F841002B
:1023F000FEF704FEA6848146E684A0682027B0F597
:10240000805F02D003E00120E9E7206910B12E4689
:1024100000250EE000260CE08021204601F044FA61
:10242000A8B9C6B116F8010B21684860E08C401EBF
:10243000E084E08C4B464FF00002CDF8008000288D
:10244000EAD14FF04001204601F02EFA40B184F865
:1024500041700320C3E735F8020BC0F30800E3E73F
:1024600084F841700020BAE7FEE700000148FEF75B
:10247000CDBD0000A000002038B5406A002190F8D2
:102480003D202B4B46F2A8141B68B3FBF4F3C3EBBF
:10249000C30303EB830300933BB15B1E009303680C
:1024A0001B689B0505D5009BF6E7036C43F02003F2
:1024B0000364436B03B19962836B03B19962036850
:1024C0001C6824F480641C604185436B03B159632C
:1024D000836B03B1596303681C6824F001041C601A
:1024E00090F83D402023602C0BD0282434EA0202CF
:1024F0000FD080F83D3080F83E1000BFFEF79EFE02
:1025000038BD80F83D3080F83E100164FEF77CFD58
:1025100038BD0268136843F0010313600268136852
:1025200043F480631360016380F83D40E6E70000F8
:102530001400002000684169C943090601D4002144
:102540000161704770B5044690F83D0094F83E1064
:10255000102901D0402906D1222804D121680A6817
:1025600022F400620A60282131EA00024FF00005DF
:102570004FF0200626D021684968090505D4602857
:1025800003D084F83D6084F83E502563206841689C
:10259000090537D5416821F400614160606B90F80E
:1025A00021203C49012A11D04163606BFEF7EEFA0D
:1025B00038B32068016821F00101016084F83D60B2
:1025C000606B1CE0256384F83D10DFE7A06B41637E
:1025D000A06BFEF7DBFAA0B120684169C943490648
:1025E00005D40069616A0870606A401C60622068F6
:1025F000016821F00101016084F83D60A06B416B2E
:10260000884710E094F83D10602910D04169C94313
:10261000490605D40069616A0870606A401C6062FE
:102620002046FEF70BFE206CC1071CD115E084F894
:102630003D6025644169C943490605D40069616A62
:102640000870606A401C60622068016821F0010126
:1026500001602046FEF7D8FCE5E7810703D4410777
:1026600001D4000704D52068416821F4E06141608D
:1026700094F83D00216C49070BD5282809D106485C
:10268000E062256384F83D6084F83E502046FEF702
:102690009BFE70BD792400080000FFFF10B5C26AE0
:1026A000438D0168042B06D0438D032B08D0438D46
:1026B000022B1DD012E04A6822F480624A600CE0CE
:1026C0004B6823F480634B60042A06D0022A04D0AE
:1026D00001680A6822F480620A6001680969426A36
:1026E0001170416A491C4162418D491E418510BDEE
:1026F000012A34D0102A32D0042A34D0022A32D00F
:102700000B6843F400730B6001680969436A197030
:10271000416A491C4162438D5B1E438503681B6906
:102720000B70416A491C4162418D491E4185016817
:102730004B6823F440734B60202180F83D1090F8E3
:102740003E300021402B80F83E1010D0082A02D0E5
:10275000202A00D012210163FEF737FE10BD0B685E
:1027600023F48063CFE70B6843F48063CBE7016316
:10277000FEF72DFE10BD000038B590F83D1022295F
:1027800010D1C36A418D03290DD901680969426AD4
:102790001170416A491C4162418D491E4185418D3C
:1027A000032906D038BDC26A022A02D0012906D008
:1027B00029B10068416821F48061416038BD2A4A2E
:1027C00046F2A81400211268B2FBF4F202EB820276
:1027D000009202682024009D6D1E009526D0156889
:1027E000AD05F8D4156825F4806515600268556854
:1027F00025F4E065556002681269456A2A70426AEC
:10280000521C4262428D521E428580F83D4090F833
:102810003E2080F83E10402A21D0082B02D0202BE9
:1028200000D012210163FEF7D0FD38BD036C43F0E8
:1028300020030364536823F4E06353600268126961
:10284000436A1A70426A521C4262428D521E42858D
:1028500080F83D4080F83E10FEF7F0FC38BD016383
:10286000FEF7B5FD38BD00001400002010B5C26AA7
:1028700090F83D1021290BD1418D51B1416A026878
:1028800009781161416A491C4162418D491E4185A7
:1028900010BD20230021082A13D0202A11D012F5C0
:1028A000803F0ED00268546824F4E0645460112222
:1028B000026380F83E1080F83D3000BFFEF786FDD1
:1028C00010BD0268546824F4E0645460026814681F
:1028D00044F400741460016380F83D3090F83E20A9
:1028E00080F83E10402AE9D1FEF772FD10BD0000CD
:1028F00010B590F83D1090F83E30C26A048DB4B126
:10290000212903D0402B11D122290FD1418DE1B3D0
:1029100090F83E10402942D0416A0268097811615E
:10292000416A491C4162418D491E418510BD2129E2
:10293000E8D120230021082A13D0202A11D012F533
:10294000803F0ED00268546824F4E0645460112281
:10295000026380F83E1080F83D3000BFFEF736FD80
:1029600010BD0268546824F4E0645460026814687E
:1029700044F400741460016380F83D3090F83E2008
:1029800080F83E10402AE9D100E002E0FEF720FD89
:1029900010BD0068416821F48061416010BDBDE850
:1029A000104000F0F3B8000078B590F83E50C26ACD
:1029B000046B90F83D6000230168222E73D1066DF0
:1029C0000EB9402D6FD0056D1DB90569B5F5404FA5
:1029D0001BD0458D95B3468D484D012E20D0448D9A
:1029E000022C4DD00C6844F480640C6001684C6883
:1029F000240579D5AA4273D0012A71D0082A6FD054
:102A0000102A6DD0202A6BD06EE04A698A69009244
:102A10000A6842F480720A60016D491C016578BD44
:102A2000AA4214D10A6822F480620A6001684A68E6
:102A3000120504D50A6822F4806217E0FFE74A69AC
:102A40008A6900920A6842F400720A6050E0082A1B
:102A500010D0202A0ED0122C0AD0042A03D0022A29
:102A600001D0102AE6D10A6842F480620A603BE095
:102A7000012ADFD00A6822F480620A600168DEE77A
:102A8000042A11D0022A0FD0102A0DD00C6844F469
:102A900000640C6001684C698C6900940C6824F433
:102AA00080640C6008E025E00C6844F480640C60ED
:102AB00001684C698969009101684C68240517D543
:102AC000AA4207D0012A05D0082A03D0102A01D033
:102AD000202A0DD14A6842F480524A6008E0FFE79C
:102AE0004A6842F480524A6001684A6989690091E3
:102AF000036578BD48698869009078BD0000FFFFD4
:102B000090F83E10402910D00169B1F5804F19D0DE
:102B1000016DA9B3016D012910D1416C5FF0F10283
:102B200001F4407142EAD11106E0016D0029416CC7
:102B300005D0C9B241F0010100680161704701F0A0
:102B4000FE01F9E790F83D102129416C09D0C9B286
:102B500041F0010102681161416B29B1896A49B9EB
:102B600002E001F0FE01F5E7816B0029E6D0896AF9
:102B70000029E3D00068416841F40061416070477A
:102B8000FFE7416CF02201F44071CBE710B590F8FB
:102B90003D10026D4AB1026D012A14D0026D022A65
:102BA00016D0BDE81040FFF7C5BCC16C0129816C8F
:102BB00002D0C1F3072108E00268C9B21161016DBA
:102BC000891C016510BD816CC9B20268116123E0E6
:102BD00022291CD0428D0AB1212920D0428D002A01
:102BE000F0D12129EED101684A6822F4E0624A60FE
:102BF00001680A6842F400720A6000210163202221
:102C000080F83D2080F83E10FEF7E2FB10BD016821
:102C10000A6842F480720A60016D491CD1E7416A7A
:102C2000026809781161416A491C4162418D491E5F
:102C3000418510BD38B50C4690F83D20002128256F
:102C4000954302680B4605D051699169009180F85F
:102C50003C3038BD556825F480655560E243540723
:102C600000D50121120601D5828900E0028B80F88F
:102C70003C3092B2FEF7C9F938BD0000F8B590F8C3
:102C80003D6004460068416821F4E06141602068CD
:102C9000002541690091016841F00101016020684F
:102CA000016821F48061016020684168090520D530
:102CB000474F222E48D02A2E46D0616B09684968BA
:102CC0006185618D19B1216C41F004012164416875
:102CD00021F400614160606BFDF7A4FF012808D07A
:102CE000606B4763606BFDF751FF10B1606B416B28
:102CF0008847608D08B320684169C943490708D4F3
:102D00000069616A0870606A401C6062608D401EE4
:102D1000608520684169C943490608D40069616A31
:102D20000870606A401C6062608D401E6085608D26
:102D300018B1206C40F004002064206C00B32046E1
:102D4000BDE8F840FFF7FEBBA16B096849686185E3
:102D5000618D19B1216C41F004012164416821F4B5
:102D600000614160A06BFDF75DFF0128C1D0A06B41
:102D70004763A06BFDF70AFF0028BAD0A06BB6E747
:102D80002A2E06D12563282084F83D002046FEF730
:102D900071FB94F83D10202028290DD0216B2229A9
:102DA00001D0222E07D1256384F83D0084F83E50DF
:102DB0002046FEF75FFBF8BD0649E162256384F813
:102DC0003D0084F83E502046FEF7FEFAF8BD0000B4
:102DD000792400080000FFFF10B50446FDF724FA2F
:102DE000214682B2BDE810404FF0FF330148FFF7A3
:102DF000EBBA00004C01002070B500244FEA040536
:102E000000EB84063562F562B56300EB4406B581DC
:102E100075823583641CE4B2032CF1D30160038115
:102E2000426017A002F082FD80216B2001F0D2FEEB
:102E30000A20FDF7D3FF80216B2001F0CBFE0A2092
:102E4000FDF7CCFF01216B2001F0C4FE00216C20B6
:102E500001F0C0FE0021192001F0BCFE18211B204A
:102E600001F0B8FE18211C2001F0B4FE00211D2045
:102E700001F0B0FE00211A2001F0ACFE012070BD6F
:102E80004E6F7720496E697469616C697A696E6703
:102E9000204D505539323530000000002DE9F04109
:102EA000044606213B2001F069FE174D288840BAF0
:102EB000A081B4F90C00FDF767FB144E144F3246A5
:102EC0003B46FDF7F2FAFDF783FB2062688840BAC3
:102ED000E081B4F90E00FDF757FB32463B46FDF7A3
:102EE000E4FAFDF775FB6062A88840BA2082B4F965
:102EF0001000FDF749FB32463B46FDF7D6FAFDF7D9
:102F000067FBA062BDE8F0813C1B00208FC2F52862
:102F10005C1F6A402DE9F04104460621432001F080
:102F20002DFE174D288840BA6082B4F91200FDF7D3
:102F30002BFB144E144F32463B46FDF7B6FAFDF715
:102F400047FBE062688840BAA082B4F91400FDF73C
:102F50001BFB32463B46FDF7A8FAFDF739FB206321
:102F6000A88840BAE082B4F91600FDF70DFB32469E
:102F70003B46FDF79AFAFDF72BFB6063BDE8F08155
:102F80003C1B0020FCA9F1D24D6230402DE9F043FA
:102F900085B000242548009401940294039481692B
:102FA00041F010018161816901F010010491816992
:102FB00041F020018161816901F020010491816962
:102FC00041F004018161816901F00401049181698A
:102FD00041F0080181618069DFF8548000F0080049
:102FE0004FF400550490002229464046FEF700F8B1
:102FF000DFF840906F00002239464846FDF7F8FFA1
:103000000095022601250396CDE901546946404604
:10301000FDF7F6FE00970396CDE901546946484650
:10302000FDF7EEFE05B0BDE8F083000000100240A1
:1030300000100140000C0140134808B5416941F0FF
:10304000010141614069114900F001000090104800
:103050004FF4804201600F49416000218160C0E966
:10306000031241618161C1610162FEF7E9F808B1B3
:1030700072B6FEE7002211461020FEF78FFABDE877
:1030800008401020FEF77CBA0010024000540040B7
:10309000A0000020801A06000F4810B50D490160FD
:1030A0004FF48271416000218160C1604FF4007271
:1030B0000161C0E905123822C0E90721416281623D
:1030C0000A21C162FEF72BFD002801D072B6FEE78F
:1030D00010BD000000300140F4000020FEE7FEE7D4
:1030E000F8B5044640684FF48273984217D1A0683F
:1030F0004FF48065B0F5004F01D0A8420FD1206891
:10310000066826F0400606606068984207D1A0680D
:10311000A84204D100920B460022012103E0009254
:103120000B4600228021204600F022F8002804D01F
:10313000606D40F0200060650320F8BDF8B51546CD
:103140000E460B46009204460122022100F010F8C0
:1031500040B93346002280212046009500F008F84F
:10316000002804D0606D40F0200060650320F8BDA9
:103170002DE9F8431E46914688460446089DFDF712
:103180003DFF401B351AFDF739FF0746254800680B
:10319000C0F3CB30684338E0701C37D0FDF72EFF0A
:1031A000C01BA84203D215B1009860B32CE0206880
:1031B000416821F0E00141606068B0F5827F0BD189
:1031C000A068B0F5004F02D0B0F5806F04D1206840
:1031D000016821F040010160A06AB0F5005F09D1EB
:1031E0002068016821F4005101602068016841F401
:1031F00000510160012084F85100002084F8500043
:103200000320BDE8F8830025401E009020688168F7
:1032100038EA010004D000214945BDD10020F0E783
:103220000121F9E71400002086B00025794801F05B
:103230009BFC794908707748FFF730FE7548FFF727
:1032400069FE744CA06A0146FDF74DF80646606AB7
:103250000146FDF748F83146FCF7EDFFFDF7A5F90B
:1032600002F083FA0646206A0F4680F00040FDF720
:103270009CF932463B4601F03BFADFF8A0A1002260
:103280005346FDF7A0F8DFF898914FF0C04842464A
:103290004B46FDF70AF9FDF79BF90590A06AFDF78B
:1032A00084F906460F46606AFDF77FF932463B46D1
:1032B00001F01EFA00225346FDF785F842464B46C0
:1032C000FDF7F3F8FDF784F9574E0490DFF85491B9
:1032D00031460598FDF707F8544F3946FDF735F8A4
:1032E000824602F069FA804631460498FCF7FBFFFB
:1032F0003946FDF72AF8834601F0C8FA06465046DB
:1033000001F0C4FA616BFCF7EEFF3146FCF7EBFF0E
:103310000746584601F0BAFA0646504602F046F90A
:10332000216BFCF7E0FF3146FCF7DDFF064658460F
:1033300002F03CF9E16AFCF7D6FF3146FCF77BFF6F
:103340003946FCF778FF4146FCF7CDFF616BFCF78F
:10335000C7FF4946FCF7C7FF2946FCF76CFF344E10
:103360000546B04203DB3146FCF7B7FF054615F1D1
:10337000FF4F03D33146FCF75EFF0546FDF73EFEE7
:1033800001462CA002F0D2FAA06AFDF70EF98046A1
:103390008946606AFDF709F906460F46206AFDF77F
:1033A00004F98DE8C00302460B462EA002F0BEFAD7
:1033B000606BFDF7FAF880468946206BFDF7F5F85B
:1033C00006460F46E06AFDF7F0F88DE8C0030246B6
:1033D0000B462EA002F0AAFA2846FDF7E6F80746AB
:1033E00088460498FDF7E1F804460E460598FDF777
:1033F000DCF88DE8D00102460B462EA002F096FACA
:1034000039A002F093FA4FF400513948FDF7E8FD76
:103410000CE70000940100200000002000806640BE
:10342000FB210940CDCC4C3DDB0F4940000034432B
:103430000000B4437B2273656E736F72223A226D73
:10344000707539323530222C2274696D6573746160
:103450006D70223A256C752C2264617461223A7B6E
:103460000000000022616363656C223A7B227822AF
:103470003A252E33662C2279223A252E33662C22C9
:103480007A223A252E33667D2C000000226779725D
:103490006F223A7B2278223A252E33662C2279221B
:1034A0003A252E33662C227A223A252E33667D2C3D
:1034B00000000000226174746974756465223A7BAF
:1034C000227069746368223A252E32662C22726F4C
:1034D0006C6C223A252E32662C22796177223A25AD
:1034E0002E32667D000000007D7D0D0A0000000088
:1034F0000010014010B54FF0E020006902F03AFFE3
:10350000012803D0BDE8104002F068BC10BD30B502
:103510008FB028216846FCF77CFE14210AA8FCF72E
:1035200078FE01210804CDE9001000240294022550
:103530000491CDE907504FF4E01009906846FEF77A
:103540005BF908B172B6FEE70F20CDE90A054FF42A
:103550008060CDE90C4002210AA80E94FEF750F8D5
:10356000002801D072B6FEE70FB030BD70470000F2
:103570000148FEF718BE000020020020F0B50268E6
:10358000194B1A4C1A4D4FF08047984205D0B8425B
:1035900003D0A04201D0A84203D122F070064A68AD
:1035A0003243984205D0B84203D0A04201D0A8428D
:1035B00003D122F44074CA6822434C6922F080028D
:1035C000224302608A68C2620A688262984201D11C
:1035D00009690163012141610169C90703D00169DA
:1035E00021F001010161F0BD002C01400004004008
:1035F00000080040FEB575208DF8040000208DF80D
:10360000080029A002F092F9304E4FF480450022C4
:1036100029463046FDF7ECFC4FF47A77012302AAE5
:1036200001A92B480097FEF768FC044601222946B1
:103630003046FDF7DDFC002C31D026A127A002F09A
:1036400075F99DF808209DF804102BA002F06EF982
:1036500032A002F06BF9F5208DF804000022294613
:103660003046FDF7C5FC012302AA01A918480097BE
:10367000FEF743FC0446012229463046FDF7B8FC1C
:10368000002C0ED013A12EA002F050F99DF80810C6
:1036900032A002F04BF938A002F048F9FEBD3EA17D
:1036A000CCE73DA1EFE700003D3D3D2053504920D0
:1036B000436F6D6D756E69636174696F6E205465DB
:1036C0007374203D3D3D0D0A00000000000C0140D8
:1036D000F40000204641494C454400005350492025
:1036E0007472616E736D6974207374617475733A6A
:1036F0002025730D0A00000053656E743A2030785F
:10370000253032582C2052656365697665643A200D
:103710003078253032580D0A000000002D2D2D2064
:1037200052656164696E672057484F5F414D5F493C
:10373000205265676973746572202D2D2D0D0A0066
:1037400057484F5F414D5F49207265616420737433
:10375000617475733A2025730D0A000057484F5F56
:10376000414D5F492076616C75653A20307825308F
:1037700032580D0A000000003D3D3D2053504920C5
:103780005465737420436F6D706C657465203D3DA6
:103790003D0D0A0D0A0000005355434345535300A5
:1037A00001680C3151E8002F22F4907241E80023A7
:1037B000002BF5D10168143151E8002F22F00102ED
:1037C00041E80023002BF5D1016B012909D10168E3
:1037D0000C3151E8002F22F0100241E80023002BA9
:1037E000F5D1202180F842100021016370470000CC
:1037F00070B5044600680169E26821F44051114344
:1038000001612169A0680843616908432168CA68A9
:1038100041F20C639A430243CA6020684169A2697D
:1038200021F44071114341611E492068884202D150
:10383000FDF7ACFF01E0FDF799FF00EBC00101EBE4
:103840000012606864218000B2FBF0F3B3FBF1F377
:103850006FF018067343B2FBF0F5B2FBF0F605EB20
:103860008305322303EB0515B5FBF1F5B6FBF1F645
:1038700005F0F00505EB0615B2FBF0F6B2FBF0F033
:10388000B0FBF1F06FF01802504306EB800003EB41
:103890000010B0FBF1F0216800F00F0028448860B0
:1038A00070BD0000003801402DE9F84398461746E6
:1038B0000D460446089E24E0701C22D0FDF79EFBB6
:1038C000A0EB0800B0421AD8CEB12068C168490701
:1038D00017D5802D15D0402D13D00168C943090795
:1038E0000FD401680025406800902046FFF758FF7C
:1038F0000820606484F840500120BDE8F88303206C
:10390000FBE72068006835EA000004D00020B842D8
:10391000D2D00020F1E70120F9E7FEE77CB50C00EA
:103920001D461646014601D0601E00E00020CDE98C
:103930000010064B6A462946304600F03BFA002C40
:1039400002D0009A002111707CBD0000BB44000829
:10395000490050EAC12018BF04204A0D18BF40F0AA
:10396000010040F2FF72B2EB515F08BF40F002006D
:10397000012808BF052070474100080218BF042035
:103980000A0E18BF40F001004FF07F4232EA0101F9
:1039900008BF40F00200012808BF05207047090752
:1039A000090E002804DB00F1E02080F800147047C5
:1039B00000F00F0000F1E02080F8141D70472DE9A1
:1039C000F0414F1E00EBC7010446D1E90001154646
:1039D0001E4637F006020DD02A463346FCF7F3FCAC
:1039E0007F1E04EBC703D3E90023FCF706FF37F083
:1039F0000602F1D1022F25D0042F13D0062F18BFB5
:103A0000BDE8F0812A463346FCF7DDFCD4E90A2301
:103A1000FCF7F3FE2A463346FCF7D5FCD4E908232D
:103A2000FCF7EBFE2A463346FCF7CDFCD4E906232F
:103A3000FCF7E3FE2A463346FCF7C5FCD4E9042331
:103A4000FCF7DBFE2A463346FCF7BDFCD4E9022333
:103A5000FCF7D3FE2A463346FCF7B5FCD4E9002335
:103A6000BDE8F041FCF7C9BE0122FDF75EB8FCF7E6
:103A7000C4BE0000024A00201107FDF756B800003E
:103A800001FDFFFF0121FDF744B800210846FCF7C6
:103A90005CBC6FF05E010807FDF73BB82DE9F04D07
:103AA0000D4614464FF07F41B1EB440F9EBF4FF0DF
:103AB000FF312960BDE8F08D4FF0004040EA04215D
:103AC000C4F3C750783810F01F024A4B4FEA601C0D
:103AD000C2F120067B44C4F3C750A0F178004FEA3E
:103AE000601003EB800053F82C3008BFD0E901C60A
:103AF00012D0D0F804C093402CFA06F73B438768F5
:103B00000CFA02FC27FA06F8C06807FA02F2F04045
:103B10004CEA080C42EA0006A3FB0132ACFB01C0F0
:103B2000A6FB016101EB0C068E4234BF4FF0010C85
:103B30004FF0000CC1186144BCF1000F02D081426B
:103B400002D903E0814201D2012000E000201044AC
:103B500000F120024FEA92188006CA0C40EA423077
:103B60004F03C5F80080FCF7F7FF82463846FCF7A4
:103B7000FCFF6FF01201FCF7CCFF07463046FCF764
:103B8000F4FF6FF02501FCF7C4FF83463946504629
:103B9000FCF751FB5946FCF74EFB00F500666FF34E
:103BA0000B0651463046FCF798FB3946FCF795FB6F
:103BB0005946FCF795FB1049FCF795FB07460F4962
:103BC0003046FCF790FB3946FCF735FB07460C49BD
:103BD0003046FCF788FB3946FCF72DFB14F0004F0C
:103BE00008BFBDE8F08DC8F1805180F00040296029
:103BF000BDE8F08DF82C0000DB0FC92F22AAFD29AB
:103C00000000C92F02E008C8121F08C1002AFAD11B
:103C100070477047002001E001C1121F002AFBD14C
:103C20007047000001490860704700009C000020B8
:103C30002DE9FF5F82B00021DDE90430020DDDF8DF
:103C400040B0034318D044F61050A2F2FF32424372
:103C50001514119801281FD0A5EB0B00401C5FEA3A
:103C6000000A4FF000064E4FDFF83891B04650463C
:103C700015D5CAF1000413E0119801244AA30128C4
:103C800001D16FEA0B010298119AC0E90031C0E935
:103C9000024206B0BDE8F09FCBF10000DFE704462A
:103CA0000021404A491842EB0450CDE9001012E0CF
:103CB000E00707D032463B4640464946FCF783FBC7
:103CC0008046894632463B4610461946FCF77BFB48
:103CD00006460F466410002CEAD1DDE90401DDE957
:103CE0000023BAF1000F06DAFCF76DFB42464B46A3
:103CF000FCF769FB05E0FCF7D8FB42464B46FCF7B6
:103D0000D4FB04460E460022284BFCF7B7FE03D82E
:103D10004FF0FF30014607E00022254B2046314698
:103D2000FCF76BFDFCF77AFE102409E0002C0ADB9F
:103D30000A220023FCF77EFC039B30321A55641ED6
:103D400050EA0102F2D1641C039AC4F11103144435
:103D5000119A012A03D0012208430DD10AE0084339
:103D600004D000204FF0110B119072E7A3EB0B056C
:103D70006D1E0DE05B4504DD4FF0000205F101050D
:103D800004E003DA4FF00002A5F10105002AECD0AF
:103D900002981199C0E90231C0E9004579E70000B5
:103DA000000014400000F03F300000000000F0432D
:103DB0000000E03F2DE9FF4F95B09A468846064641
:103DC0000025EEE1252877D100242746F94A012174
:103DD000039400E0044316F8013F203B01FA03F08E
:103DE0001042F7D130782A2811D06FF02F033078A5
:103DF000A0F13002092A16D8039A44F0020402EB1B
:103E0000820203EB42021044761C0390EFE758F85D
:103E1000042B0392002A03DA504244F40054039026
:103E200044F00204761C30782E2816D116F8010FC3
:103E300044F004042A280DD06FF02F023078A0F14E
:103E40003003092B09D807EB870302EB4303C7189C
:103E5000761CF3E758F8047B761C30786C280FD07A
:103E600006DC4C2817D068280DD06A2814D104E04D
:103E7000742810D07A280FD10DE044F400140AE021
:103E800044F4801401E044F440147278824202D178
:103E900004F58014761C761C307866280BD013DC71
:103EA000582877D009DC002875D04528F6D0462858
:103EB000F4D047281AD193E118E0632835D064285C
:103EC00079D0652812D18BE1702873D008DC67287F
:103ED000F1D069286FD06E280DD06F2806D1ACE0E4
:103EE00073282CD0752874D0782853D0524617994F
:103EF00090476D1C54E1C4F30250022809D00328F6
:103F00000DD0D8F8001004280DD00D6008F1040879
:103F100046E1D8F80010EA17C1E90052F6E7D8F8F0
:103F200000100D80F2E70D70F0E718F8041B8DF813
:103F3000001000208DF80100EB46012003E058F846
:103F400004BB4FF0FF3061074FF0000102D40DE0D9
:103F500009F101018946B9420FDA8145F8DB1BF806
:103F600009100029F4D108E009F1010189468142D4
:103F7000FADB1BF809100029F6D103985346A0EB91
:103F8000090721463846179A00F080FA284400EBCA
:103F9000090507E044E008E10DE01BF8010B52467B
:103FA00017999047B9F10109F7D25346214638468F
:103FB000179AF2E039E00A21C4F302524FF0000BE5
:103FC0000091022A06D058F8040BC117032A09D021
:103FD0000AE023E008F1070020F00702F2E80201FE
:103FE000904605E000B2C117042A01D140B2C117C2
:103FF000002906DA0A460021404261EB02012D2227
:1040000002E0220504D52B228DF80420012203E0D2
:10401000E20701D02022F7E7914657E00A2100E0AD
:1040200010214FF0000B00910BE010214FF0000B1E
:1040300044F004040827009103E008204FF0000B2F
:104040000090C4F30252022A05D058F8040B002154
:10405000032A08D008E008F1070020F00702F2E880
:104060000201904603E080B2042A00D1C0B24FF0B2
:10407000000922072AD53278702A07D0DDF800C05F
:104080008CF0100C5CEA0B0C05D00EE040228DF891
:104090000420012208E050EA010306D030238DF805
:1040A00004308DF8052002229146009B83F008031E
:1040B00053EA0B030AD150EA010201D1620705D588
:1040C00030228DF804204FF001097F1E3278582AE3
:1040D00004D039A20C920CAA02920BE03BA2F9E7A1
:1040E0005B46009AFCF7A6FA0C9B9B5C029A521E58
:1040F0000292137050EA0102F2D1029804A9081A40
:1041000000F1200B600702D524F4803400E0012781
:104110005F4502DDA7EB0B0000E0002000EB0B0188
:10412000009003984944401A0390E00306D4534694
:104130002146179A039800F0A9F90544002706E0E4
:1041400001A85246C05D179990476D1C7F1C4F45D2
:10415000F6DBE0030CD553462146179A039800F08E
:1041600095F9054404E030205246179990476D1C9C
:104170000099481E00900029F5DC08E00298029999
:1041800052460078491C0291179990476D1CBBF16B
:104190000001ABF1010BF1DC5BE100F065F90544D6
:1041A000761C307800287FF40DAE19B02846BDE8A3
:1041B000F08F0000092801003031323334353637B2
:1041C0003839616263646566000000003031323363
:1041D0003435363738394142434445460000000003
:1041E000600700D4062708F1070020F00700F0E878
:1041F0000223804603F0004C5FEA0C0001D097A038
:1042000009E0200501D596A005E0E00701D095A0C2
:1042100001E0AFF24C001390307823F000436528A2
:104220000CD006DC452809D046281DD047287FD170
:104230003BE0662818D067287AD136E00021112F9C
:1042400001DB112000E0781CCDE9000104A90CA8D5
:10425000FFF7EEFCDDE90D010C9A4FF0000B07F1C2
:104260000109109200914EE04FF000400097CDE917
:10427000011004A90CA8FFF7DBFCDDE90D020C9B83
:104280000F994FF0000B91461093009211B9791CD1
:1042900000EB0109B7EB090003D4C0F1FF3B07F1C4
:1042A0000109A9EB0700019042E0012F00DA012784
:1042B0000021112F01DD112000E03846CDE9000179
:1042C00004A90CA8FFF7B4FCDDE90D010C9A0091DC
:1042D0004FF0000BB946109221070FD4009A4A45BF
:1042E00003DA914601E0A9F10109B9F1010F05DDF9
:1042F000109AA9F10101515C3029F4D0B84202DAD8
:1043000010F1040F03DA0121CDE9011010E00028BB
:1043100003DC8344A9EB000102E0411C494500DDB8
:104320008946A0EB0B00401C01904FF0004002902A
:10433000200705D40198484502DB4FF0FF3001907B
:1043400000208DF84B0002980DF14B07B0F1004FA3
:1043500025D002200C902B200D90029800280CDA1A
:10436000404202902D200D9007E00A210298FCF7B0
:104370004BF93031029007F8011D0C99481E0C9042
:104380000029F2DC02980028EFD1791E0D98087000
:10439000307800F0200040F0450007F8020D11A829
:1043A000C01BC01D02901398007800B1012000EBE3
:1043B0000901019801EBE071029801440398401A49
:1043C000401E0390E00306D453462146179A0398F3
:1043D00000F05CF805441398007818B1524617991C
:1043E00090476D1CE00323D553462146179A039846
:1043F00000F04CF805441BE0BBF1000F07DB009810
:10440000584504DD1098179910F80B0001E0179932
:1044100030205246904701980BF1010B401E05F1E8
:104420000105019004D12E205246179990476D1C2A
:10443000B9F10001A9F10109DEDC05E017F8010B73
:104440005246179990476D1C0299481E0290002908
:10445000F4DC53462146179A03989EE62D0000008F
:104460002B000000200000002DE9F041044600254B
:104470001E461746880404D405E039462020B0477C
:104480006D1C641EF9D52846BDE8F0812DE9F04188
:10449000044600251E469046C80301D5302700E09B
:1044A0002027880404D505E041463846B0476D1CF6
:1044B000641EF9D52846BDE8F0814A68002A06D076
:1044C0000A68531C0B6010704868401E48607047B3
:1044D0002DE9F84F04460D4621F000400091734944
:1044E000814211DC7249884201DC06D12CB12046A0
:1044F0002946BDE8F84FFFF7B7BA6E48002DCCBF8C
:104500006D496E49BDE8F88F6D49814211DD6D49F5
:104510008142D8BF4FF0FF366DDD20462946FFF7B8
:1045200017FA042808BFFFF7A5FA20462946BDE878
:10453000F88F6549654F25F00045814233DD6449B8
:10454000814219DD002632464FF08043204629463D
:10455000FCF753F980468A46012220462946FCF79B
:10456000E4FA00223B46FCF7E9F942465346FBF7E2
:104570009CFF04460D463EE001260022BA463B461B
:1045800020462946FCF739F980460F46002253465B
:1045900020462946FCF7D2F942463B46FBF785FF09
:1045A00004460D4627E04B4981421BDDDFF828A178
:1045B00002260022534620462946FBF704FF00222C
:1045C0003B46FCF71AF980460F4600225346204628
:1045D0002946FCF7B3F942463B46FBF766FF044623
:1045E0000D4608E0032622462B4600203B49FBF7F8
:1045F0005CFF04460D4622462B4610461946FBF743
:10460000E2FE8B46824602460B46FBF7DCFE07467F
:104610000246334888460B4606217844FFF7CFF917
:1046200052465B46FBF7CFFE82462E488B463A4603
:10463000434605217844FFF7C2F93A464346FBF763
:10464000C2FE02460B46002E504659460CDAFCF7D5
:10465000D4F822462B46FBF7B6FE01B022462B4685
:10466000BDE8F04FFCF76DB9FCF7C7F822462B46C2
:10467000FBF7A9FE1C4A7A4402EBC603D3E90023E8
:10468000FCF75CF922462B46FCF758F9174A7A44A6
:1046900002EBC603D3E90023FCF753F9009A002A82
:1046A000B8BF81F00041BDE8F88F00000000104461
:1046B0000000F07F182D4454FB21F93FFB21F9BF86
:1046C0000000DC3F0000203E0000F33F0000F03F10
:1046D0000000E63F008003400000F83F0000F0BF0C
:1046E0007A21000038210000D62000009E20000022
:1046F0002DE9F04D9446CCF1000423F000464CEA3D
:104700000404594F46EAD4749A46884621F0004280
:10471000BC4206D8454240EA050442EAD474BC4291
:1047200004D9BDE8F04D6246FFF7A1B9AAF14055A2
:10473000A5F17F6555EA0C040BD0022404EAAA74A3
:104740004A4DDFF82CE144EAD87452EA000B04D059
:104750000CE0BDE8F04DFFF7BBBE002C14BF012CF0
:10476000BDE8F08D022C30D0032C32D056EA0C0B71
:104770000AD0BE4220D1BA4209D126F0804622F0AA
:1047800080423346114617E000291ADB25E0DFF8A6
:10479000E4B0FB44002C04BFDBE90001BDE8F08D70
:1047A000012C02BFDBE9000181F00041BDE8F08D82
:1047B000022C0AD0032C0CD0BA4212D1B8F1000F4F
:1047C0000BDA2A482C49BDE8F08D28462B49BDE874
:1047D000F08D28467146BDE8F08D24482849BDE893
:1047E000F08D921B12153C2AC4BF204F244E10DCC2
:1047F000BAF1000FBEBF12F13C0F00273E4608DBA6
:104800006246FBF752FE21F00041FFF761FE0746CA
:104810000E4694B1012C08BF86F000460DD0194A0F
:10482000194B022C3846314615D0FCF787F82A463A
:10483000BDE8F04D114BFCF781B800221346384615
:104840003146FCF703F904BF0220FFF7EBF93846C5
:104850003146BDE8F08DFCF771F82A46BDE8F04D11
:10486000064BFCF76EB800000000F07F182D445492
:10487000FB2109C032200000FB21F9BFFB210940C8
:10488000FB21F93F075C143326A6A13C2DE9F84330
:10489000044602464F486946B0EB420F09D94FF033
:1048A000E640B0EB420F94BF00204FF0FF30009085
:1048B00030E0494B22F00040834271D947492046FD
:1048C000FBF711FDFBF71EFF8046FCF78EF800F0AA
:1048D0000300009042494046FBF705FD054641496B
:1048E0004046FBF700FD06463F494046FBF7FBFC10
:1048F00007463E494046FBF7F6FC2146FBF7F0FC35
:104900003946FBF7EAFC3146FBF7E7FC2946FBF7A3
:10491000E4FC04462546009C002C45DB294614F0A7
:10492000010F08461CD0FBF7DEFC06463049FBF7BA
:10493000DAFC3049FBF7D4FC3146FBF7D4FC2E49B6
:10494000FBF779FC3146FBF7CEFC2946FBF7CBFCA5
:104950002946FBF770FC14F0020F1CD0BDE8F88369
:10496000FBF7C1FC05462549FBF7BDFC2449FBF7D5
:1049700062FC2946FBF7B7FC2249FBF75CFC2946A1
:10498000FBF7B1FC4FF07E51FBF755FC14F0020F22
:1049900008BFBDE8F88380F00040BDE8F883FFE77A
:1049A0001046FFF77BF8B4E76800B0F17F4F3CBFDB
:1049B0004FF07E50BDE8F88307D14FF00100FFF7BC
:1049C00031F9BDE8F843FFF760B82846BDE8F84381
:1049D000FFF758B8B61F927E490E494683F9223F29
:1049E0001A61342C0020A23300A0FD390000C93F19
:1049F000336D4C39DA82083CA0AA2ABEB93AB2BA61
:104A0000CA9F2A3DDDFFFFBE38B5FCF73DFDFEF72E
:104A10007EFDFEF7BBFA3148416941F00101416179
:104A20004069002200F00100009005211020FCF7F1
:104A3000B5FD1020FCF7A4FDFEF7FEFA2948284931
:104A40000C2201604FF4E131416000218160C160BE
:104A5000C0E904128161C161FDF74BFC08B172B677
:104A6000FEE7FEF719FB20A000F060FF0122234DB6
:104A7000940321462846FCF7BBFA21A000F056FF1C
:104A8000002221462846FCF7B3FA20A000F04EFF92
:104A9000012221462846FCF7ABFA1FA000F046FF92
:104AA000FEF7A8FD0F49234658392A4601F1A00018
:104AB000FEF7A2F908B11CA000E022A000F036FF2A
:104AC00000F0B6F8254A0021254800F0DFF8254916
:104AD000486000F0BFF8002038BD00000010024020
:104AE000003801404C01002054657374696E6720E2
:104AF0005350492E2E2E0D0A00000000000C0140DC
:104B0000435320484947480D0A0000004353204CB6
:104B10004F570D0A000000004353205445535420C2
:104B2000444F4E450D0A00004D5055393235302066
:104B3000696E6974205355434345535346554C0D94
:104B40000A0000004D50553932353020696E6974C5
:104B5000204641494C45440D0A000000E06600082B
:104B6000293200080000002010B50121752000F056
:104B700005F80148007810BD3C1B00202DE9F843E2
:104B800040F08000114F0C468DF800004FF4804635
:104B90000D4D002231463846FCF72AFA4FF4FA78D8
:104BA0004346012269462846FDF7F4F8434622466B
:104BB00007492846FDF744F8012231463846FCF7FC
:104BC00017FABDE8F8830000F4000020000C014053
:104BD0003C1B00202DE9F347DFF84C9004464FF4CE
:104BE0008048104F01AE0125002241464846FCF79F
:104BF000FFF92146384600F09DFD0C4C0020208036
:104C000080B2315C384600F095FD2088401C80B2AF
:104C10002080A842F4D3012241464846FCF7E8F937
:104C2000BDE8FC87F4000020000C01409800002043
:104C3000EFF3058010B16FF005007047044801687C
:104C400011B14FF0FF307047012101600020704723
:104C50006800002010B5EFF3058010B16FF005007B
:104C600010BD08480168012902D04FF0FF3010BD87
:104C7000054A002182F8141D0221016000F0DCFFCA
:104C8000002010BD680000200BE000E02DE9FF418E
:104C90004FEA01034FF00005EFF30581039549BB8F
:104CA00040B38027182100244AB3166806B1344661
:104CB00096691EB13146761E382E02D21679F60755
:104CC00003D0002004B0BDE8F081566906B1B708F2
:104CD000D2F808C0BCF1000F0DD0D5685C2D18D3F8
:104CE00012693AB136B18DE806103A46214601F014
:104CF00016FB03900DE0D6685EB912694AB903AAA3
:104D0000CDE90012BAB2214601F0DCFA012800D048
:104D100003950398D6E700002DE9F041134C0F46A8
:104D20000546E6682068001D00F010FE681C07D1EB
:104D300037B12168BDE8F0410D48091D00F056BEAD
:104D400020683544B5424560216805D2A06BBDE8B6
:104D5000F041091D00F032BE606B091D00F02EFE0F
:104D6000A06A854200D2A562BDE8F081180000204B
:104D7000580700202DE9F041054600F043FE2D4C78
:104D8000A068401CA06020682B4F10B1606930B350
:104D90002BE02560A068012827D1002606EB8600BD
:104DA00007EB800000F0FCFD761C382EF6D323487C
:104DB00000F0F6FD2148143000F0F2FD1F482830C5
:104DC00000F0EEFD1D483C3000F0EAFD1B4850307D
:104DD00000F0E6FD194860631430A06305E0206828
:104DE000E96AC06A884200D82560606A401C606237
:104DF0006864E86A2169884200D9206100EB80007C
:104E000007EB8000291D00F0F1FD00F01BFE60693A
:104E100000280CD02068E96AC06A884207D2084995
:104E20004FF080500860BFF34F8FBFF36F8FBDE826
:104E3000F081000018000020A802002008070020D0
:104E400004ED00E038B500F0DDFD104C2068C8B975
:104E50000F4800F0A5FD0E48143000F0A1FD0C48ED
:104E6000E060143020610A4B0020F03B009003F119
:104E7000500210210A2000F0C7FF206010B105A1E8
:104E800000F062FEBDE8384000F0DCBD54000020B8
:104E90005C080020546D72510000000030B4026CB8
:104EA0000B46002A0BD0C1681144C1608468A1423E
:104EB00001D30168C16030BC1846FBF791B930BC22
:104EC00070472DE9F041856B174604460026026CB9
:104ED00082B1C7B1E068FBF783F9E168206C091A79
:104EE000E1602268914202D2A168081AE060022FB4
:104EF00016D017E02068A8B9A06801F0B3FA0646FA
:104F00000020A0600EE06068FBF76AF9216C606821
:104F100008446060A168884204D32068606001E0B2
:104F200005B16D1E6D1CA5633046BDE8F08110B55E
:104F3000044690F8590058B101280CD002280FD02F
:104F4000502080F31188BFF34F8FBFF36F8FFEE7C0
:104F5000206B00F08BFD2046BDE8104000F086BDC0
:104F600010BD000010484FF44061420706D0C01D3C
:104F70000D4920F00700411AC1F540610B4A00239A
:104F80000144C2E900030839183A21F00701116011
:104F90004B600B600B1AC0E9001393604FF00040A8
:104FA00053605061704700003C0F002084000020D7
:104FB000144E154CA6F29C474FF08058DFF84C90E9
:104FC00012E000BF00F01EFDF068C568281D00F06B
:104FD000BDFCA068401EA0606068401E606000F0DC
:104FE00031FD2846FFF7A3FF60680028EAD1386842
:104FF0000128F9D9C9F80080BFF34F8FBFF36F8F35
:10500000F2E70000440700201800002004ED00E053
:1050100070B51D46049C51B1C4F80020C4E90F01CD
:105020000121204600F024FF84F84C5070BD24601C
:10503000F4E700002DE9F05F8846DDE90B941546A2
:10504000834691009A460A9EA522206BFBF7DAF868
:105050006FF00301206B01EB8501084420F0070786
:10506000780707D0502080F31188BFF34F8FBFF32C
:105070006F8FFEE70025B8F1000F0FD05FF0000042
:10508000221818F8001082F8341018F8001011B126
:10509000401C1028F4D384F8435001E084F83450C5
:1050A000382E00D33726E662C4E91365201D00F0D0
:1050B00082FC04F1180000F07EFC2461C6F1380087
:1050C0006462A061656584F8585052465946384676
:1050D00000F05AFA2060B9F1000F01D0C9F8004081
:1050E000BDE8F09F30B5114900E011460A688242E0
:1050F000FBD34B685C18844203D140681844486075
:10510000084643681C18944209D1084C183C24688E
:10511000A24209D052681A4442600A6812680260CA
:10512000814200D0086030BD0460F9E784000020AF
:1051300070B5002441600B4D0061914206D8D11A30
:105140008269914206D2011D286907E09A4203D282
:10515000994201D3012403E0011DE86800F02EFC10
:10516000204670BD5400002010B5044600F04AFCF3
:10517000A06B28B15FF0000400F064FC204610BD75
:105180000124F9E730B589B03C4D6EE00498002861
:1051900006DADDE90601059A90470498002864DBE9
:1051A000069C606910B1201D00F0D0FB03A800F040
:1051B000D7F8024604980A2857D2DFE800F0050520
:1051C000052D334A05052D3394F8280040F00100E1
:1051D00084F828000599A069059B01442046FFF743
:1051E000A7FF68B3216A2046884794F82800400743
:1051F0003BD5002000900598A1690023421819466C
:10520000204601F039FAD8B9502080F31188BFF355
:105210004F8FBFF36F8FFEE714F8280F20F00100C7
:10522000207022E094F8280040F0010084F8280063
:105230000598A06128B1811813462046FFF778FF32
:1052400013E0502080F31188BFF34F8FBFF36F8FAF
:10525000FEE794F82800810703D4204600F006FCFE
:1052600003E020F0010084F82800002204A9286847
:1052700000F052FF002889D109B030BD5400002051
:105280002DE9FC410F46054600F01AFD01A800F08B
:1052900067F80446019818B101F05CF9BDE8FC819B
:1052A000254EAFB130690068D0B30027291B3A46BC
:1052B000306800F05DFC01F04DF90028EED11F4987
:1052C0004FF080500860BFF34F8FBFF36F8FE5E75B
:1052D000A542EBD801F03EF9F0682746C068C468E3
:1052E000201D00F033FB94F82800410719D5A06970
:1052F0002B4641193A462046FFF71AFFA8B1002075
:105300000346014600902A46204601F0B5F960B9EF
:10531000502080F31188BFF34F8FBFF36F8FFEE7EC
:1053200007E020F0010084F82800216A2046884721
:10533000B4E70127BAE700005400002004ED00E0C4
:105340000648416B096829B1416BC968C968496859
:10535000816270474FF0FF31FAE70000180000202B
:1053600070B5054601F014F8064E0446B068844254
:1053700003D200F009F8012000E000202860204658
:10538000B46070BD54000020F8B5194D20E0C0682D
:10539000C4680668201D00F0D9FA216A20468847B3
:1053A00094F82800400713D5A0693044B04206D9CC
:1053B00024616060211DE86800F000FB08E0002027
:1053C0000346014600903246204601F055F938B1B7
:1053D000E86801680029DAD12969C5E90310F8BD38
:1053E000502080F31188BFF34F8FBFF36F8FFEE71C
:1053F0005400002008484068401C4FF0500080F3E3
:10540000118804D0BFF34F8FBFF36F8FFEE7BFF358
:105410004F8FBFF36F8FFEE78C000020074CE068D2
:10542000016841B1C0680021D0F80000FFF728FFF3
:10543000FFF7A8FEF3E701210020F7E75400002062
:105440002DE9F041044600F0DDFA94F9455004F1ED
:10545000240609E0606A48B1304601F043F808B11B
:1054600000F0B0FB6D1E6DB2002DF3DC4FF0FF3687
:1054700084F8456000F0E6FA00F0C4FA94F944506C
:1054800004F1100709E0206948B1384601F02AF814
:1054900008B100F097FB6D1E6DB2002DF3DC84F8AF
:1054A0004460BDE8F04100F0CDBA00002DE9F041C4
:1054B0000546002700F004FC324E306808B9FFF7BB
:1054C00051FD706905424ED1C5B3083568070ED04D
:1054D00005F00700C0F108000544680707D0502018
:1054E00080F31188BFF34F8FBFF36F8FFEE72DB3AB
:1054F0007068854237D82348183001460C6801E0AF
:1055000020460C466168A94202D221680029F7D1E1
:1055100031688C4227D007682168016060680837CD
:10552000411B10290FD96019420708D0502080F381
:105530001188BFF34F8FBFF36F8FFEE713E0416019
:105540006560FFF7CFFD61687068401A7060B268EF
:10555000904200D2B060706901430020C4E90001AC
:10556000F068401CF06000F0F5FF780707D050208D
:1055700080F31188BFF34F8FBFF36F8FFEE738467C
:10558000BDE8F0816C00002010B5031F4FF080745F
:105590001C601B1F21F001011960191F024B0B60D9
:1055A000143940380A6010BDF55300082DE9F8435E
:1055B0000446024652486946B0EB420F09D94FF003
:1055C000E640B0EB420F94BF00204FF0FF30009058
:1055D00030E04C4B22F00040834271D94A492046CA
:1055E000FAF781FEFBF78EF88046FBF7FEF900F034
:1055F0000300009045494046FAF775FE05464449C8
:105600004046FAF770FE064642494046FAF76BFEFE
:10561000074641494046FAF766FE2146FAF760FE22
:105620003946FAF75AFE3146FAF757FE2946FAF795
:1056300054FE04462546009C002C45DB294614F008
:10564000010F08461ED0FAF74EFE05463349FAF719
:105650004AFE3349FAF7EFFD2946FAF744FE31498D
:10566000FAF7E9FD2946FAF73EFE4FF07E51FAF7C8
:10567000E2FD14F0020F08BFBDE8F88380F000409F
:10568000BDE8F883FAF72FFE06462749FAF72BFE06
:105690002649FAF725FE3146FAF725FE2449FAF79E
:1056A000CAFD3146FAF71FFE2946FAF71CFE2946C5
:1056B000FAF7C1FD14F0020FE0D1BDE8F883FFE76F
:1056C0001046FEF7EBF9B4E76800B0F17F4F09D25E
:1056D0002846FEF751F9042808BFFEF7DAF92846F4
:1056E000BDE8F88306D10120FEF79CFABDE8F84337
:1056F000FEF7CBB92846BDE8F843FEF7C3B9000072
:10570000B61F927E490E494683F9223F1A61342C16
:105710000020A23300A0FD390000C93FB93AB2BA57
:10572000CA9F2A3DDDFFFFBE336D4C39DA82083C4B
:10573000A0AA2ABE13B582B0044600208DF804004A
:105740002046FCF7E9F90528FAD04FF4FA700090EA
:10575000012301AA03A92046FCF7CFFB10B1FF20CB
:1057600004B010BD9DF80400FAE72DE9F0410646AB
:105770000F46FBF7E9F8041E0D4618BF0120284329
:1057800020F00040C0F17F6000F1E040C00F0ED07B
:10579000301C18BF0120384320F00040C0F17F606A
:1057A00000F1E040C00F04BF0120FEF73BFA2046A5
:1057B0002946BDE8F08100002DE9F8430446024681
:1057C0004C486946B0EB420F09D94FF0E640B0EBC8
:1057D000420F94BF00204FF0FF30009030E0464B66
:1057E00022F00040834265D944492046FAF77BFD08
:1057F000FAF788FF8046FBF7F8F800F00300009006
:105800003F494046FAF76FFD05463E494046FAF7E4
:105810006AFD06463C494046FAF765FD07463B49A6
:105820004046FAF760FD2146FAF75AFD3946FAF785
:1058300054FD3146FAF751FD2946FAF74EFD04466C
:10584000009D002D3ADB21460846FAF74CFD06463E
:105850002F49FAF748FD2F49FAF7EDFC3146FAF7E0
:1058600042FD2D49FAF7E7FC3146FAF73CFD2B499A
:10587000FAF7E1FC3146FAF736FD2949FAF7DBFC85
:105880003146FAF730FD2749FAF7D5FC3146FAF7E9
:105890002AFD2146FAF727FD2146FAF7CCFC15F040
:1058A000010F08BFBDE8F8830146BDE8F8431E4874
:1058B000FAF74BBD1046FEF7F1F8C0E76000B0F113
:1058C0007F4F09D22046FEF757F8042808BFFEF79D
:1058D000E0F82046BDE8F88306D10120FEF7A2F9E2
:1058E000BDE8F843FEF7D1B82046BDE8F843FEF71F
:1058F000C9B80000B61F927E490E494683F9223F7F
:105900001A61342C0020A23300A0FD390000C93FE9
:10591000BBE9223C0C6D063B8A76CE3CACB5593DCA
:1059200035A1083E29AAAA3E000080BF0FB44FF45B
:10593000807100B5C1B043AB6846429AFDF7EEFFF7
:105940006846FDF749FA41B05DF814FBD0E9013231
:1059500001699A60D0E901235A604A68824201D104
:1059600082684A60002202610868401E0860086878
:1059700070470000034B036003F15C000860802067
:105980001060704784080020044B036003F15C0042
:1059900008604FF48070106070470000E00A00203B
:1059A00000F108014FF0FF32C0E90112C16001614E
:1059B00000210160704700210161704730B50B681C
:1059C0005A1C02D000F1080202E0026904E02246FB
:1059D000546825689D42FAD953684B6099608A6083
:1059E000516008610168491C016030BD42684A602D
:1059F00093688B6093685960916008610168491CE5
:105A000001607047502080F31188BFF34F8FBFF3C0
:105A10006F8F0A494868401C486001280CD108482B
:105A2000006810F0FF0F07D0502080F31188BFF3FB
:105A30004F8FBFF36F8FFEE7704700008C00002090
:105A400004ED00E00849486828B1401E486001D1D3
:105A500080F311887047502080F31188BFF34F8F77
:105A6000BFF36F8FFEE700008C00002070B50028A8
:105A70002AD0164DA0F1080460686969084207D170
:105A8000502080F31188BFF34F8FBFF36F8FFEE775
:105A900022683AB1502080F31188BFF34F8FBFF3D3
:105AA0006F8FFEE78843606000F00AF960686968FC
:105AB000084468602046FFF715FB2869401C2861F0
:105AC000BDE8704000F046BD70BD00006C000020D5
:105AD0004FF0E02000210161816105494FF47A72A5
