:020000040800F2
:10000000100A002001010008B5450008D53D000890
:10001000B1450008990A00080D4A000800000000D8
:10002000000000000000000000000000F947000888
:10003000AD1000080000000009460008A1480008B3
:100040001B0100081B0100081B0100081B01000820
:100050001B0100081B0100081B0100081B01000810
:100060001B0100081B0100081B0100081B01000800
:100070001B0100081B0100081B0100080D100008EF
:100080001B0100081B0100081B0100081B010008E0
:100090001B0100081B0100081B0100081B010008D0
:1000A0001B010008A94800081B0100081B010008EB
:1000B0001B0100081B0100081B0100081B010008B0
:1000C0001B0100081B0100081B0100081B010008A0
:1000D0001B010008C14900081B0100081B010008A2
:1000E0001B0100081B0100081B010008DFF80CD0F1
:1000F00000F03AFC00480047E94B0008100A0020D5
:100100000648804706480047FEE7FEE7FEE7FEE7B1
:10011000FEE7FEE7FEE7FEE7FEE7FEE7A54800088C
:10012000ED000008D2B201E000F8012B491EFBD21D
:1001300070470022F6E710B513460A4604461946F2
:10014000FFF7F0FF204610BD421C10F8011B0029EC
:10015000FBD1801A7047F0B480EA0102D40F42004C
:10016000B2EB410F02D20246084611464A0042D085
:10017000C30DDDB2C1F3C752AD1A202D35DAC1F37C
:10018000160141F4000204B15242C5F1200602FA00
:1001900006F12A411044B3EBD05F23D0C4B1012D46
:1001A000A0EBC35009DCF0BC4FF0004202EAC3529E
:1001B000DBB200F5000000F039BA400000F18070B9
:1001C00000EBC350A0F1807040EAD170490009E013
:1001D000490841EAC071A0EBC35000F50000400897
:1001E00000EBC350F0BC00F018BA6142012202EBF0
:1001F0004101001BF6E7F0BC704781F00041AAE71F
:1002000080F00040A7E780EA010210B502F0004349
:10021000400022D04A001FD0010E01EB1261C0F352
:100220005600C2F3560240F4000042F40002A0FB64
:10023000022000047F39140400D0401C50EA124010
:1002400001D44000491EC2B20C0604EBD010401C81
:100250004008802A02D003E0002010BD20F00100F9
:10026000002900DA0020184310BD30B480EA0102F2
:1002700002F0004530F0004221F0004013D090B170
:10028000C30DD40DC2F31601C0F31600E41A41F4F5
:10029000000140F400027D34914201D3641C00E06F
:1002A0004900002C02DA30BC002070474FF40000F7
:1002B0000023914201D3891A034340084FEA4101C8
:1002C000F7D151B1914202D14FF0004105E002D285
:1002D0004FF0010101E06FF0010103EBC45028442D
:1002E00030BC00F09AB92DE9FE4F81EA030404F016
:1002F000004421F0004100944FF0000B23F0004334
:1003000050EA01045ED052EA03045BD0C3F30A54FE
:10031000C1F30A552C44A4F2F3340194A0FB025417
:10032000C1F3130141F48011C3F3130343F48013A9
:1003300001FB024400FB034E840A970A44EA8154FD
:1003400047EA8357A4FB076802958D0A05FB0785DA
:100350004FEA932C04FB0C542705029D4FEA0658E4
:1003600047EA1637B5EB08056EEB070C870E920EC1
:1003700047EA811742EA8312A7FB0201B6EB0B01A1
:1003800064EB00042B0D43EA0C335E1844EB1C5065
:10039000DA465146E7FB0201C5F313044FEA0B337B
:1003A00043EA14534FEA0432019C43EA0603A4F1E2
:1003B0000C040294009CCDE900B400F0AFF903B046
:1003C000BDE8F08F00200146F9E72DE9F04D81EA04
:1003D000030404F0004B21F0004514464FF0000ADE
:1003E00023F0004150EA050220D054EA01021DD05A
:1003F000C5F30A570246C5F31303C1F31300C1F353
:100400000A5640F4801543F48013A7EB0608101B2E
:10041000D64608F2FD3873EB050002D308F1010857
:1004200001E092185B41B8F1000F03DA00200146A9
:10043000BDE8F08D00204FF48011064684460EE0A2
:10044000171B73EB050705D3121B63EB050306436C
:100450004CEA010C49084FEA300092185B4150EA1F
:100460000107EDD152EA030012D082EA040083EAC8
:100470000501084305D0101BAB4106D20122002321
:1004800006E000224FF0004302E06FF0010253103B
:100490001AEB06004CEB085110EB0A0041EB0B0184
:1004A000BDE8F04D00F02BB9002801DBC0F10040A1
:1004B000002901DBC1F10041814201D801207047D0
:1004C00000207047002801DBC0F10040002901DB5B
:1004D000C1F10041814201D30120704700207047E3
:1004E000002801DBC0F10040002901DBC1F100411F
:1004F000814201D90120704700207047002801DBAC
:10050000C0F10040002901DBC1F10041814201D16D
:100510000120704700207047C10F80EAE070084456
:10052000CA079623002100F081B8962300221146C5
:1005300000F07CB800F0004220F00040C10DC0F394
:10054000160040F400007F2901DA00207047962948
:1005500003DCC1F19601C84001E096398840002AC9
:10056000F4D04042704700F0004230F000400AD022
:10057000C10D01F56071C0F3160042EA0151C208D5
:1005800040071143704700200146704730B50B46C5
:10059000014600202022012409E021FA02F59D42B3
:1005A00005D303FA02F5491B04FA02F52844151E87
:1005B000A2F10102F1DC30BD2DE9F05F054600201B
:1005C00092469B4688460646814640241BE02846C4
:1005D00041464746224600F0EEF953465A46C01AB5
:1005E000914110D311461846224600F0D5F92D1A34
:1005F00067EB01084F4622460120002100F0CCF9AC
:1006000017EB00094E41201EA4F10104DFDC48462F
:1006100031462A464346BDE8F09F0029A8BF7047EF
:10062000401C490008BF20F00100704710B4B0FA28
:1006300080FC00FA0CF050EA010404BF10BC7047C3
:1006400049B1CCF1200421FA04F411FA0CF118BFDD
:10065000012121430843A3EB0C01CB1D4FEA0061AC
:100660004FEA102042BF002010BC704700EBC3507F
:1006700010440029A4BF10BC7047401C490008BFAB
:1006800020F0010010BC7047420005D0C0F3C752F3
:100690005242914201DC0020704700EBC15070478C
:1006A000F0B4002802DCF0BC00207047C0F3C75152
:1006B000C0F3160040F40000CA0701D14000491EF3
:1006C0003F2202EB6105002211464FF4000626FA94
:1006D00001F31344D418844201D8001B1A46400089
:1006E000491C1729F3DD5100814202D24FF0FF313E
:1006F00000E0002102EBC550F0BCFFF78EBF10B543
:10070000141E73F1000408DA401C41F10001921834
:100710005B411A4301D120F0010010BD2DE9F04DDD
:1007200092469B4611B1B1FA81F202E0B0FA80F232
:100730002032904600F030F904460F4640EA0A00A5
:1007400041EA0B0153465A46084313D0114653EA77
:10075000010019D0C8F14002504600F02CF90546BE
:100760000E4650465946424600F016F9084305D059
:10077000012004E020463946BDE8F08D0020054305
:1007800046EAE0762C4337430A986305E40AA0EB77
:1007900008000022FD0A44EA47540A3002D500202E
:1007A0000146E9E7010510196941DDE9084500192D
:1007B0006941BDE8F04DA2E72DE9FE4F804681EA90
:1007C0000300C00F0C46009021F0004123F00045CB
:1007D000B8EB0200A94105D24046214690461C468E
:1007E0000B46024623F00040104347D0270DC7F3C5
:1007F0000A00C3F30A510290401A019040286BDAB4
:10080000C3F3130040F4801B0098924620B10023EC
:10081000D2EB030A63EB0B0B01985946C0F140027F
:10082000504600F0B9F806460D4650465946019A22
:1008300000F0D1F810EB08006141002487EA115262
:1008400084EAE7731A4340D0009A62B3019A012AFE
:100850004FEA075215DC001B61EB02014FF000422A
:1008600002EA0752CDE90042001C41F580113246F0
:100870002B46FFF753FF03B0BDE8F08F40462146FB
:10088000F9E7001B61EB0201001C41F58013001821
:100890005B412018A2F5001747EB030140EAD57031
:1008A000B6196D4111E06D084FEA360645EAC0758C
:1008B0004FEA0752001B61EB0201001C41F5801159
:1008C00049084FEA30000019514132462B4603B027
:1008D000BDE8F04FFFF713BF00980122400000234E
:1008E000D0EB020263EBE073009821464FEAE0741C
:1008F000B8EB000061EB0401E9E783F000435BE73C
:1009000081F0004158E7C1F30A52C1F3130140F2EC
:10091000FF3341F480119A4202DA00200146704709
:1009200040F233439A42A2F2334202DC524200F0D8
:1009300042B800F031B8000030B5041E71F1000477
:1009400004DB4FF00044404264EB0101141E73F1DC
:10095000000405DB1C464FF00043524263EB0403E6
:10096000994208BF904230BD1CB509480090094823
:1009700001900546009C06E0E06840F0010394E821
:10098000070098471034AC42F6D3FFF7B3FB0000E2
:10099000C4610008E4610008202A04DB203A00FA60
:1009A00002F1002070479140C2F1200320FA03F3C6
:1009B000194390407047202A04DB203A21FA02F0C4
:1009C0000021704721FA02F3D040C2F12002914089
:1009D000084319467047202A06DBCB17203A41FA14
:1009E00002F043EAE07306E041FA02F3D040C2F1BC
:1009F0002002914008431946704700002DE9F04756
:100A000090460A46816A0446D0E90667C2601046ED
:100A1000FFF7F3FB394681466061FFF79CFB3146E7
:100A20000746E061FFF75CFD30B986F000463846C6
:100A30003146FFF747FD08B93746E661D4E9005073
:100A4000D4F808A0666A3946FFF7DDFB074628465A
:100A50004946FFF7D8FB3946FFF77DFB0546504670
:100A60004146FFF7D0FB01462846FFF7C6FB31465B
:100A700007462062FFF734FD30B986F0004638465D
:100A80003146FFF71FFD08B9374626623846C4F8DD
:100A90001090BDE8F0870000FEE700002DE9F04F60
:100AA00085B0814630A0884604F05AFCB8F1000FAA
:100AB00024D000274FF0000A4FF0000B002500BFA4
:100AC000484603F03DFA09F1500652CE2846FFF79A
:100AD00042FB054658462146FFF73DFB83465046FC
:100AE0003146FFF738FB824646F2A81000F0AEFA16
:100AF0000137B8B24045E3D305E000BF00254FF011
:100B0000000B4FF0000A4046FFF70FFD80462846D5
:100B10004146FFF7AAFB044658464146FFF7A5FBAE
:100B2000834650464146FFF7A0FB06462046FFF7A6
:100B30001AFD804658468A46FFF715FD05463046A1
:100B40000F46FFF710FD029014A042465346CDE930
:100B50000057039104F004FCC9E9084BC9F8286068
:100B600005B0BDE8F08F00BF43616C6962726174CB
:100B7000696E67204779726F202825642073616D44
:100B8000706C65732C2035306D7320696E746572DE
:100B900076616C292E2E2E0D0A0000004779726FA7
:100BA0002043616C6962726174696F6E20436F6D7E
:100BB000706C6574652E204269617365733A2058C4
:100BC0003D252E32662C20593D252E32662C205A8A
:100BD0003D252E32660D0A0040F2C020C2F2000010
:100BE000704700002DE9F04F85B000F01DFD00F0CA
:100BF0005FFA40F2C028C2F20008C8F8640000F0B2
:100C000061FA4642D8F83800D8F854200490D8E960
:100C10001001C8F86860C8E91201D8F86400C8F883
:100C20005020FFF779FC41F26F29C3F6035949467A
:100C3000FFF7E9FA40F6DB7AC4F2C90A5146FFF73A
:100C4000E2FA40F2000BC4F2501B5946FFF70DFBCD
:100C500047F20E45C3F65A352946FFF706FB002436
:100C6000C4F2F0142146FFF700FB0746C8F8400025
:100C70003046FFF751FC4946FFF7C5FA5146FFF7EA
:100C8000C2FA5946FFF7F1FA2946FFF7EEFA214674
:100C9000FFF7EBFA0446D8F85860C8F84400384625
:100CA0002946FFF7B0FA3146FFF755FAD8F85C60ED
:100CB000C8F8580020462946FFF7A5FA3146FFF745
:100CC0004AFAC8F85C000498C8F89C5003F0E0F8B1
:100CD000D8F8380003F034F940F26811C2F200018C
:100CE000D8F838B001F10C094CF6CD4A99E8410228
:100CF000C3F64C7ADBF844505146FFF784FA4CF6C1
:100D0000CD44C3F64C64074628462146FFF77BFADC
:100D10003946FFF720FA40F26817C2F20007049044
:100D2000DBF84850F86030465146FFF76CFA06464B
:100D300028462146FFF767FA3146FFF70CFA039081
:100D4000DBF84C603861484651463D46FFF75BFA98
:100D5000074630462146FFF756FA3946FFF7FBF9BA
:100D600068610646BBF91200A946FFF7D5FBDBF820
:100D70002010FFF742FA41F26F27C4F28317394679
:100D8000FFF773FA0446BBF91400FFF7C5FBDBF865
:100D90002410FFF732FA3946FFF767FA0546BBF928
:100DA0001600FFF7B9FBDBF82810FFF726FA3946E3
:100DB0004F46FFF75AFA2946DDE90353024620461B
:100DC000CDE9005603F0A2F9D8F83800016DC8F853
:100DD0008010416DC8F88410816DC8F88810416C8E
:100DE000C8F88C10816CC8F89010C06CC8F89400DA
:100DF00003F020F903F00CFEC8F8740003F07EFE47
:100E0000044699F80000D8F87050C8F8784068B1E6
:100E1000B9682846FFF7F1F90021C4F234310646DB
:100E2000FFF742FB30B97868411E0CE00120BD603D
:100E3000387014E00021CCF234313046FFF742FB29
:100E4000796808B9013179604FF4B4704843BD60E6
:100E5000FFF762FB01462846FFF77DF90546D8F803
:100E60002C002146C8F86C5003F0CCFBD8F82800C1
:100E7000D8F8741003F0C6FBD8E91001D8F81C406C
:100E8000FFF769F94FF07C51FFF7BDF901462046A5
:100E900003F0B8FB3878D8F83040D8F8705068B113
:100EA000B9682846FFF7A9F90021C4F23431064693
:100EB000FFF7FAFA30B97868411E0CE00120BD60F6
:100EC000387014E00021CCF234313046FFF7FAFAE2
:100ED000796808B9013179604FF4B4704843BD6056
:100EE000FFF71AFB01462846FFF735F9054620466D
:100EF000294605B0BDE8F04F03F084BB2DE9F04171
:100F000040F2C027C2F2000740F2DC1440F2442C49
:100F100040F26816C2F20004C2F2000CB8634CF64C
:100F2000CD40C2F200060CF1340140F26438C7E94A
:100F3000074C07F1240CC3F64C7006F1180E06F1AD
:100F4000400204F13403C2F2000800258CE80601D7
:100F5000F86707F140003C21A7F8A050C7E90C3E14
:100F6000C7E90055C7E90255C7E90455FFF7E1F89D
:100F70004DF20A70C3F6A340C7E9265040F21000B4
:100F8000C2F2000090E80E0006F1400C8CE82E0042
:100F90004FF20001C4F2605100F16803C6E9185134
:100FA0000ECBC7E9205584E82E000221C7E922555F
:100FB000C7E92455D0F8947084F83110D0E90D12A7
:100FC000C06BC6E91455B565B56686F8715040F238
:100FD000000C48F20006C4F2F01CC4F23B56C4E90F
:100FE0000F050120C4E90856C4E90A57C4E90455AD
:100FF000C4F818C0C4E91555E565C4E90D12C4E983
:101000001155E56484F86500BDE8F08140F2DC30FC
:10101000C2F2000000F0E8B880B500F0C7FC40F272
:10102000AC21C2F2000108604EF6FC50CEF2000086
:10103000016841F08071016041F20000CEF20000D1
:10104000016841F00101016080BD0000002808BF77
:10105000704780B541F2040E40F2AC23CEF2000E90
:10106000C2F20003DEF80020D3F800C04DF683631F
:10107000C4F21B33ACFB0331890C4843DEF800108B
:10108000891A81420ED2DEF80010891A814209D2F3
:10109000DEF80010891A814204D2DEF80010891AA5
:1010A0008142EBD3BDE880407047000070470000EC
:1010B00040F2C040C2F2000001680022486A4A6261
:1010C00000B2704740F25050C2F2000001680022A6
:1010D000486A4A6200B27047EFF3108072B600BFF0
:1010E000FEE70000FFF77EBD014690F821000228D0
:1010F00016D10868D1E90FC3026822F00E0202601F
:10110000026822F001020260012000FA03F2CCF82A
:10111000042081F821000020002281F8202070475F
:10112000042088630120002281F8202070470000FD
:1011300090F82110022923D1026840F2040C1168B2
:10114000C4F2020C21F00E01116013682F21C4F2C9
:1011500002018A4223F00103136015DD3023C4F23B
:1011600002039A421CD04423C4F202039A421BD0C9
:101170005823C4F202039A421CD14FF4803321E079
:1011800004218163012070470823C4F202039A42BC
:101190000ED01C23C4F202039A420BD1102311E09B
:1011A0004FF480730EE000BF4FF480530AE000BF9D
:1011B000012307E00CF168014FF080738A4208BFF9
:1011C0004FF480130121CCF8003080F82110416BDE
:1011D0000022002980F8202004BF0020704780B53D
:1011E0008847002080BD000010B5D0E90FCE01680F
:1011F000DCF800300A6823FA0EF35C072AD512F0F7
:10120000040427D00A68920603D40A6822F0040274
:101210000A602F22C4F20202914240F20402C4F298
:1012200002025BDD3023C4F20203994272D04423F0
:10123000C4F20203994273D05823C4F202039942C4
:1012400040F07A804FF480231360C16A002940F097
:1012500098806FE09C0727D512F0020424D00A681A
:10126000920606D40A6822F00A020A60012280F877
:1012700021202F22C4F20202914240F20402C4F261
:1012800002023BDD3023C4F20203994260D04423C2
:10129000C4F2020399425FD05823C4F20203994278
:1012A00060D14FF4003365E01B0743D512F008020C
:1012B00008BF10BD0A6822F00E020A60012101FA7F
:1012C0000EF2CCF80420816380F82110016B00221B
:1012D000002980F8202054D12CE000BF0823C4F25C
:1012E0000203994222D01C23C4F20203994223D163
:1012F00040231360C16A002943D11BE00823C4F2D4
:10130000020399422CD01C23C4F20203994229D132
:1013100020232FE04FF480631360C16A89BB09E08A
:101320004FF480431360C16A59BB03E00423136088
:10133000C16A31BB10BD00BF02F168044FF0806389
:10134000A14208BF4FF480031360C16AC9B9F1E735
:101350004FF400730EE000BF4FF400530AE000BFEB
:10136000022307E002F168044FF00073A14208BFB6
:101370004FF400131360816A0022002980F82020B6
:10138000D8D0BDE810400847014600284FF00100C2
:1013900008BF70472DE9F043D1F800C04FF6F8734D
:1013A000CBF6FD734CF6CD426344CCF6CC42A3FBA6
:1013B00002236FF0030202EA93020023C4F2020345
:1013C00001F10C08C1E90F320222D1E9019E98E82F
:1013D000F00181F82120DCF8002043F6F0739A43F5
:1013E00042EA090242EA0E0222432A4332433A43C6
:1013F00042EA0802CCF8002000228A6381F821002A
:1014000081F820200020BDE8F04370472DE9F04F1F
:1014100082B00E68002E00F0FD8041F20042C4F25E
:101420000102042340F2004E904208BF03234FF60E
:10143000FF7CC4F2010E009300240123C1F2100CC2
:101440004FF0000A4FF000094BE000BF41F20002EC
:10145000C4F20102009F904208BF022704F00C036F
:101460000F229A402BEA020207FA03F34FEA9A0589
:101470001A4346F825204E6840F20C45F202DEF889
:10148000082054BF22EA080242EA0802C4F2010519
:10149000CEF808202A68B30254BF22EA080242EAC2
:1014A00008022A60B303DEF8042054BF22EA0802CF
:1014B00042EA0802F303CEF80420DEF800204FF0E1
:1014C000010354BF22EA080242EA0802CEF80020D3
:1014D0000E680AF1010A36FA0AF204F1040400F077
:1014E000998003FA0AFB16EA0B08F1D04E686645AC
:1014F00012DC122E56D8DFE806F0350B4D49555553
:10150000555555555555555555555545510000BFDF
:10151000D1F80C9046E000BF4FF6FF72C1F22102F5
:1015200096420FDC0022C1F2110296421AD000222C
:10153000C1F21202964215D00022C1F22102964257
:1015400010D02FE00022C1F2220296420AD00022DF
:10155000C1F23102964205D00022C1F23202964217
:1015600020D100BF8A684AB1012A14BFC0F814B064
:10157000C0F810B04FF0080914E000BF4FF00409A4
:1015800010E000BFCA6802F104090BE04FF0000947
:1015900008E000BFCA6802F1080903E0CA6802F166
:1015A0000C0900BF02462646B8F5807F24BF0432EE
:1015B000203E17680F25B54027EA050509FA06F60B
:1015C00035431560CA79D2067FF582AF41F2180320
:1015D000C4F202031A68AEF57E7642F001021A6088
:1015E0001A6802F001020192019A2AF0030256F8E9
:1015F00002B040F60002C4F20102904208D040F668
:101600000042C4F2010290427FF420AF012725E797
:10161000002723E702B0BDE8F08F0000002A08BFD2
:10162000090401617047000040F20860C2F2000046
:101630000068704740F2040040F20861C2F2000006
:10164000C2F2000100780A68104408607047000088
:1016500080B542F20000C4F20200016841F01001BE
:101660000160032000F08CF80F2000F005F800F076
:1016700027F8002080BD000070B540F20406C2F2D9
:10168000000640F20C013278C2F200014FF47A7386
:101690000968B3FBF2F20446B1FBF2F1084600F030
:1016A000CBFF0F2C4FF0010508D838B94FF0FF30B1
:1016B00021460022002500F037F87460284670BDEE
:1016C00082B041F21800C4F202000168022241F027
:1016D00001010160016801F0010101910199416876
:1016E00041F080514160406800F0805000900098C7
:1016F0000420C4F20100016862F31A61016002B0C3
:1017000070470000002848BF704700F01F01012209
:1017100002FA01F11C2202EAD0004EF20012CEF2CF
:10172000000281507047000010B54EF60C5CCEF2FE
:10173000000CDCF80030C3F3022E8EF00704042CFA
:1017400028BF0424BEF103034FF0FF3E0EFA04F459
:1017500038BF0023A14399400EFA03F39A43114383
:1017600000F00F0200F160430901043A03F56443FD
:101770006244002848BF02F10C03197010BD00003C
:101780004EF60C51CEF200010A684FF6FF031A40E4
:1017900060F30A2242F0806040F0FD7008607047FC
:1017A000002804BF012070472DE9F04381B042F2C8
:1017B0000008C4F202080446D8F800000D4600F004
:1017C000070081420CD9D8F8000020F00700284318
:1017D000C8F80000D8F8000000F00700A8426CD15B
:1017E000206841F204098107C4F2020917D54107B4
:1017F00005D5D9F8001041F4E061C9F800100107DF
:1018000005D5D9F8001041F46051C9F80010D9F895
:101810000010A26821F0F0011143C9F80010C007C0
:1018200042D1D8F8000000F0070085420CD2D8F869
:10183000000020F007002843C8F80000D8F8000096
:1018400000F00700A84238D12068410707D5D9F831
:101850000010E26821F4E0611143C9F800100007AC
:1018600008D5D9F80000216920F4605040EAC10091
:10187000C9F80000D9F8002002F00C00082841F255
:101880000020C0F27A004DD146F21E13C2F383410C
:10189000C0F60003595CD20338D440F60010C0F201
:1018A0003D0048433EE000BF606859F8041C022830
:1018B00008D0012826D1890306D4012001B0BDE853
:1018C000F08300BF8901F8D5D9F8001021F0030199
:1018D0000843C9F80000FFF7A7FE064641F2883723
:1018E000D9F80000616800F00C00B0EB810F98D0CF
:1018F000FFF79AFE801BB842F2D9032001B0BDE881
:10190000F08300BF8907D8D5DEE700BFD9F80020F3
:1019100046F21C13C2F34042C0F600039A5C4843EF
:10192000B0FBF2F0D9F8001046F20412C1F3031133
:10193000C0F60002515C40F20C0220FA01F140F2C4
:101940000800C2F200000068C2F200021160FFF756
:1019500093FE002001B0BDE8F083000040F20C00CF
:1019600041F20401C2F20000C4F2020100680968F9
:1019700046F21412C1F30221C0F60002515CC840C5
:101980007047000040F20C0041F20401C2F2000076
:10199000C4F202010068096846F21412C1F3C221C0
:1019A000C0F60002515CC8407047000041F2040CD0
:1019B000C4F2020CDCF8003003F00C00082841F2FD
:1019C0000020C0F27A0018BF704746F21E11C3F320
:1019D0008342C0F600018A5CD90305D440F60010AA
:1019E000C0F23D0050437047DCF8001046F21C1373
:1019F000C1F34041C0F60003595C5043B0FBF1F025
:101A000070470000002804BF012070472DE9F04115
:101A100082B00446007841F20006C007C4F2020614
:101A20000CD0706800F00C00042840F08180306811
:101A3000800303D56068002800F046812078800785
:101A40001BD5706810F00C0F09D0706800F00C0006
:101A5000082840F087807068C00300F183803068F8
:101A6000800703D52069012840F02E813068616924
:101A700020F0F80040EAC10030602078000713D45D
:101A8000207840072CD4E569002D00F0188170689B
:101A900000F00C00082840F0A780012D40F00481E0
:101AA000012002B0BDE8F081A069002800F0848028
:101AB0000020C4F242200121C0F88014FFF7B4FDD9
:101AC000054600BF706A800700F1B280FFF7ACFDE9
:101AD000401B0228F6D9032002B0BDE8F08100BF08
:101AE000F0695FEAC00808D4F06940F08050F06106
:101AF000F06900F080500090009847F20007C4F2AF
:101B000000073868C00549D4386840F480703860F0
:101B1000FFF78AFD054600BF3868C0053ED4FFF7D1
:101B200083FD401B6428F7D9032002B0BDE8F08193
:101B3000706800F00C00082803D17068C0033FF5FE
:101B400076AF61683068002900F00C81B1F5A02FF4
:101B500000F00081B1F5803F40F01A8140F4803000
:101B60001CE100BF2069002840F20000C4F24220BE
:101B700000F0888001210160FFF756FD054600BF97
:101B8000306880073FF572AFFFF74EFD401B02281B
:101B9000F6D9032002B0BDE8F08100BFE168306AE9
:101BA000002900F09D80052900F09280012940F075
:101BB000AF8040F00100B1E00020C4F242200021DB
:101BC000C0F88014FFF730FD054600BF706A80073B
:101BD0007FF556AFFFF728FD401B0228F6D90320FA
:101BE00002B0BDE8F08100BF0027C4F24227002008
:101BF0003866FFF719FD022D05460DD130688001CA
:101C000040F1DE80FFF710FD401B02284FF003007B
:101C1000F4D902B0BDE8F081306880014FD5FFF7FC
:101C200003FD401B02284FF00300F5D9F1E700BF88
:101C300040F20C00C2F20000006844F6D351C1F239
:101C40006201A0FB0101480A019000BF00BF01989A
:101C5000411E002801913FF413AF00BF0198411EBF
:101C6000002801913FF40CAF00BF0198411E0028ED
:101C700001913FF405AF00BF0198411E002801917A
:101C8000E4D1FDE600210160FFF7CEFC054600BF70
:101C9000306880077FF5F1AEFFF7C6FC401B0228D5
:101CA0004FF00300F4D9B4E77068216A00F4803281
:101CB0008A4209D1616A00F47010884204D1002080
:101CC00002B0BDE8F08100BF012002B0BDE8F081A4
:101CD00040F004003062306A40F001001EE000BFB6
:101CE00020F001003062306A20F004003062FFF71B
:101CF0009BFC054641F28837306A800720D5FFF704
:101D000093FC401BB8424FF00300F5D981E700BFB8
:101D100020F001003062306A20F004003062FFF7EA
:101D200083FC054641F28837306A800708D4FFF704
:101D30007BFC401BB842F7D9032002B0BDE8F0811C
:101D4000B8F1000F3FF59FAEF06920F08050F061D0
:101D500099E600BF40F480203060306840F4803065
:101D60001CE000BF20F480303060306820F4802018
:101D70003060FFF759FC0546306880037FF55EAEA2
:101D8000FFF752FC401B64284FF00300F4D940E7F2
:101D900020F480303060306820F480203060FFF71D
:101DA00043FC0546306880033FF548AEFFF73CFC36
:101DB000401B6428F6D9032002B0BDE8F08100BFC3
:101DC000206AB0F5803F05D17168A26821F4003126
:101DD000114371607168626A21F474111143084300
:101DE000706001203866FFF71FFC044630688001F0
:101DF0003FF565AFFFF718FC001B02284FF003000A
:101E0000F4D906E790F851007047000070B528B18A
:101E1000416A29B100210161142106E0012070BD51
:101E20004168B1F5827F02D01C2100224250002679
:101E3000866290F8511029B980F85060054600F08C
:101E400039F82846022180F8511090E82E0002F45B
:101E500082720C6803F4044324F040040C601A44BA
:101E600005F4006305691A4405F0020345691A4444
:101E700005F001038569C4691A4405F400731A4426
:101E800004F03803046A1A4404F08003846A1A4395
:101E900004F400531A430A60042202EA15424A601D
:101EA000CA6922F40062CA610121466580F85110B6
:101EB000304670BDF0B585B040F600050446C4F26A
:101EC0000105006805F52051002788420497CDE9F7
:101ED0000277019702D005B0F0BD00BF41F21800B3
:101EE000C4F20200016801AE41F480510160016852
:101EF00001F4805100910099016841F004010160F2
:101F00000068314600F0040000900098A020019085
:101F100002200290032004902846FFF777FA402021
:101F2000CDE90107284631460397FFF76FFA40F2E3
:101F300098351C20C2F20005C4F2020080214FF443
:101F40000052C5E900072846C5E90271C5E90477D2
:101F5000C5E90672FFF718FA002818BFFFF7BCF8AA
:101F6000E5646C6205B0F0BD2DE9F04182B0044635
:101F700090F85100012819D160681D4617460E4699
:101F8000B0F5827F01D1A068A0B1FFF74DFB80467C
:101F9000002E4FF0010018BF002F03D102B0BDE8A2
:101FA000F08100BF94F85000012811D1022002B046
:101FB000BDE8F081042084F85100204631463246C5
:101FC0003B46009500F0CEF902B0BDE8F08100BFBD
:101FD000012084F850000420002184F8510061653C
:101FE000A663A787E7872163A186E186A2682068A8
:101FF000B2F5004F2164616438D00168490640D5CC
:10200000E168E08F002944D000287BD0681C0CD107
:102010001BE000BFC068A16B21F8020BA163E08F39
:102020000138E087E08F00286CD020688168C907FC
:10203000F0D1FFF7F9FAA0EB0800A842F2D342E092
:10204000FFF7F2FAE08F00285CD020688168C907AA
:10205000F6D0C068A16B21F8020BA163E08F0138B4
:10206000E087E08F0028F0D14CE000BF016821F04C
:1020700040010160016821F4804101600168490666
:10208000BED4016841F040010160E168E08F0029A1
:10209000BAD1B8B3681C0CD124E000BF007BA16B9F
:1020A0000870A06B0130A063E08F0138E087E08FFB
:1020B00040B320688168C907F0D1FFF7B5FAA0EBFB
:1020C0000800A842F3D3012084F85100002084F8CE
:1020D0005000032002B0BDE8F08100BFFFF7A4FA72
:1020E000E08F78B120688168C907F7D0007BA16BC9
:1020F0000870A06B0130A063E08F0138E087E08FAB
:102100000028EFD16068B0F5827F11D1A068B0F5EA
:10211000004F02D0B0F5806F0AD12168B0F5806F12
:102120000A6822F040020A6002D12046012101E043
:102130002046802100222B46CDF8008002F0CCFA08
:1021400028B1606D40F020006065202060650120AE
:1021500084F85100002084F85000606D002818BFFA
:10216000012002B0BDE8F0812DE9F04182B01D46AA
:1021700016460F460446FFF757FA94F85110012906
:102180000ED18046002F4FF0010018BF002E03D162
:1021900002B0BDE8F08100BF94F85000012803D1DF
:1021A000022002B0BDE8F081012084F85000032035
:1021B000002184F8510061652763A686E686A16345
:1021C000A187E187A0682164B0F5004F20686164B1
:1021D00007D1016821F040010160016841F48041AC
:1021E00001600168490603D4016841F040010160C3
:1021F0006168731EE268B1FA81F1B3FA83F34909A9
:102200005B09B2F5006F41EA030139D131B137F80A
:10221000021BC1602763E08E0138E086E08E002853
:1022200070D0681C0BD11AE0216B31F8022BC26010
:102230002163E08E0138E086E08E002862D02068BD
:1022400081688907F0D4FFF7EFF9A0EB0800A842F6
:10225000F2D338E0FFF7E8F9E08E002852D020688A
:1022600081688907F6D5216B31F8022BC2602163A2
:10227000E08E0138E086E08E0028F0D142E000BF19
:1022800039B139780173206B01302063E08E013859
:10229000E086E08EB0B3681C0BD123E0216B097897
:1022A0000173206B01302063E08E0138E086E08E00
:1022B00040B3206881688907F0D4FFF7B5F9A0EB37
:1022C0000800A842F3D3012084F85100002084F8CC
:1022D0005000032002B0BDE8F08100BFFFF7A4F971
:1022E000E08E78B1206881688907F7D5216B09787D
:1022F0000173206B01302063E08E0138E086E08EB0
:102300000028EFD12046022101222B46CDF8008083
:1023100002F0E2F940B92046802100222B46CDF898
:10232000008002F0D9F928B1606D40F020006065AE
:1023300020206065A06838B9002001902068C1683D
:102340000191806801900198012084F851000020DB
:1023500084F85000606D002818BF012002B0BDE86D
:10236000F08100002DE9F04383B01E4615460F466C
:102370000446FFF759F994F851108146012909D113
:10238000002F4FF0010018BF002D0FD103B0BDE8A2
:10239000F08300BF6068B0F5827F0DD104294FF053
:1023A0000200F3D1A1680029EAD0EFE7002EEDD0BA
:1023B00094F85000012803D1022003B0BDE8F08357
:1023C000012084F8500094F85100002104281CBF1B
:1023D000052084F851006165A563E687A687276319
:1023E000E6862068A686216461640168490603D4F4
:1023F000016841F0400101606168731EE268B1FA52
:1024000081F1B3FA83F3DDF8288049095B09B2F55D
:10241000006F41EA030165D131B137F8021BC16099
:102420002763E08E0138E086012518F1010032D1E2
:1024300002E000BFFFF7F8F8E08E18B9E08F00283F
:1024400000F0B8802068816889070CD5E18E51B111
:10245000012D08D1216B002531F8022BC2602163C8
:10246000E18E0139E1868168C907E3D0E18F002957
:10247000E0D0C068A16B012521F8020BA163E08FB9
:102480000138E087D6E700BFFFF7CEF8A0EB0900E0
:10249000404580F0AF80E08E18B9E08F002800F052
:1024A00089802068816889070CD5E18E51B1012DA2
:1024B00008D1216B002531F8022BC2602163E18E27
:1024C0000139E1868168C907DED0E18F0029DBD0C0
:1024D000C068A16B012521F8020BA163E08F0138D0
:1024E000E087D1E739B139780173206B013020637F
:1024F000E08E0138E086012518F1010032D101E0BB
:10250000FFF792F8E08E10B9E08F002852D02068D3
:10251000816889070ED5E18E61B1012D0AD1216B49
:10252000002509780173216B206801312163E18E58
:102530000139E1868168C907E2D0E18F0029DFD047
:10254000C068A16B01250870A06B0130A063E08F0B
:102550000138E087D4E700BFFFF766F8A0EB090079
:10256000404547D2E08E08B9E08F18B320688168F3
:1025700089070ED5E18E61B1012D0AD1216B0025AD
:1025800009780173216B206801312163E18E0139E3
:10259000E1868168C907DFD0E18F0029DCD0C068FF
:1025A000A16B01250870A06B0130A063E08F01389A
:1025B000E087D1E72046022101224346CDF8009072
:1025C00002F08AF840B92046802100224346CDF827
:1025D000009002F081F8B8B1606D40F020006065B5
:1025E00020206065002084F85000012003B0BDE881
:1025F000F08300BF012084F85100002084F85000CF
:10260000032003B0BDE8F083A06838B90020029031
:102610002068C1680291806802900298012084F8C5
:102620005100002084F85000606D002818BF012080
:1026300003B0BDE8F0830000411E0020B0EB116F35
:102640001CBF012070474EF21002CEF20002516012
:102650004EF62351CEF20001F0230B70072190605B
:1026600011607047704700007047000090F83C20F0
:10267000012A4FF0020236D010B580F83D200268E2
:10268000D2F804E0D2F808C00C682EF0700323439F
:1026900040F2FF74C4F20004A24253600ADCB2F1BB
:1026A000804F13D040F20043C4F200039A420DD091
:1026B00011E000BF42F60043C4F201039A4205D084
:1026C00040F60003C4F200039A4204D149682CF09A
:1026D0008003194391600121002280F83D1080F8A9
:1026E0003C20BDE81040104670470000002804BFA1
:1026F0000120704710B590F83D1031B9002180F8E5
:102700003C10044600F070F82046022180F83D108D
:10271000016840F2FF740B68C4F2000442F6004CFA
:10272000A142C4F2010C15DCB1F1804F1AD040F285
:102730000042C4F20002914214D0A14218DCB1F16F
:10274000804F1DD040F20042C4F20002914217D0E7
:102750001AE000BF614505D040F60002C4F2000255
:102760009142EAD1826823F070031343A142E6DD6F
:10277000614505D040F60002C4F20002914203D147
:10278000026923F440731343846923F08002D0F874
:1027900004E0C368224361450A60CB62C1F828E0C7
:1027A00002D14269CCF8302001224A610B69DB0773
:1027B00003D00B6923F001030B6180F8462080F8F9
:1027C0003E2080F83F2080F8402080F8412080F8AB
:1027D000422080F8432080F8442080F8452080F88B
:1027E0003D20002010BD000080B582B0006840F29E
:1027F0000041C4F2000188421ED042F60041C4F2FA
:102800000101884225D141F21800C4F2020001689A
:10281000002241F4006101600068002100F40060C2
:10282000019001981920FEF77FFF192002B0BDE842
:102830008040FEF767BF00BF41F21800C4F20200FB
:10284000416841F002014160406800F002000090E0
:10285000009802B080BD000090F83D1001291CBF17
:1028600001207047022180F83D10006840F2FF729D
:10287000C168C4F20002904241F00101C16009DC6C
:10288000B0F1804F12D040F20041C4F20001884202
:102890000CD012E042F60041C4F20101884205D09A
:1028A00040F60001C4F20001884206D1816801F0BF
:1028B0000701062904BF00207047016841F00101AB
:1028C000016000207047000090F83C20012A4FF082
:1028D00002026CD080B580F83D20D0F800C04FF6E1
:1028E0007772DCF8083023EA0202CCF808200B6883
:1028F0004F2B29DC1F2B45DD202B46D0302B44D01D
:10290000402B40F0AF80D1F804E0C968DCF82030FB
:10291000DCF8202022F00102CCF82020DCF818207E
:1029200022F0F00242EA011123F00A0242EA0E020A
:10293000CCF81810CCF82020DCF8081041F0470142
:1029400021F0300128E000BF6F2B33DDB3F5005FCD
:1029500074D0B3F5805F21D0702B40F08380D1E933
:1029600001E3C968DCF8082043EA0E0322F47F4241
:1029700043EA01211143CCF80810DCF8081041F0BB
:10298000770109E00BB1102B6CD1DCF8081021F0B5
:102990007001194341F00701CCF808100022012111
:1029A00080F83D10002180F83C10BDE880401046C2
:1029B000704700BF502B21D0602B53D1D1F804E0D9
:1029C000C968DCF82030DCF8202022F01002CCF8B6
:1029D0002020DCF8182022F4704242EA013123F072
:1029E000A00242EA0E12CCF81810CCF82020DCF835
:1029F000081041F0670121F01001CDE7D1F804E0A3
:102A0000C968DCF82030DCF8202022F00102CCF884
:102A10002020DCF8182022F0F00242EA011123F015
:102A20000A0242EA0E02CCF81810CCF82020DCF89A
:102A3000081041F0570121F02001ADE7D1E901E391
:102A4000C968DCF8082043EA0E0322F47F4243EA17
:102A500001211143CCF80810DCF8081041F4804142
:102A60009AE700BF01229AE7002804BF01207047BF
:102A70002DE9F04F81B090F83D2042B9002280F856
:102A80003C2004460D4600F09DF8294620460222CF
:102A900080F83D20026844F20705936842F6004C36
:102AA000AB43936040F2FF731468C4F200039A4290
:102AB000C4F2010C14DCB2F1804F19D040F2004591
:102AC000C4F20005AA4213D09A4217DCB2F1804F3B
:102AD0001CD040F20043C4F200039A4216D01AE020
:102AE000624505D040F60005C4F20005AA42EBD1CC
:102AF000856824F070042C439A42E7DD624505D0D6
:102B000040F60003C4F200039A4204D1036924F49E
:102B1000407543EA050424F080038469D0F804E09A
:102B2000C568234362451360D562C2F828E002D12C
:102B30004369CCF830304FF0010EC2F814E015694B
:102B4000ED0703D0156925F00105156195689469B5
:102B5000D2F820C0D1E90038D1E9027B43EA050A66
:102B60008D694FF6FF7924EA090447EA05254FF6F7
:102B7000FC47BD43D1E9077644EA0B040B692C43BB
:102B800044EA07242CF02207496944EA031347EA80
:102B9000080743EA063347EA0111C2F808A0936127
:102BA000116280F846E080F83EE080F83FE080F86F
:102BB00042E080F843E080F83DE0002001B0BDE84D
:102BC000F08F000080B586B0006840F60001C4F2C6
:102BD000000188424FF00001CDE90411CDE9021156
:102BE0001ED0B0F1804F3FD141F21800C4F2020074
:102BF000416841F001014160416801F0010101912A
:102C00000199016841F0040101600068032100F0AE
:102C100004000190019840F60000C4F201001CE09D
:102C200041F21800C4F20200416841F00401416021
:102C3000416801F0040101910199016841F0080126
:102C400001600068C02100F008000190019840F682
:102C50000000C4F2010000F5806002910021CDE97E
:102C6000031102A9FEF7D2FB06B080BD80B590F833
:102C70003E2090F83F3090F842E090F843C004299D
:102C80000AD0B9B9012A4FF0010208BFBEF1010F05
:102C900034D0104680BD00BF012B4FF0010208BFA9
:102CA000BCF1010FF5D1022180F83F1080F84310EC
:102CB00000681EE0012A4FF0010208BF012BE8D195
:102CC000BEF1010FE5D1BCF1010FE2D1022280F883
:102CD0003E2080F83F2080F8422080F8432091B1C8
:102CE0000068016A21F001010162016A41F00101FD
:102CF000016210216FF0100209E000BF022180F88C
:102D00003E1080F84210006801216FF00102036A52
:102D10001A400262026A114301620168002241F016
:102D200001010160104680BD7047000070B5044687
:102D30000068C5680669B10716D515F0020113D001
:102D40006FF002010161012121778069800703D0C2
:102D50002046FFF7E9FF05E0204600F0BBF82046DB
:102D600000F03CFA00202077700719D515F0040018
:102D700016D020686FF0040101610221217780697B
:102D800010F4407F04D02046FFF7CEFF06E000BFDE
:102D9000204600F09FF8204600F020FA002020771F
:102DA000300717D515F0080014D020686FF008011F
:102DB000016104212177C069800703D02046FFF715
:102DC000B3FF05E0204600F085F8204600F006FA43
:102DD00000202077F00619D515F0100016D02068D5
:102DE0006FF01001016108212177C06910F4407F64
:102DF00004D02046FFF798FF06E000BF204600F011
:102E000069F8204600F0EAF900202077F00718BFA3
:102E100015F0010002D1300609D412E020686FF0ED
:102E200001010161204600F049FA300609D515F08C
:102E3000800006D020686FF0800101612046FFF716
:102E400011FC700609D515F0400006D020686FF01F
:102E500040010161204600F049FAB00658BF70BD3C
:102E600015F0200008D021686FF0200220460A618A
:102E7000BDE87040FFF7F8BB70BD000080B586B0BC
:102E8000016840F20040C4F2000081424FF00001AE
:102E9000CDE90411CDE9021102D006B080BD00BF1A
:102EA00041F21801C4F202010A6800F5843042F0D0
:102EB00008020A60096801F00801019101990321E3
:102EC000029102210391059102A9FEF79FFA06B033
:102ED00080BD00007047000090F83C30012B04BF1B
:102EE000022070474FEAB202032A00F2F1802DE976
:102EF000F043DFE802F003A53B7500BF036842F62C
:102F000000461D6A1A6AC4F2010622F001021A6222
:102F10001A465C6852F818CFB3428E68D1F800E0C8
:102F200025F0020545EA06050CD1CE68D1E9057801
:102F300024F4407425F00C0526F004063C43354388
:102F400044EA08042CF0730747EA0E075C609F61AF
:102F50004F6809695F631D629F6947F008079F61B9
:102F60009F6927F004079F61A6E000BF036842F64F
:102F700000461D6A1A6AC4F2010622F480721A62BF
:102F80001A46D3F804C052F81CEFB3428E680C689E
:102F900025F4007545EA06250FD1CE68D1E90598DC
:102FA000360240F2FF4725F44065BE4335432CF41A
:102FB000405748EA090647EA061C2EF073072743E4
:102FC000C3F804C0DF614F680969DF631D62DF6910
:102FD00047F00807DF61DF6927F00407DF616BE076
:102FE000036842F60047D3F820C01A6AC4F201070A
:102FF00022F480521A621A465C6852F81C5FD1F8BB
:1030000000E08E68BB4204D14F6924F4804444EA56
:1030100087142CF4005747EA063725F4E64646EABB
:103020000E265C60DE614E6809691E641F62DF69FE
:1030300047F40067DF61DF6927F48067DF613AE00A
:10304000036842F600461D6A1A6AC4F2010622F0BD
:1030500010021A621A46D3F804C052F8184FB3424D
:103060008E68D1F800E025F0200545EA06150FD15D
:10307000CE68D1E905986FF0400725F0C00507EA52
:10308000061635432CF4406748EA090647EA860CE1
:1030900024F4E64444EA0E27C3F804C09F614F6855
:1030A00009699F631D629F6947F400679F619F697B
:1030B00027F480679F61090213681943116000219A
:1030C000BDE8F043002280F83C200846704700BF6E
:1030D0000121002280F83C2008467047002804BFE8
:1030E0000120704710B590F83D1031B9002180F8EB
:1030F0003C10044600F070F82046022180F83D1094
:10310000016840F2FF740B68C4F2000442F6004C00
:10311000A142C4F2010C15DCB1F1804F1AD040F28B
:103120000042C4F20002914214D0A14218DCB1F175
:10313000804F1DD040F20042C4F20002914217D0ED
:103140001AE000BF614505D040F60002C4F200025B
:103150009142EAD1826823F070031343A142E6DD75
:10316000614505D040F60002C4F20002914203D14D
:10317000026923F440731343846923F08002D0F87A
:1031800004E0C368224361450A60CB62C1F828E0CD
:1031900002D14269CCF8302001224A610B69DB0779
:1031A00003D00B6923F001030B6180F8462080F8FF
:1031B0003E2080F83F2080F8402080F8412080F8B1
:1031C000422080F8432080F8442080F8452080F891
:1031D0003D20002010BD0000704700007047000037
:1031E000C1B1042908D0082914BF41224022825CC1
:1031F000012A05D016E000BF3F22825C012A11D1CE
:103200000222082910D0042914BF80F8412080F838
:103210003F200BE090F83E20012A03D1022280F8E3
:103220003E2003E00120704780F84020006801F054
:103230001F010122036A8A4023EA02010162036A34
:1032400042F64441C4F201011A43A1F144039842F9
:1032500002620FD040F2FF71C4F20001884213DC19
:10326000B0F1804F1CD040F20041C4F2000188420E
:1032700016D01CE00A6842F400420A6040F2FF7176
:10328000C4F200018842EBDD42F60041C4F20101C4
:10329000884205D040F60001C4F20001884206D100
:1032A000816801F00701062904BF0020704701680A
:1032B00041F00101016000207047000010B5006876
:1032C00042F60041C4F20101884218BF10BD40F22D
:1032D0001C14C2F20004206830B1FDF703FF20681F
:1032E000BDE8104001F068B910BD00007047000053
:1032F0007047000010B504460068416994F8412009
:10330000212A56D111F0800153D000BF206850E827
:10331000050F216820F0800041E80502DAB120683D
:1033200050E8050F216820F0800041E8050292B1C5
:10333000206850E8050F216820F0800041E8050270
:103340004AB1206850E8050F216820F0800041E86C
:103350000502002ADAD1A06B002818BFFDF7C4FED1
:10336000206850E8030F216820F0C00041E8030204
:10337000DAB1206850E8030F216820F0C00041E86E
:10338000030292B1206850E8030F216820F0C000CA
:1033900041E803024AB1206850E8030F216820F099
:1033A000C00041E80302002ADAD1202084F841005D
:1033B0002068406994F84210222940F0A78010F05C
:1033C000400000F0A38000BF206850E8050F21688E
:1033D00020F0400041E80502DAB1206850E8050F0E
:1033E000216820F0400041E8050292B1206850E8D1
:1033F000050F216820F0400041E805024AB120682D
:1034000050E8050F216820F0400041E80502002A3D
:10341000DAD1E06B002818BFFDF766FE206850E89F
:10342000030F216820F4907041E80302BAB32068CA
:1034300050E8030F216820F4907041E8030272B352
:10344000206850E8030F216820F4907041E80302DF
:103450002AB3206850E8030F216820F4907041E8F7
:103460000302002ADAD11AE0206850E8050F21682B
:1034700020F0010041E80502DAB1206850E8050FAC
:10348000216820F0010041E8050292B1206850E86F
:10349000050F216820F0010041E805024AB12068CB
:1034A00050E8050F216820F0010041E80502002ADC
:1034B000DAD1206B012824D1206850E8030F21685D
:1034C00020F0100041E80302DAB1206850E8030F51
:1034D000216820F0100041E8030292B1206850E812
:1034E000030F216820F0100041E803024AB1206870
:1034F00050E8030F216820F0100041E80302002A81
:10350000DAD1202084F8420000202063002010BD82
:1035100070470000B0B582B001680A68CC684B699A
:1035200002F02F05202D04F0200505D125B102B0B1
:10353000BDE8B04001F0C4B95FEA027C1EBF03F0F1
:10354000010E04F4907313EB0E0341D1036BD50607
:1035500018D5012B16D114F0100313D000220192BC
:103560000A6801924A680192019A496949064BD456
:10357000818DC28DC38D002B18BF914240F0F48124
:1035800002B0B0BD13062DD514F080032AD090F8F8
:103590004120212AF4D18268B2F5805F03D102690B
:1035A000002A00F06782026A531C036212784A60A4
:1035B000C28C013A1304C284E2D1C86820F08000B2
:1035C000C860C86840F04000C86002B0B0BD00BF2D
:1035D000D30718BF14F4807340F0D080530700F174
:1035E000D380D8E05206CBD514F04002C8D0CA68C8
:1035F00022F04002CA60202180F8411002B0BDE8EC
:10360000B04000F0E5BB00BFC16B0A68526893B2DE
:10361000002BB5D0858DAB42B2D2C28589692029F5
:1036200000F0A180016851E8031F026821F4807155
:1036300042E80313DBB1016851E8031F026821F47B
:10364000807142E8031393B1016851E8031F0268D7
:1036500021F4807142E803134BB1016851E8031F64
:10366000026821F4807142E80313002BDAD101686B
:1036700051E8051F026821F0010142E80513C3B3B8
:10368000016851E8051F026821F0010142E80513B5
:103690007BB3016851E8051F026821F0010142E88F
:1036A000051333B3016851E8051F026821F00101D9
:1036B00042E80513002BDAD11BE000BF016851E896
:1036C000051F026821F0400142E80513DBB10168E3
:1036D00051E8051F026821F0400142E8051393B14B
:1036E000016851E8051F026821F0400142E8051316
:1036F0004BB1016851E8051F026821F0400142E822
:103700000513002BDAD1202180F84210002101633B
:10371000016851E8031F026821F0100142E8031319
:10372000DBB1016851E8031F026821F0100142E893
:10373000031393B1016851E8031F026821F01001DF
:1037400042E803134BB1016851E8031F026821F0FE
:10375000100142E80313002BDAD1C16B044608467E
:10376000FDF7C2FC204602214163818DC28D891A7A
:1037700089B202B0BDE8B040FFF7BABD436C43F078
:1037800001034364530706D5BEF1000F03D0436C19
:1037900043F002034364930706D5BEF1000F03D044
:1037A000436C43F004034364BCF1000F06D55EEAAA
:1037B000050303D0436C43F008034364436C002BC0
:1037C0003FF4DEAE920605D525B1044601F078F847
:1037D000216820464969426C01F0400102F008026C
:1037E000891800F0B98000BF016851E8031F026822
:1037F00021F4907142E80313BBB3016851E8031F41
:10380000026821F4907142E8031373B3016851E830
:10381000031F026821F4907142E803132BB301687F
:1038200051E8031F026821F4907142E80313002B52
:10383000DAD11AE0016851E8051F026821F00101A0
:1038400042E80513DBB1016851E8051F026821F069
:10385000010142E8051393B1016851E8051F0268B0
:1038600021F0010142E805134BB1016851E8051F41
:10387000026821F0010142E80513002BDAD1016B47
:10388000012924D1016851E8031F026821F01001C9
:1038900042E80313DBB1016851E8031F026821F01D
:1038A000100142E8031393B1016851E8031F026855
:1038B00021F0100142E803134BB1016851E8031FE6
:1038C000026821F0100142E80313002BDAD1202115
:1038D00080F842100021016301684969490640F1FE
:1038E000C380016851E8051F026821F0400142E8E9
:1038F0000513DBB1016851E8051F026821F04001A2
:1039000042E8051393B1016851E8051F026821F0F0
:10391000400142E805134BB1016851E8051F0268F8
:1039200021F0400142E80513002BDAD1C16B0029D8
:1039300000F09A8044F6B502C0F60002044608463C
:103940004A63FDF7F5FB00283FF41AAEE06B416BCC
:1039500002B0BDE8B04008470446FFF7D9FD00209B
:10396000606402B0B0BD00BF891A00BF026852E8AF
:10397000032F036822F4907243E80325BDB3026865
:1039800052E8032F036822F4907243E8032575B3CD
:10399000026852E8032F036822F4907243E803257B
:1039A0002DB3026852E8032F036822F4907243E8B3
:1039B0000325002DDAD11AE0026852E8052F0368CA
:1039C00022F0010243E80525DDB1026852E8052F27
:1039D000036822F0010243E8052595B1026852E828
:1039E000052F036822F0010243E805254DB1026866
:1039F00052E8052F036822F0010243E80525002D57
:103A0000DAD1202280F8422000220263026852E8C4
:103A1000032F036822F0100243E80325DDB102689A
:103A200052E8032F036822F0100243E8032595B102
:103A3000026852E8032F036822F0100243E80325CE
:103A40004DB1026852E8032F036822F0100243E8E8
:103A50000325002DDAD1022289B2426302B0BDE80B
:103A6000B040FFF745BC00BF02B0BDE8B040FFF773
:103A70004FBD00BF026A32F8023B6FF35F234B6019
:103A8000026295E5002804BF0120704710B5044686
:103A900090F8410028B9002084F84000204600F04A
:103AA00063F8242084F841002068D4E90212C36836
:103AB00023F40053C360036923F440531A430261A3
:103AC000D4E904231143C268194341F20C639A43B9
:103AD0001143C1604169A26921F44071114343F669
:103AE0000002C4F201029042416103D0FDF736FFAB
:103AF00002E000BFFDF746FFD4E900231921484347
:103B00009900B0FBF1F048F21F5CC5F2EB1CA0FB82
:103B10000C314FF69C734909C0F6FF7301FB03009B
:103B2000322303EB0010A0FB0C03F02000EA53103B
:103B300000EB0110C3F34311084490601069202189
:103B400020F490401061506920F02A005061D06844
:103B500040F40050D0600020606484F8411084F884
:103B60004210606310BD00002DE9F04186B040F6C0
:103B700000050446C4F20105006805F54051002720
:103B800088420597CDE90377029703D006B0BDE8D8
:103B9000F08100BF41F21806C4F2020630680DF150
:103BA000080840F4804030603068414600F48040AE
:103BB00001900198306840F004003060306800F0F7
:103BC0000400019001984FF40070029002200390CD
:103BD000032005902846FDF719FC4FF48060CDE9DD
:103BE0000207284641460497FDF710FC40F2DC35F9
:103BF000A6F57C60C2F2000580214FF48052C5E931
:103C000000072846C5E90271C5E90477C5E90672CF
:103C1000FDF7BAFB002818BFFDF75EFA25200E213C
:103C20000022E5636C62FDF77FFD2520FDF76AFD4C
:103C300006B0BDE8F0810000704700002DE9F043B8
:103C400081B0044690F84100202809D100294FF0A6
:103C5000010018BF002A07D101B0BDE8F08300BF02
:103C6000022001B0BDE8F0830020606421201D46E1
:103C70000E4684F841001746FDF7D6FCA784E7847A
:103C8000A1688146B1F5805F02D1206900285DD02E
:103C900037460020E28C2168002A5DD06A1C24D0BF
:103CA000002D4AD0804600BF0868000608D4FDF702
:103CB000BBFCA0EB0900A8427AD82168C868F3E7EA
:103CC00017B117F8010B04E038F8020B00276FF367
:103CD0005F204860E08C0138E084E08C0028E3D16C
:103CE0003AE000BF0A68120609D40A68120606D430
:103CF0000A6812065CBF0A685FEA0262F2D51FB169
:103D000017F8012B05E000BF30F8022B00276FF3F6
:103D10005F224A60E28C013AE284E28C002AE4D11C
:103D20001AE000BF30F8022B00276FF35F224A60D1
:103D3000E28C013AE284E28C72B10A68120635D54F
:103D4000002FEFD017F8012BF1E700BF0027304616
:103D5000E28C2168002AA1D1086840061ED42DB348
:103D6000681C14D1086840062AD40868400627D485
:103D70000868400624D4086840064FF00000F1D5DA
:103D80000DE000BF2068C1680068400618D4FDF748
:103D90004BFCA0EB0900A842F4D909E00020202147
:103DA00084F8411001B0BDE8F08300BFFDF73CFC92
:103DB0000320202184F8411001B0BDE8F08300BF4A
:103DC0000020202184F8411001B0BDE8F0830000FC
:103DD00070470000FEE7000010B504460020A081F7
:103DE00060822083E081A0826083C4E91100C4E97D
:103DF0001300C4E91500C4E9170060662082E08260
:103E0000A0831CA02381C4E9001201F0A9FA6B2051
:103E1000802101F04DFA4FF4FA60FDF717F96B209D
:103E2000802101F045FA4FF4FA60FDF70FF96B209D
:103E3000012101F03DFA6C20002101F039FA19202E
:103E4000002101F035FA1B20082101F031FA1C2075
:103E5000082101F02DFA1A20032101F029FA1D2072
:103E6000032101F025FA2046C821FCF717FE0120A6
:103E700010BD00BF4E6F7720496E697469616C692F
:103E80007A696E67204D5055393235300D0A000081
:103E9000F0B581B040F600460446BB20C4F20106EE
:103EA0008DF8030030464FF400410022FDF7B6FBC9
:103EB00040F22047C2F200070DF10301384601220B
:103EC0004FF4FA73FEF750F940F2B025C2F2000544
:103ED0003846294606224FF4FA73FEF745F8304675
:103EE0004FF400410122FDF799FB288800BA000C2D
:103EF000A081B4F90C00FCF70FFB4CF6CD46C3F6DD
:103F00009C263146FCF77FF96988606408BA000C8A
:103F1000E081B4F90E00FCF7FFFA3146FCF773F9C3
:103F2000A988A06408BA000C2082B4F91000FCF73C
:103F3000F3FA3146FCF767F9E06401B0F0BD000028
:103F40002DE9F04182B040F600460446C320C4F299
:103F500001068DF8070030464FF400410022FDF7BE
:103F60005DFB40F22047C2F200070DF10701384621
:103F700001224FF4FA73FEF7F7F840F2B025C2F2CF
:103F800000053846294606224FF4FA73FDF7ECFF88
:103F900030464FF400410122FDF740FB288800BA6B
:103FA000000C6082B4F91200FCF7B6FA40F2000887
:103FB000C3F67A484146FCF726F904F12007C2CF40
:103FC000FCF71BF96988206508BA000CA082B4F9D7
:103FD0001400FCF7A1FA4146FCF715F93146FCF74D
:103FE0000CF9A988606508BA000CE082B4F91600E3
:103FF000FCF792FA4146FCF706F93946FCF7FDF862
:10400000A06502B0BDE8F08110B540F2E8040146B9
:10401000C2F200044FF07E500022C4E90102C4E95C
:104020000322C4E90522E2612270FCF71EF9206236
:1040300010BD00002DE9F04F81B040F2E80BC2F254
:10404000000BDBE90364DBE9019530462146FCF710
:10405000DAF8074648462946FCF7D5F83946FCF712
:104060007AF8824628462946FCF7CDF801464FF0FB
:104070007C50FCF7C2F8074686F000403146FCF75A
:10408000C2F839468046FCF766F80146504601F012
:10409000D1FECBF8280048463146FCF7B4F8074675
:1040A00028462146FCF7AFF801463846FCF7A5F84C
:1040B0000146FCF750F801F02BFECBF82C004846E7
:1040C0002146FCF7A0F8074628463146FCF79BF846
:1040D0003946FCF740F8054640464FF07C51FCF766
:1040E0003AF8064620462146FCF78DF80146304650
:1040F000FCF783F80146284601F09CFECBF830001F
:1041000001208BF8000001B0BDE8F08F2DE9F04FE1
:104110008BB04FF63927C3F68E470D46DDE914AB59
:10412000394699461446FCF76EF8804628463946CB
:10413000FCF769F80646204639465F46FCF763F807
:10414000079048460021FCF7D9F940F2E802C2F294
:10415000000251680A9191680891D2E903B109916E
:1041600070B150460021FCF7C9F948B1384600212A
:10417000FCF7C4F920B18BF00040079F069026E1C0
:1041800050465146CDE90368FCF73DF804464846E1
:104190004946FCF738F82146FBF7DDFF0446384670
:1041A0003946FCF730F82146FBF7D5FF4FF07C513C
:1041B0000446FCF728F8054645F6DF10C5F63770CB
:1041C000A0EB540428462146FCF71DF82146FCF7D5
:1041D0001AF801464FF07F50FCF70FF82146FCF724
:1041E00012F8044628462146FCF70DF82146FCF754
:1041F0000AF801464FF07F50FBF7FFFF01462046CB
:10420000FCF701F8044648462146FBF7FCFF019005
:1042100050462146FBF7F7FF804638462146FBF71C
:10422000F2FF0A9E82468BF00040069030465946C7
:10423000FBF7E9FF089C099D8146204629465F4619
:10424000FBF7E1FF4946FBF7D8FF8346284639468E
:104250000597FBF7D8FF074630462146FBF7D3FF0B
:104260003946FBF778FF074630463146FBF7CBFF70
:104270004FF03F41FBF76FFF064628462946FBF704
:10428000C2FF3146FBF767FF064650463946FBF74B
:10429000BAFF814640463146FBF7B5FF4946FBF77A
:1042A000ACFF019D814628463146FBF7ACFF064630
:1042B00050465946FBF7A7FF3146FBF79EFF029099
:1042C00040465946FBF79FFF044628463946FBF710
:1042D0009AFF2146FBF791FF40F2E801C2F200018C
:1042E0004F6A0646384600214FF0000AFCF7DCF81A
:1042F000002801963ED138464946FBF784FF40F23C
:10430000E801C2F20001C846D1F82090CA69D1E99B
:10431000055449460092FBF776FF2946FBF71BFF41
:10432000DDF808B0824638465946FBF76CFF49462F
:10433000FBF769FF2146FBF70EFF0446384631467E
:10434000FBF761FF4946FBF75EFF0099FBF703FFB0
:10435000074604985146FBF7FEFE064603982146A1
:10436000FBF7F9FE054607983946FBF7F4FE814650
:1043700009E000BFDDF808B0049EC846039DDDF8E3
:104380001C900024002740F2E800C2F20000C0E9BF
:1043900005A40024C4F27024C76140462146FBF7FF
:1043A00032FF3146FBF7D7FE804658462146FBF7E1
:1043B0002AFF2946FBF7CFFE064601982146FBF768
:1043C00022FF4946FBF7C7FEDDF814B0074640F26E
:1043D000E800C2F20000006A4FF07C51FBF713FFC7
:1043E000044640462146FBF70EFF0546304621466F
:1043F000FBF709FF064638462146FBF704FFDDF8C8
:10440000209080465846314689F00044FBF7FBFE79
:10441000074620462946DA46FBF7F5FE3946FBF704
:10442000ECFE099F044638464146FBF7ECFE014688
:104430002046FBF7E2FEDDF828B001465846FBF7C0
:104440008AFE079040465146FBF7DDFE044658467B
:104450002946FBF7D8FE2146FBF77DFE0446384689
:104460003146FBF7D0FE01462046FBF7C6FE01466B
:104470004846FBF770FE059048464146FBF7C3FEF1
:10448000044658463146FBF7BEFE2146FBF7B5FE13
:10449000044638462946FBF7B6FE2146FBF75BFE8D
:1044A00001465046FBF757FE044648463146FBF7A7
:1044B000AAFE064658464146FBF7A5FE3146FBF7E5
:1044C0004AFE064606982946FBF79DFE3146FBF755
:1044D00042FE01463846FBF73EFEDDF814900546E5
:1044E00048464946FBF78FFEDDF81C8006464046ED
:1044F0004146FBF788FE3146FBF72DFE0646204677
:104500002146FBF780FE3146FBF725FE064628468E
:104510002946FBF778FE3146FBF71DFE4FF07C5134
:104520000646FBF770FE074645F6DF10C5F6377006
:10453000A0EB560638463146FBF765FE3146FBF7E1
:1045400062FE01464FF07F50FBF757FE3146FBF706
:104550005AFE064638463146FBF755FE3146FBF714
:1045600052FE01464FF07F50FBF747FE01463046B2
:10457000FBF749FE064640463146FBF744FE40F253
:10458000E807C2F20007786048463146FBF73BFE79
:10459000B86020463146FBF736FEF86028463146C3
:1045A000FBF731FE3861002038700BB0BDE8F08FAA
:1045B000FEE70000FEE7000070B504460168C06930
:1045C00000F024F8E169E06F096AA56AD4F8846014
:1045D000FBF7C1FD014628463246FCF70FFAA06AF8
:1045E000006AFBF7A7FF40F2E004C2F20004C4E94E
:1045F000000000B200F002F9B4F90400BDE8704018
:1046000000F024B981627047704700002DE9F04F37
:1046100081B00A46816A0446C2601046FBF7EDFD90
:10462000E56A83464FF07E502946FBF7E6FDD4F855
:104630001080D4F804A0D4E906690746284641460C
:10464000FBF7E1FD054638465946FBF7DCFD2946F8
:10465000FBF781FD8346606150465946FBF7D3FD69
:104660004946FBF778FD31460746E061FBF738FF26
:1046700030B986F0004638463146FBF723FF08B9CB
:104680003746E6612068A568666A5946FBF7BBFDB8
:104690003946FBF760FD074658464146FBF7ADFD3E
:1046A00001462846FBF7AFFD3946FBF754FD31467E
:1046B00007462062FBF714FF30B986F00046384603
:1046C0003146FBF7FFFE08B9374626623846C4F884
:1046D00010B001B0BDE8F08F2DE9F04381B0089C27
:1046E000984615460E468146FCF79EFF201A00EBC1
:1046F0000804FCF799FF40F20C01C2F200010968BE
:10470000C1F3CB3161430091D9F800108A6832407F
:10471000921BB2FA82F2520995423DD0074618F137
:10472000010031D0FCF780FFC01BA04238D20098B6
:1047300000990028A1F101010091D9F800108968C1
:1047400008BF044601EA0600801BB0FA80F0400969
:104750008542E7D120E000BF88683040801BB0FA76
:1047600080F04009854217D088683040801BB0FA3D
:1047700080F0400985420FD088683040801BB0FA35
:1047800080F04009854207D088683040801BB0FA2D
:1047900080F040098542DFD1002001B0BDE8F08300
:1047A000D9E900014268B1F5827F22F0E00242605F
:1047B0000BD1D9F80810B1F5004F02D0B1F5806FD8
:1047C00003D1016821F040010160D9F82810B1F54A
:1047D000005F07D1016821F400510160016841F4D4
:1047E00000510160012089F85100002089F8500033
:1047F000032001B0BDE8F08370470000B0B540F67B
:104800000005C4F201050446002828464FF48071D3
:104810000AD40022FCF702FF28464FF4006101226F
:10482000FCF7FCFE0AE000BF0122FCF7F7FE284679
:104830004FF400610022FCF7F1FE644240F20850A0
:10484000C2F200000068C463B0BD0000B0B540F61D
:104850000045C4F201050446002828464FF4805163
:104860000AD40022FCF7DAFE28464FF40051012258
:10487000FCF7D4FE0AE000BF0122FCF7CFFE284679
:104880004FF400510022FCF7C9FE644240F2085088
:10489000C2F2000000680464B0BD00000EC07047A2
:1048A000FCF7C8BE7047000040F27840C2F200003A
:1048B000FEF73CBA406A0021C185C184FEF728BEDC
:1048C00081B090F84210222921D183680246B3F5C5
:1048D000805F09D152F8281F52F8183C002B63D092
:1048E00003685B680AE000BF52F8281F13B9036928
:1048F000002BF5D003685B6803F07F030B70116831
:1049000001311160C18D01390A04C18502D001B0A5
:10491000704700BF0168CA6822F02002CA60CA68F6
:1049200022F48072CA604A6922F001024A612021A1
:1049300080F8421000214163026B012A3CD10163DF
:10494000016851E8031F026821F0100142E80313D7
:10495000DBB1016851E8031F026821F0100142E851
:10496000031393B1016851E8031F026821F010019D
:1049700042E803134BB1016851E8031F026821F0BC
:10498000100142E80313002BDAD101680A68D2064D
:1049900006D5002200920A680092496800910099A9
:1049A000818D01B0FEF7A4BC026852686FF35F22EC
:1049B00021F8022B8162A5E701B0FFF73DB90000A5
:1049C00040F22010C2F2000000680168C90605D458
:1049D00040F22010C2F20000FEF79CBD80B582B00C
:1049E000002101910168019140680190019840F215
:1049F0002010C2F20000FEF77DFC40F2DC30C2F273
:104A000000000068406802B080BD0000FEE70000C2
:104A10002DE9F04F81B040F2E804C2F200042078A2
:104A200010B1E06A61E000BFD4E9036BD4E90195FD
:104A300030465946FBF7E7FB074648462946FBF751
:104A4000E2FB3946FBF787FB824628462946FBF7FF
:104A5000DAFB01464FF07C50FBF7CFFB074686F0B0
:104A600000403146FBF7CFFB39468046FBF773FB2E
:104A70000146504601F0DEF9A06248463146FBF798
:104A8000C2FB074628465946FBF7BDFB01463846A0
:104A9000FBF7B3FB0146FBF75EFB01F039F98246F9
:104AA000E06248465946FBF7AEFB074628463146CA
:104AB000FBF7A9FB3946FBF74EFB054640464FF096
:104AC0007C51FBF748FB064658465946FBF79BFBD3
:104AD00001463046FBF791FB0146284601F0AAF952
:104AE0000146504621630121217042F6E161C4F282
:104AF0006521FBF788FB01B0BDE8F08F2DE9F04F91
:104B000081B040F2E804C2F20004207810B1A06A3B
:104B100061E000BFD4E9036BD4E901A530465946F2
:104B2000FBF771FB074650462946FBF76CFB3946FD
:104B3000FBF711FB804628462946FBF764FB01463C
:104B40004FF07C50FBF759FB074686F0004031469A
:104B5000FBF759FB39468146FBF7FDFA0146404613
:104B600001F068F98046A06250463146FBF74BFBE6
:104B7000074628465946FBF746FB01463846FBF7F1
:104B80003CFB0146FBF7E7FA01F0C2F8E062504651
:104B90005946FBF738FB074628463146FBF733FBFF
:104BA0003946FBF7D8FA054648464FF07C51FBF7EB
:104BB000D2FA064658465946FBF725FB01463046D1
:104BC000FBF71BFB0146284601F034F9014640463D
:104BD00021630121217042F6E161C4F26521FBF7F6
:104BE00012FB01B0BDE8F08FACB0FCF731FD002442
:104BF0000120CDE92544CDE92344209024904FF4B1
:104C0000E0104FF480310225299020A8CDE921142D
:104C1000CDE92751FCF7F6FE20B1EFF3108072B614
:104C2000FEE700BF0F20CDE91A054FF48060CDE903
:104C30001D041AA802211C94FCF7B2FD20B1EFF369
:104C4000108072B6FEE700BF4FF0000841F2180472
:104C5000CDE92288CDE92088C4F20204206840F61C
:104C6000004B40F0100020602068C4F2010B00F0FF
:104C700010001A901A9820680BF5806640F020000A
:104C8000206020684FF4005100F020001A901A981C
:104C90002068002240F00400206020684FF4005794
:104CA00000F004001A901A98206840F00800206074
:104CB000206800F008001A901A983046FCF7AEFC05
:104CC00058464FF430410022FCF7A8FCABF5806554
:104CD00028464FF410610022FCF7A0FC58464FF420
:104CE000487101224FF0010AFCF798FCCDE9207AC7
:104CF00020AF4FF0020930463946CDF88880CDF814
:104D00008C90FCF783FB4BF22000CDE9200A58463B
:104D10003946CDE92289FCF779FB4FF41060CDE9E3
:104D2000200A28463946CDE92289FCF76FFB4FF46B
:104D30004070CDE9200A0320239058463946CDF82B
:104D40008880FCF763FB54F8040C0E2140F001004E
:104D500044F8040C54F8040C002200F001002090E8
:104D600020980F20FCF7E0FC0F20FCF7CBFC40F272
:104D70001C14C2F200040BF53051204640F8041F09
:104D80004FF4E1310C22C0E90118C0E90388C0E901
:104D90000528C0F81C80FEF775FE28B1EFF31080DF
:104DA00072B600BFFEE700BF40F220400BF5105185
:104DB000C2F200004FF482724FF40073082780E8BB
:104DC00006010A21C0E90388C0E90583C761C0E97B
:104DD0000888C0E90A81FDF719F828B1EFF31080BF
:104DE00072B600BFFEE700BF40F2C0400021C2F231
:104DF00000004FF080424FF6FF73C0E9002101220E
:104E0000CDE91A11C0E9021301618161CDE92021C8
:104E1000CDE92221CDE92411CDE92621289120A92F
:104E2000FDF722FE20B1EFF3108072B6FEE700BF5F
:104E300040F2C040C2F200001AA9FDF717FC28B1E9
:104E4000EFF3108072B600BFFEE700BF40F20850DB
:104E50000021ABF58432C2F20000012340F60F6757
:104E60001D91CDE91B11CDE92A11CDE92511CDE91F
:104E70002311C0E90023C0E9021701618161FDF738
:104E800035FC28B1EFF3108072B600BFFEE700BF1B
:104E90004FF480501A9040F20850C2F200001AA954
:104EA000FDF712FD20B1EFF3108072B6FEE700BFF0
:104EB00040F20850C2F20000FEF710F920B1EFF303
:104EC000108072B6FEE700BF40F20850C2F2000048
:104ED0002AA9FDF7CBFB28B1EFF3108072B600BF13
:104EE000FEE700BF602020900020CDE92100249043
:104EF00040F20850C2F2000020A90822FDF7ECFFA2
:104F000020B1EFF3108072B6FEE700BF40F2085008
:104F1000C2F2000020A90C22FDF7DEFF20B1EFF362
:104F2000108072B6FEE700BF40F20855C2F20005DD
:104F300028460821FEF754F928460C21FEF750F9BF
:104F40002846FDF79BFF40F250500021ABF582321E
:104F5000C2F200004FF6FF73C0E900210122CDE943
:104F60001A11C0E9021301618161CDE92021CDE967
:104F70002221CDE92411CDE92621289120A9FDF790
:104F800073FD18B1EFF3108072B6FEE740F2505097
:104F9000C2F200001AA9FDF769FB18B1EFF3108007
:104FA00072B6FEE7FCF738F8584620210122D946B0
:104FB000FCF734FB58464FF400410122FCF72EFB6E
:104FC00098A000F0CDF958464FF400410022FCF7BC
:104FD00025FB97A000F0C4F958464FF40041012288
:104FE000FCF71CFB95A000F0BBF944F62060FCF731
:104FF0002DF840F29C55C2F200052846FBF77EFFD3
:10500000FBF7EAFD40F220412060C2F20001284691
:105010005A464FF40043FEF7DFFE92A18BA2002810
:1050200008BF1146084600F09BF940F25050C2F20A
:1050300000003C21FDF71AFE40F2C040C2F2000021
:105040003C21FDF713FED5E90806AD6AFBF78BFAA4
:10505000044630468846FBF786FA064628460F4641
:10506000FBF781FA029086A022464346CDE900670D
:10507000039100F075F940F21005C2F2000595E8C1
:105080000E002846FFF70AFC2E4656F8341FD5E9D5
:105090000E233046FFF702FCAA465AF8681FD5E9EE
:1050A0001B235046FFF7FAFB95E88101D5F838B08D
:1050B000FBF759FACDE918103846FBF754FACDE959
:1050C00016104046FBF74FFA159030681491FBF725
:1050D0004AFACDE912105846FBF745FA8046E86BCC
:1050E0001191FBF740FA0446DAF800008A46FBF714
:1050F0003AFA0746E86E0E46FBF735FA8346286F04
:105100000D46FBF730FACDE90E011798DDE91832AC
:1051100000901698119901901598CDE9084A0290CF
:105120001498CDE90A7603901398CDE90CB5049054
:1051300012980791CDE9050846F22E10C0F600003E
:1051400000F00EF90020C4F24820FEF75DFF0020B9
:105150002390CDE92100CDE91A0040F278400026E5
:1051600009F50051C2F200003123802741F61F42A9
:1051700080E84600C0E90336C0E90567FDF7B6FAE6
:1051800020B1EFF3108072B6FEE700BF4FF48050FD
:10519000209040F27840C2F2000020A9FDF794FB75
:1051A00020B1EFF3108072B6FEE700BF40F2784402
:1051B000C2F200041AA92046FDF758FA20B1EFF315
:1051C000108072B6FEE700BF20686FF00101016138
:1051D0002046FDF741FB18B1EFF3108072B6FEE7F1
:1051E000FCF722FA40F2C02AC2F2000A0FF2AC0821
:1051F000DAE91D05DAF86C60FBF7B5F907462846D1
:105200008946FBF7B0F9054630460C46FBF7ABF98B
:10521000029040463A464B46CDE90054039100F0D7
:105220009FF8E5E7435320484947480D0A0000002E
:105230004353204C4F570D0A0000000043532054A5
:1052400045535420444F4E450D0A00004D505539EA
:1052500032353020696E6974204641494C45440D11
:105260000A0000004D50553932353020696E69749E
:10527000205355434345535346554C0D0A000000F7
:105280004269617320583D252E326620593D252EF6
:105290003266205A3D252E32660A0000252E3266DF
:1052A0002C252E32662C252E32660D0A00000000B9
:1052B0002DE9F04F83B040F60048C4F201080D46D6
:1052C000044640464FF4004100220026FCF7A6F9B0
:1052D0008DF8094040F22044C2F200048DF80860C5
:1052E0002046FCF78FFD0528FAD040F22046C2F296
:1052F00000064FF4FA790DF1090102AA30460123A4
:10530000CDF80090FDF72EF840F29857C2F2000752
:105310004FF0000B0DF10B0A0DF10A04A7F800B0D5
:105320008DF80B508DF80AB03046FCF76BFD052860
:10533000FAD03046514622460123CDF80090FDF7C1
:1053400011F83888013081B281423880E8D1404676
:105350004FF400410122FCF761F903B0BDE8F08F82
:1053600083B010B5C1B0844643A801AC0EC043ABB6
:1053700020464FF480716246009300F015F82046F5
:10538000FAF7E2FE010409D082B240F22010C2F224
:10539000000001A94FF0FF33FEF750FC41B0BDE81B
:1053A000104003B0704700007CB50C001D46164647
:1053B000014601D0601E00E00020CDE90010064B40
:1053C0006A462946304600F001F9002C02D0009AC6
:1053D000002111707CBD0000FB5C00084100080248
:1053E00018BF04200A0E18BF40F001004FF07F42A2
:1053F00032EA010108BF40F00200012808BF052081
:1054000070470121FBF740B9FAF7A5BE0021084615
:10541000FAF72BBF6FF05E010807FBF735B902E022
:1054200008C8121F08C1002AFAD17047704700202F
:1054300001E001C1121F002AFBD170470149086039
:1054400070470000000000202DE9FF5F82B00021BE
:10545000DDE90430020DDDF840B0034318D044F616
:105460001050A2F2FF3242431514119801281FD0A8
:10547000A5EB0B00401C5FEA000A4FF000064E4F00
:10548000DFF83891B046504615D5CAF1000413E054
:10549000119801244AA3012801D16FEA0B01029857
:1054A000119AC0E90031C0E9024206B0BDE8F09FA0
:1054B000CBF10000DFE704460021404A491842EBE7
:1054C0000450CDE9001012E0E00707D032463B4619
:1054D00040464946FAF707FF8046894632463B4632
:1054E00010461946FAF7FFFE06460F466410002CD8
:1054F000EAD1DDE90401DDE90023BAF1000F06DAA3
:10550000FAF7F1FE42464B46FAF7EDFE05E0FAF7F0
:105510005CFF42464B46FAF758FF04460E4600220F
:10552000284BFBF709FA03D84FF0FF30014607E09C
:105530000022254B20463146FBF73EF9FBF7E3F905
:10554000102409E0002C0ADB0A220023FBF734F8C0
:10555000039B30321A55641E50EA0102F2D1641CDA
:10556000039AC4F111031444119A012A03D00122B1
:1055700008430DD10AE0084304D000204FF0110B7E
:10558000119072E7A3EB0B056D1E0DE05B4504DD8A
:105590004FF0000205F1010504E003DA4FF00002CC
:1055A000A5F10105002AECD002981199C0E9023159
:1055B000C0E9004579E70000000014400000F03F1A
:1055C000300000000000F0430000E03F2DE9FF4FF5
:1055D00095B09B468946064600250FE2252877D1DF
:1055E00000242746F84A0121059400E0044316F8F8
:1055F000013F203B01FA03F01042F7D130782A280E
:1056000011D06FF02F033078A0F13002092A16D89C
:10561000059A44F0020402EB820203EB42021044BA
:10562000761C0590EFE759F8042B0592002A03DA5F
:10563000504244F40054059044F00204761C307843
:105640002E2816D116F8010F44F004042A280DD094
:105650006FF02F023078A0F13003092B09D807EB47
:10566000870302EB4303C718761CF3E759F8047B62
:10567000761C30786C280FD006DC4C2817D06828B0
:105680000DD06A2814D104E0742810D07A280FD1E4
:105690000DE044F400140AE044F4801401E044F402
:1056A00040147278824202D104F58014761C761C74
:1056B000307866280BD013DC582877D009DC002816
:1056C00075D04528F6D04628F4D047281AD19DE158
:1056D00018E0632835D0642879D0652812D195E187
:1056E000702873D008DC6728F1D069286FD06E2845
:1056F0000DD06F2806D1B5E073282CD0752875D051
:10570000782874D05A46179990476D1C75E1C4F3F8
:105710000250022809D003280DD0D9F8001004281F
:105720000DD00D6009F1040967E1D9F80010EA17FE
:10573000C1E90052F6E7D9F800100D80F2E70D70CC
:10574000F0E719F8041B8DF8001000208DF8010017
:10575000EA46012003E059F804AB4FF0FF3061073F
:105760004FF0000102D40DE008F101018846B94272
:105770000FDA8045F8DB1AF808100029F4D108E0A8
:1057800008F1010188468142FADB1AF80810002965
:10579000F6D105985B46A0EB080721463846179AD4
:1057A00000F094FA284400EB080507E04DE029E1F9
:1057B0000DE01AF8010B5A4617999047B8F1010805
:1057C000F7D25B4621463846179A13E142E00A2297
:1057D0000092C4F302524FF0000A022A08D059F88E
:1057E00004CB032A4FEAEC710AD00DE029E02AE04D
:1057F00009F1070121F00702F2E802C1914609E030
:105800000FFA8CFC4FEAEC71042A03D14FFA8CFC9E
:105810004FEAEC71002907DA0A460021DCF1000C9E
:1058200061EB02012D2202E0220504D52B228DF826
:105830000420012203E0E20701D02022F7E790468E
:1058400059E00A2102E010220DE010214FF0000A79
:1058500000910BE010224FF0000A44F004040827E6
:10586000009203E008224FF0000A0092C4F30252B3
:10587000022A05D059F804CB0021032A08D009E0F8
:1058800009F1070121F00702F2E802C1914605E0A3
:105890001FFA8CFC042A01D10CF0FF0C4FF0000819
:1058A000220728D5702806D0009B83F0100353EA06
:1058B0000A0305D00EE040228DF80420012208E002
:1058C0005CEA010206D030228DF804208DF8050034
:1058D00002229046009B83F0080353EA0A030AD190
:1058E0005CEA010201D1620705D530228DF804205F
:1058F0004FF001087F1E582804D034A003900EA852
:1059000002900DE036A0F9E753466046009AFAF798
:1059100053FE84460398825C0298401E02900270F7
:105920005CEA0100F0D1029806A9081A00F1200AE9
:10593000600702D524F4803400E00127574502DDDA
:10594000A7EB0A0000E0002000EB0A010090059898
:105950004144401A0590E00306D45B462146179A5D
:10596000059800F0B3F90544002706E001A85A465F
:10597000C05D179990476D1C7F1C4745F6DBE0031F
:105980000CD55B462146179A059800F09FF905440F
:1059900004E030205A46179990476D1C0099481E24
:1059A00000900029F5DC08E0029802995A46007838
:1059B000491C0291179990476D1CBAF10001AAF198
:1059C000010AF1DC65E100000928010030313233C1
:1059D000343536373839616263646566000000002B
:1059E0003031323334353637383941424344454615
:1059F0000000000000F058F90544761C30780028BB
:105A00007FF4ECAD19B02846BDE8F08F620700D4F2
:105A1000062709F1070222F0070CFCE80223E14601
:105A200003F000485FEA080C02D00FF2702C0DE082
:105A30005FEA045C02D50FF2682C07E05FEAC47CE1
:105A400002D00FF2602C01E0AFF2700C4FF0FF3883
:105A500023F00043CDF850C065280CD006DC452863
:105A600009D046281DD047283DD13DE0662818D0F2
:105A700067287ED138E00021112F01DB112000E0E2
:105A8000781CCDE9000106A90EA8FFF7DDFCDDE9D1
:105A90000F010E9A03910021009207F1010A04916F
:105AA0004DE04FF000400097CDE9011006A90EA887
:105AB000FFF7CAFCDDE90F0203920E9B1199002249
:105AC000DDF80CA00093049211B9791C00EB010AD7
:105AD000B7EB0A0004D4C0F1FF3007F1010A0490CB
