:020000040800F2
:10000000183900209D0100088F420008433600087F
:100010008D420008CB100008455300080000000086
:1000200000000000000000000000000005010008C2
:10003000951600080000000049010008A9480008C2
:10004000B7010008B7010008B7010008B7010008B0
:10005000B7010008B7010008B7010008B7010008A0
:10006000B7010008B7010008B7010008B701000890
:10007000B7010008B7010008B7010008051600081D
:10008000B7010008B7010008B7010008B701000870
:10009000B7010008B7010008B7010008B701000860
:1000A000B701000825490008B7010008B70100089A
:1000B000B7010008B7010008B7010008B701000840
:1000C000B7010008B7010008B7010008B701000830
:1000D000B70100089D500008B7010008B7010008EB
:1000E000B7010008B7010008B7010008DFF810D019
:1000F00000F0F6FC0048004749620008AFF30080BA
:1001000018390020224B19680868B0E8F00F80F316
:100110000988BFF36F8F4FF0000080F311884EF015
:100120000D0E70470000000006480068006880F36C
:10013000088862B661B6BFF34F8FBFF36F8F00DFE1
:1001400000BF00BF08ED00E0EFF30980BFF36F8F41
:100150000F4B1A6820E9F00F106008B54FF05000FF
:1001600080F31188BFF34F8FBFF36F8F07F0E4F96F
:100170004FF0000080F31188BDE808401968086856
:10018000B0E8F00F80F30988BFF36F8F704700BFAE
:100190006C000020EFF305807047000006488047A0
:1001A00006480047FEE7FEE7FEE7FEE7FEE7FEE75C
:1001B000FEE7FEE7FEE7FEE721490008ED00000844
:1001C000202A04DB203A21FA02F00021704721FAAC
:1001D00002F3D040C2F12002914008431946704713
:1001E00040EA01039B0703D009E008C9121F08C0B9
:1001F000042AFAD203E011F8013B00F8013B521E39
:10020000F9D27047D2B201E000F8012B491EFBD2AF
:1002100070470022F6E710B513460A460446194611
:10022000FFF7F0FF204610BD30B505462A460B46C5
:1002300012F8010B13F8014B08B1A042F8D01CB121
:10024000002802D06D1CF1E7284630BDCAB2401E1E
:1002500010F8011F8A4202D00029F9D1002070470E
:10026000421C10F8011B0029FBD1801A704710B501
:10027000002200E0521C835C8C5CA34201D1002B65
:10028000F8D1D8B2E1B2401A10BDF0B480EA010250
:10029000D40F4200B2EB410F02D20246084611468B
:1002A0004A0042D0C30DDDB2C1F3C752AD1A202DB2
:1002B00035DAC1F3160141F4000204B15242C5F12E
:1002C000200602FA06F12A411044B3EBD05F23D096
:1002D000C4B1012DA0EBC35009DCF0BC4FF00042CB
:1002E00002EAC352DBB200F5000000F068BA400039
:1002F00000F1807000EBC350A0F1807040EAD17033
:10030000490009E0490841EAC071A0EBC35000F57B
:100310000000400800EBC350F0BC00F047BA614257
:10032000012202EB4101001BF6E7F0BC704781F0AF
:100330000041AAE780F00040A7E780EA010210B57B
:1003400002F00043400022D04A001FD0010E01EB12
:100350001261C0F35600C2F3560240F4000042F4AA
:100360000002A0FB022000047F39140400D0401CCE
:1003700050EA124001D44000491EC2B20C0604EB00
:10038000D010401C4008802A02D003E0002010BD9D
:1003900020F00100002900DA0020184310BD30B41D
:1003A00080EA010202F0004530F0004221F00040F6
:1003B00013D090B1C30DD40DC2F31601C0F31600D3
:1003C000E41A41F4000140F400027D34914201D36B
:1003D000641C00E04900002C02DA30BC00207047A9
:1003E0004FF400000023914201D3891A03434008CF
:1003F0004FEA4101F7D151B1914202D14FF0004192
:1004000005E002D24FF0010101E06FF0010103EBC2
:10041000C450284430BC00F0C9B9420005D0C0F334
:10042000C7525242914201DC0020704700EBC1509C
:1004300070472DE9FE4F81EA030404F0004421F0E7
:10044000004100944FF0000B23F0004350EA0104F8
:100450005ED052EA03045BD0C3F30A54C1F30A55D9
:100460002C44A4F2F3340194A0FB0254C1F3130111
:1004700041F48011C3F3130343F4801301FB0244DE
:1004800000FB034E840A970A44EA815447EA8357E3
:10049000A4FB076802958D0A05FB07854FEA932C9C
:1004A00004FB0C542705029D4FEA065847EA16370D
:1004B000B5EB08056EEB070C870E920E47EA811725
:1004C00042EA8312A7FB0201B6EB0B0164EB0004C6
:1004D0002B0D43EA0C335E1844EB1C50DA465146B0
:1004E000E7FB0201C5F313044FEA0B3343EA14534D
:1004F0004FEA0432019C43EA0603A4F10C0402947F
:10050000009CCDE900B400F0C6F903B0BDE8F08F5F
:1005100000200146F9E72DE9F04D81EA030404F0DB
:10052000004B21F0004514464FF0000A23F0004133
:1005300050EA050220D054EA01021DD0C5F30A5743
:100540000246C5F31303C1F31300C1F30A5640F486
:10055000801543F48013A7EB0608101BD64608F25B
:10056000FD3873EB050002D308F1010801E0921891
:100570005B41B8F1000F03DA00200146BDE8F08DC1
:1005800000204FF48011064684460EE0171B73EBE3
:10059000050705D3121B63EB050306434CEA010C68
:1005A00049084FEA300092185B4150EA0107EDD14B
:1005B00052EA030012D082EA040083EA05010843EC
:1005C00005D0101BAB4106D20122002306E0002219
:1005D0004FF0004302E06FF0010253101AEB0600E7
:1005E0004CEB085110EB0A0041EB0B01BDE8F04D5C
:1005F00000F042B970B521F0004303430CD0C1F3C1
:100600000A550024D5EB040564EB0403D617AD1A94
:10061000B34102DB0020014670BD201841EB0251BE
:1006200070BDC10F80EAE0700844CA07962300211C
:1006300000F0C5B896230022114600F0C0B80EB5F0
:10064000C10F80EAE0700844CA07002140F233433A
:100650008DE80E000A460B4600F01DF903B000BD00
:1006600000F0004220F00040C10DC0F3160040F43D
:1006700000007F2901DA00207047962903DCC1F1D0
:100680009601C84001E096398840002AF4D04042E3
:10069000704700F0004230F000400AD0C10D01F573
:1006A0006071C0F3160042EA0151C20840071143CD
:1006B000704700200146704701F0004330B421F03C
:1006C000004150EA010206D00A0DA2F56072C1F3A2
:1006D0001301002A02DC30BC00207047440F44EABA
:1006E000C104C100E01830BC00EBC25000F05EB89D
:1006F000002801DBC0F10040002901DBC1F100410D
:100700008842704730B50B46014600202022012464
:1007100009E021FA02F59D4205D303FA02F5491BCF
:1007200004FA02F52844151EA2F10102F1DC30BDE5
:100730002DE9F05F0546002092469B468846064616
:10074000814640241BE02846414647462246FFF7A3
:1007500037FD53465A46C01A914110D311461846E8
:10076000224600F0CFF92D1A67EB01084F462246CA
:100770000120002100F0C6F917EB00094E41201EB0
:10078000A4F10104DFDC484631462A464346BDE871
:10079000F09F7CB50023CDE900330546684600F0A4
:1007A000EEF96946284604F02AFE7CBD0029A8BF60
:1007B0007047401C490008BF20F00100704710B48A
:1007C000B0FA80FC00FA0CF050EA010404BF10BC3F
:1007D000704749B1CCF1200421FA04F411FA0CF16C
:1007E00018BF012121430843A3EB0C01CB1D4FEAA5
:1007F00000614FEA102042BF002010BC704700EBA0
:10080000C35010440029A4BF10BC7047401C4900CD
:1008100008BF20F0010010BC7047F0B4002802DCD3
:10082000F0BC00207047C0F3C751C0F3160040F47D
:100830000000CA0701D14000491E3F2202EB6105BA
:10084000002211464FF4000626FA01F31344D4188F
:10085000844201D8001B1A464000491C1729F3DDC9
:100860005100814202D24FF0FF3100E0002102EB43
:10087000C550F0BCFFF79ABF10B5141E73F1000409
:1008800008DA401C41F1000192185B411A4301D182
:1008900020F0010010BD2DE9F04D92469B4611B1AC
:1008A000B1FA81F202E0B0FA80F22032904600F014
:1008B00029F904460F4640EA0A0041EA0B01534673
:1008C0005A46084313D0114653EA010019D0C8F123
:1008D00040025046FFF774FC05460E465046594606
:1008E000424600F00FF9084305D0012004E02046FD
:1008F0003946BDE8F08D0020054346EAE0762C43FA
:1009000037430A986305E40AA0EB08000022FD0AB9
:1009100044EA47540A3002D500200146E9E70105C0
:1009200010196941DDE9084500196941BDE8F04D3C
:10093000A2E72DE9FE4F804681EA0300C00F0C4676
:10094000009021F0004123F00045B8EB0200A941DE
:1009500005D24046214690461C460B46024623F0EF
:100960000040104347D0270DC7F30A00C3F30A51D4
:100970000290401A019040286BDAC3F3130040F450
:10098000801B0098924620B10023D2EB030A63EB50
:100990000B0B01985946C0F14002504600F0B2F8E6
:1009A00006460D4650465946019A00F0BAF810EB3B
:1009B00008006141002487EA115284EAE7731A4370
:1009C00040D0009A62B3019A012A4FEA075215DC1F
:1009D000001B61EB02014FF0004202EA0752CDE931
:1009E0000042001C41F5801132462B46FFF753FFB1
:1009F00003B0BDE8F08F40462146F9E7001B61EBEC
:100A00000201001C41F5801300185B412018A2F57B
:100A1000001747EB030140EAD570B6196D4111E0AC
:100A20006D084FEA360645EAC0754FEA0752001BCB
:100A300061EB0201001C41F5801149084FEA3000CA
:100A40000019514132462B4603B0BDE8F04FFFF785
:100A500013BF0098012240000023D0EB020263EB99
:100A6000E073009821464FEAE074B8EB000061EBB8
:100A70000401E9E783F000435BE781F0004158E7B8
:100A8000C1F30A52C1F3130140F2FF3341F4801164
:100A90009A4202DA00200146704740F233439A42FC
:100AA000A2F2334202DC5242FFF78ABB00F02AB8BE
:100AB00030B5041E71F1000404DB4FF000444042E5
:100AC00064EB0101141E73F1000405DB1C464FF0BA
:100AD0000043524263EB0403994208BF904230BD89
:100AE000064C074D06E0E06840F0010394E807007B
:100AF00098471034AC42F6D3FFF7FCFA348500086F
:100B000054850008202A04DB203A00FA02F1002074
:100B100070479140C2F1200320FA03F3194390403B
:100B20007047202A06DBCB17203A41FA02F043EA4D
:100B3000E07306E041FA02F3D040C2F12002914096
:100B400008431946704700000FB4002300B589B070
:100B50000CA900910B996FF00042CB601E4B0693DD
:100B60001E4B07930423CDE901321D4A0892024629
:100B70006B46002000F0D0F809B05DF814FB70B5AA
:100B800086B006464FF0FF300091CDE9010100200C
:100B900015460C4604903246694604A8FFF7D4FF78
:100BA00002460498211825B108B1084600E0204605
:100BB0002860049800280DD0002A02DD00988842A1
:100BC00008D0081B0094CDE901043246694604A808
:100BD000FFF7BAFF06B070BD510F00086F0F000895
:100BE000E50B0008C0B24FF4F05100F0EBB9000083
:100BF0002DE9FF4F087883B09946FF2805D0491C9E
:100C00002D2804D00024002008E000200BE001245F
:100C1000F9E700EB800003EB4000491C0B78FF2B49
:100C2000F7D104B1404200230293147819461D46BF
:100C30002D2C01D02B2C04D1521C2D2C13D0002490
:100C40000294AA461478FF2C0FD00A25A3FB05783E
:100C500001FB05814FF0000C03FB0C11521CE31942
:100C60004AEB0101EEE70124EAE7814453EA01007F
:100C700002D019F5C87F06DA03980021C0E90011F7
:100C800007B0BDE8F08F0025AE4E2F46DFF8B882E2
:100C9000184600F0ABF9CDE90001B9F1000002DA25
:100CA000C9F1000400E004460023A74A1AEB030B35
:100CB00042EB045A12E0E00707D02A463346384692
:100CC0004146FFF7B6FB074688462A46334610469C
:100CD0001946FFF7AEFB05460E466410002CEAD11C
:100CE000DDE90001B9F1000F5A46534606DAFFF775
:100CF00012FC3A464346FFF70EFC05E0FFF799FB6E
:100D00003A464346FFF795FB029A0AB181F000414B
:100D1000039AC2E90001B3E72DE9FF4F1F468DB0EA
:100D2000D7E901464FF0FF382E2045464FF0000925
:100D30000B90B9696D1C0E988847396A82468847BE
:100D40000028F6D1BAF1FF3F0AD024F4D064002E77
:100D500011DDBAF12B0F08D0BAF12D0F0BD102E043
:100D6000404611B08DE744F48064B9696D1C0E985B
:100D700088478246761E6946600501D52D2000E031
:100D80002B208DF8000001F1010B0DF1200809E086
:100D9000B9696D1C0E98884782460F9844F4007418
:100DA000761E0560002E02DDBAF1300FF0D00B99EF
:100DB0008A453ED144F0800406E00F99681CA9F1F1
:100DC000010944F400740860B9696D1C761E0E9820
:100DD000884782463028F0D02BE00B998A4505D110
:100DE000200603D444F08004761E18E0504604F038
:100DF00045FC08B30DF11301761E44F400748B45D5
:100E000008D2AAF130000BF8010B200607D5A9F192
:100E1000010003E0200602D409F101008146A0058B
:100E200002D50F99681C0860B9696D1C0E98884737
:100E30008246002ED1DC53E0002E51DDBAF1650F61
:100E400002D0BAF1450F4BD1A00549D5B9696D1C47
:100E500024F44074761E0E9888478246002E0CDDDE
:100E60002B2804D0BAF12D0F07D144F48074B9694E
:100E70006D1C0E9888478246761EE00501D52D210F
:100E800000E02B2108F8011BCDF82C8021E00DF1AA
:100E90002901761E44F4007488450CD2AAF1300072
:100EA00010F0FF0088F8000002D10B99884509D99D
:100EB00008F1010806E0E00501D5244801E042F20E
:100EC0000F708146B9696D1C0E98884782460F984D
:100ED0000560002E04DD504604F0D0FB0028D6D17A
:100EE000F9690E988847FF208BF8000088F8000009
:100EF0000020069007904B466A4608A906A8FFF70F
:100F000077FEA00502D46FF001002AE714F0240F49
:100F10000AD0E00714D1DDE906123868031D3B60F2
:100F20000068C0E900120BE0DDE90601FFF7C4FB31
:100F30000146E00704D13868021D3A60006801608C
:100F400028460EE7000014400000F03FF1D8FFFFF4
:100F5000426842B1016811F8013B23B1521EC0E959
:100F60000012184670470121C160881E7047426810
:100F70005AB1C368016843B983688B4205D0491EE2
:100F8000521CC0E90012002070474FF0FF3070473C
:100F900030B5041E71F1000404DB4FF00044404200
:100FA00064EB0101141E73F1000405DB1C464FF0D5
:100FB0000043524263EB04038B4208BF824230BDC0
:100FC000002070477F2801D9002208E0064A02EB82
:100FD0005002C007127800D1120902F00F0201205E
:100FE00090400840704700001A8200080EB540F299
:100FF000334202920022CDE900221346FFF74BFC58
:1010000003B000BD30B58C1810F8012B12F00F039F
:1010100001D110F8013B120906D110F8012B03E0B1
:1010200010F8015B01F8015B5B1EF9D101E001F8EA
:10103000013B521EFBD1A142E6D3002030BD70B56A
:101040001546C1600446826A08461146FFF76FF9EB
:1010500001466061E069FFF718F9E061A169FFF7F7
:1010600047FBA06908D380F00040E169FFF740FB2F
:1010700003D2A06980F00040E0612946A068FFF734
:101080005CF90646E1696068FFF757F90546616952
:101090002068FFF752F92946FFF7F7F83146FFF7C6
:1010A00046F92062616AFFF723FB606A08D380F08B
:1010B0000040216AFFF71CFB03D2606A80F0004009
:1010C000206260692061206A70BDFEE72DE9F05F53
:1010D0000024A146CA460546D3460E46D8461DA062
:1010E00005F0A1FF002719E0284602F055FC688AA8
:1010F00060F30F04A88AE98A60F31F44404661F355
:101100000F00804600B221B2834489440AEB244A8E
:1011100044F6206000F0A8FA7F1CBFB2B742E3D3C8
:1011200099FBF6F49AFBF6F79BFBF6F633463A4644
:10113000214612A005F077FF2046FFF772FA2862D9
:101140003846FFF76EFA68623046FFF76AFAA8621F
:10115000BDE8F09F43616C6962726174696E6720DB
:101160004779726F20776974682025642073616DF8
:10117000706C65732E2E2E0D0A0000004779726F79
:101180002043616C6962726174696F6E20436F6D98
:10119000706C6574652E204269617365733A2058DE
:1011A0003D25642C20593D25642C205A3D25640D95
:1011B0000A000000004870474C3200202DE9F04F33
:1011C0008BB0834600F068FAFFF734FA8D4CC4F810
:1011D000CC00643400F06AFAFFF72CFA0546E066AA
:1011E000606CE064A06C2065A06D874F6065394637
:1011F000A06EFFF7A2F8DFF814824146FFF79DF8D2
:10120000DFF80CA25146FFF7CAF85946FFF7C7F8B6
:10121000DFF800924946FFF7C2F806466064394697
:101220002846FFF78AF84146FFF787F85146FFF74F
:10123000B6F85946FFF7B3F84946FFF7B0F8054648
:10124000A06431465846FFF778F8E16DFFF71DF8C6
:10125000E06529465846FFF770F8216EFFF715F84C
:10126000C4F894B02066A4F12C00054602F066FB99
:10127000284602F091FB284602F0CAFB684D674FF2
:10128000DFF894913946E868FFF757F80646494673
:10129000A069FFF752F83146FEF7F7FF8046E86095
:1012A00039462869FFF749F806464946E069FFF7DD
:1012B00044F83146FEF7E9FF064628613946686979
:1012C000FFF73BF807464946206AFFF736F83946EC
:1012D000FEF7DBFF0746686134F91A0CFFF7A1F946
:1012E00054F80C1CFFF723F8DFF838A15146FFF73C
:1012F00056F8814634F9180CFFF793F954F8081C96
:10130000FFF715F85146FFF74AF8054634F9160C71
:10131000FFF787F954F8041CFFF709F85146FFF767
:101320003EF80246434629464846CDE9006702F0AA
:10133000F5FD04F053FFA06704F060FFE06704F0E0
:101340006DFF606702F07EF9206754F8380CE16F9A
:1013500002F0E0FF54F83C0CA16F02F0DBFFD4E98F
:1013600011015034FEF791FF4FF0FF31FFF755F8B0
:10137000014654F8980C02F0CDFF606A02F062F961
:10138000014654F8840C02F0C5FFB4F93E00FFF7A3
:1013900048F9254D2946FFF702F8FFF77AF9029040
:1013A0008946B4F93C00FFF73CF92946FEF7F7FF00
:1013B000FFF76FF982468B46B4F93A00FFF731F92F
:1013C0002946FEF7ECFFFFF764F907468846206AD6
:1013D000FFF75FF905460E46E06AFFF75AF9CDE9D7
:1013E0000001A06AFFF755F9029ACDE908290B46DA
:1013F00002A9024681E8E00D0C4805F014FE0BB08E
:10140000BDE8F08F4C3200206F12033DDB0FC94066
:101410000000FA440000F041CDCC4C3ECDCC4C3F16
:10142000B00100206F128341E1FA5043BC840008F0
:1014300070B505466B48A0F5807460632830A062E3
:101440003030E06130302063303020623030606214
:101450003030A0F5CC76E0626348B0F80100A6F821
:101460007C0095E80700A063E1632264A889A4F8E2
:101470004400E889A4F84600288AA4F84800688A4D
:10148000A4F84A00A88AA4F84C00E88AA4F84E0000
:10149000288BA4F85000688BA4F85200A88BA4F8FD
:1014A000540004F15800482205F120011434FEF7DD
:1014B00097FEA86E3062002044F8140C44F8100C1B
:1014C00044F80C0C44F8080C44F8040C206047491C
:1014D000C4F8D010606084F8E80084F8E900C4F82B
:1014E0009400C4F89800C4F8A800C4F89C00C4F89C
:1014F000A000C4F8A400C4F8AC00C4F8B000C4F85C
:10150000B400C4F8B800C4F8BC00C4F8C000C4F803
:10151000C400C4F8C800C4F8CC00A4F8D400A4F8EF
:10152000D600A4F8D800A4F8DA00A4F8DC0030490A
:10153000A4F8DE00C4E938012E4963690A681A601C
:1015400063694A685A6063698A689A60626910626E
:101550006269506162691061626990626269D0601B
:10156000626990616369244A5A62626982F82D0057
:10157000A3680A6E1A60A3684A6E5A60A3688A6EEE
:101580009A601E4AA3689A61A3681D4A5A62A268BB
:101590001062A2685061A2681061A2689062A2689D
:1015A000D060A368022283F82D20E3690A6B1A60D9
:1015B000E3694A6B5A60E269896B9160E16988610D
:1015C000E1694862E1690862E1694861E1690861CD
:1015D000E1698862E169C860E169012081F82D0054
:1015E00070BD00004C330020B0010020333383C0B5
:1015F0000AD7A33CF000002000A00C4600803B4529
:101600000000F041014800F05DB90000B80400207E
:1016100030B590F840500124AC40C56B6C60046854
:1016200063604368102B036803D099600068C26050
:1016300030BD9A600068C16030BD000010B500F098
:10164000ABFD064908600648016841F08071016001
:101650000448016841F00101016010BD0000002054
:10166000FCED00E0001000E010B500280BD00649AA
:101670004A68064B064C1B68B3FBF4F343434868C7
:10168000801A9842FBD310BD001000E0000000203B
:1016900040420F007047000003480068416A002282
:1016A000426208B2704700002C0300200348006823
:1016B000416A0022426208B270470000BC03002069
:1016C00072B6FEE706490020C8610648016941F08C
:1016D00004010161016941F04001016170470000AE
:1016E0004805002000200240064A0021D161064939
:1016F0000A6942F002020A614861086940F040004C
:10170000086170474805002000200240044B002279
:10171000DA61044A136943F00103136101807047E1
:10172000480500200020024014480022C168CB0672
:10173000134904D5CA6942F00202CA611022C36883
:101740005B0705D5CB6943F00103CB6142F004028E
:10175000C369DB0707D0CB6943F00403CB61C169E0
:1017600021F00101C161A2F58071013901D0C2608F
:101770007047C16921F00101C1617047002002403A
:101780004805002070B5054600F066FB0646114C82
:1017900009E0681C07D025B100F05EFB801BA84261
:1017A00001D9032070BDE068C007F2D1E06880066F
:1017B00001D52020E060E068C00605D4E069C007DC
:1017C00002D1E068400703D5FFF7AEFF012070BDEE
:1017D000002070BD002002400148FFF7EFBC000070
:1017E0000AD7A33C10B590F821100022022905D099
:1017F0000421816380F82020012010BD01680B685E
:1018000023F00E030B6001680B6823F001030B60EB
:1018100090F84030C46B012101FA03F3636080F853
:10182000211080F82020104610BD000010B590F85F
:1018300021100024022903D00421816301243DE00A
:1018400001680A6822F00E020A6001680A6822F044
:1018500001020A601A4A0168914201D1012121E086
:10186000174A1432914201D110211BE0144A283248
:10187000914201D1891515E0114A3C32914201D1C2
:1018800089140FE00E4A5032914202D14FF4803158
:1018900008E00B4A6432914202D14FF4801101E01A
:1018A0004FF08071064A083A5160012180F82110FA
:1018B000002180F82010416B01B18847204610BDFF
:1018C000080002402DE9F05FC16B0C6801680B68ED
:1018D000D0F840C0042202FA0CF2494DDFF824A1EE
:1018E000494E4A4FDFF828B1DFF828E122422CD0D8
:1018F0005A072AD50A68920603D40A6822F004021D
:101900000A600168A94201D1042219E0514501D1C0
:10191000402215E0B14202D14FF4806210E0B9429A
:1019200002D14FF480420BE0594502D14FF480229E
:1019300006E0714502D14FF4800201E04FF0806271
:101940002F4908394A60C16A3BE04FF0020808FAA3
:101950000CF818EA040F4FF000094FF0010235D0DF
:101960005FEA837832D50B689B0605D40B6823F0B9
:101970000A030B6080F821200168A94201D10222EC
:1019800019E0514501D1202215E0B14202D14FF4B6
:10199000007210E0B94202D14FF400520BE05945F9
:1019A00002D14FF4003206E0714502D14FF400122B
:1019B00001E04FF00072124908394A6080F8209027
:1019C000816A00291AD0BDE8F05F0847082505FAAA
:1019D0000CF5254212D01B0710D50B6823F00E031F
:1019E0000B6090F84010C36B02FA01F159608263FA
:1019F00080F8212080F82090016BE2E7BDE8F09F9D
:101A0000080002401C000240300002404400024036
:101A1000580002406C00024030B528B308C8134992
:101A200014221944B1FBF2F18900C16310498163AA
:101A3000022141771A6843F6F0718A43D0E9001415
:101A40002143D0E902452C432143046921434469E1
:101A5000214384692143114319600021416301221C
:101A600042770177084630BD012030BDF8FFFDBF49
:101A70000000024070B5044690F8200000250128BF
:101A80000CD0012084F8200094F821600020012E61
:101A900006D084F820000225284670BD022070BDC3
:101AA000022684F82160A0632068066826F00106FB
:101AB00006602046FFF7ACFDE06A00282068016858
:101AC00002D041F00E0106E021F00401016020681F
:101AD000016841F00A0101602068016841F00101DC
:101AE0000160D9E770B5044600F0B6F90546601C00
:101AF00002D004480078044400F0AEF9401BA04234
:101B0000FAD370BD5C0000202DE9F0470546264859
:101B10000F460126017E01290FD001218146017661
:101B20002868DFF888804CF25034022808D0A2469A
:101B30002046FFF727FEA8B131E00220BDE8F0877C
:101B40002046FFF71FFE08BB0120FFF7BBFD204624
:101B5000FFF718FED8F81010064621F00401C8F867
:101B600010101CE04FF0FF303860AC6811E02046E8
:101B7000FFF7BAFD5046FFF705FED8F81010060033
:101B800021F00201C8F8101001D03C6007E004F514
:101B90008064D5E9020100EB8120A042E7D8002152
:101BA00089F818103046C9E7480500200020024097
:101BB0000348016941F08001016100207047000085
:101BC000002002402DE9F05F07461C4888460024AB
:101BD000017E15461E46012909D001218146017664
:101BE0004CF2503A5046FFF7CDFD18B122E00220EA
:101BF000BDE8F09F012F02D0022F00D00427D3466A
:101C0000DFF83CA0220128463146FEF7D9FA81B21E
:101C100008EB4400FFF77AFD5846FFF7B3FDDAF80A
:101C2000102022F00102CAF8102018B9641CE4B296
:101C3000BC42E7D3002289F81820D9E748050020E4
:101C400000200240064900200A69120607D5054A0D
:101C50004A60054A4A600969090600D501207047B3
:101C60000020024023016745AB89EFCD2DE9F84FF5
:101C7000DFF8B8910024A9F1040B23460F2709F1DE
:101C8000040AABF1040EC9E00125A5402A40AA428E
:101C90007DD1674ED1F804C0ACEB0608B44532D014
:101CA00014DCBCF1030F3AD009DCBCF1000F2AD0E0
:101CB000BCF1010F1CD0BCF1020F31D11DE0BCF111
:101CC000110F17D0BCF1120F2AD119E0B8F5881FF7
:101CD00019D006DCB8F5803F15D0B8F5801F1FD1AC
:101CE00011E0B8F5001F0ED0B8F5041F18D10AE0B6
:101CF000CB6815E0CB681B1D12E0CB6808330FE002
:101D0000CB680C330CE08B682BB1012B4FF0080330
:101D100003D0456104E0042302E0056100E00023F4
:101D2000FF2A01D8064601E000F104064FEA8405C7
:101D300001D9A5F12005D6F8008007FA05FC28EAAC
:101D40000C0803FA05F548EA0508C6F800804D6856
:101D5000ED0062D5374DAE6946F00106AE61AD6962
:101D600024F0030605F001050095334D06EB050C44
:101D7000DCF80850A607360F07FA06F825EA08052A
:101D8000DFF8B880404503D14FF0000817E044E089
:101D9000DFF8AC80404502D14FF001080FE0DFF8DA
:101DA000A480404502D14FF0020808E0DFF8988097
:101DB000404502D14FF0030801E04FF0040808FA53
:101DC00006F848EA0508CCF808804D68D9F80060A4
:101DD000ED024D4601D5164300E096432E604D6856
:101DE000DAF80060AD02554601D5164300E096438F
:101DF0002E604D68DBF80060AD035D4601D51643EB
:101E000000E096432E604D68DEF80060ED037546F5
:101E100001D5164300E096432E60641C0D682A46E7
:101E2000E5407FF431AFBDE8F88F000008040140C1
:101E300000001110001002400000014000080140A5
:101E4000000C014000100140001401400AB1016182
:101E500070470904FBE700000148806870470000F4
:101E60005C0000200248816802781144816070475C
:101E70005C000020074810B5016841F010010160C6
:101E8000032000F0A1F80F2000F006F800F04AF857
:101E9000002010BD0020024030B505461C4887B028
:101EA000816941F400618161806906A900F40060E4
:101EB000009001A800F030F900F05EF91549164ACB
:101EC000B0FBF1F11548491E0260416040F2E73273
:101ED0000021C0E903218160816100F033FE04002C
:101EE00012D10E4800F070FE04000DD1192000F050
:101EF0003DF8102D07D200222946192000F044F8A1
:101F00000748056000E0012407B0204630BD00000E
:101F10000010024040420F00002C0140FC04002051
:101F2000600000200F4808B5816941F0010181611E
:101F3000816901F001010091C16941F08051C161E5
:101F4000C069002200F0805000900F21901E00F028
:101F50001BF80548416821F0E06141F000714160E3
:101F600008BD00000010024000000140002809DB0D
:101F700000F01F02012191404009800000F1E020A3
:101F8000C0F8001170470000F0B40E4B1B680C46FF
:101F9000C3F30223C3F10705042D00D90425191D3D
:101FA000072901D2002300E0DB1E012606FA05F115
:101FB000491E214099409E40761E16403143F0BC98
:101FC00003F0FFB90CED00E0064900F007020868D5
:101FD0004FF6FF03184040EA0220034A104308600E
:101FE000704700000CED00E00000FA052DE9F04715
:101FF0000F46050061D0434E306800F00700B8423C
:1020000009D2306820F0070038433060306800F0B3
:102010000700B84251D128683B4C810712D54007D0
:1020200003D5606840F4E06060602878000703D55D
:10203000606840F4605060606068A96820F0F0005B
:10204000084360602878C00728D06868012810D04D
:102050002168022810D0890700292EDA616821F052
:10206000030101436160FFF7F7FE804641F28839C2
:102070000DE021688903EFE78901EDE7FFF7ECFE4A
:10208000A0EB0801494502D90320BDE8F08760684C
:10209000696800F00C00B0EB810FEFD1306800F000
:1020A0000700B8420BD9306820F007003843306091
:1020B000306800F00700B84201D00120E5E7287839
:1020C000400705D56068E96820F4E0600843606077
:1020D0002878000706D56068296920F4605040EA36
:1020E000C100606000F058F86168084AC1F303114C
:1020F000515CC8400649086006480068FFF7CCFEFE
:102100000020C2E7002002400010024002820008C6
:1021100068000020600000200F2202600C4A536813
:1021200003F003034360536803F0F00383605368D4
:1021300003F4E063C36052684FF4E06303EAD20241
:1021400002610448006800F0070008607047000062
:102150000010024000200240044805490068496818
:10216000044AC1F30221515CC84070476800002056
:1021700000100240128200080448054900684968BE
:10218000044AC1F3C221515CC84070476800002076
:1021900000100240128200080E4A51680E4801F0F9
:1021A0000C03042B11D0082B0FD10C48C1F383432F
:1021B000C903C05C0AD55168084AC1F34041921E68
:1021C000515C054A5043B0FBF1F070470449484365
:1021D000704700000010024000127A00F2810008EF
:1021E00000093D002DE9F84F040070D02078C04D63
:1021F000C00749D06868C0F38100012807D068682B
:10220000C0F38100022809D16868C00306D5286898
:10221000800339D560680028E7D035E06068B0F504
:10222000803F0BD010B1B0F5A02F11D0286820F45A
:1022300080302860286820F4802002E0286840F47C
:1022400080302860606890B1FFF706FE06460AE01D
:10225000286840F480202860F0E700BFFFF7FCFD0D
:10226000801B642873D828688003F7D50CE0FFF73B
:10227000F3FD064605E000BFFFF7EEFD801B642876
:10228000F0D828688003F7D420789A4E80074FF062
:1022900001094FF0000839D5686810F00C0F07D01D
:1022A0006868C0F38100022809D16868C00306D4B9
:1022B0002868800714D52069012808D110E020691A
:1022C000B0B1C6F80090FFF7C7FD074605E00AE188
:1022D000FFF7C2FDC01B0228C4D828688007F7D5C5
:1022E0002868616920F0F80040EAC10028600DE02C
:1022F000C6F80080FFF7B0FD074604E0FFF7ACFD2D
:10230000C01B022823D828688007F7D4207800074C
:102310002CD57948A169D9B1C0F80090FFF79CFD90
:10232000074604E0FFF798FDC01B02280FD8686A33
:102330008007F7D571484FF4FA510068B0FBF1F00F
:10234000009000BF0098411E0091FAD20EE080E09C
:10235000C0F80080FFF780FD074604E0FFF77CFD32
:10236000C01B022875D8686A8007F7D42078400718
:1023700060D5E8690027C00008D4E86940F08050C3
:10238000E861E869012700F0805000905C4801682E
:10239000C90513D40168834641F480710160FFF7D9
:1023A0005BFD824606E000BFFFF756FDA0EB0A008A
:1023B00064284ED8DBF80000C005F5D5E068012898
:1023C0000AD008B1052813D0286A20F0010028623D
:1023D000286A20F0040002E0286A40F00100286228
:1023E000E06841F2883B98B1FFF736FD82460BE08A
:1023F000286A40F004002862EEE700BFFFF72CFDDA
:10240000A0EB0A0159455AD8286A8007F6D50CE096
:10241000FFF722FD824605E0FFF71EFDA0EB0A0153
:1024200059454CD8286A8007F6D41FB1E86920F0D6
:102430008050E861E06988B36968C1F381010229CD
:1024400044D00228C6F8608004D0FFF705FD04469A
:1024500038E034E0FFF700FD074604E0FFF7FCFC3E
:10246000C01B02282BD828688001F7D4206AB0F559
:10247000803F05D16868A16820F400300843686097
:10248000D4E908010843696821F4741108436860BD
:10249000C6F86090FFF7E0FC044606E025E000BFC8
:1024A000FFF7DAFC001B022809D828688001F7D55D
:1024B0001BE000BFFFF7D0FC001B022802D903205D
:1024C000BDE8F88F28688001F4D40EE00128F7D029
:1024D0006868226A00F48031914204D1616A00F494
:1024E0007010884201D00120EAE70020E8E70000F0
:1024F0000010024000004242800442426800002076
:102500000070004090F85100704770B5040009D089
:10251000606A002540B125616561A56294F85100AB
:1025200040B10CE0012070BD6068B0F5827FF4D04E
:10253000E561F2E784F85050204600F03FF80220B1
:1025400084F851002068016821F040010160A088F2
:10255000218900F4827001F404410843A18901F447
:1025600000610843217C01F002010843217D01F054
:1025700001010843218B01F400710843217F01F020
:102580003801084394F8201001F080010843218DA0
:1025900001F40051084321680860A069042101EAA0
:1025A0001040216848602068C16921F40061C16160
:1025B0006565012084F85100002070BD30B585B0FC
:1025C0000024009401940294039400681449884202
:1025D00023D11448816941F480518161816901F4FA
:1025E00080510491816941F00401816180690E4D3F
:1025F00000F004000490A02000900220019003202D
:10260000039069462846FFF731FB4020CDE90004DE
:10261000694628460294FFF729FB05B030BD00004B
:102620000030014000100240000801402DE9F84F41
:10263000044690F851001D4616460F46012838D131
:1026400060684FF00408B0F5827F01D1A06830B314
:10265000FFF702FC8246002F75D0002E73D094F84D
:102660005000012825D04FF0010984F8509084F8DB
:1026700051804FF00008C4F85480A763A687E6870E
:10268000C4F83080A4F83480A4F83680C4F84080C0
:10269000C4F84480A068B0F5004F0CD015E084F871
:1026A0005180009313460A46204600F01CF9BDE80D
:1026B000F88F0220FBE72068016821F040010160EB
:1026C0002068016821F480410160206801684906A2
:1026D00003D4016841F040010160E068C0B134E01A
:1026E00020688168C90709D0007BA16B0870A06BC6
:1026F000401CA063E08F401EE08709E0FFF7ACFBC1
:10270000A0EB0A00A84202D3681C01D032E085B3D6
:10271000E08F0028E4D11BE020688168C90709D058
:10272000C068A16B0880A06B801CA063E08F401E76
:10273000E0870AE0FFF790FBA0EB0A00A84203D372
:10274000681C02D016E012E09DB1E08F0028E3D1B2
:1027500052462946204601F029FE08B12020606536
:1027600084F8519084F85080606D00289FD001203B
:102770009DE7FFE784F8519084F85080032096E7A6
:102780002DE9F84F984616468A460446FFF764FB43
:10279000814694F8510001281ED1BAF1000F73D080
:1027A000002E71D094F85000012815D0012784F82C
:1027B0005070032084F8510000256565C4F830A0EE
:1027C000A686E686A563A587E58765642564A06877
:1027D000B0F5004F03D00CE00220BDE8F88F206870
:1027E000016821F0400101602068016841F48041E6
:1027F000016020680168490603D4016841F0400186
:102800000160E068B0F5006F606803D048B3012E46
:1028100027D047E008B1012E1FD1206B2168008826
:10282000C86006E020688168890709D5216B09889E
:10283000C160206B801C2063E08E401EE0860CE0AF
:10284000FFF70AFBA0EB0901414503D3B8F1FF3FB5
:1028500003D035E0B8F1000F32D0E08E0028E1D18E
:1028600023E0206B21680078087306E02068816807
:1028700089070AD5216B09780173206B401C2063FE
:10288000E08E401EE0860DE02BE0FFF7E5FAA0EBBE
:102890000901414503D3B8F1FF3F03D010E0B8F17F
:1028A000000F0DD0E08E0028E0D14A464146204678
:1028B00001F0AAFD08B120206065A06830B109E0F0
:1028C00084F8517084F85050032086E72068C1686E
:1028D0008068009084F8517004F8505F60680028A8
:1028E000F3D0012079E72DE9FF4F81B01D469346D3
:1028F00004464FF001090E9EFFF7AEFA074694F822
:1029000051006168012806D0B1F5827F3CD1A168F1
:10291000C9BB042838D10298002871D0BBF1000F40
:10292000FBD0002DF9D094F8500001282CD04FF0A6
:10293000010A84F850A094F85100042802D0052020
:1029400084F851004FF00008C4F85480C4F838B03F
:10295000E587A58702992163E586A586C4F84080AE
:10296000C4F8448020680168490603D4016841F036
:1029700040010160E068B0F5006F606808D0F0B316
:10298000012D49D081E0FFE7022005B0BDE8F08FBE
:1029900008B1012D39D1206B21680088C860206BF7
:1029A000801C2063E08E401EE0862EE02068816857
:1029B00089070FD5E18E69B1B9F1010F0AD1216BF9
:1029C0000988C160206B801C2063E08E401EE08679
:1029D0004FF0000920688168C9070CD0E18F51B120
:1029E000C068A16B0880A06B801CA063E08F401EB4
:1029F000E0874FF00109FFF72FFAC01B01E00BE061
:102A000067E0B04201D3701C50D1E08E0028CDD1D8
:102A1000E08F0028CAD13EE0206B2168007808735F
:102A2000206B401C2063E08E401EE0862DE0206875
:102A3000816889070FD5E18E69B1B9F1010F0AD11B
:102A4000216B09780173206B401C2063E08E401ECF
:102A5000E0864FF0000920688168C9070CD0E18F3B
:102A600051B1C068A16B0870A06B401CA063E08FDF
:102A7000401EE0874FF00109FFF7EEF9C01BB0429E
:102A800002D3701C01D011E086B1E08E0028CED1B7
:102A9000E08F0028CBD13A463146204601F0B4FC05
:102AA00050B12020606584F8508012E084F851A075
:102AB00084F85080032068E7A06818B92068C168CE
:102AC0008068009084F851A084F85080606D0028E0
:102AD000F1D0012059E770477047000070B590F8B9
:102AE0003C20012A26D0012480F83C40022280F8B4
:102AF0003D2003685A689D6822F070060A683243D8
:102B00005A600D4B02689A4208D0B2F1804F05D04E
:102B10000A4B9A4202D00A4B9A4204D1496825F0E6
:102B200080031943916080F83D40002180F83C10FB
:102B3000084670BD022070BD002C0140000400401A
:102B40000008004010B5040003D094F83D0010B117
:102B500007E0012010BD002084F83C00204600F072
:102B60001FF8022084F83D00211D206801F0E0FEDE
:102B7000012084F8460084F83E0084F83F0084F881
:102B8000400084F8410084F8420084F8430084F84F
:102B9000440084F8450084F83D00002010BD00008A
:102BA00008B500680649884208D10648C16941F065
:102BB0000201C161C06900F00200009008BD000080
:102BC000000400400010024090F83D10012901D09F
:102BD00001207047022180F83D100168CA6842F068
:102BE0000102CA6000680B49884208D0B0F1804FEA
:102BF00005D00949884202D00849884204D1816839
:102C000001F00701062903D0016841F001010160CC
:102C100000207047002C01400004004000080040E4
:102C200070B5044690F83C000025012817D0012615
:102C300084F83C60022084F83D002068826822F01D
:102C4000770222F47F4282600868502838D00DDC79
:102C500020284FD005DC90B3102811D14AE0022083
:102C600070BD302846D040280AD13BE060282FD0E4
:102C700070280DD0B0F5805F03D0B0F5005F12D0A2
:102C8000012584F83D60002084F83C00284670BD92
:102C9000CB68D1E90121206801F093FE20688168AA
:102CA00041F0770109E0CB68D1E90121206801F00A
:102CB00088FE2068816841F480418160E1E719E085
:102CC000CA684968206801F031FF5021206806E099
:102CD000CA684968206801F03AFF6021206801F065
:102CE0007AFECEE7CA684968206801F01FFF4021DC
:102CF0002068F4E7226801461046F0E72DE9F0412C
:102D00000D46040003D094F83D0018B108E00120FE
:102D1000BDE8F081002084F83C00204600F040F837
:102D2000022084F83D002068816844F20702914344
:102D30008160211D206801F0FBFD22689068916987
:102D4000166A2B68AF69034340F20330814341EABE
:102D50000721A868EF6908434FF6FC418843E968FA
:102D600040EA0720014328692F6A000140EA073042
:102D7000084369686D6926F0220646EA051529436D
:102D800093602268906154F8460B0162012004F8B8
:102D90001F09E0752076E0762077A0750020B7E760
:102DA00000B585B000210091019102910391016865
:102DB0001A48B1F1804F1BD0194A914216D1C1690E
:102DC00041F00401C161C16901F00401049181690C
:102DD00041F0080181618069694600F008000490B3
:102DE000C02000900F4800BFFEF740FF05B000BDB7
:102DF000C16941F00101C161C16901F001010491A2
:102E0000816941F0040181618069694600F0040034
:102E10000490032000900448E6E700000010024000
:102E200000080040000C01400008014070472DE9F7
:102E3000F04104460068C66805694FF00007A9071D
:102E400013D5B10711D5F91E016101202077206843
:102E500080698007204602D0FFF7E8FF04E000F019
:102E6000A5F8204600F037F92777680716D57007D0
:102E700014D521686FF004000861022020772068D3
:102E8000806910F4407F204602D0FFF7CFFF04E0B6
:102E900000F08CF8204600F01EF92777280715D59A
:102EA000300713D521686FF00800086104202077EF
:102EB0002068C0698007204602D0FFF7B7FF04E012
:102EC00000F074F8204600F006F92777E80616D5DA
:102ED000F00614D521686FF01000086108202077F3
:102EE0002068C06910F4407F204602D0FFF79EFFA3
:102EF00004E000F05BF8204600F0EDF82777E807E3
:102F000008D0F00706D021686FF001000861204664
:102F100000F030F9280608D5300606D521686FF094
:102F2000800008612046FFF7D6FD680608D57006C8
:102F300006D521686FF040000861204600F024F9B2
:102F4000A8060AD5B00608D521686FF020000861F0
:102F50002046BDE8F041FFF7BFBDBDE8F0810000AD
:102F600000B585B0002100910191029103910068A4
:102F70000B49884211D10B48816941F008018161F8
:102F80008069694600F00800049003200090022048
:102F9000019003900448FEF769FE05B000BD0000F3
:102FA0000004004000100240000C0140704770B562
:102FB000044690F83C0000260D4601280FD0012061
:102FC00084F83C006AB1042A1DD0082A2FD00C2AAC
:102FD0003FD00126002084F83C00304670BD02201E
:102FE00070BD206801F000FD2068816941F0080192
:102FF00081612068816921F0040181612068816913
:103000002A69114311E0206801F016FD20688169EA
:1030100041F4006181612068816921F480618161EE
:10302000206881692A6941EA02218161D2E720682A
:1030300001F02EFD2068C16941F00801C1612068DE
:10304000C16921F00401C1612068C1692A69114385
:1030500011E0206801F048FD2068C16941F4006179
:10306000C1612068C16921F48061C1612068C169C2
:103070002A6941EA0221C161ACE710B5040003D01E
:1030800094F83D0010B107E0012010BD002084F845
:103090003C00204600F01EF8022084F83D00211D6F
:1030A000206801F045FC012084F8460084F83E00C9
:1030B00084F83F0084F8400084F8410084F842001E
:1030C00084F8430084F8440084F8450084F83D0007
:1030D000002010BD7047704710B50446022249B168
:1030E00004290ED0082913D094F84100012816D0E5
:1030F000012010BD94F83E000128F9D184F83E204B
:103100000FE094F83F000128F2D184F83F2008E056
:1031100094F840000128EBD184F8402001E084F8C5
:1031200041200122206801F03FFC0F4920688842BD
:1031300003D1426C42F4004242642068884208D0C5
:10314000B0F1804F05D00949884202D00849884231
:1031500004D1816801F00701062903D0016841F01C
:1031600001010160002010BD002C0140000400405E
:103170000008004000680349884201D1FEF772BE92
:1031800070470000002C01407047704710B504469E
:103190000068406994F84110C0F3C010212911D192
:1031A00080B12068143050E8001F21F0800140E811
:1031B0000012002AF5D1A06B08B1FEF713FB2046E0
:1031C00001F01EFE2068406994F84210C0F38010A0
:1031D000222911D180B12068143050E8001F21F05D
:1031E000400140E80012002AF5D1E06B08B1FEF77B
:1031F000F9FA204601F0DDFD002010BD7047000007
:10320000F8B5016804460868CA684B6910F00F0FEA
:103210004FF0000559D003F0010602F490773743D0
:1032200065D0C10705D0D10503D5616C41F001011E
:103230006164410705D5D90703D0616C41F00201F3
:103240006164810705D5D90703D0616C41F00401A1
:103250006164010707D502F02001314303D0616C9E
:1032600041F008016164616C00293AD0800604D500
:10327000900602D5204601F0D1FD20684069616CBE
:10328000C0F38010090700D460B3204601F091FD1F
:1032900020684069400621D52068143050E8001F9E
:1032A00021F0400140E80012002AF5D1E06BA8B1FE
:1032B0006D494163E06BFEF7B9FA002811D0E06B6D
:1032C000416B01B0BDE8F040084783060FD5930677
:1032D0000DD52046BDE8F84001F0A0BD2046FFF71F
:1032E0008DFFF8BD2046FFF789FF6564F8BD266BAA
:1032F0002023012E7CD1C6067AD5D60678D508685B
:103300004868009048694FF00206400640D5E16BDE
:10331000086840680004000CE8D0A28D8242E5D91C
:10332000E085886920282DD020680C3050E8001FE7
:1033300021F4807140E80012002AF5D12068143091
:1033400050E8001F21F0010140E80012002AF5D1E9
:103350002068143050E8001F21F0400140E80012BE
:10336000002AF5D184F84230256320680C3050E8FB
:10337000001F21F0100140E80012002AF5D1E06B97
:10338000FEF730FA6663A08DE18D401A81B22AE023
:10339000A08DE18D401A81B2E08D0028A6D00029D1
:1033A000A4D022680C3252E8000F20F4907042E85A
:1033B0000007002FF5D12068143050E8002F22F0CC
:1033C000010240E80027002FF5D184F84230256340
:1033D00020680C3050E8002F22F0100240E8002353
:1033E000002BF5D166632046FFF7CFFEF8BDFFE75F
:1033F00005062BD5150629D594F841002128F5D1CD
:10340000A068B0F5805F01D12069B0B1206A411C8D
:103410002162216800784860E08C401E0004000CA6
:10342000E084E3D12068C16821F08001C160206898
:10343000C16841F04001C160D8E7206A0088C0F34C
:1034400008004860206A801C2062E5E74006CDD570
:103450005006CBD5CA68204622F04002CA6084F8E4
:10346000413000F0EDF8C1E7B54C000870B504003C
:1034700004D094F84100002510B106E0012070BD91
:1034800084F84050204600F023F8242084F84100BE
:103490002068C16821F40051C160204601F020FD80
:1034A0002068016921F4904101612068416921F09F
:1034B0002A0141612068C16841F40051C16065641E
:1034C000202084F8410084F842006563002070BD2C
:1034D00070B586B0002506460095019502950395C6
:1034E0000068224988423FD12149886940F48040E0
:1034F0008861886900F480400490886940F0040085
:10350000886188691B4C00F0040004904815009005
:10351000022001900320039069462046FEF7A6FB97
:103520002015CDE90005694620460295FEF79EFB71
:10353000124C1148C4E900058020C4E902502561FD
:1035400040016561C4E906502046FEF765FA08B1FE
:10355000FEF7B6F8F46300220E2125206662FEF71E
:1035600013FD2520FEF702FD06B070BD00380140B6
:10357000001002400008014058000240B80400203A
:1035800090F84230202B01D00220704721B11AB1AF
:103590000023036301F000BD0120704770477047AE
:1035A0002DE9F843044690F84100984616460D462A
:1035B000202802D00220BDE8F88385B17EB100202A
:1035C0006064212084F84100FEF746FCA684814611
:1035D000E684A0682027B0F5805F02D003E00120D8
:1035E000E9E7206910B12E4600250EE000260CE028
:1035F0008021204601F018FDA8B9C6B116F8010BCC
:1036000021684860E08C401EE084E08C4B464FF01F
:103610000002CDF800800028EAD14FF0400120469A
:1036200001F002FD40B184F841700320C3E735F892
:10363000020BC0F30800E3E784F841700020BAE70A
:103640007047FEE770B5124C0546207820B1002087
:10365000A5602070284670BD2846A168FCF767FE6B
:103660000B4A0C495268884201DD521E03E00A49A8
:10367000884201D9521C6260A56060684FF4B47141
:103680004843FCF7CEFF2946BDE87040FCF7FDBD7E
:10369000B001002000003443000034C32DE9F04F96
:1036A000DFF8D4A0ADF2244DDAF8000020B34FF4D7
:1036B0008062324904A8FCF793FD0026DFF8C09031
:1036C00035460DF1100800BF05EB850158F8213093
:1036D0004B4541D108EB8104277C042F37D24FF0B2
:1036E000FF31DAF8000004F013FA012806D0394659
:1036F00024A001F029FE2FE02FA03AE0354807EB87
:10370000470200EB021061680160A1684160E16856
:10371000002381601A461946DAF8000004F04CF8DC
:10372000761CE068FCF7B5FFCDE90201A068FCF764
:10373000B0FF00908B466068FCF7ABFF02460B467B
:1037400039462548CDF804B001F0FEFD04E02A46D4
:10375000394622A001F0F8FD6D1C332DB4D33EB1E3
:1037600031462DA001F0F0FD0DF2244DBDE8F08FA3
:1037700032A001F0E9FDF7E74000002000FC00085E
:10378000EFBEADDE4661696C656420746F207461C4
:103790006B6520504944206D75746578206475729E
:1037A000696E67206C6F616420666F722074797037
:1037B00065202564210A0000504944204D75746538
:1037C00078206E6F7420696E697469616C697A65BE
:1037D00064210A00F00000205C8200085761726ECC
:1037E000696E673A20496E76616C6964205049447D
:1037F000207479706520256420666F756E64206979
:103800006E20466C61736820617420696E6465780F
:103810002025642E0A0000004C6F61646564202539
:10382000642050494420706172616D732066726F2C
:103830006D20466C6173682E0A0000004E6F207682
:10384000616C69642050494420706172616D73201D
:10385000666F756E6420696E20466C6173682E20F9
:103860005573696E672064656661756C74732E0AA2
:1038700000000000002906D00A4601464FF0FF3341
:103880000148FFF78DBE70470404002070B5002486
:103890000646254606EB840045640565C56506EBCE
:1038A0004400858145820583641CE4B2032CF1D376
:1038B000316033811AA0726003F0B5FB80216B2068
:1038C00002F072FE4FF4FA642046FDF7CDFE80212F
:1038D0006B2002F069FE2046FDF7C6FE01216B2039
:1038E00002F062FE00216C2002F05EFE0021192031
:1038F00002F05AFE18211B2002F056FE18211C204F
:1039000002F052FE00211D2002F04EFE00211A207E
:1039100002F04AFE64213046FDF7D8FB012070BD5D
:103920004E6F7720496E697469616C697A696E6758
:10393000204D5055393235300D0A000070B504461F
:10394000134E06213B2002F003FE124D288840BA98
:10395000A081B4F90C00FCF764FE3146FCF7EDFCE5
:103960006064688840BAE081B4F90E00FCF759FE43
:103970003146FCF7E2FCA064A88840BA2082B4F982
:103980001000FCF74EFE3146FCF7D7FCE06470BD3A
:10399000CDCC9C3B3C3200202DE9F0410446062171
:1039A000432002F0D5FD174D288840BA6082B4F953
:1039B0001200FCF744FE144E144F32463B46FCF70F
:1039C000AAFDFCF779FE2065688840BAA082B4F9A8
:1039D0001400FCF734FE32463B46FCF79CFDFCF736
:1039E0006BFE6065A88840BAE082B4F91600FCF767
:1039F00026FE32463B46FCF78EFDFCF75DFEA065D9
:103A0000BDE8F0813C320020FCA9F1D24D6230408B
:103A10002DE9F041044600260321102002F07EFD2E
:103A2000394F0121032002F079FD3878354660F3E3
:103A300007050121092002F071FD0121042002F097
:103A40006DFD3878012160F30F25092002F066FD35
:103A50000121052002F062FD3878012160F317454D
:103A6000092002F05BFD0121062002F057FD3878A5
:103A7000012160F31F65092002F050FD012107209C
:103A800002F04CFD3878012160F30706092002F0AE
:103A900045FD0121082002F041FD3878012160F345
:103AA0000F26092002F03AFD258328146083A6839F
:103AB000B4F91800B4F91800FCF7C1FD134E4FF02B
:103AC00033352A463346FCF7B4FCFCF7F5FDE065D8
:103AD000B4F91A00B4F91A00FCF7B1FD2A463346CE
:103AE000FCF7A7FCFCF7E8FD2066B4F91C00B4F96C
:103AF0001C00FCF7A4FD2A463346FCF79AFCFCF7B1
:103B0000DBFD6066BDE8F0813C3200203333C33F0B
:103B10002DE9F04786B000243748009401940294C0
:103B20000394816941F010018161816901F0100104
:103B30000491816941F020018161816901F02001D6
:103B40000491816941F004018161816901F00401FE
:103B50000491816941F0080181618069DFF89C80EE
:103B600000F008004FF4005504900022294640461A
:103B7000FEF76CF9DFF888A000224FF43041504680
:103B8000FEF764F9DFF87C904FF4106700223946A5
:103B90004846FEF75BF901224FF448715046FEF7A4
:103BA00055F90095022601250396CDE90154694691
:103BB0004046FEF75BF84BF22000CDE90005CDE969
:103BC000024669465046FEF751F800970396CDE944
:103BD000015469464846FEF749F84FF44070CDE974
:103BE00000050320CDE9024069465046FEF73EF845
:103BF00006B0BDE8F0870000001002400010014050
:103C0000000C0140000801400F4810B50D4901604B
:103C10004FF48271416000218160C1604FF40072F5
:103C20000161C0E905123822C0E9072141628162C1
:103C30000A21C162FEF769FC002801D072B6FEE7D6
:103C400010BD000000300140D402002010B58CB03F
:103C500024216846FCF7DDFA0024154809944FF04A
:103C600080410A94C0E900144FF6FF71C0E9024197
:103C7000046184610120CDE90004CDE902040494CB
:103C8000CDE905400794694609480894FFF736F8DE
:103C900008B172B6FEE7099409A905480A94FEF72F
:103CA0001DFF002801D072B6FEE70CB010BD000069
:103CB0002C03002010B58EB00024079408940994BA
:103CC0000A940B941C2168460C94FCF7A2FA26482F
:103CD000244901600121C0E9011440F2AF41C0E96B
:103CE00003148461FEF72EFF08B172B6FEE74FF4AD
:103CF0008050079007A91C48FEF792FF08B172B6E2
:103D0000FEE71948FFF7B9F908B172B6FEE70B9460
:103D10000BA915480C94FEF7E1FE08B172B6FEE758
:103D20006020CDE900040294082269460E480494FC
:103D3000FFF73DF908B172B6FEE70C2269460A4862
:103D4000FFF735F908B172B6FEE708210648FFF71C
:103D5000C3F90C210448FFF7BFF90348FFF700F946
:103D60000EB010BD000400407403002010B58CB0EC
:103D700024216846FCF74DFA00241548099413499C
:103D80000A94C0E900144FF6FF71C0E902410461D2
:103D900084610120CDE90004CDE902040494CDE959
:103DA0000540079469460A480894FEF7A7FF08B142
:103DB00072B6FEE7099409A905480A94FEF78EFE3B
:103DC000002801D072B6FEE70CB010BD000800401C
:103DD000BC03002010B5094C01464FF07E52002074
:103DE000C4E9022020616061A061E061206220706E
:103DF0001046FCF7D4FA606210BD00000C000020F1
:103E00002DE9F0412E4C21690F463846FCF795FA12
:103E1000E168054688464046FCF78FFA4FF07C562D
:103E20003146FCF787FA2946FCF781FA0546384601
:103E30006169FCF782FA07464146A068FCF77DFA03
:103E40003946FCF722FA294602F040F8A0622169BF
:103E5000A068FCF772FA05466169E068FCF76DFA44
:103E60002946FCF764FAB101FCF767FA01F09CFF00
:103E7000E062616988464046FCF75FFA21690546C1
:103E80000F463846FCF759FA3146FCF753FA2946F3
:103E9000FCF74DFA05464146A068FCF74EFA064687
:103EA0003946E068FCF749FA3146FCF7EEF9294655
:103EB00002F00CF8206301202070BDE8F0810000C2
:103EC0000C00002070B504464FF0FF31FCF7A5FA56
:103ED00005461148A0EB640421462846FCF72DFA5C
:103EE0002146FCF72AFA4FF07F563146FCF722FABA
:103EF0002146FCF722FA044601462846FCF71DFA43
:103F00002146FCF71AFA3146FCF714FA2146BDE8BF
:103F10007040FCF712BA0000DF59375F2DE9FF4F00
:103F200083B0D74DDDE910890F461C461646294659
:103F3000FCF703FA834629463846FCF7FEF904905D
:103F400029463046FCF7F9F9DFF838A3054614F0A6
:103F5000FF4F05D118F0FF4F02D119F0FF4F7CD071
:103F600049460846FCF7E9F9074641460846FCF78A
:103F7000E4F9064621460846FCF7DFF93146FCF72E
:103F800084F93946FCF781F9FFF79CFF06460146A4
:103F90002046FCF7D2F9069031464046FCF7CDF9B1
:103FA000109031464846FCF7C8F91190DAF8101025
:103FB0000191DAF8080054468146FCF7BEF907463D
:103FC0006169E0680E460090FCF7B7F93946FCF7E6
:103FD000AEF9804631460198FCF7AFF907464846EE
:103FE0000099FCF7AAF93946FCF74FF90746314624
:103FF0000846FCF7A2F9064649460846FCF79DF933
:104000004FF07C51FCF793F93146FCF73EF9064638
:1040100039461198FCF791F9814631461098FCF722
:104020008CF94946FCF783F9029031460698FCF773
:1040300084F9064641461198FCF77FF93146FCF7B2
:1040400076F9019041461098FCF777F90646394613
:104050000698FCF772F9314600E059E0FCF767F981
:10406000814660688046B0F5000F34DB4046029917
:10407000FCF763F9616A0091FCF75FF9A169FCF74D
:1040800004F9A061074640460199FCF756F90099EA
:10409000FCF753F9E169FCF7F8F80646E061494698
:1040A0004046FCF74AF90099FCF747F9216AFCF70A
:1040B000ECF88046206239465846FCF7E6F883461D
:1040C00031460498FCF7E1F8049041462846FCF795
:1040D000DCF8054603E00020A061E06120626A4C44
:1040E00002982146FCF729F95946FCF7CEF8834699
:1040F00021460198FCF721F90499FCF7C6F80490D1
:1041000021464846FCF719F92946FCF7BEF8054652
:104110004FF0FF315446DAF82400FCF77EF90646EA
:104120005946FCF70AF9039030460499FCF705F963
:10413000049030462946FCF700F98346D4E9035041
:10414000A66882466069B14659460090FCF7F5F8CA
:10415000804650460499FCF7F0F8074685F0004089
:104160000399FCF7EAF83946FCF7E1F84146FCF719
:10417000DEF83146FCF789F8A06080460499009883
:10418000FCF7DBF8074659465046FCF7D6F80646DA
:1041900049460398FCF7D1F83146FCF776F83946E2
:1041A000FCF7C5F82946FCF770F8E060074600996F
:1041B0000398FCF7C2F8019059462846FCF7BDF871
:1041C000064648460499FCF7B8F83146FCF7AFF8C4
:1041D0000199FCF75AF85146FCF757F8064620615A
:1041E00051460398FCF7A9F8824628460499FCF743
:1041F000A4F8054659464846FCF79FF82946FCF7BF
:1042000044F85146FCF793F80099FCF73EF8014654
:104210006061FCF792F8814631460846FCF78DF85C
:10422000054639460846FCF788F8064641460846E2
:10423000FCF783F83146FCF728F82946FCF725F807
:104240004946FCF722F8FFF73DFE05460146A06807
:10425000FCF773F8A0602946E068FCF76EF8E060B0
:1042600029462069FCF769F8206129466069FCF756
:1042700064F860610020207007B0BDE8F08F000096
:1042800039FA8E3C0C00002000007042FEE7FEE789
:104290002DE9F04104460168C06900F03DF8B4F929
:1042A000EA00FCF7BEF90546E069016AD4F8E400CB
:1042B000FBF7EBFF01462A46A06AFCF7C0FEA06AA6
:1042C000006AFCF7CDF9FCF7ACF9216B05460E6AE4
:1042D0003146FBF7DAFFFCF7C3F90D4F3146386082
:1042E0002846FCF724F8FCF7BBF9786094F8FD0049
:1042F0004FF4487538B1002000F022FA0020BDE8E4
:10430000F04100F04FBA284600F01AFA2846F6E7C6
:1043100004000020816270472DE9F0410446084600
:10432000E160A16AFCF703F801466061E069FBF710
:10433000ACFFE061A169FCF7DBF9A06908D380F06C
:104340000040E169FCF7D4F903D2A06980F0004095
:10435000E061D4E904163046FBF7E9FFA168FBF7FA
:10436000ECFF0546E1696068FBF7E7FF0746314669
:104370002068FBF7E2FF3946FBF787FF2946FBF78A
:1043800084FF2062616AFCF7B3F9606A08D380F0A9
:104390000040216AFCF7ACF903D2606A80F000406B
:1043A000206260692061206ABDE8F081F8B50446AA
:1043B00040684FF48273984217D1A0684FF480652B
:1043C000B0F5004F01D0A8420FD12068066826F052
:1043D000400606606068984207D1A068A84204D1F0
:1043E00000920B460022012103E000920B460022BE
:1043F0008021204600F022F8002804D0606D40F0B3
:10440000200060650320F8BDF8B515460E460B4642
:10441000009204460122022100F010F840B9334610
:10442000002280212046009500F008F8002804D0E2
:10443000606D40F0200060650320F8BD2DE9F84371
:104440001E46914688460446089DFDF705FD401B23
:10445000351AFDF701FD074625480068C0F3CB304B
:10446000684338E0701C37D0FDF7F6FCC01BA8424B
:1044700003D215B1009860B32CE02068416821F0A8
:10448000E00141606068B0F5827F0BD1A068B0F5B3
:10449000004F02D0B0F5806F04D12068016821F090
:1044A00040010160A06AB0F5005F09D12068016891
:1044B00021F4005101602068016841F4005101605D
:1044C000012084F85100002084F850000320BDE84A
:1044D000F8830025401E00902068816838EA0100BA
:1044E00004D000214945BDD10020F0E70121F9E7C2
:1044F000680000202DE9F04F83465E48ADF2244D60
:104500009A4600689046894678B34FF480625A49CB
:1045100004A8FBF765FE594B4FF0FF31002004AAB9
:1045200000EB800552F825409C4221D102EB850525
:104530002E7C5E451CD100EB800002EB8000C0F8B1
:104540000CA0C0E901985046FCF7A3F806460F46B8
:104550004046FCF79EF804460D464846FCF799F89D
:1045600002460B465946464829E0FFE745A02EE0A3
:104570009C4202D04C1C00D10146401C3328CFD3B2
:10458000481C27D001EB810042F8203002EB80006C
:1045900080F810B0C0F80CA0C0E901985046FCF7B4
:1045A00078F806460F464046FCF773F804460D4679
:1045B0004846FCF76EF802460B46394859468DE8E6
:1045C000F00000F0C1FEFDF73DFB40B135A000F06A
:1045D000BBFE2DE0594639A000F0B6FE28E00020D1
:1045E000CDF80C040120244DCDF81804CDF8145456
:1045F0000DF21C410DF20C40FDF786FA18B13EA0F9
:1046000000F0A2FE12E004AF4FF480765FF00004E9
:1046100005EB840157F8242000230220FDF7D2FA8D
:1046200058B105EB84013AA000F08EFEFDF7C0FA08
:1046300000200DF2244DBDE8F08F641CB442E7D396
:10464000FDF7B6FA5046FCF724F806460F464046FA
:10465000FCF71FF804460D464846FCF71AF88DE8AB
:10466000F0000B4602465946344800F06DFE01202A
:10467000DFE700004000002000FC0008EFBEADDED8
:10468000A4820008504944204D75746578206E6FEF
:104690007420696E697469616C697A6564210A00C5
:1046A000F0820008466C61736820756E6C6F636BF6
:1046B000206661696C6564210A0000004572726FB2
:1046C000723A204E6F20737061636520746F20739F
:1046D0006176652050494420706172616D73206677
:1046E0006F7220747970652025642E205061676593
:1046F0002066756C6C2E0A00466C617368206572CA
:10470000617365206661696C6564210A00000000C0
:10471000466C6173682070726F6772616D206661AC
:10472000696C6564206174206164647265737320D0
:1047300030782530386C58210A0000003C8300088E
:1047400070B5114D114E040010D4012211462846B7
:10475000FDF77CFB002202212846FDF777FB21466E
:104760000BA002F060FC3068C46370BD0022012120
:104770002846FDF76BFB012202212846FDF766FB68
:1047800031686042C86370BD0008014074030020B6
:104790004D6F746F7220412050574D3A2025640AA6
:1047A0000000000070B50F4D0F4E04000CD4012224
:1047B00040212846FDF74AFB002280212846FDF7CC
:1047C00045FB3068046470BD002240212846FDF797
:1047D0003DFB012280212846FDF738FB316860420D
:1047E000086470BD000C01407403002080E80E00D6
:1047F0007047000008B503F0E7FA0E4C00906068BF
:1048000008B10DA100E00DA10EA002F00CFC114EAC
:104810004FF40055002229463046FDF717FBFCF700
:10482000DBFF6069FFF734FD1421684602F068FD84
:10483000F0E70000400000204F4B00004E554C4C6C
:104840000000000051756575652069732025730AA5
:10485000000000000010014038B50C48FEF796FC3F
:104860000A4C206801684068009080220849204670
:10487000FEF786FE20B107A002F0D5FB72B6FEE778
:104880002068C16841F01001C16038BD04040020F7
:1048900094340020444D4120537461727420466169
:1048A000696C6564210D0A0010B54FF0E0200069C5
:1048B00003F07CFA012803D0BDE8104002F0C2BE2C
:1048C00010BD30B58FB028216846FBF7A2FC14213B
:1048D0000AA8FBF79EFC01210804CDE90010002482
:1048E000029402250491CDE907504FF4E01009909D
:1048F0006846FDF777FC08B172B6FEE70F20CDE9F8
:104900000A054FF48060CDE90C4002210AA80E94FC
:10491000FDF76CFB002801D072B6FEE70FB030BD8A
:10492000704700000148FEF782BA0000FC04002036
:10493000F0B50268194B1A4C1A4D4FF08047984257
:1049400005D0B84203D0A04201D0A84203D122F042
:1049500070064A683243984205D0B84203D0A0425C
:1049600001D0A84203D122F44074CA6822434C69A2
:1049700022F08002224302608A68C2620A68826270
:10498000984201D109690163012141610169C907A7
:1049900003D0016921F001010161F0BD002C01404B
:1049A000000400400008004010B501F01F03012181
:1049B000046A99408C430462016A9A40114301627F
:1049C00010BD10B5846842EA032224F47F440A43F0
:1049D0002243826010BD826822F070020A4342F0D6
:1049E000070181607047000030B5036A026A22F057
:1049F000010202624268846924F073050C682C434A
:104A000023F002058B682B430A4DA8420BD123F0FB
:104A10000805CB6822F440722B434D6923F0040350
:104A200015438A692A43426084614968416303628D
:104A300030BD0000002C014030B5026A036A23F04B
:104A400010030362436884690D6824F4E64444EA71
:104A500005248D6822F0200242EA05120B4DA8427F
:104A60000ED1CD6822F0800242EA05124D6923F48E
:104A7000406343EA85038D6922F0400243EA8503DF
:104A80004360846149688163026230BD002C01404B
:104A900030B5036A026A22F4807202624268C46915
:104AA00023F4007324F073050C682C438D6843EAEB
:104AB00005230C4DA8420ED1CD6823F4006343EAD0
:104AC00005234D6922F4405242EA05128D6923F410
:104AD000806342EA05124260C4614968C1630362AF
:104AE00030BD0000002C014030B5046A026A22F497
:104AF000805202624268C3690D6823F4E64343EAC8
:104B000005238D6824F4005444EA0534064DA84278
:104B100004D14D6922F4804242EA85124260C361A9
:104B200049680164046230BD002C014010B5036A7D
:104B3000046A24F001040462846924F0F00444EA65
:104B4000021423F00A020A438461026210BD10B508
:104B5000036A046A24F010040462846923F0A00349
:104B600024F4704444EA023243EA01118261016292
:104B700010BD00002DE9F04389B0144698B194B1FE
:104B800089B180290FD8064634A1FBF74DFB0028D8
:104B90000AD0083005462221FBF758FB002803D035
:104BA000471B142F03DB002009B0BDE8F08314215C
:104BB00004A8FBF72EFB3A46294604A8FBF710FB96
:104BC00029A13046FBF730FB0028EDD00021401D25
:104BD00002F01FFA814626A13046FBF725FB00288C
:104BE000E2D00021401D02F014FA804622A1304696
:104BF000FBF71AFB0028D7D00021401D02F009FA6C
:104C0000C4F80092C4E981801D4F0646002500BF0C
:104C100057F8351004A8FBF72AFBC0B16D1C032D13
:104C2000F6D33046FBF735FD06460F464046FBF708
:104C300030FD04460D464846FBF72BFD8DE8F0009D
:104C400002460B4604A90FA000F07EFB04E007EB30
:104C5000C500007984F80C020120A5E72274797060
:104C600065223A2200000000226B70223A00000008
:104C7000226B69223A000000226B64223A00000095
:104C800090810008506172736564205049443A2055
:104C9000747970653D25732C204B703D252E33664D
:104CA0002C204B693D252E33662C204B643D252E50
:104CB00033660A0010B5406A0021C185C184FEF741
:104CC0009DFA10BD70B5446A2068406994F841109F
:104CD000C0F3C0100025212904D118B1E584204675
:104CE00000F08EF82068406994F84210C0F38010FC
:104CF000222904D118B1E585204600F05AF8606CED
:104D000040F0100060642046FEF778FA70BD10B5E0
:104D10000146406A096809684FF0000289062ED4EE
:104D2000C28501680C3151E8003F23F4807341E8EB
:104D30000034002CF5D10168143151E8003F23F014
:104D4000010341E80034002CF5D10168143151E829
:104D5000003F23F0400341E80034002CF5D120212E
:104D600080F84210016B012909D101680C3151E82A
:104D7000003F23F0100341E80034002CF5D14263DA
:104D8000016B012902D0FEF709FC10BD818DFEF7F1
:104D9000FCF910BD10B5406A01214163016B012986
:104DA00002D0FEF7FCFB10BD818D4908FEF7EDF93E
:104DB00010BD01680C3151E8002F22F4907241E8D7
:104DC0000023002BF5D10168143151E8002F22F0A7
:104DD000010241E80023002BF5D1016B012909D123
:104DE00001680C3151E8002F22F0100241E8002345
:104DF000002BF5D1202180F842100021016370477B
:104E000001680C3151E8002F22F0C00241E8002374
:104E1000002BF5D1202180F84110704708B590F89B
:104E20004210222901D0022008BD82684FF480532D
:104E30009A4201D1016921B1816A9A421BD04AB1DB
:104E40000AE00268816A5268C2F308020A80816A35
:104E5000891C08E0026972B10268526802F07F02A0
:104E60000A70816A491C8162C18D491E0904090CBE
:104E7000C18503D01BE002685268F1E70168CA6887
:104E800022F02002CA600168CA6822F48072CA60F7
:104E900001684A6922F001024A61202180F842102B
:104EA00000214163026B012A03D0FEF777FB00204B
:104EB00008BD016301680C3151E8002F22F0100297
:104EC00041E80023002BF5D101680A68D20602D51B
:104ED0000A6849680091818DFEF757F9E7E70000FD
:104EE00070B5044600680169E26821F4405111433D
:104EF00001612169A0680843616908432168CA68A3
:104F000041F20C639A430243CA6020684169A26976
:104F100021F44071114341611E492068884202D149
:104F2000FDF72AF901E0FDF717F900EBC00101EBED
:104F30000012606864218000B2FBF0F3B3FBF1F370
:104F40006FF018067343B2FBF0F5B2FBF0F605EB19
:104F50008305322303EB0515B5FBF1F5B6FBF1F63E
:104F600005F0F00505EB0615B2FBF0F6B2FBF0F02C
:104F7000B0FBF1F06FF01802504306EB800003EB3A
:104F80000010B0FBF1F0216800F00F0028448860A9
:104F900070BD00000038014038B58162044682854A
:104FA000002013466064222284F84220E56B1B4AED
:104FB000AA62E56B1A4AEA62E56B1A4A2A63E26B57
:104FC00050630A462168E06B091DFCF753FD206819
:104FD000016840680090206948B120680C3050E8B2
:104FE000001F41F4807140E80012002AF5D12068CA
:104FF000143050E8001F41F0010140E80012002A7F
:10500000F5D12068143050E8001F41F0400140E81D
:105010000012002AF5D1002038BD00000F4D000815
:10502000954D0008C54C00082DE9F84398461746F1
:105030000D460446089E24E0701C22D0FCF70CFFAD
:10504000A0EB0800B0421AD8CEB12068C168490769
:1050500017D5802D15D0402D13D00168C9430907FD
:105060000FD401680025406800902046FFF7A1FE9C
:105070000820606484F840500120BDE8F8830320D4
:10508000FBE72068006835EA000004D00020B84241
:10509000D2D00020F1E70120F9E70000224810B546
:1050A0000168A4B00968C943C90636D40068002461
:1050B0000168406822901C48FEF768F81B480068A9
:1050C0004068C0F1800082B2802A00D90022ADF889
:1050D000802017496846FBF783F81648219400237F
:1050E00021AA6946006802F017FC012803D0124883
:1050F0000168491C016080220D490B48FEF740FA07
:105100002198002807D00D494FF080500860BFF368
:105110004F8FBFF36F8F24B010BD24B00248BDE89D
:105120001040FEF76DB8000004040020B804002011
:1051300094340020440000205800002004ED00E0DA
:10514000ADF5087D3CA001F06EFF424E404F4FF0A0
:10515000FF3806F1820542463E49786802F03CFC81
:105160000128F8D1B6F88040802C00D3802439493A
:10517000224601F18200FBF733F80020285505E0B4
:10518000295C0A2905D00D2903D0401CA042F7DB79
:105190004DE0C5424BD030A001F045FF2D4935A070
:1051A000823100F0D1F82B4804AA21468230FFF763
:1051B000E1FC002839D084A890E80E009DF81C027C
:1051C000FFF798F960B38698FBF763FA06460F4637
:1051D0008598FBF75EFA04460D468498FBF759FA6A
:1051E0008DE8F0000B4602469DF81C122B4801F09A
:1051F0001AFF2BA001F017FF0A20FCF773FC72B610
:10520000642002F057F8BFF34F8F2E4801682E4AF2
:1052100001F4E06111430160BFF34F8F00BFFDE770
:105220002AA000BF01F0FFFE95E732A0FAE7094986
:105230003BA001F0F8FE8EE75B55415254205441EB
:10524000534B5D2053746172746564210D0A000034
:1052500040000020D00100205B55617274526563EC
:10526000765461736B5D5265636569766564204A47
:10527000534F4E005B55617274526563765461738F
:105280006B5D4E6F772050726F63657373696E67E5
:10529000204A534F4E3A2025730D0A00A48300087C
:1052A0005B55617274526563765461736B5D5265D0
:1052B00073657474696E672073797374656D2E2ECF
:1052C0002E0D0A000CED00E00400FA054661696C41
:1052D000656420746F2073617665205049442070A6
:1052E0006172616D7320746F20466C6173682E0D5E
:1052F0000A000000496E76616C69642050494420C0
:105300004A534F4E207265636569766564204F721B
:10531000204E6F7420557064617465642E0D0A0010
:105320005265636569766564204A534F4E20286E46
:105330006F206E65776C696E65293A2025730D0ABA
:1053400000000000FEE700000FB4054B10B503A9F4
:10535000044A029800F09AF910BC5DF814FB0000B2
:1053600071610008C80100207CB50C001D4616467E
:10537000014601D0601E00E00020CDE90010064B80
:105380006A462946304600F081F9002C02D0009A86
:10539000002111707CBD0000935D000841000802EF
:1053A00018BF04200A0E18BF40F001004FF07F42E2
:1053B00032EA010108BF40F00200012808BF0520C1
:1053C00070470907090E002804DB00F1E02080F88F
:1053D0000014704700F00F0000F1E02080F8141D69
:1053E00070470121FBF719B8FAF74FBF00210846B3
:1053F000FAF7D5BF6FF05E010807FBF70EB810B5DE
:105400000446D1E9000100F003F8206010BD00005F
:10541000F8B504460D466A4600F0B4FE00987E30AA
:10542000009000281EDC0022134620462946FBF788
:10543000AFFD17D0002140F60800FBF7C1FD06467E
:1054400020462946FBF738F9044640F6080006EAEC
:105450000001FBF7B5FD34F0004004BF022000F06E
:1054600045F829E00098FF2828DB00210846FBF7D3
:10547000A7FD00F440060022134620462946FBF70C
:1054800017FB8CBF00250125022000F02FF84FF0FC
:10549000FF4446B1002D0CBF4FF400004FF48000D4
:1054A000B04218BF084C04210846FBF789FD002DC7
:1054B00004BF84F00040F8BD2046F8BD20462946D0
:1054C000BDE8F840FBF7F8B8FFFF7F7F02E008C8AF
:1054D000121F08C1002AFAD170477047002001E06E
:1054E00001C1121F002AFBD170470000014908606A
:1054F00070470000CC0100202DE9FF5F82B0002141
:10550000DDE90430020DDDF840B0034318D044F665
:105510001050A2F2FF3242431514119801281FD0F7
:10552000A5EB0B00401C5FEA000A4FF000064E4F4F
:10553000DFF83891B046504615D5CAF1000413E0A3
:10554000119801244AA3012801D16FEA0B010298A6
:10555000119AC0E90031C0E9024206B0BDE8F09FEF
:10556000CBF10000DFE704460021404A491842EB36
:105570000450CDE9001012E0E00707D032463B4668
:1055800040464946FAF755FF8046894632463B4633
:1055900010461946FAF74DFF06460F466410002CD8
:1055A000EAD1DDE90401DDE90023BAF1000F06DAF2
:1055B000FAF73FFF42464B46FAF73BFF05E0FAF7A2
:1055C000AAFF42464B46FAF7A6FF04460E460022C3
:1055D000284BFBF76DFA03D84FF0FF30014607E088
:1055E0000022254B20463146FBF7A3F9FBF748FA8A
:1055F000102409E0002C0ADB0A220023FBF798F8AC
:10560000039B30321A55641E50EA0102F2D1641C29
:10561000039AC4F111031444119A012A03D0012200
:1056200008430DD10AE0084304D000204FF0110BCD
:10563000119072E7A3EB0B056D1E0DE05B4504DDD9
:105640004FF0000205F1010504E003DA4FF000021B
:10565000A5F10105002AECD002981199C0E90231A8
:10566000C0E9004579E70000000014400000F03F69
:10567000300000000000F0430000E03F30380A280E
:1056800001D2012070470020704700002DE9FF4F34
:1056900095B09A46884606460025EEE1252877D142
:1056A00000242746F94A0121039400E0044316F838
:1056B000013F203B01FA03F01042F7D130782A284D
:1056C00011D06FF02F033078A0F13002092A16D8DC
:1056D000039A44F0020402EB820203EB42021044FC
:1056E000761C0390EFE758F8042B0392002A03DAA4
:1056F000504244F40054039044F00204761C307885
:105700002E2816D116F8010F44F004042A280DD0D3
:105710006FF02F023078A0F13003092B09D807EB86
:10572000870302EB4303C718761CF3E758F8047BA2
:10573000761C30786C280FD006DC4C2817D06828EF
:105740000DD06A2814D104E0742810D07A280FD123
:105750000DE044F400140AE044F4801401E044F441
:1057600040147278824202D104F58014761C761CB3
:10577000307866280BD013DC582877D009DC002855
:1057800075D04528F6D04628F4D047281AD193E1A1
:1057900018E0632835D0642879D0652812D18BE1D0
:1057A000702873D008DC6728F1D069286FD06E2884
:1057B0000DD06F2806D1ACE073282CD0752874D09A
:1057C000782853D05246179990476D1C54E1C4F382
:1057D0000250022809D003280DD0D8F80010042860
:1057E0000DD00D6008F1040846E1D8F80010EA1762
:1057F000C1E90052F6E7D8F800100D80F2E70D700D
:10580000F0E718F8041B8DF8001000208DF8010057
:10581000EB46012003E058F804BB4FF0FF3061076E
:105820004FF0000102D40DE009F101018946B942AF
:105830000FDA8145F8DB1BF809100029F4D108E0E4
:1058400009F1010189468142FADB1BF809100029A0
:10585000F6D103985346A0EB090721463846179A1C
:1058600000F080FA284400EB090507E044E008E175
:105870000DE01BF8010B524617999047B9F1010949
:10588000F7D2534621463846179AF2E039E00A210A
:10589000C4F302524FF0000B0091022A06D058F8D0
:1058A000040BC117032A09D00AE023E008F107001E
:1058B00020F00702F2E80201904605E000B2C117AD
:1058C000042A01D140B2C117002906DA0A46002194
:1058D000404261EB02012D2202E0220504D52B2279
:1058E0008DF80420012203E0E20701D02022F7E72F
:1058F000914657E00A2100E010214FF0000B009183
:105900000BE010214FF0000B44F004040827009135
:1059100003E008204FF0000B0090C4F30252022A6B
:1059200005D058F8040B0021032A08D008E008F13C
:10593000070020F00702F2E80201904603E080B27F
:10594000042A00D1C0B24FF0000922072AD53278CC
:10595000702A07D0DDF800C08CF0100C5CEA0B0C4C
:1059600005D00EE040228DF80420012208E050EA24
:10597000010306D030238DF804308DF80520022273
:105980009146009B83F0080353EA0B030AD150EAC7
:10599000010201D1620705D530228DF804204FF0B5
:1059A00001097F1E3278582A04D039A20C920CAA21
:1059B00002920BE03BA2F9E75B46009AFAF7B8FEC9
:1059C0000C9B9B5C029A521E0292137050EA0102D9
:1059D000F2D1029804A9081A00F1200B600702D541
:1059E00024F4803400E001275F4502DDA7EB0B00C3
:1059F00000E0002000EB0B01009003984944401A9E
:105A00000390E00306D453462146179A039800F00A
:105A1000A9F90544002706E001A85246C05D179980
:105A200090476D1C7F1C4F45F6DBE0030CD55346B9
:105A30002146179A039800F095F9054404E03020B8
:105A40005246179990476D1C0099481E00900029F6
:105A5000F5DC08E00298029952460078491C029150
:105A6000179990476D1CBBF10001ABF1010BF1DC04
:105A70005BE100F065F90544761C307800287FF47E
:105A80000DAE19B02846BDE8F08F000009280100CE
:105A900030313233343536373839616263646566A4
:105AA0000000000030313233343536373839414266
:105AB0004344454600000000600700D4062708F173
:105AC000070020F00700F0E80223804603F0004CB6
:105AD0005FEA0C0001D097A009E0200501D596A04F
